{"contracts/DarkPoolDEX.sol":{"DarkPoolDEX":{"abi":[{"inputs":[{"internalType":"uint256","name":"_minOrderSize","type":"uint256"},{"internalType":"uint256","name":"_maxOrderSize","type":"uint256"},{"internalType":"uint256","name":"_commitmentWindow","type":"uint256"},{"internalType":"uint256","name":"_revealWindow","type":"uint256"},{"internalType":"uint256","name":"_tradingFee","type":"uint256"}],"stateMutability":"nonpayable","type":"constructor"},{"anonymous":false,"inputs":[{"indexed":false,"internalType":"uint256","name":"oldDynamicFee","type":"uint256"},{"indexed":false,"internalType":"uint256","name":"newDynamicFee","type":"uint256"},{"indexed":false,"internalType":"string","name":"reason","type":"string"}],"name":"DynamicFeeUpdated","type":"event"},{"anonymous":false,"inputs":[{"indexed":true,"internalType":"address","name":"trader","type":"address"},{"indexed":false,"internalType":"uint256","name":"amount","type":"uint256"},{"indexed":false,"internalType":"uint256","name":"timestamp","type":"uint256"}],"name":"EmergencyWithdrawExecuted","type":"event"},{"anonymous":false,"inputs":[{"indexed":true,"internalType":"address","name":"trader","type":"address"},{"indexed":false,"internalType":"uint256","name":"requestTime","type":"uint256"},{"indexed":false,"internalType":"string","name":"reason","type":"string"}],"name":"EmergencyWithdrawRequested","type":"event"},{"anonymous":false,"inputs":[{"indexed":false,"internalType":"address","name":"oldCollector","type":"address"},{"indexed":false,"internalType":"address","name":"newCollector","type":"address"}],"name":"FeeCollectorUpdated","type":"event"},{"anonymous":false,"inputs":[{"indexed":false,"internalType":"uint256","name":"oldFee","type":"uint256"},{"indexed":false,"internalType":"uint256","name":"newFee","type":"uint256"}],"name":"FeeUpdated","type":"event"},{"anonymous":false,"inputs":[{"indexed":true,"internalType":"bytes32","name":"commitment","type":"bytes32"},{"indexed":true,"internalType":"address","name":"trader","type":"address"},{"indexed":false,"internalType":"uint256","name":"timestamp","type":"uint256"}],"name":"OrderCancelled","type":"event"},{"anonymous":false,"inputs":[{"indexed":true,"internalType":"bytes32","name":"commitment","type":"bytes32"},{"indexed":true,"internalType":"address","name":"trader","type":"address"},{"indexed":false,"internalType":"uint256","name":"timestamp","type":"uint256"}],"name":"OrderCommitted","type":"event"},{"anonymous":false,"inputs":[{"indexed":false,"internalType":"uint256","name":"minSize","type":"uint256"},{"indexed":false,"internalType":"uint256","name":"maxSize","type":"uint256"}],"name":"OrderLimitsUpdated","type":"event"},{"anonymous":false,"inputs":[{"indexed":true,"internalType":"bytes32","name":"commitment1","type":"bytes32"},{"indexed":true,"internalType":"bytes32","name":"commitment2","type":"bytes32"},{"indexed":false,"internalType":"address","name":"trader1","type":"address"},{"indexed":false,"internalType":"address","name":"trader2","type":"address"},{"indexed":false,"internalType":"uint256","name":"amount1","type":"uint256"},{"indexed":false,"internalType":"uint256","name":"amount2","type":"uint256"}],"name":"OrderMatched","type":"event"},{"anonymous":false,"inputs":[{"indexed":true,"internalType":"bytes32","name":"commitment","type":"bytes32"},{"indexed":true,"internalType":"address","name":"trader","type":"address"},{"indexed":false,"internalType":"address","name":"tokenIn","type":"address"},{"indexed":false,"internalType":"address","name":"tokenOut","type":"address"},{"indexed":false,"internalType":"uint256","name":"amountIn","type":"uint256"},{"indexed":false,"internalType":"uint256","name":"amountOut","type":"uint256"},{"indexed":false,"internalType":"bool","name":"isBuy","type":"bool"}],"name":"OrderRevealed","type":"event"},{"anonymous":false,"inputs":[{"indexed":false,"internalType":"address","name":"account","type":"address"}],"name":"Paused","type":"event"},{"anonymous":false,"inputs":[{"indexed":true,"internalType":"bytes32","name":"role","type":"bytes32"},{"indexed":true,"internalType":"bytes32","name":"previousAdminRole","type":"bytes32"},{"indexed":true,"internalType":"bytes32","name":"newAdminRole","type":"bytes32"}],"name":"RoleAdminChanged","type":"event"},{"anonymous":false,"inputs":[{"indexed":true,"internalType":"bytes32","name":"role","type":"bytes32"},{"indexed":true,"internalType":"address","name":"account","type":"address"},{"indexed":true,"internalType":"address","name":"sender","type":"address"}],"name":"RoleGranted","type":"event"},{"anonymous":false,"inputs":[{"indexed":true,"internalType":"bytes32","name":"role","type":"bytes32"},{"indexed":true,"internalType":"address","name":"account","type":"address"},{"indexed":true,"internalType":"address","name":"sender","type":"address"}],"name":"RoleRevoked","type":"event"},{"anonymous":false,"inputs":[{"indexed":true,"internalType":"address","name":"trader","type":"address"},{"indexed":false,"internalType":"uint256","name":"finalBalance","type":"uint256"}],"name":"StateChannelClosed","type":"event"},{"anonymous":false,"inputs":[{"indexed":true,"internalType":"address","name":"trader","type":"address"},{"indexed":false,"internalType":"uint256","name":"balance","type":"uint256"},{"indexed":false,"internalType":"uint256","name":"nonce","type":"uint256"}],"name":"StateChannelOpened","type":"event"},{"anonymous":false,"inputs":[{"indexed":true,"internalType":"address","name":"trader","type":"address"},{"indexed":false,"internalType":"uint256","name":"newBalance","type":"uint256"},{"indexed":false,"internalType":"uint256","name":"newNonce","type":"uint256"}],"name":"StateChannelUpdated","type":"event"},{"anonymous":false,"inputs":[{"indexed":true,"internalType":"address","name":"trader1","type":"address"},{"indexed":true,"internalType":"address","name":"trader2","type":"address"},{"indexed":false,"internalType":"address","name":"tokenIn","type":"address"},{"indexed":false,"internalType":"address","name":"tokenOut","type":"address"},{"indexed":false,"internalType":"uint256","name":"amount1","type":"uint256"},{"indexed":false,"internalType":"uint256","name":"amount2","type":"uint256"},{"indexed":false,"internalType":"uint256","name":"timestamp","type":"uint256"}],"name":"TradeExecuted","type":"event"},{"anonymous":false,"inputs":[{"indexed":false,"internalType":"address","name":"account","type":"address"}],"name":"Unpaused","type":"event"},{"anonymous":false,"inputs":[{"indexed":false,"internalType":"uint256","name":"commitmentWindow","type":"uint256"},{"indexed":false,"internalType":"uint256","name":"revealWindow","type":"uint256"}],"name":"WindowsUpdated","type":"event"},{"inputs":[],"name":"DEFAULT_ADMIN_ROLE","outputs":[{"internalType":"bytes32","name":"","type":"bytes32"}],"stateMutability":"view","type":"function"},{"inputs":[],"name":"EMERGENCY_ROLE","outputs":[{"internalType":"bytes32","name":"","type":"bytes32"}],"stateMutability":"view","type":"function"},{"inputs":[],"name":"EMERGENCY_TIMELOCK","outputs":[{"internalType":"uint256","name":"","type":"uint256"}],"stateMutability":"view","type":"function"},{"inputs":[],"name":"FEE_ADJUSTMENT_COOLDOWN","outputs":[{"internalType":"uint256","name":"","type":"uint256"}],"stateMutability":"view","type":"function"},{"inputs":[],"name":"MAX_COMMITMENT_WINDOW","outputs":[{"internalType":"uint256","name":"","type":"uint256"}],"stateMutability":"view","type":"function"},{"inputs":[],"name":"MAX_DYNAMIC_FEE","outputs":[{"internalType":"uint256","name":"","type":"uint256"}],"stateMutability":"view","type":"function"},{"inputs":[],"name":"MAX_FEE_BPS","outputs":[{"internalType":"uint256","name":"","type":"uint256"}],"stateMutability":"view","type":"function"},{"inputs":[],"name":"MAX_REVEAL_WINDOW","outputs":[{"internalType":"uint256","name":"","type":"uint256"}],"stateMutability":"view","type":"function"},{"inputs":[],"name":"MIN_COMMITMENT_WINDOW","outputs":[{"internalType":"uint256","name":"","type":"uint256"}],"stateMutability":"view","type":"function"},{"inputs":[],"name":"MIN_DYNAMIC_FEE","outputs":[{"internalType":"uint256","name":"","type":"uint256"}],"stateMutability":"view","type":"function"},{"inputs":[],"name":"MIN_REVEAL_WINDOW","outputs":[{"internalType":"uint256","name":"","type":"uint256"}],"stateMutability":"view","type":"function"},{"inputs":[],"name":"OPERATOR_ROLE","outputs":[{"internalType":"bytes32","name":"","type":"bytes32"}],"stateMutability":"view","type":"function"},{"inputs":[{"internalType":"address","name":"tokenIn","type":"address"},{"internalType":"address","name":"tokenOut","type":"address"},{"internalType":"uint256","name":"amountIn","type":"uint256"},{"internalType":"uint256","name":"amountOut","type":"uint256"},{"internalType":"bool","name":"isBuy","type":"bool"},{"internalType":"uint256","name":"secretNonce","type":"uint256"}],"name":"calculateCommitment","outputs":[{"internalType":"bytes32","name":"","type":"bytes32"}],"stateMutability":"pure","type":"function"},{"inputs":[{"internalType":"address","name":"trader","type":"address"}],"name":"canEmergencyWithdraw","outputs":[{"internalType":"bool","name":"","type":"bool"}],"stateMutability":"view","type":"function"},{"inputs":[{"internalType":"bytes32","name":"commitment","type":"bytes32"}],"name":"cancelOrder","outputs":[],"stateMutability":"nonpayable","type":"function"},{"inputs":[{"internalType":"address","name":"trader","type":"address"},{"internalType":"uint256","name":"finalBalance","type":"uint256"},{"internalType":"bytes","name":"signature","type":"bytes"}],"name":"closeStateChannel","outputs":[],"stateMutability":"nonpayable","type":"function"},{"inputs":[{"internalType":"bytes32","name":"commitment","type":"bytes32"}],"name":"commitOrder","outputs":[],"stateMutability":"nonpayable","type":"function"},{"inputs":[],"name":"commitmentWindow","outputs":[{"internalType":"uint256","name":"","type":"uint256"}],"stateMutability":"view","type":"function"},{"inputs":[],"name":"dailyVolume","outputs":[{"internalType":"uint256","name":"","type":"uint256"}],"stateMutability":"view","type":"function"},{"inputs":[],"name":"disableEmergencyMode","outputs":[],"stateMutability":"nonpayable","type":"function"},{"inputs":[],"name":"emergencyMode","outputs":[{"internalType":"bool","name":"","type":"bool"}],"stateMutability":"view","type":"function"},{"inputs":[],"name":"emergencyModeTime","outputs":[{"internalType":"uint256","name":"","type":"uint256"}],"stateMutability":"view","type":"function"},{"inputs":[{"internalType":"address","name":"","type":"address"}],"name":"emergencyRequests","outputs":[{"internalType":"address","name":"requester","type":"address"},{"internalType":"uint256","name":"requestTime","type":"uint256"},{"internalType":"bool","name":"isExecuted","type":"bool"},{"internalType":"string","name":"reason","type":"string"}],"stateMutability":"view","type":"function"},{"inputs":[],"name":"emergencyWithdraw","outputs":[],"stateMutability":"nonpayable","type":"function"},{"inputs":[],"name":"enableEmergencyMode","outputs":[],"stateMutability":"nonpayable","type":"function"},{"inputs":[{"internalType":"address","name":"trader","type":"address"}],"name":"executeEmergencyWithdraw","outputs":[],"stateMutability":"nonpayable","type":"function"},{"inputs":[],"name":"feeCollector","outputs":[{"internalType":"address","name":"","type":"address"}],"stateMutability":"view","type":"function"},{"inputs":[],"name":"feeConfig","outputs":[{"internalType":"uint256","name":"baseFee","type":"uint256"},{"internalType":"uint256","name":"dynamicFee","type":"uint256"},{"internalType":"uint256","name":"lastAdjustment","type":"uint256"},{"internalType":"uint256","name":"volumeThreshold","type":"uint256"},{"internalType":"uint256","name":"congestionMultiplier","type":"uint256"}],"stateMutability":"view","type":"function"},{"inputs":[],"name":"getCurrentFee","outputs":[{"internalType":"uint256","name":"","type":"uint256"}],"stateMutability":"view","type":"function"},{"inputs":[{"internalType":"address","name":"trader","type":"address"}],"name":"getEmergencyRequest","outputs":[{"components":[{"internalType":"address","name":"requester","type":"address"},{"internalType":"uint256","name":"requestTime","type":"uint256"},{"internalType":"bool","name":"isExecuted","type":"bool"},{"internalType":"string","name":"reason","type":"string"}],"internalType":"struct DarkPoolDEX.EmergencyRequest","name":"","type":"tuple"}],"stateMutability":"view","type":"function"},{"inputs":[],"name":"getFeeConfig","outputs":[{"components":[{"internalType":"uint256","name":"baseFee","type":"uint256"},{"internalType":"uint256","name":"dynamicFee","type":"uint256"},{"internalType":"uint256","name":"lastAdjustment","type":"uint256"},{"internalType":"uint256","name":"volumeThreshold","type":"uint256"},{"internalType":"uint256","name":"congestionMultiplier","type":"uint256"}],"internalType":"struct DarkPoolDEX.FeeConfig","name":"","type":"tuple"}],"stateMutability":"view","type":"function"},{"inputs":[{"internalType":"bytes32","name":"matchId","type":"bytes32"}],"name":"getMatch","outputs":[{"components":[{"internalType":"address","name":"trader1","type":"address"},{"internalType":"address","name":"trader2","type":"address"},{"internalType":"address","name":"tokenIn","type":"address"},{"internalType":"address","name":"tokenOut","type":"address"},{"internalType":"uint256","name":"amount1","type":"uint256"},{"internalType":"uint256","name":"amount2","type":"uint256"},{"internalType":"uint256","name":"timestamp","type":"uint256"},{"internalType":"bool","name":"isSettled","type":"bool"},{"internalType":"bool","name":"isDisputed","type":"bool"}],"internalType":"struct DarkPoolDEX.Match","name":"","type":"tuple"}],"stateMutability":"view","type":"function"},{"inputs":[{"internalType":"bytes32","name":"commitment","type":"bytes32"}],"name":"getOrder","outputs":[{"components":[{"internalType":"address","name":"trader","type":"address"},{"internalType":"address","name":"tokenIn","type":"address"},{"internalType":"address","name":"tokenOut","type":"address"},{"internalType":"uint256","name":"amountIn","type":"uint256"},{"internalType":"uint256","name":"amountOut","type":"uint256"},{"internalType":"uint256","name":"nonce","type":"uint256"},{"internalType":"uint256","name":"timestamp","type":"uint256"},{"internalType":"bool","name":"isBuy","type":"bool"},{"internalType":"bool","name":"isRevealed","type":"bool"},{"internalType":"bool","name":"isExecuted","type":"bool"},{"internalType":"bool","name":"isCancelled","type":"bool"},{"internalType":"bytes32","name":"commitment","type":"bytes32"}],"internalType":"struct DarkPoolDEX.Order","name":"","type":"tuple"}],"stateMutability":"view","type":"function"},{"inputs":[{"internalType":"bytes32","name":"role","type":"bytes32"}],"name":"getRoleAdmin","outputs":[{"internalType":"bytes32","name":"","type":"bytes32"}],"stateMutability":"view","type":"function"},{"inputs":[{"internalType":"address","name":"trader","type":"address"}],"name":"getStateChannel","outputs":[{"components":[{"internalType":"address","name":"trader","type":"address"},{"internalType":"uint256","name":"balance","type":"uint256"},{"internalType":"uint256","name":"nonce","type":"uint256"},{"internalType":"uint256","name":"lastUpdate","type":"uint256"},{"internalType":"bool","name":"isActive","type":"bool"},{"internalType":"uint256","name":"emergencyWithdrawTime","type":"uint256"}],"internalType":"struct DarkPoolDEX.StateChannel","name":"","type":"tuple"}],"stateMutability":"view","type":"function"},{"inputs":[],"name":"getVolumeStats","outputs":[{"internalType":"uint256","name":"","type":"uint256"},{"internalType":"uint256","name":"","type":"uint256"},{"internalType":"uint256","name":"","type":"uint256"}],"stateMutability":"view","type":"function"},{"inputs":[{"internalType":"address","name":"emergency","type":"address"}],"name":"grantEmergencyRole","outputs":[],"stateMutability":"nonpayable","type":"function"},{"inputs":[{"internalType":"address","name":"operator","type":"address"}],"name":"grantOperatorRole","outputs":[],"stateMutability":"nonpayable","type":"function"},{"inputs":[{"internalType":"bytes32","name":"role","type":"bytes32"},{"internalType":"address","name":"account","type":"address"}],"name":"grantRole","outputs":[],"stateMutability":"nonpayable","type":"function"},{"inputs":[{"internalType":"bytes32","name":"role","type":"bytes32"},{"internalType":"address","name":"account","type":"address"}],"name":"hasRole","outputs":[{"internalType":"bool","name":"","type":"bool"}],"stateMutability":"view","type":"function"},{"inputs":[],"name":"lastVolumeReset","outputs":[{"internalType":"uint256","name":"","type":"uint256"}],"stateMutability":"view","type":"function"},{"inputs":[],"name":"matchNonce","outputs":[{"internalType":"uint256","name":"","type":"uint256"}],"stateMutability":"view","type":"function"},{"inputs":[{"internalType":"bytes32","name":"commitment1","type":"bytes32"},{"internalType":"bytes32","name":"commitment2","type":"bytes32"}],"name":"matchOrders","outputs":[],"stateMutability":"nonpayable","type":"function"},{"inputs":[{"internalType":"bytes32","name":"","type":"bytes32"}],"name":"matches","outputs":[{"internalType":"address","name":"trader1","type":"address"},{"internalType":"address","name":"trader2","type":"address"},{"internalType":"address","name":"tokenIn","type":"address"},{"internalType":"address","name":"tokenOut","type":"address"},{"internalType":"uint256","name":"amount1","type":"uint256"},{"internalType":"uint256","name":"amount2","type":"uint256"},{"internalType":"uint256","name":"timestamp","type":"uint256"},{"internalType":"bool","name":"isSettled","type":"bool"},{"internalType":"bool","name":"isDisputed","type":"bool"}],"stateMutability":"view","type":"function"},{"inputs":[],"name":"maxOrderSize","outputs":[{"internalType":"uint256","name":"","type":"uint256"}],"stateMutability":"view","type":"function"},{"inputs":[],"name":"minOrderSize","outputs":[{"internalType":"uint256","name":"","type":"uint256"}],"stateMutability":"view","type":"function"},{"inputs":[{"internalType":"address","name":"trader","type":"address"},{"internalType":"uint256","name":"initialBalance","type":"uint256"}],"name":"openStateChannel","outputs":[],"stateMutability":"payable","type":"function"},{"inputs":[],"name":"orderNonce","outputs":[{"internalType":"uint256","name":"","type":"uint256"}],"stateMutability":"view","type":"function"},{"inputs":[{"internalType":"bytes32","name":"","type":"bytes32"}],"name":"orders","outputs":[{"internalType":"address","name":"trader","type":"address"},{"internalType":"address","name":"tokenIn","type":"address"},{"internalType":"address","name":"tokenOut","type":"address"},{"internalType":"uint256","name":"amountIn","type":"uint256"},{"internalType":"uint256","name":"amountOut","type":"uint256"},{"internalType":"uint256","name":"nonce","type":"uint256"},{"internalType":"uint256","name":"timestamp","type":"uint256"},{"internalType":"bool","name":"isBuy","type":"bool"},{"internalType":"bool","name":"isRevealed","type":"bool"},{"internalType":"bool","name":"isExecuted","type":"bool"},{"internalType":"bool","name":"isCancelled","type":"bool"},{"internalType":"bytes32","name":"commitment","type":"bytes32"}],"stateMutability":"view","type":"function"},{"inputs":[],"name":"pause","outputs":[],"stateMutability":"nonpayable","type":"function"},{"inputs":[],"name":"paused","outputs":[{"internalType":"bool","name":"","type":"bool"}],"stateMutability":"view","type":"function"},{"inputs":[{"internalType":"bytes32","name":"role","type":"bytes32"},{"internalType":"address","name":"account","type":"address"}],"name":"renounceRole","outputs":[],"stateMutability":"nonpayable","type":"function"},{"inputs":[{"internalType":"string","name":"reason","type":"string"}],"name":"requestEmergencyWithdraw","outputs":[],"stateMutability":"nonpayable","type":"function"},{"inputs":[{"internalType":"bytes32","name":"commitment","type":"bytes32"},{"internalType":"address","name":"tokenIn","type":"address"},{"internalType":"address","name":"tokenOut","type":"address"},{"internalType":"uint256","name":"amountIn","type":"uint256"},{"internalType":"uint256","name":"amountOut","type":"uint256"},{"internalType":"bool","name":"isBuy","type":"bool"},{"internalType":"uint256","name":"secretNonce","type":"uint256"}],"name":"revealOrder","outputs":[],"stateMutability":"nonpayable","type":"function"},{"inputs":[],"name":"revealWindow","outputs":[{"internalType":"uint256","name":"","type":"uint256"}],"stateMutability":"view","type":"function"},{"inputs":[{"internalType":"address","name":"emergency","type":"address"}],"name":"revokeEmergencyRole","outputs":[],"stateMutability":"nonpayable","type":"function"},{"inputs":[{"internalType":"address","name":"operator","type":"address"}],"name":"revokeOperatorRole","outputs":[],"stateMutability":"nonpayable","type":"function"},{"inputs":[{"internalType":"bytes32","name":"role","type":"bytes32"},{"internalType":"address","name":"account","type":"address"}],"name":"revokeRole","outputs":[],"stateMutability":"nonpayable","type":"function"},{"inputs":[{"internalType":"uint256","name":"_multiplier","type":"uint256"}],"name":"setCongestionMultiplier","outputs":[],"stateMutability":"nonpayable","type":"function"},{"inputs":[{"internalType":"address","name":"_feeCollector","type":"address"}],"name":"setFeeCollector","outputs":[],"stateMutability":"nonpayable","type":"function"},{"inputs":[{"internalType":"uint256","name":"_minOrderSize","type":"uint256"},{"internalType":"uint256","name":"_maxOrderSize","type":"uint256"}],"name":"setOrderLimits","outputs":[],"stateMutability":"nonpayable","type":"function"},{"inputs":[{"internalType":"uint256","name":"_tradingFee","type":"uint256"}],"name":"setTradingFee","outputs":[],"stateMutability":"nonpayable","type":"function"},{"inputs":[{"internalType":"uint256","name":"_volumeThreshold","type":"uint256"}],"name":"setVolumeThreshold","outputs":[],"stateMutability":"nonpayable","type":"function"},{"inputs":[{"internalType":"uint256","name":"_commitmentWindow","type":"uint256"},{"internalType":"uint256","name":"_revealWindow","type":"uint256"}],"name":"setWindows","outputs":[],"stateMutability":"nonpayable","type":"function"},{"inputs":[{"internalType":"bytes32","name":"matchId","type":"bytes32"},{"internalType":"bytes","name":"signature1","type":"bytes"},{"internalType":"bytes","name":"signature2","type":"bytes"}],"name":"settleMatch","outputs":[],"stateMutability":"nonpayable","type":"function"},{"inputs":[{"internalType":"address","name":"","type":"address"}],"name":"stateChannels","outputs":[{"internalType":"address","name":"trader","type":"address"},{"internalType":"uint256","name":"balance","type":"uint256"},{"internalType":"uint256","name":"nonce","type":"uint256"},{"internalType":"uint256","name":"lastUpdate","type":"uint256"},{"internalType":"bool","name":"isActive","type":"bool"},{"internalType":"uint256","name":"emergencyWithdrawTime","type":"uint256"}],"stateMutability":"view","type":"function"},{"inputs":[{"internalType":"bytes4","name":"interfaceId","type":"bytes4"}],"name":"supportsInterface","outputs":[{"internalType":"bool","name":"","type":"bool"}],"stateMutability":"view","type":"function"},{"inputs":[],"name":"totalTrades","outputs":[{"internalType":"uint256","name":"","type":"uint256"}],"stateMutability":"view","type":"function"},{"inputs":[],"name":"unpause","outputs":[],"stateMutability":"nonpayable","type":"function"},{"inputs":[{"internalType":"address","name":"trader","type":"address"},{"internalType":"uint256","name":"newBalance","type":"uint256"},{"internalType":"uint256","name":"newNonce","type":"uint256"},{"internalType":"bytes","name":"signature","type":"bytes"}],"name":"updateStateChannel","outputs":[],"stateMutability":"nonpayable","type":"function"},{"stateMutability":"payable","type":"receive"}],"evm":{"bytecode":{"linkReferences":{},"object":"60806040523480156200001157600080fd5b5060405162005172380380620051728339810160408190526200003491620003ae565b60016000819055805460ff191690558282603c8210801590620000595750610e108211155b620000ab5760405162461bcd60e51b815260206004820152601960248201527f496e76616c696420636f6d6d69746d656e742077696e646f770000000000000060448201526064015b60405180910390fd5b61012c8110158015620000c05750611c208111155b6200010e5760405162461bcd60e51b815260206004820152601560248201527f496e76616c69642072657665616c2077696e646f7700000000000000000000006044820152606401620000a2565b808210620001855760405162461bcd60e51b815260206004820152603460248201527f436f6d6d69746d656e742077696e646f77206d7573742062652073686f72746560448201527f72207468616e2072657665616c2077696e646f770000000000000000000000006064820152608401620000a2565b858710620001d65760405162461bcd60e51b815260206004820152601460248201527f496e76616c6964206f72646572206c696d6974730000000000000000000000006044820152606401620000a2565b6103e8831115620002195760405162461bcd60e51b815260206004820152600c60248201526b08ccaca40e8dede40d0d2ced60a31b6044820152606401620000a2565b6009879055600a869055600b859055600c849055600d80546001600160a01b031916339081179091556040805160a0810182528581526020810186905242918101829052683635c9adc5dea000006060820181905260646080909201829052600e879055600f8790556010929092556011919091556012556200029f9060009062000309565b620002cb7f97667070c54ef182b0f5858b034beac1b6f3089aa2d3188bb1e8929f4fa9b9293362000309565b620002f77fbf233dd2aafeb4d50879c4aa5c81e96d92f6e6945c906a58f9f2d1c1631b4b263362000309565b50504260165550620003ef9350505050565b60008281526002602090815260408083206001600160a01b038516845290915290205460ff16620003aa5760008281526002602090815260408083206001600160a01b03851684529091529020805460ff19166001179055620003693390565b6001600160a01b0316816001600160a01b0316837f2f8788117e7eff1d82e926ec794901d17c78024a50270940304540a733656f0d60405160405180910390a45b5050565b600080600080600060a08688031215620003c757600080fd5b5050835160208501516040860151606087015160809097015192989197509594509092509050565b614d7380620003ff6000396000f3fe6080604052600436106104095760003560e01c80639766041111610213578063c415b95c11610123578063e5bd9fa1116100ab578063f5b541a61161007a578063f5b541a614610f81578063f70d936214610fa3578063fca516c714610fb8578063fcc6077d14610fcb578063fec0db70146110ce57600080fd5b8063e5bd9fa114610ea7578063eb3acc7b14610ebd578063ef95256814610f56578063f1a82c7e14610f6b57600080fd5b8063d55be8c6116100f2578063d55be8c614610e31578063da31f67c14610e47578063db2e21bc14610e5c578063e275c99714610e71578063e5aebc4114610e8757600080fd5b8063c415b95c14610dae578063c5511c6d14610de6578063c5b1c7d014610dfc578063d547741f14610e1157600080fd5b8063a9381d21116101a6578063b0d54bcf11610175578063b0d54bcf14610d28578063b219f7d714610d48578063ba9bf7d114610858578063be4a7e2614610d68578063bfbeecfb14610d7e57600080fd5b8063a9381d2114610ca8578063a9f1a54914610cc8578063acef2efc14610ce8578063ad943d6214610d0857600080fd5b80639fe9ada3116101e25780639fe9ada314610b8a578063a217fddf14610c5d578063a42dce8014610c72578063a674537f14610c9257600080fd5b80639766041114610a2b57806398c8877e14610a4b578063990fbcc214610a615780639c3f1e9014610a8157600080fd5b80634c0c1ff1116103195780637314eb0c116102a15780638456cb59116102705780638456cb59146109aa578063863d22c7146109bf5780638973bc7e146109d55780638d976cf6146109eb57806391d1485414610a0b57600080fd5b80637314eb0c146109345780637489ec23146109545780637a2888b0146109745780637fe3826e1461098a57600080fd5b80635c975abb116102e85780635c975abb1461086e5780635fbbc0d21461088657806360d7442b146108dd57806361f073c8146108f457806365f4bce61461091457600080fd5b80634c0c1ff1146106e6578063554ac63f146106fc5780635778472a1461071157806358c61b061461085857600080fd5b80632ac164021161039c578063368697301161036b57806336869730146105f85780633f4ba83a1461060e578063451bf3e61461062357806347f89b41146106955780634b8764a5146106b557600080fd5b80632ac16402146105785780632f2ff15d14610598578063354323e0146105b857806336568abe146105d857600080fd5b80631e5eb1d0116103d85780631e5eb1d0146104b557806320df435914610504578063248a9ca31461052657806327ac0c581461055657600080fd5b806301ffc9a7146104155780630905f5601461044a578063112606d61461046457806316f8de891461049157600080fd5b3661041057005b600080fd5b34801561042157600080fd5b506104356104303660046142ee565b6110ee565b60405190151581526020015b60405180910390f35b34801561045657600080fd5b506013546104359060ff1681565b34801561047057600080fd5b5061048461047f366004614334565b611125565b604051610441919061439f565b34801561049d57600080fd5b506104a760075481565b604051908152602001610441565b3480156104c157600080fd5b50600e54600f546010546011546012546104dc949392919085565b604080519586526020860194909452928401919091526060830152608082015260a001610441565b34801561051057600080fd5b506104a7600080516020614cfe83398151915281565b34801561053257600080fd5b506104a76105413660046143ea565b60009081526002602052604090206001015490565b34801561056257600080fd5b50610576610571366004614334565b61122f565b005b34801561058457600080fd5b506105766105933660046144af565b611256565b3480156105a457600080fd5b506105766105b336600461451c565b61157d565b3480156105c457600080fd5b506105766105d33660046143ea565b6115a2565b3480156105e457600080fd5b506105766105f336600461451c565b611611565b34801561060457600080fd5b506104a761012c81565b34801561061a57600080fd5b5061057661168b565b34801561062f57600080fd5b5061064361063e366004614334565b6116a1565b604051610441919081516001600160a01b0316815260208083015190820152604080830151908201526060808301519082015260808083015115159082015260a0918201519181019190915260c00190565b3480156106a157600080fd5b506105766106b03660046143ea565b61174d565b3480156106c157600080fd5b5060155460175460165460408051938452602084019290925290820152606001610441565b3480156106f257600080fd5b506104a76101f481565b34801561070857600080fd5b506104a7603c81565b34801561071d57600080fd5b5061084b61072c3660046143ea565b6040805161018081018252600080825260208201819052918101829052606081018290526080810182905260a0810182905260c0810182905260e081018290526101008101829052610120810182905261014081018290526101608101919091525060009081526003602081815260409283902083516101808101855281546001600160a01b039081168252600183015481169382019390935260028201549092169382019390935290820154606082015260048201546080820152600582015460a0820152600682015460c0820152600782015460ff808216151560e0840152610100808304821615159084015262010000820481161515610120840152630100000090910416151561014082015260089091015461016082015290565b6040516104419190614548565b34801561086457600080fd5b506104a7610e1081565b34801561087a57600080fd5b5060015460ff16610435565b34801561089257600080fd5b5061089b611ac6565b6040516104419190600060a082019050825182526020830151602083015260408301516040830152606083015160608301526080830151608083015292915050565b3480156108e957600080fd5b506104a76201518081565b34801561090057600080fd5b5061057661090f366004614605565b611b2d565b34801561092057600080fd5b5061057661092f366004614666565b611d02565b34801561094057600080fd5b5061057661094f366004614334565b611e7c565b34801561096057600080fd5b5061057661096f3660046143ea565b611e9f565b34801561098057600080fd5b506104a760145481565b34801561099657600080fd5b506105766109a5366004614666565b6120ca565b3480156109b657600080fd5b506105766126b0565b3480156109cb57600080fd5b506104a7600c5481565b3480156109e157600080fd5b506104a7611c2081565b3480156109f757600080fd5b50610576610a06366004614688565b6126c3565b348015610a1757600080fd5b50610435610a2636600461451c565b61287c565b348015610a3757600080fd5b50610576610a463660046146d1565b6128a7565b348015610a5757600080fd5b506104a760155481565b348015610a6d57600080fd5b50610576610a7c3660046143ea565b612a66565b348015610a8d57600080fd5b50610b18610a9c3660046143ea565b60036020819052600091825260409091208054600182015460028301549383015460048401546005850154600686015460078701546008909701546001600160a01b0396871698958716979690951695939492939192909160ff808216926101008304821692620100008104831692630100000090910416908c565b604080516001600160a01b039d8e1681529b8d1660208d015299909b16988a01989098526060890196909652608088019490945260a087019290925260c0860152151560e085015215156101008401521515610120830152151561014082015261016081019190915261018001610441565b348015610b9657600080fd5b50610c05610ba53660046143ea565b6005602081905260009182526040909120805460018201546002830154600384015460048501549585015460068601546007909601546001600160a01b039586169794861696938616959092169392909160ff8082169161010090041689565b604080516001600160a01b039a8b168152988a1660208a015296891696880196909652969093166060860152608085019190915260a084015260c083015291151560e082015290151561010082015261012001610441565b348015610c6957600080fd5b506104a7600081565b348015610c7e57600080fd5b50610576610c8d366004614334565b612abb565b348015610c9e57600080fd5b506104a760095481565b348015610cb457600080fd5b50610576610cc3366004614666565b612b71565b348015610cd457600080fd5b50610435610ce3366004614334565b612bfc565b348015610cf457600080fd5b50610576610d03366004614334565b612c44565b348015610d1457600080fd5b50610576610d23366004614334565b612c67565b348015610d3457600080fd5b50610576610d433660046143ea565b612f39565b348015610d5457600080fd5b50610576610d63366004614334565b612fc3565b348015610d7457600080fd5b506104a7600b5481565b348015610d8a57600080fd5b50610d9e610d99366004614334565b612fe6565b604051610441949392919061471e565b348015610dba57600080fd5b50600d54610dce906001600160a01b031681565b6040516001600160a01b039091168152602001610441565b348015610df257600080fd5b506104a760085481565b348015610e0857600080fd5b506105766130a7565b348015610e1d57600080fd5b50610576610e2c36600461451c565b613171565b348015610e3d57600080fd5b506104a76103e881565b348015610e5357600080fd5b506104a7600181565b348015610e6857600080fd5b50610576613196565b348015610e7d57600080fd5b506104a760175481565b348015610e9357600080fd5b50610576610ea2366004614767565b6131cd565b348015610eb357600080fd5b506104a760165481565b348015610ec957600080fd5b50610f1d610ed8366004614334565b60046020819052600091825260409091208054600182015460028301546003840154948401546005909401546001600160a01b03909316949193909260ff9091169086565b604080516001600160a01b03909716875260208701959095529385019290925260608401521515608083015260a082015260c001610441565b348015610f6257600080fd5b50610576613623565b348015610f7757600080fd5b506104a7600a5481565b348015610f8d57600080fd5b506104a7600080516020614d1e83398151915281565b348015610faf57600080fd5b50600f546104a7565b610576610fc63660046147d1565b61368a565b348015610fd757600080fd5b506110c1610fe63660046143ea565b6040805161012081018252600080825260208201819052918101829052606081018290526080810182905260a0810182905260c0810182905260e081018290526101008101919091525060009081526005602081815260409283902083516101208101855281546001600160a01b0390811682526001830154811693820193909352600282015483169481019490945260038101549091166060840152600481015460808401529081015460a0830152600681015460c08301526007015460ff808216151560e0840152610100918290041615159082015290565b60405161044191906147fb565b3480156110da57600080fd5b506104a76110e9366004614879565b6138ca565b60006001600160e01b03198216637965db0b60e01b148061111f57506301ffc9a760e01b6001600160e01b03198316145b92915050565b60408051608081018252600080825260208201819052918101919091526060808201526001600160a01b03808316600090815260066020908152604091829020825160808101845281549094168452600181015491840191909152600281015460ff161515918301919091526003810180546060840191906111a6906148d8565b80601f01602080910402602001604051908101604052809291908181526020018280546111d2906148d8565b801561121f5780601f106111f45761010080835404028352916020019161121f565b820191906000526020600020905b81548152906001019060200180831161120257829003601f168201915b5050505050815250509050919050565b600061123a81613909565b611252600080516020614d1e83398151915283613913565b5050565b61125e613999565b6112666139f2565b60135460ff16156112925760405162461bcd60e51b815260040161128990614912565b60405180910390fd5b600083815260056020526040902080546001600160a01b03166112ee5760405162461bcd60e51b815260206004820152601460248201527313585d18da08191bd95cc81b9bdd08195e1a5cdd60621b6044820152606401611289565b600781015460ff161561133b5760405162461bcd60e51b815260206004820152601560248201527413585d18da08185b1c9958591e481cd95d1d1b1959605a1b6044820152606401611289565b6007810154610100900460ff16156113895760405162461bcd60e51b815260206004820152601160248201527013585d18da081a5cc8191a5cdc1d5d1959607a1b6044820152606401611289565b6004810154600582015460068301546040805160208101899052908101939093526060830191909152608082015260009060a00160405160208183030381529060405280519060200120905060006113ea856113e484613a3a565b90613a6d565b905060006113fb856113e485613a3a565b84549091506001600160a01b038381169116146114505760405162461bcd60e51b8152602060048201526013602482015272496e76616c6964207369676e6174757265203160681b6044820152606401611289565b60018401546001600160a01b038281169116146114a55760405162461bcd60e51b815260206004820152601360248201527224b73b30b634b21039b4b3b730ba3ab932901960691b6044820152606401611289565b835460048501546114c1916001600160a01b0316906001613a91565b60018085015460058601546114e1926001600160a01b0390921691613a91565b60078401805460ff1916600190811790915584015484546002860154600387015460048801546005890154604080516001600160a01b03958616815293851660208501528301919091526060820152426080820152928116929116907fbe424db0fea33aaeac020945c445e8a830405cc3ae1fe4874efcaa64c76b1fc49060a00160405180910390a3505050506115786001600055565b505050565b60008281526002602052604090206001015461159881613909565b6115788383613913565b60006115ad81613909565b603282101580156115bf575060c88211155b61160b5760405162461bcd60e51b815260206004820152601b60248201527f496e76616c6964206d756c7469706c696572202835302d3230302900000000006044820152606401611289565b50601255565b6001600160a01b03811633146116815760405162461bcd60e51b815260206004820152602f60248201527f416363657373436f6e74726f6c3a2063616e206f6e6c792072656e6f756e636560448201526e103937b632b9903337b91039b2b63360891b6064820152608401611289565b6112528282613b59565b600061169681613909565b61169e613bc0565b50565b6116e56040518060c0016040528060006001600160a01b03168152602001600081526020016000815260200160008152602001600015158152602001600081525090565b506001600160a01b03908116600090815260046020818152604092839020835160c081018552815490951685526001810154918501919091526002810154928401929092526003820154606084015281015460ff16151560808301526005015460a082015290565b6117556139f2565b60135460ff16156117785760405162461bcd60e51b815260040161128990614912565b611780613999565b60015460ff16156117d35760405162461bcd60e51b815260206004820152601f60248201527f436f6d6d69744f726465723a20436f6e747261637420697320706175736564006044820152606401611289565b336118335760405162461bcd60e51b815260206004820152602a60248201527f436f6d6d69744f726465723a2053656e6465722063616e6e6f74206265207a65604482015269726f206164647265737360b01b6064820152608401611289565b8061188f5760405162461bcd60e51b815260206004820152602660248201527f436f6d6d69744f726465723a20436f6d6d69746d656e742063616e6e6f74206260448201526565207a65726f60d01b6064820152608401611289565b6000818152600360205260409020546001600160a01b0316156119035760405162461bcd60e51b815260206004820152602660248201527f436f6d6d69744f726465723a20436f6d6d69746d656e7420616c72656164792060448201526565786973747360d01b6064820152608401611289565b604051806101800160405280336001600160a01b0316815260200160006001600160a01b0316815260200160006001600160a01b0316815260200160008152602001600081526020016007600081548092919061195f9061495f565b909155508152426020808301829052600060408085018290526060808601839052608080870184905260a080880185905260c09788018a9052898552600380875294849020895181546001600160a01b03199081166001600160a01b039283161783558b89015160018401805483169184169190911790558b87015160028401805490921692169190911790559289015194830194909455870151600482015591860151600583015593850151600682015560e0850151600782018054610100808901516101208a01516101408b015161ffff1990941695151561ff001916959095179015159091021763ffff00001916620100009315159390930263ff000000191692909217630100000092151592909202919091179055610160909401516008909401939093559051908152339183917f25cd9c955149e9ee60675521bee70f991884d9c1162e40aed55d62a5bdf4b829910160405180910390a361169e6001600055565b611af86040518060a0016040528060008152602001600081526020016000815260200160008152602001600081525090565b506040805160a081018252600e548152600f546020820152601054918101919091526011546060820152601254608082015290565b6001600160a01b03841660009081526004602081905260409091200154849060ff16611b6b5760405162461bcd60e51b815260040161128990614978565b611b736139f2565b60135460ff1615611b965760405162461bcd60e51b815260040161128990614912565b6001600160a01b038516600090815260046020526040902060028101548411611bf15760405162461bcd60e51b815260206004820152600d60248201526c496e76616c6964206e6f6e636560981b6044820152606401611289565b6040516001600160601b0319606088901b16602082015260348101869052605481018590524260748201526000906094016040516020818303038152906040528051906020012090506000611c49856113e484613a3a565b9050876001600160a01b0316816001600160a01b031614611ca05760405162461bcd60e51b8152602060048201526011602482015270496e76616c6964207369676e617475726560781b6044820152606401611289565b600183018790556002830186905542600384015560408051888152602081018890526001600160a01b038a16917fe2824b01ee9d1c44adf7a5260724348c7d38c7c591a7284df9d309c1b72e148a910160405180910390a25050505050505050565b6000611d0d81613909565b8282603c8210158015611d225750610e108211155b611d6e5760405162461bcd60e51b815260206004820152601960248201527f496e76616c696420636f6d6d69746d656e742077696e646f77000000000000006044820152606401611289565b61012c8110158015611d825750611c208111155b611dc65760405162461bcd60e51b8152602060048201526015602482015274496e76616c69642072657665616c2077696e646f7760581b6044820152606401611289565b808210611e325760405162461bcd60e51b815260206004820152603460248201527f436f6d6d69746d656e742077696e646f77206d7573742062652073686f72746560448201527372207468616e2072657665616c2077696e646f7760601b6064820152608401611289565b600b859055600c84905560408051868152602081018690527f710c8b3bcc669d7c9862e563f43e29e3df52391f837c65b3d891f16023faf0f4910160405180910390a15050505050565b6000611e8781613909565b611252600080516020614cfe83398151915283613913565b60008181526003602052604090205481906001600160a01b0316611ed55760405162461bcd60e51b8152600401611289906149af565b60008181526003602052604090206007015462010000900460ff1615611f0d5760405162461bcd60e51b8152600401611289906149dd565b6000818152600360205260409020600701546301000000900460ff1615611f465760405162461bcd60e51b815260040161128990614a0d565b60008281526003602052604090205482906001600160a01b03163314611fa05760405162461bcd60e51b815260206004820152600f60248201526e2737ba1037b93232b91037bbb732b960891b6044820152606401611289565b611fa86139f2565b60008381526003602052604090206007810154610100900460ff16156120105760405162461bcd60e51b815260206004820152601c60248201527f43616e6e6f742063616e63656c2072657665616c6564206f72646572000000006044820152606401611289565b600b5481600601546120229190614a44565b4211156120715760405162461bcd60e51b815260206004820152601960248201527f436f6d6d69746d656e742077696e646f772065787069726564000000000000006044820152606401611289565b60078101805463ff00000019166301000000179055604051339085907fb2705df32ac67fc3101f496cd7036bf59074a603544d97d73650b6f09744986a906120bc9042815260200190565b60405180910390a350505050565b60008281526003602052604090205482906001600160a01b03166121005760405162461bcd60e51b8152600401611289906149af565b60008181526003602052604090206007015462010000900460ff16156121385760405162461bcd60e51b8152600401611289906149dd565b6000818152600360205260409020600701546301000000900460ff16156121715760405162461bcd60e51b815260040161128990614a0d565b60008281526003602052604090205482906001600160a01b03166121a75760405162461bcd60e51b8152600401611289906149af565b60008181526003602052604090206007015462010000900460ff16156121df5760405162461bcd60e51b8152600401611289906149dd565b6000818152600360205260409020600701546301000000900460ff16156122185760405162461bcd60e51b815260040161128990614a0d565b612230600080516020614d1e8339815191523361287c565b61227c5760405162461bcd60e51b815260206004820152601960248201527f43616c6c6572206973206e6f7420616e206f70657261746f72000000000000006044820152606401611289565b6122846139f2565b60135460ff16156122a75760405162461bcd60e51b815260040161128990614912565b60008481526003602052604080822085835291206007820154610100900460ff1680156122dd57506007810154610100900460ff165b61231f5760405162461bcd60e51b815260206004820152601360248201527213dc99195c9cc81b9bdd081c995d99585b1959606a1b6044820152606401611289565b6007808201549083015460ff918216151591161515036123735760405162461bcd60e51b815260206004820152600f60248201526e53616d65206f72646572207479706560881b6044820152606401611289565b600281015460018301546001600160a01b039081169116146123c85760405162461bcd60e51b815260206004820152600e60248201526d0a8ded6cadc40dad2e6dac2e8c6d60931b6044820152606401611289565b600181015460028301546001600160a01b0390811691161461241d5760405162461bcd60e51b815260206004820152600e60248201526d0a8ded6cadc40dad2e6dac2e8c6d60931b6044820152606401611289565b600782015460009060ff166124325781612434565b825b600784015490915060009060ff1661244c578361244e565b825b90508060030154826004015410156124a15760405162461bcd60e51b8152602060048201526016602482015275496e73756666696369656e74206c697175696469747960501b6044820152606401611289565b600380820154908301546004840154600091906124be9084614a57565b6124c89190614a6e565b905060008a8a600860008154809291906124e19061495f565b90915550604080516020810194909452830191909152606082015260800160408051808303601f1901815282825280516020918201206101208401835288546001600160a01b039081168552885481168386019081526001808b01548316878701908152818d0154841660608901908152608089018b815260a08a018d81524260c08c01908152600060e08d01818152610100808f018381528c845260059d8e90529d9092209d518e546001600160a01b0319908116918c16919091178f559851978e0180548a16988b1698909817909755945160028d0180548916918a16919091179055925160038c01805490971697169690961790945592516004890155925194870194909455516006860155915160079485018054945161ffff1990951691151561ff0019169190911793151590920292909217905588820180546201000062ff0000199182168117909255928901805490931617909155905061264783613c12565b84548454604080516001600160a01b0393841681529290911660208301528101839052606081018490528a908c907fbeace456c306b469a1037ff7cd74fdbb995edec33b45043e4affc57c696d008c906080015b60405180910390a35050505050505050505050565b60006126bb81613909565b61169e613c6c565b336000818152600460208190526040909120015460ff166126f65760405162461bcd60e51b815260040161128990614978565b3360009081526004602052604090206005810154156127665760405162461bcd60e51b815260206004820152602660248201527f456d657267656e6379207769746864726177616c20616c7265616479207265716044820152651d595cdd195960d21b6064820152608401611289565b60008351116127a95760405162461bcd60e51b815260206004820152600f60248201526e1499585cdbdb881c995c5d5a5c9959608a1b6044820152606401611289565b6127b66201518042614a44565b600582015560408051608081018252338082524260208084019182526000848601818152606086018a8152948252600690925294909420835181546001600160a01b0319166001600160a01b0390911617815590516001820155925160028401805460ff19169115159190911790555190919060038201906128389082614ade565b50506040513391507fd84b306c4af9d4777df24b4265638b9e45af2c2997bc3015ab6fa48ef5d06f969061286f9042908790614b9e565b60405180910390a2505050565b60009182526002602090815260408084206001600160a01b0393909316845291905290205460ff1690565b6001600160a01b03831660009081526004602081905260409091200154839060ff166128e55760405162461bcd60e51b815260040161128990614978565b6128ed6139f2565b6128f5613999565b6001600160a01b038416600090815260046020908152604080832090516001600160601b0319606089901b16928101929092526034820186905264434c4f534560d81b60548301524260598301529190607901604051602081830303815290604052805190602001209050600061296f856113e484613a3a565b9050866001600160a01b0316816001600160a01b0316146129c65760405162461bcd60e51b8152602060048201526011602482015270496e76616c6964207369676e617475726560781b6044820152606401611289565b60048301805460ff19169055600183018690556040516001600160a01b0388169087156108fc029088906000818181858888f19350505050158015612a0f573d6000803e3d6000fd5b50866001600160a01b03167f2b1dbe73b302ae6971addaffcf590a88981effc82b2ebaefd034b37f208f609a87604051612a4b91815260200190565b60405180910390a2505050612a606001600055565b50505050565b6000612a7181613909565b60008211612ab55760405162461bcd60e51b8152602060048201526011602482015270125b9d985b1a59081d1a1c995cda1bdb19607a1b6044820152606401611289565b50601155565b6000612ac681613909565b6001600160a01b038216612b0e5760405162461bcd60e51b815260206004820152600f60248201526e496e76616c6964206164647265737360881b6044820152606401611289565b600d80546001600160a01b038481166001600160a01b031983168117909355604080519190921680825260208201939093527f5d16ad41baeb009cd23eb8f6c7cde5c2e0cd5acf4a33926ab488875c37c37f3891015b60405180910390a1505050565b6000612b7c81613909565b818310612bbc5760405162461bcd60e51b815260206004820152600e60248201526d496e76616c6964206c696d69747360901b6044820152606401611289565b6009839055600a82905560408051848152602081018490527f9008c5f12ba9ce7db2a3644b35485cf65bd0a7afe095d7d7f135b6a4b4babc5f9101612b64565b6001600160a01b038116600090815260046020819052604082209081015460ff168015612c2d575060008160050154115b8015612c3d575080600501544210155b9392505050565b6000612c4f81613909565b611252600080516020614cfe83398151915283613b59565b612c7f600080516020614cfe8339815191523361287c565b612ccb5760405162461bcd60e51b815260206004820152601c60248201527f43616c6c6572206973206e6f7420656d657267656e637920726f6c65000000006044820152606401611289565b612cd3613999565b6001600160a01b038116600090815260046020818152604080842060069092529092209082015460ff16612d3e5760405162461bcd60e51b81526020600482015260126024820152714368616e6e656c206e6f742061637469766560701b6044820152606401611289565b80546001600160a01b03848116911614612d915760405162461bcd60e51b8152602060048201526014602482015273139bc8195b595c99d95b98de481c995c5d595cdd60621b6044820152606401611289565b600281015460ff1615612dd95760405162461bcd60e51b815260206004820152601060248201526f105b1c9958591e48195e1958dd5d195960821b6044820152606401611289565b8160050154421015612e245760405162461bcd60e51b8152602060048201526014602482015273151a5b595b1bd8dac81b9bdd08195e1c1a5c995960621b6044820152606401611289565b6000826005015411612e825760405162461bcd60e51b815260206004820152602160248201527f4e6f20656d657267656e6379207769746864726177616c2072657175657374656044820152601960fa1b6064820152608401611289565b600281018054600160ff1991821681179092556004840180549091169055820180546000918290556005840182905560405190916001600160a01b038616916108fc84150291849190818181858888f19350505050158015612ee8573d6000803e3d6000fd5b50604080518281524260208201526001600160a01b038616917fe5cea137e6f2eb6b43eb46d8f9c6eba1eafa59f0b48f8f4c80aefdcfd07e71ba910160405180910390a250505061169e6001600055565b6000612f4481613909565b6103e8821115612f855760405162461bcd60e51b815260206004820152600c60248201526b08ccaca40e8dede40d0d2ced60a31b6044820152606401611289565b600e80549083905560408051828152602081018590527f528d9479e9f9889a87a3c30c7f7ba537e5e59c4c85a37733b16e57c62df613029101612b64565b6000612fce81613909565b611252600080516020614d1e83398151915283613b59565b60066020526000908152604090208054600182015460028301546003840180546001600160a01b0390941694929360ff9092169291613024906148d8565b80601f0160208091040260200160405190810160405280929190818152602001828054613050906148d8565b801561309d5780601f106130725761010080835404028352916020019161309d565b820191906000526020600020905b81548152906001019060200180831161308057829003601f168201915b5050505050905084565b6130bf600080516020614cfe8339815191523361287c565b61310b5760405162461bcd60e51b815260206004820152601c60248201527f43616c6c6572206973206e6f7420656d657267656e637920726f6c65000000006044820152606401611289565b60135460ff161561315e5760405162461bcd60e51b815260206004820152601960248201527f416c726561647920696e20656d657267656e6379206d6f6465000000000000006044820152606401611289565b6013805460ff1916600117905542601455565b60008281526002602052604090206001015461318c81613909565b6115788383613b59565b60006131a181613909565b60405133904780156108fc02916000818181858888f19350505050158015611252573d6000803e3d6000fd5b60008781526003602052604090205487906001600160a01b03166132035760405162461bcd60e51b8152600401611289906149af565b60008181526003602052604090206007015462010000900460ff161561323b5760405162461bcd60e51b8152600401611289906149dd565b6000818152600360205260409020600701546301000000900460ff16156132745760405162461bcd60e51b815260040161128990614a0d565b60008881526003602052604090205488906001600160a01b031633146132ce5760405162461bcd60e51b815260206004820152600f60248201526e2737ba1037b93232b91037bbb732b960891b6044820152606401611289565b6132d66139f2565b60135460ff16156132f95760405162461bcd60e51b815260040161128990614912565b60008981526003602052604090206007810154610100900460ff161561335a5760405162461bcd60e51b815260206004820152601660248201527513dc99195c88185b1c9958591e481c995d99585b195960521b6044820152606401611289565b600c54816006015461336c9190614a44565b4211156133b35760405162461bcd60e51b815260206004820152601560248201527414995d99585b081dda5b991bddc8195e1c1a5c9959605a1b6044820152606401611289565b60008989898989896040516020016133d096959493929190614bb7565b604051602081830303815290604052805190602001209050808b1461342c5760405162461bcd60e51b8152602060048201526012602482015271125b9d985b1a590818dbdb5b5a5d1b595b9d60721b6044820152606401611289565b6009548810156134715760405162461bcd60e51b815260206004820152601060248201526f105b5bdd5b9d081d1bdbc81cdb585b1b60821b6044820152606401611289565b600a548811156134b65760405162461bcd60e51b815260206004820152601060248201526f416d6f756e7420746f6f206c6172676560801b6044820152606401611289565b886001600160a01b03168a6001600160a01b0316036135045760405162461bcd60e51b815260206004820152600a60248201526929b0b6b2903a37b5b2b760b11b6044820152606401611289565b6001600160a01b038a161580159061352457506001600160a01b03891615155b6135705760405162461bcd60e51b815260206004820152601760248201527f496e76616c696420746f6b656e206164647265737365730000000000000000006044820152606401611289565b6001820180546001600160a01b038c81166001600160a01b03199283168117909355600285018054918d16919092168117909155600384018a90556004840189905560078401805461ff00198a151590811661ffff1990921691909117610100179091556040805193845260208401929092529082018a905260608201899052608082015233908c907fca14ae26824c404dd0a0351de7f8da4e8ef06e80e469fc594879c2b97a397c0b9060a00161269b565b600061362e81613909565b60135460ff166136785760405162461bcd60e51b81526020600482015260156024820152744e6f7420696e20656d657267656e6379206d6f646560581b6044820152606401611289565b506013805460ff191690556000601455565b6136926139f2565b60135460ff16156136b55760405162461bcd60e51b815260040161128990614912565b6136bd613999565b6001600160a01b0382166137045760405162461bcd60e51b815260206004820152600e60248201526d24b73b30b634b2103a3930b232b960911b6044820152606401611289565b600081116137465760405162461bcd60e51b815260206004820152600f60248201526e496e76616c69642062616c616e636560881b6044820152606401611289565b8034101561378d5760405162461bcd60e51b8152602060048201526014602482015273125b9cdd59999a58da595b9d0819195c1bdcda5d60621b6044820152606401611289565b6001600160a01b0382166000908152600460208190526040909120015460ff16156137f35760405162461bcd60e51b81526020600482015260166024820152754368616e6e656c20616c72656164792061637469766560501b6044820152606401611289565b6040805160c0810182526001600160a01b0384811680835260208084018681526000858701818152426060880190815260016080890181815260a08a0185815288865260048089528c87209b518c546001600160a01b0319169b169a909a178b559551918a01919091559151600289015551600388015551948601805460ff19169515159590951790945551600590940193909355835185815292830191909152917f831fd65d60e4dd10379f73c1b4f67910310ea704b461be472a88c35127388b5a910160405180910390a26112526001600055565b60008686868686866040516020016138e796959493929190614bb7565b6040516020818303038152906040528051906020012090509695505050505050565b61169e8133613ca7565b61391d828261287c565b6112525760008281526002602090815260408083206001600160a01b03851684529091529020805460ff191660011790556139553390565b6001600160a01b0316816001600160a01b0316837f2f8788117e7eff1d82e926ec794901d17c78024a50270940304540a733656f0d60405160405180910390a45050565b6002600054036139eb5760405162461bcd60e51b815260206004820152601f60248201527f5265656e7472616e637947756172643a207265656e7472616e742063616c6c006044820152606401611289565b6002600055565b60015460ff1615613a385760405162461bcd60e51b815260206004820152601060248201526f14185d5cd8589b194e881c185d5cd95960821b6044820152606401611289565b565b7f19457468657265756d205369676e6564204d6573736167653a0a3332000000006000908152601c91909152603c902090565b6000806000613a7c8585613d00565b91509150613a8981613d45565b509392505050565b6001600160a01b03831660009081526004602052604090208115613ace5782816001016000828254613ac39190614a44565b90915550613b339050565b8281600101541015613b195760405162461bcd60e51b8152602060048201526014602482015273496e73756666696369656e742062616c616e636560601b6044820152606401611289565b82816001016000828254613b2d9190614bf7565b90915550505b6001816002016000828254613b489190614a44565b909155505042600390910155505050565b613b63828261287c565b156112525760008281526002602090815260408083206001600160a01b0385168085529252808320805460ff1916905551339285917ff6391f5c32d9c69d2a47ea670b442974b53935d1edc7fd64eb21e047a839171b9190a45050565b613bc8613e8f565b6001805460ff191690557f5db9ee0a495bf2e6ff9c91a7834c1ba4fdd244a5e8aa4e537bd38aeae4b073aa335b6040516001600160a01b03909116815260200160405180910390a1565b601654613c229062015180614a44565b4210613c32576000601555426016555b8060156000828254613c449190614a44565b92505081905550600160176000828254613c5e9190614a44565b9091555061169e9050613ed8565b613c746139f2565b6001805460ff1916811790557f62e78cea01bee320cd4e420270b5ea74000d11b0c9f74754ebdbfc544b05a25833613bf5565b613cb1828261287c565b61125257613cbe8161407c565b613cc983602061408e565b604051602001613cda929190614c0a565b60408051601f198184030181529082905262461bcd60e51b825261128991600401614c7f565b6000808251604103613d365760208301516040840151606085015160001a613d2a8782858561422a565b94509450505050613d3e565b506000905060025b9250929050565b6000816004811115613d5957613d59614c92565b03613d615750565b6001816004811115613d7557613d75614c92565b03613dc25760405162461bcd60e51b815260206004820152601860248201527f45434453413a20696e76616c6964207369676e617475726500000000000000006044820152606401611289565b6002816004811115613dd657613dd6614c92565b03613e235760405162461bcd60e51b815260206004820152601f60248201527f45434453413a20696e76616c6964207369676e6174757265206c656e677468006044820152606401611289565b6003816004811115613e3757613e37614c92565b0361169e5760405162461bcd60e51b815260206004820152602260248201527f45434453413a20696e76616c6964207369676e6174757265202773272076616c604482015261756560f01b6064820152608401611289565b60015460ff16613a385760405162461bcd60e51b815260206004820152601460248201527314185d5cd8589b194e881b9bdd081c185d5cd95960621b6044820152606401611289565b601054613ee890610e1090614a44565b421015613ef157565b600f54600e54604080518082019091526008815267426173652066656560c01b60208201526011546015541115613f6f57600e54606490613f33906050614a57565b613f3d9190614a6e565b915060405180604001604052806014815260200173121a59da081d9bdb1d5b5948191a5cd8dbdd5b9d60621b81525090505b640ba43b74003a1115613fc657601254606490613f8c9084614a57565b613f969190614a6e565b9150604051806040016040528060128152602001712732ba3bb7b9359031b7b733b2b9ba34b7b760711b81525090505b600182101561400157505060408051808201909152601181527026b4b734b6bab6903332b290333637b7b960791b6020820152600190614038565b6101f482111561403857505060408051808201909152600f81526e04d6178696d756d206665652063617608c1b60208201526101f4905b82821461157857600f829055426010556040517ff8fbcc3dd9b2b1c3752603a58e3edba9c7bf77031665caf72ee8735af719b8a990612b6490859085908590614ca8565b606061111f6001600160a01b03831660145b6060600061409d836002614a57565b6140a8906002614a44565b67ffffffffffffffff8111156140c0576140c0614403565b6040519080825280601f01601f1916602001820160405280156140ea576020820181803683370190505b509050600360fc1b8160008151811061410557614105614cd0565b60200101906001600160f81b031916908160001a905350600f60fb1b8160018151811061413457614134614cd0565b60200101906001600160f81b031916908160001a9053506000614158846002614a57565b614163906001614a44565b90505b60018111156141db576f181899199a1a9b1b9c1cb0b131b232b360811b85600f166010811061419757614197614cd0565b1a60f81b8282815181106141ad576141ad614cd0565b60200101906001600160f81b031916908160001a90535060049490941c936141d481614ce6565b9050614166565b508315612c3d5760405162461bcd60e51b815260206004820181905260248201527f537472696e67733a20686578206c656e67746820696e73756666696369656e746044820152606401611289565b6000807f7fffffffffffffffffffffffffffffff5d576e7357a4501ddfe92f46681b20a083111561426157506000905060036142e5565b6040805160008082526020820180845289905260ff881692820192909252606081018690526080810185905260019060a0016020604051602081039080840390855afa1580156142b5573d6000803e3d6000fd5b5050604051601f1901519150506001600160a01b0381166142de576000600192509250506142e5565b9150600090505b94509492505050565b60006020828403121561430057600080fd5b81356001600160e01b031981168114612c3d57600080fd5b80356001600160a01b038116811461432f57600080fd5b919050565b60006020828403121561434657600080fd5b612c3d82614318565b60005b8381101561436a578181015183820152602001614352565b50506000910152565b6000815180845261438b81602086016020860161434f565b601f01601f19169290920160200192915050565b6020815260018060a01b03825116602082015260208201516040820152604082015115156060820152600060608301516080808401526143e260a0840182614373565b949350505050565b6000602082840312156143fc57600080fd5b5035919050565b634e487b7160e01b600052604160045260246000fd5b600067ffffffffffffffff8084111561443457614434614403565b604051601f8501601f19908116603f0116810190828211818310171561445c5761445c614403565b8160405280935085815286868601111561447557600080fd5b858560208301376000602087830101525050509392505050565b600082601f8301126144a057600080fd5b612c3d83833560208501614419565b6000806000606084860312156144c457600080fd5b83359250602084013567ffffffffffffffff808211156144e357600080fd5b6144ef8783880161448f565b9350604086013591508082111561450557600080fd5b506145128682870161448f565b9150509250925092565b6000806040838503121561452f57600080fd5b8235915061453f60208401614318565b90509250929050565b81516001600160a01b031681526101808101602083015161457460208401826001600160a01b03169052565b50604083015161458f60408401826001600160a01b03169052565b50606083015160608301526080830151608083015260a083015160a083015260c083015160c083015260e08301516145cb60e084018215159052565b5061010083810151151590830152610120808401511515908301526101408084015115159083015261016092830151929091019190915290565b6000806000806080858703121561461b57600080fd5b61462485614318565b93506020850135925060408501359150606085013567ffffffffffffffff81111561464e57600080fd5b61465a8782880161448f565b91505092959194509250565b6000806040838503121561467957600080fd5b50508035926020909101359150565b60006020828403121561469a57600080fd5b813567ffffffffffffffff8111156146b157600080fd5b8201601f810184136146c257600080fd5b6143e284823560208401614419565b6000806000606084860312156146e657600080fd5b6146ef84614318565b925060208401359150604084013567ffffffffffffffff81111561471257600080fd5b6145128682870161448f565b60018060a01b0385168152836020820152821515604082015260806060820152600061474d6080830184614373565b9695505050505050565b8035801515811461432f57600080fd5b600080600080600080600060e0888a03121561478257600080fd5b8735965061479260208901614318565b95506147a060408901614318565b945060608801359350608088013592506147bc60a08901614757565b915060c0880135905092959891949750929550565b600080604083850312156147e457600080fd5b6147ed83614318565b946020939093013593505050565b81516001600160a01b03908116825260208084015182169083015260408084015182169083015260608084015191821690830152610120820190506080830151608083015260a083015160a083015260c083015160c083015260e083015161486760e084018215159052565b50610100928301511515919092015290565b60008060008060008060c0878903121561489257600080fd5b61489b87614318565b95506148a960208801614318565b945060408701359350606087013592506148c560808801614757565b915060a087013590509295509295509295565b600181811c908216806148ec57607f821691505b60208210810361490c57634e487b7160e01b600052602260045260246000fd5b50919050565b6020808252601a908201527f436f6e747261637420696e20656d657267656e6379206d6f6465000000000000604082015260600190565b634e487b7160e01b600052601160045260246000fd5b60006001820161497157614971614949565b5060010190565b60208082526018908201527f5374617465206368616e6e656c206e6f74206163746976650000000000000000604082015260600190565b60208082526014908201527313dc99195c88191bd95cc81b9bdd08195e1a5cdd60621b604082015260600190565b60208082526016908201527513dc99195c88185b1c9958591e48195e1958dd5d195960521b604082015260600190565b60208082526017908201527f4f7264657220616c72656164792063616e63656c6c6564000000000000000000604082015260600190565b8082018082111561111f5761111f614949565b808202811582820484141761111f5761111f614949565b600082614a8b57634e487b7160e01b600052601260045260246000fd5b500490565b601f82111561157857600081815260208120601f850160051c81016020861015614ab75750805b601f850160051c820191505b81811015614ad657828155600101614ac3565b505050505050565b815167ffffffffffffffff811115614af857614af8614403565b614b0c81614b0684546148d8565b84614a90565b602080601f831160018114614b415760008415614b295750858301515b600019600386901b1c1916600185901b178555614ad6565b600085815260208120601f198616915b82811015614b7057888601518255948401946001909101908401614b51565b5085821015614b8e5787850151600019600388901b60f8161c191681555b5050505050600190811b01905550565b8281526040602082015260006143e26040830184614373565b6001600160601b0319606097881b811682529590961b909416601486015260288501929092526048840152151560f81b6068830152606982015260890190565b8181038181111561111f5761111f614949565b7f416363657373436f6e74726f6c3a206163636f756e7420000000000000000000815260008351614c4281601785016020880161434f565b7001034b99036b4b9b9b4b733903937b6329607d1b6017918401918201528351614c7381602884016020880161434f565b01602801949350505050565b602081526000612c3d6020830184614373565b634e487b7160e01b600052602160045260246000fd5b838152826020820152606060408201526000614cc76060830184614373565b95945050505050565b634e487b7160e01b600052603260045260246000fd5b600081614cf557614cf5614949565b50600019019056febf233dd2aafeb4d50879c4aa5c81e96d92f6e6945c906a58f9f2d1c1631b4b2697667070c54ef182b0f5858b034beac1b6f3089aa2d3188bb1e8929f4fa9b929a2646970667358221220fb6a8db6d066fd93e63a960fd1b82e07d8e07244d8e06c019ba3981b31db0c3664736f6c63430008130033","opcodes":"PUSH1 0x80 PUSH1 0x40 MSTORE CALLVALUE DUP1 ISZERO PUSH3 0x11 JUMPI PUSH1 0x0 DUP1 REVERT JUMPDEST POP PUSH1 0x40 MLOAD PUSH3 0x5172 CODESIZE SUB DUP1 PUSH3 0x5172 DUP4 CODECOPY DUP2 ADD PUSH1 0x40 DUP2 SWAP1 MSTORE PUSH3 0x34 SWAP2 PUSH3 0x3AE JUMP JUMPDEST PUSH1 0x1 PUSH1 0x0 DUP2 SWAP1 SSTORE DUP1 SLOAD PUSH1 0xFF NOT AND SWAP1 SSTORE DUP3 DUP3 PUSH1 0x3C DUP3 LT DUP1 ISZERO SWAP1 PUSH3 0x59 JUMPI POP PUSH2 0xE10 DUP3 GT ISZERO JUMPDEST PUSH3 0xAB JUMPI PUSH1 0x40 MLOAD PUSH3 0x461BCD PUSH1 0xE5 SHL DUP2 MSTORE PUSH1 0x20 PUSH1 0x4 DUP3 ADD MSTORE PUSH1 0x19 PUSH1 0x24 DUP3 ADD MSTORE PUSH32 0x496E76616C696420636F6D6D69746D656E742077696E646F7700000000000000 PUSH1 0x44 DUP3 ADD MSTORE PUSH1 0x64 ADD JUMPDEST PUSH1 0x40 MLOAD DUP1 SWAP2 SUB SWAP1 REVERT JUMPDEST PUSH2 0x12C DUP2 LT ISZERO DUP1 ISZERO PUSH3 0xC0 JUMPI POP PUSH2 0x1C20 DUP2 GT ISZERO JUMPDEST PUSH3 0x10E JUMPI PUSH1 0x40 MLOAD PUSH3 0x461BCD PUSH1 0xE5 SHL DUP2 MSTORE PUSH1 0x20 PUSH1 0x4 DUP3 ADD MSTORE PUSH1 0x15 PUSH1 0x24 DUP3 ADD MSTORE PUSH32 0x496E76616C69642072657665616C2077696E646F770000000000000000000000 PUSH1 0x44 DUP3 ADD MSTORE PUSH1 0x64 ADD PUSH3 0xA2 JUMP JUMPDEST DUP1 DUP3 LT PUSH3 0x185 JUMPI PUSH1 0x40 MLOAD PUSH3 0x461BCD PUSH1 0xE5 SHL DUP2 MSTORE PUSH1 0x20 PUSH1 0x4 DUP3 ADD MSTORE PUSH1 0x34 PUSH1 0x24 DUP3 ADD MSTORE PUSH32 0x436F6D6D69746D656E742077696E646F77206D7573742062652073686F727465 PUSH1 0x44 DUP3 ADD MSTORE PUSH32 0x72207468616E2072657665616C2077696E646F77000000000000000000000000 PUSH1 0x64 DUP3 ADD MSTORE PUSH1 0x84 ADD PUSH3 0xA2 JUMP JUMPDEST DUP6 DUP8 LT PUSH3 0x1D6 JUMPI PUSH1 0x40 MLOAD PUSH3 0x461BCD PUSH1 0xE5 SHL DUP2 MSTORE PUSH1 0x20 PUSH1 0x4 DUP3 ADD MSTORE PUSH1 0x14 PUSH1 0x24 DUP3 ADD MSTORE PUSH32 0x496E76616C6964206F72646572206C696D697473000000000000000000000000 PUSH1 0x44 DUP3 ADD MSTORE PUSH1 0x64 ADD PUSH3 0xA2 JUMP JUMPDEST PUSH2 0x3E8 DUP4 GT ISZERO PUSH3 0x219 JUMPI PUSH1 0x40 MLOAD PUSH3 0x461BCD PUSH1 0xE5 SHL DUP2 MSTORE PUSH1 0x20 PUSH1 0x4 DUP3 ADD MSTORE PUSH1 0xC PUSH1 0x24 DUP3 ADD MSTORE PUSH12 0x8CCACA40E8DEDE40D0D2CED PUSH1 0xA3 SHL PUSH1 0x44 DUP3 ADD MSTORE PUSH1 0x64 ADD PUSH3 0xA2 JUMP JUMPDEST PUSH1 0x9 DUP8 SWAP1 SSTORE PUSH1 0xA DUP7 SWAP1 SSTORE PUSH1 0xB DUP6 SWAP1 SSTORE PUSH1 0xC DUP5 SWAP1 SSTORE PUSH1 0xD DUP1 SLOAD PUSH1 0x1 PUSH1 0x1 PUSH1 0xA0 SHL SUB NOT AND CALLER SWAP1 DUP2 OR SWAP1 SWAP2 SSTORE PUSH1 0x40 DUP1 MLOAD PUSH1 0xA0 DUP2 ADD DUP3 MSTORE DUP6 DUP2 MSTORE PUSH1 0x20 DUP2 ADD DUP7 SWAP1 MSTORE TIMESTAMP SWAP2 DUP2 ADD DUP3 SWAP1 MSTORE PUSH9 0x3635C9ADC5DEA00000 PUSH1 0x60 DUP3 ADD DUP2 SWAP1 MSTORE PUSH1 0x64 PUSH1 0x80 SWAP1 SWAP3 ADD DUP3 SWAP1 MSTORE PUSH1 0xE DUP8 SWAP1 SSTORE PUSH1 0xF DUP8 SWAP1 SSTORE PUSH1 0x10 SWAP3 SWAP1 SWAP3 SSTORE PUSH1 0x11 SWAP2 SWAP1 SWAP2 SSTORE PUSH1 0x12 SSTORE PUSH3 0x29F SWAP1 PUSH1 0x0 SWAP1 PUSH3 0x309 JUMP JUMPDEST PUSH3 0x2CB PUSH32 0x97667070C54EF182B0F5858B034BEAC1B6F3089AA2D3188BB1E8929F4FA9B929 CALLER PUSH3 0x309 JUMP JUMPDEST PUSH3 0x2F7 PUSH32 0xBF233DD2AAFEB4D50879C4AA5C81E96D92F6E6945C906A58F9F2D1C1631B4B26 CALLER PUSH3 0x309 JUMP JUMPDEST POP POP TIMESTAMP PUSH1 0x16 SSTORE POP PUSH3 0x3EF SWAP4 POP POP POP POP JUMP JUMPDEST PUSH1 0x0 DUP3 DUP2 MSTORE PUSH1 0x2 PUSH1 0x20 SWAP1 DUP2 MSTORE PUSH1 0x40 DUP1 DUP4 KECCAK256 PUSH1 0x1 PUSH1 0x1 PUSH1 0xA0 SHL SUB DUP6 AND DUP5 MSTORE SWAP1 SWAP2 MSTORE SWAP1 KECCAK256 SLOAD PUSH1 0xFF AND PUSH3 0x3AA JUMPI PUSH1 0x0 DUP3 DUP2 MSTORE PUSH1 0x2 PUSH1 0x20 SWAP1 DUP2 MSTORE PUSH1 0x40 DUP1 DUP4 KECCAK256 PUSH1 0x1 PUSH1 0x1 PUSH1 0xA0 SHL SUB DUP6 AND DUP5 MSTORE SWAP1 SWAP2 MSTORE SWAP1 KECCAK256 DUP1 SLOAD PUSH1 0xFF NOT AND PUSH1 0x1 OR SWAP1 SSTORE PUSH3 0x369 CALLER SWAP1 JUMP JUMPDEST PUSH1 0x1 PUSH1 0x1 PUSH1 0xA0 SHL SUB AND DUP2 PUSH1 0x1 PUSH1 0x1 PUSH1 0xA0 SHL SUB AND DUP4 PUSH32 0x2F8788117E7EFF1D82E926EC794901D17C78024A50270940304540A733656F0D PUSH1 0x40 MLOAD PUSH1 0x40 MLOAD DUP1 SWAP2 SUB SWAP1 LOG4 JUMPDEST POP POP JUMP JUMPDEST PUSH1 0x0 DUP1 PUSH1 0x0 DUP1 PUSH1 0x0 PUSH1 0xA0 DUP7 DUP9 SUB SLT ISZERO PUSH3 0x3C7 JUMPI PUSH1 0x0 DUP1 REVERT JUMPDEST POP POP DUP4 MLOAD PUSH1 0x20 DUP6 ADD MLOAD PUSH1 0x40 DUP7 ADD MLOAD PUSH1 0x60 DUP8 ADD MLOAD PUSH1 0x80 SWAP1 SWAP8 ADD MLOAD SWAP3 SWAP9 SWAP2 SWAP8 POP SWAP6 SWAP5 POP SWAP1 SWAP3 POP SWAP1 POP JUMP JUMPDEST PUSH2 0x4D73 DUP1 PUSH3 0x3FF PUSH1 0x0 CODECOPY PUSH1 0x0 RETURN INVALID PUSH1 0x80 PUSH1 0x40 MSTORE PUSH1 0x4 CALLDATASIZE LT PUSH2 0x409 JUMPI PUSH1 0x0 CALLDATALOAD PUSH1 0xE0 SHR DUP1 PUSH4 0x97660411 GT PUSH2 0x213 JUMPI DUP1 PUSH4 0xC415B95C GT PUSH2 0x123 JUMPI DUP1 PUSH4 0xE5BD9FA1 GT PUSH2 0xAB JUMPI DUP1 PUSH4 0xF5B541A6 GT PUSH2 0x7A JUMPI DUP1 PUSH4 0xF5B541A6 EQ PUSH2 0xF81 JUMPI DUP1 PUSH4 0xF70D9362 EQ PUSH2 0xFA3 JUMPI DUP1 PUSH4 0xFCA516C7 EQ PUSH2 0xFB8 JUMPI DUP1 PUSH4 0xFCC6077D EQ PUSH2 0xFCB JUMPI DUP1 PUSH4 0xFEC0DB70 EQ PUSH2 0x10CE JUMPI PUSH1 0x0 DUP1 REVERT JUMPDEST DUP1 PUSH4 0xE5BD9FA1 EQ PUSH2 0xEA7 JUMPI DUP1 PUSH4 0xEB3ACC7B EQ PUSH2 0xEBD JUMPI DUP1 PUSH4 0xEF952568 EQ PUSH2 0xF56 JUMPI DUP1 PUSH4 0xF1A82C7E EQ PUSH2 0xF6B JUMPI PUSH1 0x0 DUP1 REVERT JUMPDEST DUP1 PUSH4 0xD55BE8C6 GT PUSH2 0xF2 JUMPI DUP1 PUSH4 0xD55BE8C6 EQ PUSH2 0xE31 JUMPI DUP1 PUSH4 0xDA31F67C EQ PUSH2 0xE47 JUMPI DUP1 PUSH4 0xDB2E21BC EQ PUSH2 0xE5C JUMPI DUP1 PUSH4 0xE275C997 EQ PUSH2 0xE71 JUMPI DUP1 PUSH4 0xE5AEBC41 EQ PUSH2 0xE87 JUMPI PUSH1 0x0 DUP1 REVERT JUMPDEST DUP1 PUSH4 0xC415B95C EQ PUSH2 0xDAE JUMPI DUP1 PUSH4 0xC5511C6D EQ PUSH2 0xDE6 JUMPI DUP1 PUSH4 0xC5B1C7D0 EQ PUSH2 0xDFC JUMPI DUP1 PUSH4 0xD547741F EQ PUSH2 0xE11 JUMPI PUSH1 0x0 DUP1 REVERT JUMPDEST DUP1 PUSH4 0xA9381D21 GT PUSH2 0x1A6 JUMPI DUP1 PUSH4 0xB0D54BCF GT PUSH2 0x175 JUMPI DUP1 PUSH4 0xB0D54BCF EQ PUSH2 0xD28 JUMPI DUP1 PUSH4 0xB219F7D7 EQ PUSH2 0xD48 JUMPI DUP1 PUSH4 0xBA9BF7D1 EQ PUSH2 0x858 JUMPI DUP1 PUSH4 0xBE4A7E26 EQ PUSH2 0xD68 JUMPI DUP1 PUSH4 0xBFBEECFB EQ PUSH2 0xD7E JUMPI PUSH1 0x0 DUP1 REVERT JUMPDEST DUP1 PUSH4 0xA9381D21 EQ PUSH2 0xCA8 JUMPI DUP1 PUSH4 0xA9F1A549 EQ PUSH2 0xCC8 JUMPI DUP1 PUSH4 0xACEF2EFC EQ PUSH2 0xCE8 JUMPI DUP1 PUSH4 0xAD943D62 EQ PUSH2 0xD08 JUMPI PUSH1 0x0 DUP1 REVERT JUMPDEST DUP1 PUSH4 0x9FE9ADA3 GT PUSH2 0x1E2 JUMPI DUP1 PUSH4 0x9FE9ADA3 EQ PUSH2 0xB8A JUMPI DUP1 PUSH4 0xA217FDDF EQ PUSH2 0xC5D JUMPI DUP1 PUSH4 0xA42DCE80 EQ PUSH2 0xC72 JUMPI DUP1 PUSH4 0xA674537F EQ PUSH2 0xC92 JUMPI PUSH1 0x0 DUP1 REVERT JUMPDEST DUP1 PUSH4 0x97660411 EQ PUSH2 0xA2B JUMPI DUP1 PUSH4 0x98C8877E EQ PUSH2 0xA4B JUMPI DUP1 PUSH4 0x990FBCC2 EQ PUSH2 0xA61 JUMPI DUP1 PUSH4 0x9C3F1E90 EQ PUSH2 0xA81 JUMPI PUSH1 0x0 DUP1 REVERT JUMPDEST DUP1 PUSH4 0x4C0C1FF1 GT PUSH2 0x319 JUMPI DUP1 PUSH4 0x7314EB0C GT PUSH2 0x2A1 JUMPI DUP1 PUSH4 0x8456CB59 GT PUSH2 0x270 JUMPI DUP1 PUSH4 0x8456CB59 EQ PUSH2 0x9AA JUMPI DUP1 PUSH4 0x863D22C7 EQ PUSH2 0x9BF JUMPI DUP1 PUSH4 0x8973BC7E EQ PUSH2 0x9D5 JUMPI DUP1 PUSH4 0x8D976CF6 EQ PUSH2 0x9EB JUMPI DUP1 PUSH4 0x91D14854 EQ PUSH2 0xA0B JUMPI PUSH1 0x0 DUP1 REVERT JUMPDEST DUP1 PUSH4 0x7314EB0C EQ PUSH2 0x934 JUMPI DUP1 PUSH4 0x7489EC23 EQ PUSH2 0x954 JUMPI DUP1 PUSH4 0x7A2888B0 EQ PUSH2 0x974 JUMPI DUP1 PUSH4 0x7FE3826E EQ PUSH2 0x98A JUMPI PUSH1 0x0 DUP1 REVERT JUMPDEST DUP1 PUSH4 0x5C975ABB GT PUSH2 0x2E8 JUMPI DUP1 PUSH4 0x5C975ABB EQ PUSH2 0x86E JUMPI DUP1 PUSH4 0x5FBBC0D2 EQ PUSH2 0x886 JUMPI DUP1 PUSH4 0x60D7442B EQ PUSH2 0x8DD JUMPI DUP1 PUSH4 0x61F073C8 EQ PUSH2 0x8F4 JUMPI DUP1 PUSH4 0x65F4BCE6 EQ PUSH2 0x914 JUMPI PUSH1 0x0 DUP1 REVERT JUMPDEST DUP1 PUSH4 0x4C0C1FF1 EQ PUSH2 0x6E6 JUMPI DUP1 PUSH4 0x554AC63F EQ PUSH2 0x6FC JUMPI DUP1 PUSH4 0x5778472A EQ PUSH2 0x711 JUMPI DUP1 PUSH4 0x58C61B06 EQ PUSH2 0x858 JUMPI PUSH1 0x0 DUP1 REVERT JUMPDEST DUP1 PUSH4 0x2AC16402 GT PUSH2 0x39C JUMPI DUP1 PUSH4 0x36869730 GT PUSH2 0x36B JUMPI DUP1 PUSH4 0x36869730 EQ PUSH2 0x5F8 JUMPI DUP1 PUSH4 0x3F4BA83A EQ PUSH2 0x60E JUMPI DUP1 PUSH4 0x451BF3E6 EQ PUSH2 0x623 JUMPI DUP1 PUSH4 0x47F89B41 EQ PUSH2 0x695 JUMPI DUP1 PUSH4 0x4B8764A5 EQ PUSH2 0x6B5 JUMPI PUSH1 0x0 DUP1 REVERT JUMPDEST DUP1 PUSH4 0x2AC16402 EQ PUSH2 0x578 JUMPI DUP1 PUSH4 0x2F2FF15D EQ PUSH2 0x598 JUMPI DUP1 PUSH4 0x354323E0 EQ PUSH2 0x5B8 JUMPI DUP1 PUSH4 0x36568ABE EQ PUSH2 0x5D8 JUMPI PUSH1 0x0 DUP1 REVERT JUMPDEST DUP1 PUSH4 0x1E5EB1D0 GT PUSH2 0x3D8 JUMPI DUP1 PUSH4 0x1E5EB1D0 EQ PUSH2 0x4B5 JUMPI DUP1 PUSH4 0x20DF4359 EQ PUSH2 0x504 JUMPI DUP1 PUSH4 0x248A9CA3 EQ PUSH2 0x526 JUMPI DUP1 PUSH4 0x27AC0C58 EQ PUSH2 0x556 JUMPI PUSH1 0x0 DUP1 REVERT JUMPDEST DUP1 PUSH4 0x1FFC9A7 EQ PUSH2 0x415 JUMPI DUP1 PUSH4 0x905F560 EQ PUSH2 0x44A JUMPI DUP1 PUSH4 0x112606D6 EQ PUSH2 0x464 JUMPI DUP1 PUSH4 0x16F8DE89 EQ PUSH2 0x491 JUMPI PUSH1 0x0 DUP1 REVERT JUMPDEST CALLDATASIZE PUSH2 0x410 JUMPI STOP JUMPDEST PUSH1 0x0 DUP1 REVERT JUMPDEST CALLVALUE DUP1 ISZERO PUSH2 0x421 JUMPI PUSH1 0x0 DUP1 REVERT JUMPDEST POP PUSH2 0x435 PUSH2 0x430 CALLDATASIZE PUSH1 0x4 PUSH2 0x42EE JUMP JUMPDEST PUSH2 0x10EE JUMP JUMPDEST PUSH1 0x40 MLOAD SWAP1 ISZERO ISZERO DUP2 MSTORE PUSH1 0x20 ADD JUMPDEST PUSH1 0x40 MLOAD DUP1 SWAP2 SUB SWAP1 RETURN JUMPDEST CALLVALUE DUP1 ISZERO PUSH2 0x456 JUMPI PUSH1 0x0 DUP1 REVERT JUMPDEST POP PUSH1 0x13 SLOAD PUSH2 0x435 SWAP1 PUSH1 0xFF AND DUP2 JUMP JUMPDEST CALLVALUE DUP1 ISZERO PUSH2 0x470 JUMPI PUSH1 0x0 DUP1 REVERT JUMPDEST POP PUSH2 0x484 PUSH2 0x47F CALLDATASIZE PUSH1 0x4 PUSH2 0x4334 JUMP JUMPDEST PUSH2 0x1125 JUMP JUMPDEST PUSH1 0x40 MLOAD PUSH2 0x441 SWAP2 SWAP1 PUSH2 0x439F JUMP JUMPDEST CALLVALUE DUP1 ISZERO PUSH2 0x49D JUMPI PUSH1 0x0 DUP1 REVERT JUMPDEST POP PUSH2 0x4A7 PUSH1 0x7 SLOAD DUP2 JUMP JUMPDEST PUSH1 0x40 MLOAD SWAP1 DUP2 MSTORE PUSH1 0x20 ADD PUSH2 0x441 JUMP JUMPDEST CALLVALUE DUP1 ISZERO PUSH2 0x4C1 JUMPI PUSH1 0x0 DUP1 REVERT JUMPDEST POP PUSH1 0xE SLOAD PUSH1 0xF SLOAD PUSH1 0x10 SLOAD PUSH1 0x11 SLOAD PUSH1 0x12 SLOAD PUSH2 0x4DC SWAP5 SWAP4 SWAP3 SWAP2 SWAP1 DUP6 JUMP JUMPDEST PUSH1 0x40 DUP1 MLOAD SWAP6 DUP7 MSTORE PUSH1 0x20 DUP7 ADD SWAP5 SWAP1 SWAP5 MSTORE SWAP3 DUP5 ADD SWAP2 SWAP1 SWAP2 MSTORE PUSH1 0x60 DUP4 ADD MSTORE PUSH1 0x80 DUP3 ADD MSTORE PUSH1 0xA0 ADD PUSH2 0x441 JUMP JUMPDEST CALLVALUE DUP1 ISZERO PUSH2 0x510 JUMPI PUSH1 0x0 DUP1 REVERT JUMPDEST POP PUSH2 0x4A7 PUSH1 0x0 DUP1 MLOAD PUSH1 0x20 PUSH2 0x4CFE DUP4 CODECOPY DUP2 MLOAD SWAP2 MSTORE DUP2 JUMP JUMPDEST CALLVALUE DUP1 ISZERO PUSH2 0x532 JUMPI PUSH1 0x0 DUP1 REVERT JUMPDEST POP PUSH2 0x4A7 PUSH2 0x541 CALLDATASIZE PUSH1 0x4 PUSH2 0x43EA JUMP JUMPDEST PUSH1 0x0 SWAP1 DUP2 MSTORE PUSH1 0x2 PUSH1 0x20 MSTORE PUSH1 0x40 SWAP1 KECCAK256 PUSH1 0x1 ADD SLOAD SWAP1 JUMP JUMPDEST CALLVALUE DUP1 ISZERO PUSH2 0x562 JUMPI PUSH1 0x0 DUP1 REVERT JUMPDEST POP PUSH2 0x576 PUSH2 0x571 CALLDATASIZE PUSH1 0x4 PUSH2 0x4334 JUMP JUMPDEST PUSH2 0x122F JUMP JUMPDEST STOP JUMPDEST CALLVALUE DUP1 ISZERO PUSH2 0x584 JUMPI PUSH1 0x0 DUP1 REVERT JUMPDEST POP PUSH2 0x576 PUSH2 0x593 CALLDATASIZE PUSH1 0x4 PUSH2 0x44AF JUMP JUMPDEST PUSH2 0x1256 JUMP JUMPDEST CALLVALUE DUP1 ISZERO PUSH2 0x5A4 JUMPI PUSH1 0x0 DUP1 REVERT JUMPDEST POP PUSH2 0x576 PUSH2 0x5B3 CALLDATASIZE PUSH1 0x4 PUSH2 0x451C JUMP JUMPDEST PUSH2 0x157D JUMP JUMPDEST CALLVALUE DUP1 ISZERO PUSH2 0x5C4 JUMPI PUSH1 0x0 DUP1 REVERT JUMPDEST POP PUSH2 0x576 PUSH2 0x5D3 CALLDATASIZE PUSH1 0x4 PUSH2 0x43EA JUMP JUMPDEST PUSH2 0x15A2 JUMP JUMPDEST CALLVALUE DUP1 ISZERO PUSH2 0x5E4 JUMPI PUSH1 0x0 DUP1 REVERT JUMPDEST POP PUSH2 0x576 PUSH2 0x5F3 CALLDATASIZE PUSH1 0x4 PUSH2 0x451C JUMP JUMPDEST PUSH2 0x1611 JUMP JUMPDEST CALLVALUE DUP1 ISZERO PUSH2 0x604 JUMPI PUSH1 0x0 DUP1 REVERT JUMPDEST POP PUSH2 0x4A7 PUSH2 0x12C DUP2 JUMP JUMPDEST CALLVALUE DUP1 ISZERO PUSH2 0x61A JUMPI PUSH1 0x0 DUP1 REVERT JUMPDEST POP PUSH2 0x576 PUSH2 0x168B JUMP JUMPDEST CALLVALUE DUP1 ISZERO PUSH2 0x62F JUMPI PUSH1 0x0 DUP1 REVERT JUMPDEST POP PUSH2 0x643 PUSH2 0x63E CALLDATASIZE PUSH1 0x4 PUSH2 0x4334 JUMP JUMPDEST PUSH2 0x16A1 JUMP JUMPDEST PUSH1 0x40 MLOAD PUSH2 0x441 SWAP2 SWAP1 DUP2 MLOAD PUSH1 0x1 PUSH1 0x1 PUSH1 0xA0 SHL SUB AND DUP2 MSTORE PUSH1 0x20 DUP1 DUP4 ADD MLOAD SWAP1 DUP3 ADD MSTORE PUSH1 0x40 DUP1 DUP4 ADD MLOAD SWAP1 DUP3 ADD MSTORE PUSH1 0x60 DUP1 DUP4 ADD MLOAD SWAP1 DUP3 ADD MSTORE PUSH1 0x80 DUP1 DUP4 ADD MLOAD ISZERO ISZERO SWAP1 DUP3 ADD MSTORE PUSH1 0xA0 SWAP2 DUP3 ADD MLOAD SWAP2 DUP2 ADD SWAP2 SWAP1 SWAP2 MSTORE PUSH1 0xC0 ADD SWAP1 JUMP JUMPDEST CALLVALUE DUP1 ISZERO PUSH2 0x6A1 JUMPI PUSH1 0x0 DUP1 REVERT JUMPDEST POP PUSH2 0x576 PUSH2 0x6B0 CALLDATASIZE PUSH1 0x4 PUSH2 0x43EA JUMP JUMPDEST PUSH2 0x174D JUMP JUMPDEST CALLVALUE DUP1 ISZERO PUSH2 0x6C1 JUMPI PUSH1 0x0 DUP1 REVERT JUMPDEST POP PUSH1 0x15 SLOAD PUSH1 0x17 SLOAD PUSH1 0x16 SLOAD PUSH1 0x40 DUP1 MLOAD SWAP4 DUP5 MSTORE PUSH1 0x20 DUP5 ADD SWAP3 SWAP1 SWAP3 MSTORE SWAP1 DUP3 ADD MSTORE PUSH1 0x60 ADD PUSH2 0x441 JUMP JUMPDEST CALLVALUE DUP1 ISZERO PUSH2 0x6F2 JUMPI PUSH1 0x0 DUP1 REVERT JUMPDEST POP PUSH2 0x4A7 PUSH2 0x1F4 DUP2 JUMP JUMPDEST CALLVALUE DUP1 ISZERO PUSH2 0x708 JUMPI PUSH1 0x0 DUP1 REVERT JUMPDEST POP PUSH2 0x4A7 PUSH1 0x3C DUP2 JUMP JUMPDEST CALLVALUE DUP1 ISZERO PUSH2 0x71D JUMPI PUSH1 0x0 DUP1 REVERT JUMPDEST POP PUSH2 0x84B PUSH2 0x72C CALLDATASIZE PUSH1 0x4 PUSH2 0x43EA JUMP JUMPDEST PUSH1 0x40 DUP1 MLOAD PUSH2 0x180 DUP2 ADD DUP3 MSTORE PUSH1 0x0 DUP1 DUP3 MSTORE PUSH1 0x20 DUP3 ADD DUP2 SWAP1 MSTORE SWAP2 DUP2 ADD DUP3 SWAP1 MSTORE PUSH1 0x60 DUP2 ADD DUP3 SWAP1 MSTORE PUSH1 0x80 DUP2 ADD DUP3 SWAP1 MSTORE PUSH1 0xA0 DUP2 ADD DUP3 SWAP1 MSTORE PUSH1 0xC0 DUP2 ADD DUP3 SWAP1 MSTORE PUSH1 0xE0 DUP2 ADD DUP3 SWAP1 MSTORE PUSH2 0x100 DUP2 ADD DUP3 SWAP1 MSTORE PUSH2 0x120 DUP2 ADD DUP3 SWAP1 MSTORE PUSH2 0x140 DUP2 ADD DUP3 SWAP1 MSTORE PUSH2 0x160 DUP2 ADD SWAP2 SWAP1 SWAP2 MSTORE POP PUSH1 0x0 SWAP1 DUP2 MSTORE PUSH1 0x3 PUSH1 0x20 DUP2 DUP2 MSTORE PUSH1 0x40 SWAP3 DUP4 SWAP1 KECCAK256 DUP4 MLOAD PUSH2 0x180 DUP2 ADD DUP6 MSTORE DUP2 SLOAD PUSH1 0x1 PUSH1 0x1 PUSH1 0xA0 SHL SUB SWAP1 DUP2 AND DUP3 MSTORE PUSH1 0x1 DUP4 ADD SLOAD DUP2 AND SWAP4 DUP3 ADD SWAP4 SWAP1 SWAP4 MSTORE PUSH1 0x2 DUP3 ADD SLOAD SWAP1 SWAP3 AND SWAP4 DUP3 ADD SWAP4 SWAP1 SWAP4 MSTORE SWAP1 DUP3 ADD SLOAD PUSH1 0x60 DUP3 ADD MSTORE PUSH1 0x4 DUP3 ADD SLOAD PUSH1 0x80 DUP3 ADD MSTORE PUSH1 0x5 DUP3 ADD SLOAD PUSH1 0xA0 DUP3 ADD MSTORE PUSH1 0x6 DUP3 ADD SLOAD PUSH1 0xC0 DUP3 ADD MSTORE PUSH1 0x7 DUP3 ADD SLOAD PUSH1 0xFF DUP1 DUP3 AND ISZERO ISZERO PUSH1 0xE0 DUP5 ADD MSTORE PUSH2 0x100 DUP1 DUP4 DIV DUP3 AND ISZERO ISZERO SWAP1 DUP5 ADD MSTORE PUSH3 0x10000 DUP3 DIV DUP2 AND ISZERO ISZERO PUSH2 0x120 DUP5 ADD MSTORE PUSH4 0x1000000 SWAP1 SWAP2 DIV AND ISZERO ISZERO PUSH2 0x140 DUP3 ADD MSTORE PUSH1 0x8 SWAP1 SWAP2 ADD SLOAD PUSH2 0x160 DUP3 ADD MSTORE SWAP1 JUMP JUMPDEST PUSH1 0x40 MLOAD PUSH2 0x441 SWAP2 SWAP1 PUSH2 0x4548 JUMP JUMPDEST CALLVALUE DUP1 ISZERO PUSH2 0x864 JUMPI PUSH1 0x0 DUP1 REVERT JUMPDEST POP PUSH2 0x4A7 PUSH2 0xE10 DUP2 JUMP JUMPDEST CALLVALUE DUP1 ISZERO PUSH2 0x87A JUMPI PUSH1 0x0 DUP1 REVERT JUMPDEST POP PUSH1 0x1 SLOAD PUSH1 0xFF AND PUSH2 0x435 JUMP JUMPDEST CALLVALUE DUP1 ISZERO PUSH2 0x892 JUMPI PUSH1 0x0 DUP1 REVERT JUMPDEST POP PUSH2 0x89B PUSH2 0x1AC6 JUMP JUMPDEST PUSH1 0x40 MLOAD PUSH2 0x441 SWAP2 SWAP1 PUSH1 0x0 PUSH1 0xA0 DUP3 ADD SWAP1 POP DUP3 MLOAD DUP3 MSTORE PUSH1 0x20 DUP4 ADD MLOAD PUSH1 0x20 DUP4 ADD MSTORE PUSH1 0x40 DUP4 ADD MLOAD PUSH1 0x40 DUP4 ADD MSTORE PUSH1 0x60 DUP4 ADD MLOAD PUSH1 0x60 DUP4 ADD MSTORE PUSH1 0x80 DUP4 ADD MLOAD PUSH1 0x80 DUP4 ADD MSTORE SWAP3 SWAP2 POP POP JUMP JUMPDEST CALLVALUE DUP1 ISZERO PUSH2 0x8E9 JUMPI PUSH1 0x0 DUP1 REVERT JUMPDEST POP PUSH2 0x4A7 PUSH3 0x15180 DUP2 JUMP JUMPDEST CALLVALUE DUP1 ISZERO PUSH2 0x900 JUMPI PUSH1 0x0 DUP1 REVERT JUMPDEST POP PUSH2 0x576 PUSH2 0x90F CALLDATASIZE PUSH1 0x4 PUSH2 0x4605 JUMP JUMPDEST PUSH2 0x1B2D JUMP JUMPDEST CALLVALUE DUP1 ISZERO PUSH2 0x920 JUMPI PUSH1 0x0 DUP1 REVERT JUMPDEST POP PUSH2 0x576 PUSH2 0x92F CALLDATASIZE PUSH1 0x4 PUSH2 0x4666 JUMP JUMPDEST PUSH2 0x1D02 JUMP JUMPDEST CALLVALUE DUP1 ISZERO PUSH2 0x940 JUMPI PUSH1 0x0 DUP1 REVERT JUMPDEST POP PUSH2 0x576 PUSH2 0x94F CALLDATASIZE PUSH1 0x4 PUSH2 0x4334 JUMP JUMPDEST PUSH2 0x1E7C JUMP JUMPDEST CALLVALUE DUP1 ISZERO PUSH2 0x960 JUMPI PUSH1 0x0 DUP1 REVERT JUMPDEST POP PUSH2 0x576 PUSH2 0x96F CALLDATASIZE PUSH1 0x4 PUSH2 0x43EA JUMP JUMPDEST PUSH2 0x1E9F JUMP JUMPDEST CALLVALUE DUP1 ISZERO PUSH2 0x980 JUMPI PUSH1 0x0 DUP1 REVERT JUMPDEST POP PUSH2 0x4A7 PUSH1 0x14 SLOAD DUP2 JUMP JUMPDEST CALLVALUE DUP1 ISZERO PUSH2 0x996 JUMPI PUSH1 0x0 DUP1 REVERT JUMPDEST POP PUSH2 0x576 PUSH2 0x9A5 CALLDATASIZE PUSH1 0x4 PUSH2 0x4666 JUMP JUMPDEST PUSH2 0x20CA JUMP JUMPDEST CALLVALUE DUP1 ISZERO PUSH2 0x9B6 JUMPI PUSH1 0x0 DUP1 REVERT JUMPDEST POP PUSH2 0x576 PUSH2 0x26B0 JUMP JUMPDEST CALLVALUE DUP1 ISZERO PUSH2 0x9CB JUMPI PUSH1 0x0 DUP1 REVERT JUMPDEST POP PUSH2 0x4A7 PUSH1 0xC SLOAD DUP2 JUMP JUMPDEST CALLVALUE DUP1 ISZERO PUSH2 0x9E1 JUMPI PUSH1 0x0 DUP1 REVERT JUMPDEST POP PUSH2 0x4A7 PUSH2 0x1C20 DUP2 JUMP JUMPDEST CALLVALUE DUP1 ISZERO PUSH2 0x9F7 JUMPI PUSH1 0x0 DUP1 REVERT JUMPDEST POP PUSH2 0x576 PUSH2 0xA06 CALLDATASIZE PUSH1 0x4 PUSH2 0x4688 JUMP JUMPDEST PUSH2 0x26C3 JUMP JUMPDEST CALLVALUE DUP1 ISZERO PUSH2 0xA17 JUMPI PUSH1 0x0 DUP1 REVERT JUMPDEST POP PUSH2 0x435 PUSH2 0xA26 CALLDATASIZE PUSH1 0x4 PUSH2 0x451C JUMP JUMPDEST PUSH2 0x287C JUMP JUMPDEST CALLVALUE DUP1 ISZERO PUSH2 0xA37 JUMPI PUSH1 0x0 DUP1 REVERT JUMPDEST POP PUSH2 0x576 PUSH2 0xA46 CALLDATASIZE PUSH1 0x4 PUSH2 0x46D1 JUMP JUMPDEST PUSH2 0x28A7 JUMP JUMPDEST CALLVALUE DUP1 ISZERO PUSH2 0xA57 JUMPI PUSH1 0x0 DUP1 REVERT JUMPDEST POP PUSH2 0x4A7 PUSH1 0x15 SLOAD DUP2 JUMP JUMPDEST CALLVALUE DUP1 ISZERO PUSH2 0xA6D JUMPI PUSH1 0x0 DUP1 REVERT JUMPDEST POP PUSH2 0x576 PUSH2 0xA7C CALLDATASIZE PUSH1 0x4 PUSH2 0x43EA JUMP JUMPDEST PUSH2 0x2A66 JUMP JUMPDEST CALLVALUE DUP1 ISZERO PUSH2 0xA8D JUMPI PUSH1 0x0 DUP1 REVERT JUMPDEST POP PUSH2 0xB18 PUSH2 0xA9C CALLDATASIZE PUSH1 0x4 PUSH2 0x43EA JUMP JUMPDEST PUSH1 0x3 PUSH1 0x20 DUP2 SWAP1 MSTORE PUSH1 0x0 SWAP2 DUP3 MSTORE PUSH1 0x40 SWAP1 SWAP2 KECCAK256 DUP1 SLOAD PUSH1 0x1 DUP3 ADD SLOAD PUSH1 0x2 DUP4 ADD SLOAD SWAP4 DUP4 ADD SLOAD PUSH1 0x4 DUP5 ADD SLOAD PUSH1 0x5 DUP6 ADD SLOAD PUSH1 0x6 DUP7 ADD SLOAD PUSH1 0x7 DUP8 ADD SLOAD PUSH1 0x8 SWAP1 SWAP8 ADD SLOAD PUSH1 0x1 PUSH1 0x1 PUSH1 0xA0 SHL SUB SWAP7 DUP8 AND SWAP9 SWAP6 DUP8 AND SWAP8 SWAP7 SWAP1 SWAP6 AND SWAP6 SWAP4 SWAP5 SWAP3 SWAP4 SWAP2 SWAP3 SWAP1 SWAP2 PUSH1 0xFF DUP1 DUP3 AND SWAP3 PUSH2 0x100 DUP4 DIV DUP3 AND SWAP3 PUSH3 0x10000 DUP2 DIV DUP4 AND SWAP3 PUSH4 0x1000000 SWAP1 SWAP2 DIV AND SWAP1 DUP13 JUMP JUMPDEST PUSH1 0x40 DUP1 MLOAD PUSH1 0x1 PUSH1 0x1 PUSH1 0xA0 SHL SUB SWAP14 DUP15 AND DUP2 MSTORE SWAP12 DUP14 AND PUSH1 0x20 DUP14 ADD MSTORE SWAP10 SWAP1 SWAP12 AND SWAP9 DUP11 ADD SWAP9 SWAP1 SWAP9 MSTORE PUSH1 0x60 DUP10 ADD SWAP7 SWAP1 SWAP7 MSTORE PUSH1 0x80 DUP9 ADD SWAP5 SWAP1 SWAP5 MSTORE PUSH1 0xA0 DUP8 ADD SWAP3 SWAP1 SWAP3 MSTORE PUSH1 0xC0 DUP7 ADD MSTORE ISZERO ISZERO PUSH1 0xE0 DUP6 ADD MSTORE ISZERO ISZERO PUSH2 0x100 DUP5 ADD MSTORE ISZERO ISZERO PUSH2 0x120 DUP4 ADD MSTORE ISZERO ISZERO PUSH2 0x140 DUP3 ADD MSTORE PUSH2 0x160 DUP2 ADD SWAP2 SWAP1 SWAP2 MSTORE PUSH2 0x180 ADD PUSH2 0x441 JUMP JUMPDEST CALLVALUE DUP1 ISZERO PUSH2 0xB96 JUMPI PUSH1 0x0 DUP1 REVERT JUMPDEST POP PUSH2 0xC05 PUSH2 0xBA5 CALLDATASIZE PUSH1 0x4 PUSH2 0x43EA JUMP JUMPDEST PUSH1 0x5 PUSH1 0x20 DUP2 SWAP1 MSTORE PUSH1 0x0 SWAP2 DUP3 MSTORE PUSH1 0x40 SWAP1 SWAP2 KECCAK256 DUP1 SLOAD PUSH1 0x1 DUP3 ADD SLOAD PUSH1 0x2 DUP4 ADD SLOAD PUSH1 0x3 DUP5 ADD SLOAD PUSH1 0x4 DUP6 ADD SLOAD SWAP6 DUP6 ADD SLOAD PUSH1 0x6 DUP7 ADD SLOAD PUSH1 0x7 SWAP1 SWAP7 ADD SLOAD PUSH1 0x1 PUSH1 0x1 PUSH1 0xA0 SHL SUB SWAP6 DUP7 AND SWAP8 SWAP5 DUP7 AND SWAP7 SWAP4 DUP7 AND SWAP6 SWAP1 SWAP3 AND SWAP4 SWAP3 SWAP1 SWAP2 PUSH1 0xFF DUP1 DUP3 AND SWAP2 PUSH2 0x100 SWAP1 DIV AND DUP10 JUMP JUMPDEST PUSH1 0x40 DUP1 MLOAD PUSH1 0x1 PUSH1 0x1 PUSH1 0xA0 SHL SUB SWAP11 DUP12 AND DUP2 MSTORE SWAP9 DUP11 AND PUSH1 0x20 DUP11 ADD MSTORE SWAP7 DUP10 AND SWAP7 DUP9 ADD SWAP7 SWAP1 SWAP7 MSTORE SWAP7 SWAP1 SWAP4 AND PUSH1 0x60 DUP7 ADD MSTORE PUSH1 0x80 DUP6 ADD SWAP2 SWAP1 SWAP2 MSTORE PUSH1 0xA0 DUP5 ADD MSTORE PUSH1 0xC0 DUP4 ADD MSTORE SWAP2 ISZERO ISZERO PUSH1 0xE0 DUP3 ADD MSTORE SWAP1 ISZERO ISZERO PUSH2 0x100 DUP3 ADD MSTORE PUSH2 0x120 ADD PUSH2 0x441 JUMP JUMPDEST CALLVALUE DUP1 ISZERO PUSH2 0xC69 JUMPI PUSH1 0x0 DUP1 REVERT JUMPDEST POP PUSH2 0x4A7 PUSH1 0x0 DUP2 JUMP JUMPDEST CALLVALUE DUP1 ISZERO PUSH2 0xC7E JUMPI PUSH1 0x0 DUP1 REVERT JUMPDEST POP PUSH2 0x576 PUSH2 0xC8D CALLDATASIZE PUSH1 0x4 PUSH2 0x4334 JUMP JUMPDEST PUSH2 0x2ABB JUMP JUMPDEST CALLVALUE DUP1 ISZERO PUSH2 0xC9E JUMPI PUSH1 0x0 DUP1 REVERT JUMPDEST POP PUSH2 0x4A7 PUSH1 0x9 SLOAD DUP2 JUMP JUMPDEST CALLVALUE DUP1 ISZERO PUSH2 0xCB4 JUMPI PUSH1 0x0 DUP1 REVERT JUMPDEST POP PUSH2 0x576 PUSH2 0xCC3 CALLDATASIZE PUSH1 0x4 PUSH2 0x4666 JUMP JUMPDEST PUSH2 0x2B71 JUMP JUMPDEST CALLVALUE DUP1 ISZERO PUSH2 0xCD4 JUMPI PUSH1 0x0 DUP1 REVERT JUMPDEST POP PUSH2 0x435 PUSH2 0xCE3 CALLDATASIZE PUSH1 0x4 PUSH2 0x4334 JUMP JUMPDEST PUSH2 0x2BFC JUMP JUMPDEST CALLVALUE DUP1 ISZERO PUSH2 0xCF4 JUMPI PUSH1 0x0 DUP1 REVERT JUMPDEST POP PUSH2 0x576 PUSH2 0xD03 CALLDATASIZE PUSH1 0x4 PUSH2 0x4334 JUMP JUMPDEST PUSH2 0x2C44 JUMP JUMPDEST CALLVALUE DUP1 ISZERO PUSH2 0xD14 JUMPI PUSH1 0x0 DUP1 REVERT JUMPDEST POP PUSH2 0x576 PUSH2 0xD23 CALLDATASIZE PUSH1 0x4 PUSH2 0x4334 JUMP JUMPDEST PUSH2 0x2C67 JUMP JUMPDEST CALLVALUE DUP1 ISZERO PUSH2 0xD34 JUMPI PUSH1 0x0 DUP1 REVERT JUMPDEST POP PUSH2 0x576 PUSH2 0xD43 CALLDATASIZE PUSH1 0x4 PUSH2 0x43EA JUMP JUMPDEST PUSH2 0x2F39 JUMP JUMPDEST CALLVALUE DUP1 ISZERO PUSH2 0xD54 JUMPI PUSH1 0x0 DUP1 REVERT JUMPDEST POP PUSH2 0x576 PUSH2 0xD63 CALLDATASIZE PUSH1 0x4 PUSH2 0x4334 JUMP JUMPDEST PUSH2 0x2FC3 JUMP JUMPDEST CALLVALUE DUP1 ISZERO PUSH2 0xD74 JUMPI PUSH1 0x0 DUP1 REVERT JUMPDEST POP PUSH2 0x4A7 PUSH1 0xB SLOAD DUP2 JUMP JUMPDEST CALLVALUE DUP1 ISZERO PUSH2 0xD8A JUMPI PUSH1 0x0 DUP1 REVERT JUMPDEST POP PUSH2 0xD9E PUSH2 0xD99 CALLDATASIZE PUSH1 0x4 PUSH2 0x4334 JUMP JUMPDEST PUSH2 0x2FE6 JUMP JUMPDEST PUSH1 0x40 MLOAD PUSH2 0x441 SWAP5 SWAP4 SWAP3 SWAP2 SWAP1 PUSH2 0x471E JUMP JUMPDEST CALLVALUE DUP1 ISZERO PUSH2 0xDBA JUMPI PUSH1 0x0 DUP1 REVERT JUMPDEST POP PUSH1 0xD SLOAD PUSH2 0xDCE SWAP1 PUSH1 0x1 PUSH1 0x1 PUSH1 0xA0 SHL SUB AND DUP2 JUMP JUMPDEST PUSH1 0x40 MLOAD PUSH1 0x1 PUSH1 0x1 PUSH1 0xA0 SHL SUB SWAP1 SWAP2 AND DUP2 MSTORE PUSH1 0x20 ADD PUSH2 0x441 JUMP JUMPDEST CALLVALUE DUP1 ISZERO PUSH2 0xDF2 JUMPI PUSH1 0x0 DUP1 REVERT JUMPDEST POP PUSH2 0x4A7 PUSH1 0x8 SLOAD DUP2 JUMP JUMPDEST CALLVALUE DUP1 ISZERO PUSH2 0xE08 JUMPI PUSH1 0x0 DUP1 REVERT JUMPDEST POP PUSH2 0x576 PUSH2 0x30A7 JUMP JUMPDEST CALLVALUE DUP1 ISZERO PUSH2 0xE1D JUMPI PUSH1 0x0 DUP1 REVERT JUMPDEST POP PUSH2 0x576 PUSH2 0xE2C CALLDATASIZE PUSH1 0x4 PUSH2 0x451C JUMP JUMPDEST PUSH2 0x3171 JUMP JUMPDEST CALLVALUE DUP1 ISZERO PUSH2 0xE3D JUMPI PUSH1 0x0 DUP1 REVERT JUMPDEST POP PUSH2 0x4A7 PUSH2 0x3E8 DUP2 JUMP JUMPDEST CALLVALUE DUP1 ISZERO PUSH2 0xE53 JUMPI PUSH1 0x0 DUP1 REVERT JUMPDEST POP PUSH2 0x4A7 PUSH1 0x1 DUP2 JUMP JUMPDEST CALLVALUE DUP1 ISZERO PUSH2 0xE68 JUMPI PUSH1 0x0 DUP1 REVERT JUMPDEST POP PUSH2 0x576 PUSH2 0x3196 JUMP JUMPDEST CALLVALUE DUP1 ISZERO PUSH2 0xE7D JUMPI PUSH1 0x0 DUP1 REVERT JUMPDEST POP PUSH2 0x4A7 PUSH1 0x17 SLOAD DUP2 JUMP JUMPDEST CALLVALUE DUP1 ISZERO PUSH2 0xE93 JUMPI PUSH1 0x0 DUP1 REVERT JUMPDEST POP PUSH2 0x576 PUSH2 0xEA2 CALLDATASIZE PUSH1 0x4 PUSH2 0x4767 JUMP JUMPDEST PUSH2 0x31CD JUMP JUMPDEST CALLVALUE DUP1 ISZERO PUSH2 0xEB3 JUMPI PUSH1 0x0 DUP1 REVERT JUMPDEST POP PUSH2 0x4A7 PUSH1 0x16 SLOAD DUP2 JUMP JUMPDEST CALLVALUE DUP1 ISZERO PUSH2 0xEC9 JUMPI PUSH1 0x0 DUP1 REVERT JUMPDEST POP PUSH2 0xF1D PUSH2 0xED8 CALLDATASIZE PUSH1 0x4 PUSH2 0x4334 JUMP JUMPDEST PUSH1 0x4 PUSH1 0x20 DUP2 SWAP1 MSTORE PUSH1 0x0 SWAP2 DUP3 MSTORE PUSH1 0x40 SWAP1 SWAP2 KECCAK256 DUP1 SLOAD PUSH1 0x1 DUP3 ADD SLOAD PUSH1 0x2 DUP4 ADD SLOAD PUSH1 0x3 DUP5 ADD SLOAD SWAP5 DUP5 ADD SLOAD PUSH1 0x5 SWAP1 SWAP5 ADD SLOAD PUSH1 0x1 PUSH1 0x1 PUSH1 0xA0 SHL SUB SWAP1 SWAP4 AND SWAP5 SWAP2 SWAP4 SWAP1 SWAP3 PUSH1 0xFF SWAP1 SWAP2 AND SWAP1 DUP7 JUMP JUMPDEST PUSH1 0x40 DUP1 MLOAD PUSH1 0x1 PUSH1 0x1 PUSH1 0xA0 SHL SUB SWAP1 SWAP8 AND DUP8 MSTORE PUSH1 0x20 DUP8 ADD SWAP6 SWAP1 SWAP6 MSTORE SWAP4 DUP6 ADD SWAP3 SWAP1 SWAP3 MSTORE PUSH1 0x60 DUP5 ADD MSTORE ISZERO ISZERO PUSH1 0x80 DUP4 ADD MSTORE PUSH1 0xA0 DUP3 ADD MSTORE PUSH1 0xC0 ADD PUSH2 0x441 JUMP JUMPDEST CALLVALUE DUP1 ISZERO PUSH2 0xF62 JUMPI PUSH1 0x0 DUP1 REVERT JUMPDEST POP PUSH2 0x576 PUSH2 0x3623 JUMP JUMPDEST CALLVALUE DUP1 ISZERO PUSH2 0xF77 JUMPI PUSH1 0x0 DUP1 REVERT JUMPDEST POP PUSH2 0x4A7 PUSH1 0xA SLOAD DUP2 JUMP JUMPDEST CALLVALUE DUP1 ISZERO PUSH2 0xF8D JUMPI PUSH1 0x0 DUP1 REVERT JUMPDEST POP PUSH2 0x4A7 PUSH1 0x0 DUP1 MLOAD PUSH1 0x20 PUSH2 0x4D1E DUP4 CODECOPY DUP2 MLOAD SWAP2 MSTORE DUP2 JUMP JUMPDEST CALLVALUE DUP1 ISZERO PUSH2 0xFAF JUMPI PUSH1 0x0 DUP1 REVERT JUMPDEST POP PUSH1 0xF SLOAD PUSH2 0x4A7 JUMP JUMPDEST PUSH2 0x576 PUSH2 0xFC6 CALLDATASIZE PUSH1 0x4 PUSH2 0x47D1 JUMP JUMPDEST PUSH2 0x368A JUMP JUMPDEST CALLVALUE DUP1 ISZERO PUSH2 0xFD7 JUMPI PUSH1 0x0 DUP1 REVERT JUMPDEST POP PUSH2 0x10C1 PUSH2 0xFE6 CALLDATASIZE PUSH1 0x4 PUSH2 0x43EA JUMP JUMPDEST PUSH1 0x40 DUP1 MLOAD PUSH2 0x120 DUP2 ADD DUP3 MSTORE PUSH1 0x0 DUP1 DUP3 MSTORE PUSH1 0x20 DUP3 ADD DUP2 SWAP1 MSTORE SWAP2 DUP2 ADD DUP3 SWAP1 MSTORE PUSH1 0x60 DUP2 ADD DUP3 SWAP1 MSTORE PUSH1 0x80 DUP2 ADD DUP3 SWAP1 MSTORE PUSH1 0xA0 DUP2 ADD DUP3 SWAP1 MSTORE PUSH1 0xC0 DUP2 ADD DUP3 SWAP1 MSTORE PUSH1 0xE0 DUP2 ADD DUP3 SWAP1 MSTORE PUSH2 0x100 DUP2 ADD SWAP2 SWAP1 SWAP2 MSTORE POP PUSH1 0x0 SWAP1 DUP2 MSTORE PUSH1 0x5 PUSH1 0x20 DUP2 DUP2 MSTORE PUSH1 0x40 SWAP3 DUP4 SWAP1 KECCAK256 DUP4 MLOAD PUSH2 0x120 DUP2 ADD DUP6 MSTORE DUP2 SLOAD PUSH1 0x1 PUSH1 0x1 PUSH1 0xA0 SHL SUB SWAP1 DUP2 AND DUP3 MSTORE PUSH1 0x1 DUP4 ADD SLOAD DUP2 AND SWAP4 DUP3 ADD SWAP4 SWAP1 SWAP4 MSTORE PUSH1 0x2 DUP3 ADD SLOAD DUP4 AND SWAP5 DUP2 ADD SWAP5 SWAP1 SWAP5 MSTORE PUSH1 0x3 DUP2 ADD SLOAD SWAP1 SWAP2 AND PUSH1 0x60 DUP5 ADD MSTORE PUSH1 0x4 DUP2 ADD SLOAD PUSH1 0x80 DUP5 ADD MSTORE SWAP1 DUP2 ADD SLOAD PUSH1 0xA0 DUP4 ADD MSTORE PUSH1 0x6 DUP2 ADD SLOAD PUSH1 0xC0 DUP4 ADD MSTORE PUSH1 0x7 ADD SLOAD PUSH1 0xFF DUP1 DUP3 AND ISZERO ISZERO PUSH1 0xE0 DUP5 ADD MSTORE PUSH2 0x100 SWAP2 DUP3 SWAP1 DIV AND ISZERO ISZERO SWAP1 DUP3 ADD MSTORE SWAP1 JUMP JUMPDEST PUSH1 0x40 MLOAD PUSH2 0x441 SWAP2 SWAP1 PUSH2 0x47FB JUMP JUMPDEST CALLVALUE DUP1 ISZERO PUSH2 0x10DA JUMPI PUSH1 0x0 DUP1 REVERT JUMPDEST POP PUSH2 0x4A7 PUSH2 0x10E9 CALLDATASIZE PUSH1 0x4 PUSH2 0x4879 JUMP JUMPDEST PUSH2 0x38CA JUMP JUMPDEST PUSH1 0x0 PUSH1 0x1 PUSH1 0x1 PUSH1 0xE0 SHL SUB NOT DUP3 AND PUSH4 0x7965DB0B PUSH1 0xE0 SHL EQ DUP1 PUSH2 0x111F JUMPI POP PUSH4 0x1FFC9A7 PUSH1 0xE0 SHL PUSH1 0x1 PUSH1 0x1 PUSH1 0xE0 SHL SUB NOT DUP4 AND EQ JUMPDEST SWAP3 SWAP2 POP POP JUMP JUMPDEST PUSH1 0x40 DUP1 MLOAD PUSH1 0x80 DUP2 ADD DUP3 MSTORE PUSH1 0x0 DUP1 DUP3 MSTORE PUSH1 0x20 DUP3 ADD DUP2 SWAP1 MSTORE SWAP2 DUP2 ADD SWAP2 SWAP1 SWAP2 MSTORE PUSH1 0x60 DUP1 DUP3 ADD MSTORE PUSH1 0x1 PUSH1 0x1 PUSH1 0xA0 SHL SUB DUP1 DUP4 AND PUSH1 0x0 SWAP1 DUP2 MSTORE PUSH1 0x6 PUSH1 0x20 SWAP1 DUP2 MSTORE PUSH1 0x40 SWAP2 DUP3 SWAP1 KECCAK256 DUP3 MLOAD PUSH1 0x80 DUP2 ADD DUP5 MSTORE DUP2 SLOAD SWAP1 SWAP5 AND DUP5 MSTORE PUSH1 0x1 DUP2 ADD SLOAD SWAP2 DUP5 ADD SWAP2 SWAP1 SWAP2 MSTORE PUSH1 0x2 DUP2 ADD SLOAD PUSH1 0xFF AND ISZERO ISZERO SWAP2 DUP4 ADD SWAP2 SWAP1 SWAP2 MSTORE PUSH1 0x3 DUP2 ADD DUP1 SLOAD PUSH1 0x60 DUP5 ADD SWAP2 SWAP1 PUSH2 0x11A6 SWAP1 PUSH2 0x48D8 JUMP JUMPDEST DUP1 PUSH1 0x1F ADD PUSH1 0x20 DUP1 SWAP2 DIV MUL PUSH1 0x20 ADD PUSH1 0x40 MLOAD SWAP1 DUP2 ADD PUSH1 0x40 MSTORE DUP1 SWAP3 SWAP2 SWAP1 DUP2 DUP2 MSTORE PUSH1 0x20 ADD DUP3 DUP1 SLOAD PUSH2 0x11D2 SWAP1 PUSH2 0x48D8 JUMP JUMPDEST DUP1 ISZERO PUSH2 0x121F JUMPI DUP1 PUSH1 0x1F LT PUSH2 0x11F4 JUMPI PUSH2 0x100 DUP1 DUP4 SLOAD DIV MUL DUP4 MSTORE SWAP2 PUSH1 0x20 ADD SWAP2 PUSH2 0x121F JUMP JUMPDEST DUP3 ADD SWAP2 SWAP1 PUSH1 0x0 MSTORE PUSH1 0x20 PUSH1 0x0 KECCAK256 SWAP1 JUMPDEST DUP2 SLOAD DUP2 MSTORE SWAP1 PUSH1 0x1 ADD SWAP1 PUSH1 0x20 ADD DUP1 DUP4 GT PUSH2 0x1202 JUMPI DUP3 SWAP1 SUB PUSH1 0x1F AND DUP3 ADD SWAP2 JUMPDEST POP POP POP POP POP DUP2 MSTORE POP POP SWAP1 POP SWAP2 SWAP1 POP JUMP JUMPDEST PUSH1 0x0 PUSH2 0x123A DUP2 PUSH2 0x3909 JUMP JUMPDEST PUSH2 0x1252 PUSH1 0x0 DUP1 MLOAD PUSH1 0x20 PUSH2 0x4D1E DUP4 CODECOPY DUP2 MLOAD SWAP2 MSTORE DUP4 PUSH2 0x3913 JUMP JUMPDEST POP POP JUMP JUMPDEST PUSH2 0x125E PUSH2 0x3999 JUMP JUMPDEST PUSH2 0x1266 PUSH2 0x39F2 JUMP JUMPDEST PUSH1 0x13 SLOAD PUSH1 0xFF AND ISZERO PUSH2 0x1292 JUMPI PUSH1 0x40 MLOAD PUSH3 0x461BCD PUSH1 0xE5 SHL DUP2 MSTORE PUSH1 0x4 ADD PUSH2 0x1289 SWAP1 PUSH2 0x4912 JUMP JUMPDEST PUSH1 0x40 MLOAD DUP1 SWAP2 SUB SWAP1 REVERT JUMPDEST PUSH1 0x0 DUP4 DUP2 MSTORE PUSH1 0x5 PUSH1 0x20 MSTORE PUSH1 0x40 SWAP1 KECCAK256 DUP1 SLOAD PUSH1 0x1 PUSH1 0x1 PUSH1 0xA0 SHL SUB AND PUSH2 0x12EE JUMPI PUSH1 0x40 MLOAD PUSH3 0x461BCD PUSH1 0xE5 SHL DUP2 MSTORE PUSH1 0x20 PUSH1 0x4 DUP3 ADD MSTORE PUSH1 0x14 PUSH1 0x24 DUP3 ADD MSTORE PUSH20 0x13585D18DA08191BD95CC81B9BDD08195E1A5CDD PUSH1 0x62 SHL PUSH1 0x44 DUP3 ADD MSTORE PUSH1 0x64 ADD PUSH2 0x1289 JUMP JUMPDEST PUSH1 0x7 DUP2 ADD SLOAD PUSH1 0xFF AND ISZERO PUSH2 0x133B JUMPI PUSH1 0x40 MLOAD PUSH3 0x461BCD PUSH1 0xE5 SHL DUP2 MSTORE PUSH1 0x20 PUSH1 0x4 DUP3 ADD MSTORE PUSH1 0x15 PUSH1 0x24 DUP3 ADD MSTORE PUSH21 0x13585D18DA08185B1C9958591E481CD95D1D1B1959 PUSH1 0x5A SHL PUSH1 0x44 DUP3 ADD MSTORE PUSH1 0x64 ADD PUSH2 0x1289 JUMP JUMPDEST PUSH1 0x7 DUP2 ADD SLOAD PUSH2 0x100 SWAP1 DIV PUSH1 0xFF AND ISZERO PUSH2 0x1389 JUMPI PUSH1 0x40 MLOAD PUSH3 0x461BCD PUSH1 0xE5 SHL DUP2 MSTORE PUSH1 0x20 PUSH1 0x4 DUP3 ADD MSTORE PUSH1 0x11 PUSH1 0x24 DUP3 ADD MSTORE PUSH17 0x13585D18DA081A5CC8191A5CDC1D5D1959 PUSH1 0x7A SHL PUSH1 0x44 DUP3 ADD MSTORE PUSH1 0x64 ADD PUSH2 0x1289 JUMP JUMPDEST PUSH1 0x4 DUP2 ADD SLOAD PUSH1 0x5 DUP3 ADD SLOAD PUSH1 0x6 DUP4 ADD SLOAD PUSH1 0x40 DUP1 MLOAD PUSH1 0x20 DUP2 ADD DUP10 SWAP1 MSTORE SWAP1 DUP2 ADD SWAP4 SWAP1 SWAP4 MSTORE PUSH1 0x60 DUP4 ADD SWAP2 SWAP1 SWAP2 MSTORE PUSH1 0x80 DUP3 ADD MSTORE PUSH1 0x0 SWAP1 PUSH1 0xA0 ADD PUSH1 0x40 MLOAD PUSH1 0x20 DUP2 DUP4 SUB SUB DUP2 MSTORE SWAP1 PUSH1 0x40 MSTORE DUP1 MLOAD SWAP1 PUSH1 0x20 ADD KECCAK256 SWAP1 POP PUSH1 0x0 PUSH2 0x13EA DUP6 PUSH2 0x13E4 DUP5 PUSH2 0x3A3A JUMP JUMPDEST SWAP1 PUSH2 0x3A6D JUMP JUMPDEST SWAP1 POP PUSH1 0x0 PUSH2 0x13FB DUP6 PUSH2 0x13E4 DUP6 PUSH2 0x3A3A JUMP JUMPDEST DUP5 SLOAD SWAP1 SWAP2 POP PUSH1 0x1 PUSH1 0x1 PUSH1 0xA0 SHL SUB DUP4 DUP2 AND SWAP2 AND EQ PUSH2 0x1450 JUMPI PUSH1 0x40 MLOAD PUSH3 0x461BCD PUSH1 0xE5 SHL DUP2 MSTORE PUSH1 0x20 PUSH1 0x4 DUP3 ADD MSTORE PUSH1 0x13 PUSH1 0x24 DUP3 ADD MSTORE PUSH19 0x496E76616C6964207369676E61747572652031 PUSH1 0x68 SHL PUSH1 0x44 DUP3 ADD MSTORE PUSH1 0x64 ADD PUSH2 0x1289 JUMP JUMPDEST PUSH1 0x1 DUP5 ADD SLOAD PUSH1 0x1 PUSH1 0x1 PUSH1 0xA0 SHL SUB DUP3 DUP2 AND SWAP2 AND EQ PUSH2 0x14A5 JUMPI PUSH1 0x40 MLOAD PUSH3 0x461BCD PUSH1 0xE5 SHL DUP2 MSTORE PUSH1 0x20 PUSH1 0x4 DUP3 ADD MSTORE PUSH1 0x13 PUSH1 0x24 DUP3 ADD MSTORE PUSH19 0x24B73B30B634B21039B4B3B730BA3AB9329019 PUSH1 0x69 SHL PUSH1 0x44 DUP3 ADD MSTORE PUSH1 0x64 ADD PUSH2 0x1289 JUMP JUMPDEST DUP4 SLOAD PUSH1 0x4 DUP6 ADD SLOAD PUSH2 0x14C1 SWAP2 PUSH1 0x1 PUSH1 0x1 PUSH1 0xA0 SHL SUB AND SWAP1 PUSH1 0x1 PUSH2 0x3A91 JUMP JUMPDEST PUSH1 0x1 DUP1 DUP6 ADD SLOAD PUSH1 0x5 DUP7 ADD SLOAD PUSH2 0x14E1 SWAP3 PUSH1 0x1 PUSH1 0x1 PUSH1 0xA0 SHL SUB SWAP1 SWAP3 AND SWAP2 PUSH2 0x3A91 JUMP JUMPDEST PUSH1 0x7 DUP5 ADD DUP1 SLOAD PUSH1 0xFF NOT AND PUSH1 0x1 SWAP1 DUP2 OR SWAP1 SWAP2 SSTORE DUP5 ADD SLOAD DUP5 SLOAD PUSH1 0x2 DUP7 ADD SLOAD PUSH1 0x3 DUP8 ADD SLOAD PUSH1 0x4 DUP9 ADD SLOAD PUSH1 0x5 DUP10 ADD SLOAD PUSH1 0x40 DUP1 MLOAD PUSH1 0x1 PUSH1 0x1 PUSH1 0xA0 SHL SUB SWAP6 DUP7 AND DUP2 MSTORE SWAP4 DUP6 AND PUSH1 0x20 DUP6 ADD MSTORE DUP4 ADD SWAP2 SWAP1 SWAP2 MSTORE PUSH1 0x60 DUP3 ADD MSTORE TIMESTAMP PUSH1 0x80 DUP3 ADD MSTORE SWAP3 DUP2 AND SWAP3 SWAP2 AND SWAP1 PUSH32 0xBE424DB0FEA33AAEAC020945C445E8A830405CC3AE1FE4874EFCAA64C76B1FC4 SWAP1 PUSH1 0xA0 ADD PUSH1 0x40 MLOAD DUP1 SWAP2 SUB SWAP1 LOG3 POP POP POP POP PUSH2 0x1578 PUSH1 0x1 PUSH1 0x0 SSTORE JUMP JUMPDEST POP POP POP JUMP JUMPDEST PUSH1 0x0 DUP3 DUP2 MSTORE PUSH1 0x2 PUSH1 0x20 MSTORE PUSH1 0x40 SWAP1 KECCAK256 PUSH1 0x1 ADD SLOAD PUSH2 0x1598 DUP2 PUSH2 0x3909 JUMP JUMPDEST PUSH2 0x1578 DUP4 DUP4 PUSH2 0x3913 JUMP JUMPDEST PUSH1 0x0 PUSH2 0x15AD DUP2 PUSH2 0x3909 JUMP JUMPDEST PUSH1 0x32 DUP3 LT ISZERO DUP1 ISZERO PUSH2 0x15BF JUMPI POP PUSH1 0xC8 DUP3 GT ISZERO JUMPDEST PUSH2 0x160B JUMPI PUSH1 0x40 MLOAD PUSH3 0x461BCD PUSH1 0xE5 SHL DUP2 MSTORE PUSH1 0x20 PUSH1 0x4 DUP3 ADD MSTORE PUSH1 0x1B PUSH1 0x24 DUP3 ADD MSTORE PUSH32 0x496E76616C6964206D756C7469706C696572202835302D323030290000000000 PUSH1 0x44 DUP3 ADD MSTORE PUSH1 0x64 ADD PUSH2 0x1289 JUMP JUMPDEST POP PUSH1 0x12 SSTORE JUMP JUMPDEST PUSH1 0x1 PUSH1 0x1 PUSH1 0xA0 SHL SUB DUP2 AND CALLER EQ PUSH2 0x1681 JUMPI PUSH1 0x40 MLOAD PUSH3 0x461BCD PUSH1 0xE5 SHL DUP2 MSTORE PUSH1 0x20 PUSH1 0x4 DUP3 ADD MSTORE PUSH1 0x2F PUSH1 0x24 DUP3 ADD MSTORE PUSH32 0x416363657373436F6E74726F6C3A2063616E206F6E6C792072656E6F756E6365 PUSH1 0x44 DUP3 ADD MSTORE PUSH15 0x103937B632B9903337B91039B2B633 PUSH1 0x89 SHL PUSH1 0x64 DUP3 ADD MSTORE PUSH1 0x84 ADD PUSH2 0x1289 JUMP JUMPDEST PUSH2 0x1252 DUP3 DUP3 PUSH2 0x3B59 JUMP JUMPDEST PUSH1 0x0 PUSH2 0x1696 DUP2 PUSH2 0x3909 JUMP JUMPDEST PUSH2 0x169E PUSH2 0x3BC0 JUMP JUMPDEST POP JUMP JUMPDEST PUSH2 0x16E5 PUSH1 0x40 MLOAD DUP1 PUSH1 0xC0 ADD PUSH1 0x40 MSTORE DUP1 PUSH1 0x0 PUSH1 0x1 PUSH1 0x1 PUSH1 0xA0 SHL SUB AND DUP2 MSTORE PUSH1 0x20 ADD PUSH1 0x0 DUP2 MSTORE PUSH1 0x20 ADD PUSH1 0x0 DUP2 MSTORE PUSH1 0x20 ADD PUSH1 0x0 DUP2 MSTORE PUSH1 0x20 ADD PUSH1 0x0 ISZERO ISZERO DUP2 MSTORE PUSH1 0x20 ADD PUSH1 0x0 DUP2 MSTORE POP SWAP1 JUMP JUMPDEST POP PUSH1 0x1 PUSH1 0x1 PUSH1 0xA0 SHL SUB SWAP1 DUP2 AND PUSH1 0x0 SWAP1 DUP2 MSTORE PUSH1 0x4 PUSH1 0x20 DUP2 DUP2 MSTORE PUSH1 0x40 SWAP3 DUP4 SWAP1 KECCAK256 DUP4 MLOAD PUSH1 0xC0 DUP2 ADD DUP6 MSTORE DUP2 SLOAD SWAP1 SWAP6 AND DUP6 MSTORE PUSH1 0x1 DUP2 ADD SLOAD SWAP2 DUP6 ADD SWAP2 SWAP1 SWAP2 MSTORE PUSH1 0x2 DUP2 ADD SLOAD SWAP3 DUP5 ADD SWAP3 SWAP1 SWAP3 MSTORE PUSH1 0x3 DUP3 ADD SLOAD PUSH1 0x60 DUP5 ADD MSTORE DUP2 ADD SLOAD PUSH1 0xFF AND ISZERO ISZERO PUSH1 0x80 DUP4 ADD MSTORE PUSH1 0x5 ADD SLOAD PUSH1 0xA0 DUP3 ADD MSTORE SWAP1 JUMP JUMPDEST PUSH2 0x1755 PUSH2 0x39F2 JUMP JUMPDEST PUSH1 0x13 SLOAD PUSH1 0xFF AND ISZERO PUSH2 0x1778 JUMPI PUSH1 0x40 MLOAD PUSH3 0x461BCD PUSH1 0xE5 SHL DUP2 MSTORE PUSH1 0x4 ADD PUSH2 0x1289 SWAP1 PUSH2 0x4912 JUMP JUMPDEST PUSH2 0x1780 PUSH2 0x3999 JUMP JUMPDEST PUSH1 0x1 SLOAD PUSH1 0xFF AND ISZERO PUSH2 0x17D3 JUMPI PUSH1 0x40 MLOAD PUSH3 0x461BCD PUSH1 0xE5 SHL DUP2 MSTORE PUSH1 0x20 PUSH1 0x4 DUP3 ADD MSTORE PUSH1 0x1F PUSH1 0x24 DUP3 ADD MSTORE PUSH32 0x436F6D6D69744F726465723A20436F6E74726163742069732070617573656400 PUSH1 0x44 DUP3 ADD MSTORE PUSH1 0x64 ADD PUSH2 0x1289 JUMP JUMPDEST CALLER PUSH2 0x1833 JUMPI PUSH1 0x40 MLOAD PUSH3 0x461BCD PUSH1 0xE5 SHL DUP2 MSTORE PUSH1 0x20 PUSH1 0x4 DUP3 ADD MSTORE PUSH1 0x2A PUSH1 0x24 DUP3 ADD MSTORE PUSH32 0x436F6D6D69744F726465723A2053656E6465722063616E6E6F74206265207A65 PUSH1 0x44 DUP3 ADD MSTORE PUSH10 0x726F2061646472657373 PUSH1 0xB0 SHL PUSH1 0x64 DUP3 ADD MSTORE PUSH1 0x84 ADD PUSH2 0x1289 JUMP JUMPDEST DUP1 PUSH2 0x188F JUMPI PUSH1 0x40 MLOAD PUSH3 0x461BCD PUSH1 0xE5 SHL DUP2 MSTORE PUSH1 0x20 PUSH1 0x4 DUP3 ADD MSTORE PUSH1 0x26 PUSH1 0x24 DUP3 ADD MSTORE PUSH32 0x436F6D6D69744F726465723A20436F6D6D69746D656E742063616E6E6F742062 PUSH1 0x44 DUP3 ADD MSTORE PUSH6 0x65207A65726F PUSH1 0xD0 SHL PUSH1 0x64 DUP3 ADD MSTORE PUSH1 0x84 ADD PUSH2 0x1289 JUMP JUMPDEST PUSH1 0x0 DUP2 DUP2 MSTORE PUSH1 0x3 PUSH1 0x20 MSTORE PUSH1 0x40 SWAP1 KECCAK256 SLOAD PUSH1 0x1 PUSH1 0x1 PUSH1 0xA0 SHL SUB AND ISZERO PUSH2 0x1903 JUMPI PUSH1 0x40 MLOAD PUSH3 0x461BCD PUSH1 0xE5 SHL DUP2 MSTORE PUSH1 0x20 PUSH1 0x4 DUP3 ADD MSTORE PUSH1 0x26 PUSH1 0x24 DUP3 ADD MSTORE PUSH32 0x436F6D6D69744F726465723A20436F6D6D69746D656E7420616C726561647920 PUSH1 0x44 DUP3 ADD MSTORE PUSH6 0x657869737473 PUSH1 0xD0 SHL PUSH1 0x64 DUP3 ADD MSTORE PUSH1 0x84 ADD PUSH2 0x1289 JUMP JUMPDEST PUSH1 0x40 MLOAD DUP1 PUSH2 0x180 ADD PUSH1 0x40 MSTORE DUP1 CALLER PUSH1 0x1 PUSH1 0x1 PUSH1 0xA0 SHL SUB AND DUP2 MSTORE PUSH1 0x20 ADD PUSH1 0x0 PUSH1 0x1 PUSH1 0x1 PUSH1 0xA0 SHL SUB AND DUP2 MSTORE PUSH1 0x20 ADD PUSH1 0x0 PUSH1 0x1 PUSH1 0x1 PUSH1 0xA0 SHL SUB AND DUP2 MSTORE PUSH1 0x20 ADD PUSH1 0x0 DUP2 MSTORE PUSH1 0x20 ADD PUSH1 0x0 DUP2 MSTORE PUSH1 0x20 ADD PUSH1 0x7 PUSH1 0x0 DUP2 SLOAD DUP1 SWAP3 SWAP2 SWAP1 PUSH2 0x195F SWAP1 PUSH2 0x495F JUMP JUMPDEST SWAP1 SWAP2 SSTORE POP DUP2 MSTORE TIMESTAMP PUSH1 0x20 DUP1 DUP4 ADD DUP3 SWAP1 MSTORE PUSH1 0x0 PUSH1 0x40 DUP1 DUP6 ADD DUP3 SWAP1 MSTORE PUSH1 0x60 DUP1 DUP7 ADD DUP4 SWAP1 MSTORE PUSH1 0x80 DUP1 DUP8 ADD DUP5 SWAP1 MSTORE PUSH1 0xA0 DUP1 DUP9 ADD DUP6 SWAP1 MSTORE PUSH1 0xC0 SWAP8 DUP9 ADD DUP11 SWAP1 MSTORE DUP10 DUP6 MSTORE PUSH1 0x3 DUP1 DUP8 MSTORE SWAP5 DUP5 SWAP1 KECCAK256 DUP10 MLOAD DUP2 SLOAD PUSH1 0x1 PUSH1 0x1 PUSH1 0xA0 SHL SUB NOT SWAP1 DUP2 AND PUSH1 0x1 PUSH1 0x1 PUSH1 0xA0 SHL SUB SWAP3 DUP4 AND OR DUP4 SSTORE DUP12 DUP10 ADD MLOAD PUSH1 0x1 DUP5 ADD DUP1 SLOAD DUP4 AND SWAP2 DUP5 AND SWAP2 SWAP1 SWAP2 OR SWAP1 SSTORE DUP12 DUP8 ADD MLOAD PUSH1 0x2 DUP5 ADD DUP1 SLOAD SWAP1 SWAP3 AND SWAP3 AND SWAP2 SWAP1 SWAP2 OR SWAP1 SSTORE SWAP3 DUP10 ADD MLOAD SWAP5 DUP4 ADD SWAP5 SWAP1 SWAP5 SSTORE DUP8 ADD MLOAD PUSH1 0x4 DUP3 ADD SSTORE SWAP2 DUP7 ADD MLOAD PUSH1 0x5 DUP4 ADD SSTORE SWAP4 DUP6 ADD MLOAD PUSH1 0x6 DUP3 ADD SSTORE PUSH1 0xE0 DUP6 ADD MLOAD PUSH1 0x7 DUP3 ADD DUP1 SLOAD PUSH2 0x100 DUP1 DUP10 ADD MLOAD PUSH2 0x120 DUP11 ADD MLOAD PUSH2 0x140 DUP12 ADD MLOAD PUSH2 0xFFFF NOT SWAP1 SWAP5 AND SWAP6 ISZERO ISZERO PUSH2 0xFF00 NOT AND SWAP6 SWAP1 SWAP6 OR SWAP1 ISZERO ISZERO SWAP1 SWAP2 MUL OR PUSH4 0xFFFF0000 NOT AND PUSH3 0x10000 SWAP4 ISZERO ISZERO SWAP4 SWAP1 SWAP4 MUL PUSH4 0xFF000000 NOT AND SWAP3 SWAP1 SWAP3 OR PUSH4 0x1000000 SWAP3 ISZERO ISZERO SWAP3 SWAP1 SWAP3 MUL SWAP2 SWAP1 SWAP2 OR SWAP1 SSTORE PUSH2 0x160 SWAP1 SWAP5 ADD MLOAD PUSH1 0x8 SWAP1 SWAP5 ADD SWAP4 SWAP1 SWAP4 SSTORE SWAP1 MLOAD SWAP1 DUP2 MSTORE CALLER SWAP2 DUP4 SWAP2 PUSH32 0x25CD9C955149E9EE60675521BEE70F991884D9C1162E40AED55D62A5BDF4B829 SWAP2 ADD PUSH1 0x40 MLOAD DUP1 SWAP2 SUB SWAP1 LOG3 PUSH2 0x169E PUSH1 0x1 PUSH1 0x0 SSTORE JUMP JUMPDEST PUSH2 0x1AF8 PUSH1 0x40 MLOAD DUP1 PUSH1 0xA0 ADD PUSH1 0x40 MSTORE DUP1 PUSH1 0x0 DUP2 MSTORE PUSH1 0x20 ADD PUSH1 0x0 DUP2 MSTORE PUSH1 0x20 ADD PUSH1 0x0 DUP2 MSTORE PUSH1 0x20 ADD PUSH1 0x0 DUP2 MSTORE PUSH1 0x20 ADD PUSH1 0x0 DUP2 MSTORE POP SWAP1 JUMP JUMPDEST POP PUSH1 0x40 DUP1 MLOAD PUSH1 0xA0 DUP2 ADD DUP3 MSTORE PUSH1 0xE SLOAD DUP2 MSTORE PUSH1 0xF SLOAD PUSH1 0x20 DUP3 ADD MSTORE PUSH1 0x10 SLOAD SWAP2 DUP2 ADD SWAP2 SWAP1 SWAP2 MSTORE PUSH1 0x11 SLOAD PUSH1 0x60 DUP3 ADD MSTORE PUSH1 0x12 SLOAD PUSH1 0x80 DUP3 ADD MSTORE SWAP1 JUMP JUMPDEST PUSH1 0x1 PUSH1 0x1 PUSH1 0xA0 SHL SUB DUP5 AND PUSH1 0x0 SWAP1 DUP2 MSTORE PUSH1 0x4 PUSH1 0x20 DUP2 SWAP1 MSTORE PUSH1 0x40 SWAP1 SWAP2 KECCAK256 ADD SLOAD DUP5 SWAP1 PUSH1 0xFF AND PUSH2 0x1B6B JUMPI PUSH1 0x40 MLOAD PUSH3 0x461BCD PUSH1 0xE5 SHL DUP2 MSTORE PUSH1 0x4 ADD PUSH2 0x1289 SWAP1 PUSH2 0x4978 JUMP JUMPDEST PUSH2 0x1B73 PUSH2 0x39F2 JUMP JUMPDEST PUSH1 0x13 SLOAD PUSH1 0xFF AND ISZERO PUSH2 0x1B96 JUMPI PUSH1 0x40 MLOAD PUSH3 0x461BCD PUSH1 0xE5 SHL DUP2 MSTORE PUSH1 0x4 ADD PUSH2 0x1289 SWAP1 PUSH2 0x4912 JUMP JUMPDEST PUSH1 0x1 PUSH1 0x1 PUSH1 0xA0 SHL SUB DUP6 AND PUSH1 0x0 SWAP1 DUP2 MSTORE PUSH1 0x4 PUSH1 0x20 MSTORE PUSH1 0x40 SWAP1 KECCAK256 PUSH1 0x2 DUP2 ADD SLOAD DUP5 GT PUSH2 0x1BF1 JUMPI PUSH1 0x40 MLOAD PUSH3 0x461BCD PUSH1 0xE5 SHL DUP2 MSTORE PUSH1 0x20 PUSH1 0x4 DUP3 ADD MSTORE PUSH1 0xD PUSH1 0x24 DUP3 ADD MSTORE PUSH13 0x496E76616C6964206E6F6E6365 PUSH1 0x98 SHL PUSH1 0x44 DUP3 ADD MSTORE PUSH1 0x64 ADD PUSH2 0x1289 JUMP JUMPDEST PUSH1 0x40 MLOAD PUSH1 0x1 PUSH1 0x1 PUSH1 0x60 SHL SUB NOT PUSH1 0x60 DUP9 SWAP1 SHL AND PUSH1 0x20 DUP3 ADD MSTORE PUSH1 0x34 DUP2 ADD DUP7 SWAP1 MSTORE PUSH1 0x54 DUP2 ADD DUP6 SWAP1 MSTORE TIMESTAMP PUSH1 0x74 DUP3 ADD MSTORE PUSH1 0x0 SWAP1 PUSH1 0x94 ADD PUSH1 0x40 MLOAD PUSH1 0x20 DUP2 DUP4 SUB SUB DUP2 MSTORE SWAP1 PUSH1 0x40 MSTORE DUP1 MLOAD SWAP1 PUSH1 0x20 ADD KECCAK256 SWAP1 POP PUSH1 0x0 PUSH2 0x1C49 DUP6 PUSH2 0x13E4 DUP5 PUSH2 0x3A3A JUMP JUMPDEST SWAP1 POP DUP8 PUSH1 0x1 PUSH1 0x1 PUSH1 0xA0 SHL SUB AND DUP2 PUSH1 0x1 PUSH1 0x1 PUSH1 0xA0 SHL SUB AND EQ PUSH2 0x1CA0 JUMPI PUSH1 0x40 MLOAD PUSH3 0x461BCD PUSH1 0xE5 SHL DUP2 MSTORE PUSH1 0x20 PUSH1 0x4 DUP3 ADD MSTORE PUSH1 0x11 PUSH1 0x24 DUP3 ADD MSTORE PUSH17 0x496E76616C6964207369676E6174757265 PUSH1 0x78 SHL PUSH1 0x44 DUP3 ADD MSTORE PUSH1 0x64 ADD PUSH2 0x1289 JUMP JUMPDEST PUSH1 0x1 DUP4 ADD DUP8 SWAP1 SSTORE PUSH1 0x2 DUP4 ADD DUP7 SWAP1 SSTORE TIMESTAMP PUSH1 0x3 DUP5 ADD SSTORE PUSH1 0x40 DUP1 MLOAD DUP9 DUP2 MSTORE PUSH1 0x20 DUP2 ADD DUP9 SWAP1 MSTORE PUSH1 0x1 PUSH1 0x1 PUSH1 0xA0 SHL SUB DUP11 AND SWAP2 PUSH32 0xE2824B01EE9D1C44ADF7A5260724348C7D38C7C591A7284DF9D309C1B72E148A SWAP2 ADD PUSH1 0x40 MLOAD DUP1 SWAP2 SUB SWAP1 LOG2 POP POP POP POP POP POP POP POP JUMP JUMPDEST PUSH1 0x0 PUSH2 0x1D0D DUP2 PUSH2 0x3909 JUMP JUMPDEST DUP3 DUP3 PUSH1 0x3C DUP3 LT ISZERO DUP1 ISZERO PUSH2 0x1D22 JUMPI POP PUSH2 0xE10 DUP3 GT ISZERO JUMPDEST PUSH2 0x1D6E JUMPI PUSH1 0x40 MLOAD PUSH3 0x461BCD PUSH1 0xE5 SHL DUP2 MSTORE PUSH1 0x20 PUSH1 0x4 DUP3 ADD MSTORE PUSH1 0x19 PUSH1 0x24 DUP3 ADD MSTORE PUSH32 0x496E76616C696420636F6D6D69746D656E742077696E646F7700000000000000 PUSH1 0x44 DUP3 ADD MSTORE PUSH1 0x64 ADD PUSH2 0x1289 JUMP JUMPDEST PUSH2 0x12C DUP2 LT ISZERO DUP1 ISZERO PUSH2 0x1D82 JUMPI POP PUSH2 0x1C20 DUP2 GT ISZERO JUMPDEST PUSH2 0x1DC6 JUMPI PUSH1 0x40 MLOAD PUSH3 0x461BCD PUSH1 0xE5 SHL DUP2 MSTORE PUSH1 0x20 PUSH1 0x4 DUP3 ADD MSTORE PUSH1 0x15 PUSH1 0x24 DUP3 ADD MSTORE PUSH21 0x496E76616C69642072657665616C2077696E646F77 PUSH1 0x58 SHL PUSH1 0x44 DUP3 ADD MSTORE PUSH1 0x64 ADD PUSH2 0x1289 JUMP JUMPDEST DUP1 DUP3 LT PUSH2 0x1E32 JUMPI PUSH1 0x40 MLOAD PUSH3 0x461BCD PUSH1 0xE5 SHL DUP2 MSTORE PUSH1 0x20 PUSH1 0x4 DUP3 ADD MSTORE PUSH1 0x34 PUSH1 0x24 DUP3 ADD MSTORE PUSH32 0x436F6D6D69746D656E742077696E646F77206D7573742062652073686F727465 PUSH1 0x44 DUP3 ADD MSTORE PUSH20 0x72207468616E2072657665616C2077696E646F77 PUSH1 0x60 SHL PUSH1 0x64 DUP3 ADD MSTORE PUSH1 0x84 ADD PUSH2 0x1289 JUMP JUMPDEST PUSH1 0xB DUP6 SWAP1 SSTORE PUSH1 0xC DUP5 SWAP1 SSTORE PUSH1 0x40 DUP1 MLOAD DUP7 DUP2 MSTORE PUSH1 0x20 DUP2 ADD DUP7 SWAP1 MSTORE PUSH32 0x710C8B3BCC669D7C9862E563F43E29E3DF52391F837C65B3D891F16023FAF0F4 SWAP2 ADD PUSH1 0x40 MLOAD DUP1 SWAP2 SUB SWAP1 LOG1 POP POP POP POP POP JUMP JUMPDEST PUSH1 0x0 PUSH2 0x1E87 DUP2 PUSH2 0x3909 JUMP JUMPDEST PUSH2 0x1252 PUSH1 0x0 DUP1 MLOAD PUSH1 0x20 PUSH2 0x4CFE DUP4 CODECOPY DUP2 MLOAD SWAP2 MSTORE DUP4 PUSH2 0x3913 JUMP JUMPDEST PUSH1 0x0 DUP2 DUP2 MSTORE PUSH1 0x3 PUSH1 0x20 MSTORE PUSH1 0x40 SWAP1 KECCAK256 SLOAD DUP2 SWAP1 PUSH1 0x1 PUSH1 0x1 PUSH1 0xA0 SHL SUB AND PUSH2 0x1ED5 JUMPI PUSH1 0x40 MLOAD PUSH3 0x461BCD PUSH1 0xE5 SHL DUP2 MSTORE PUSH1 0x4 ADD PUSH2 0x1289 SWAP1 PUSH2 0x49AF JUMP JUMPDEST PUSH1 0x0 DUP2 DUP2 MSTORE PUSH1 0x3 PUSH1 0x20 MSTORE PUSH1 0x40 SWAP1 KECCAK256 PUSH1 0x7 ADD SLOAD PUSH3 0x10000 SWAP1 DIV PUSH1 0xFF AND ISZERO PUSH2 0x1F0D JUMPI PUSH1 0x40 MLOAD PUSH3 0x461BCD PUSH1 0xE5 SHL DUP2 MSTORE PUSH1 0x4 ADD PUSH2 0x1289 SWAP1 PUSH2 0x49DD JUMP JUMPDEST PUSH1 0x0 DUP2 DUP2 MSTORE PUSH1 0x3 PUSH1 0x20 MSTORE PUSH1 0x40 SWAP1 KECCAK256 PUSH1 0x7 ADD SLOAD PUSH4 0x1000000 SWAP1 DIV PUSH1 0xFF AND ISZERO PUSH2 0x1F46 JUMPI PUSH1 0x40 MLOAD PUSH3 0x461BCD PUSH1 0xE5 SHL DUP2 MSTORE PUSH1 0x4 ADD PUSH2 0x1289 SWAP1 PUSH2 0x4A0D JUMP JUMPDEST PUSH1 0x0 DUP3 DUP2 MSTORE PUSH1 0x3 PUSH1 0x20 MSTORE PUSH1 0x40 SWAP1 KECCAK256 SLOAD DUP3 SWAP1 PUSH1 0x1 PUSH1 0x1 PUSH1 0xA0 SHL SUB AND CALLER EQ PUSH2 0x1FA0 JUMPI PUSH1 0x40 MLOAD PUSH3 0x461BCD PUSH1 0xE5 SHL DUP2 MSTORE PUSH1 0x20 PUSH1 0x4 DUP3 ADD MSTORE PUSH1 0xF PUSH1 0x24 DUP3 ADD MSTORE PUSH15 0x2737BA1037B93232B91037BBB732B9 PUSH1 0x89 SHL PUSH1 0x44 DUP3 ADD MSTORE PUSH1 0x64 ADD PUSH2 0x1289 JUMP JUMPDEST PUSH2 0x1FA8 PUSH2 0x39F2 JUMP JUMPDEST PUSH1 0x0 DUP4 DUP2 MSTORE PUSH1 0x3 PUSH1 0x20 MSTORE PUSH1 0x40 SWAP1 KECCAK256 PUSH1 0x7 DUP2 ADD SLOAD PUSH2 0x100 SWAP1 DIV PUSH1 0xFF AND ISZERO PUSH2 0x2010 JUMPI PUSH1 0x40 MLOAD PUSH3 0x461BCD PUSH1 0xE5 SHL DUP2 MSTORE PUSH1 0x20 PUSH1 0x4 DUP3 ADD MSTORE PUSH1 0x1C PUSH1 0x24 DUP3 ADD MSTORE PUSH32 0x43616E6E6F742063616E63656C2072657665616C6564206F7264657200000000 PUSH1 0x44 DUP3 ADD MSTORE PUSH1 0x64 ADD PUSH2 0x1289 JUMP JUMPDEST PUSH1 0xB SLOAD DUP2 PUSH1 0x6 ADD SLOAD PUSH2 0x2022 SWAP2 SWAP1 PUSH2 0x4A44 JUMP JUMPDEST TIMESTAMP GT ISZERO PUSH2 0x2071 JUMPI PUSH1 0x40 MLOAD PUSH3 0x461BCD PUSH1 0xE5 SHL DUP2 MSTORE PUSH1 0x20 PUSH1 0x4 DUP3 ADD MSTORE PUSH1 0x19 PUSH1 0x24 DUP3 ADD MSTORE PUSH32 0x436F6D6D69746D656E742077696E646F77206578706972656400000000000000 PUSH1 0x44 DUP3 ADD MSTORE PUSH1 0x64 ADD PUSH2 0x1289 JUMP JUMPDEST PUSH1 0x7 DUP2 ADD DUP1 SLOAD PUSH4 0xFF000000 NOT AND PUSH4 0x1000000 OR SWAP1 SSTORE PUSH1 0x40 MLOAD CALLER SWAP1 DUP6 SWAP1 PUSH32 0xB2705DF32AC67FC3101F496CD7036BF59074A603544D97D73650B6F09744986A SWAP1 PUSH2 0x20BC SWAP1 TIMESTAMP DUP2 MSTORE PUSH1 0x20 ADD SWAP1 JUMP JUMPDEST PUSH1 0x40 MLOAD DUP1 SWAP2 SUB SWAP1 LOG3 POP POP POP POP JUMP JUMPDEST PUSH1 0x0 DUP3 DUP2 MSTORE PUSH1 0x3 PUSH1 0x20 MSTORE PUSH1 0x40 SWAP1 KECCAK256 SLOAD DUP3 SWAP1 PUSH1 0x1 PUSH1 0x1 PUSH1 0xA0 SHL SUB AND PUSH2 0x2100 JUMPI PUSH1 0x40 MLOAD PUSH3 0x461BCD PUSH1 0xE5 SHL DUP2 MSTORE PUSH1 0x4 ADD PUSH2 0x1289 SWAP1 PUSH2 0x49AF JUMP JUMPDEST PUSH1 0x0 DUP2 DUP2 MSTORE PUSH1 0x3 PUSH1 0x20 MSTORE PUSH1 0x40 SWAP1 KECCAK256 PUSH1 0x7 ADD SLOAD PUSH3 0x10000 SWAP1 DIV PUSH1 0xFF AND ISZERO PUSH2 0x2138 JUMPI PUSH1 0x40 MLOAD PUSH3 0x461BCD PUSH1 0xE5 SHL DUP2 MSTORE PUSH1 0x4 ADD PUSH2 0x1289 SWAP1 PUSH2 0x49DD JUMP JUMPDEST PUSH1 0x0 DUP2 DUP2 MSTORE PUSH1 0x3 PUSH1 0x20 MSTORE PUSH1 0x40 SWAP1 KECCAK256 PUSH1 0x7 ADD SLOAD PUSH4 0x1000000 SWAP1 DIV PUSH1 0xFF AND ISZERO PUSH2 0x2171 JUMPI PUSH1 0x40 MLOAD PUSH3 0x461BCD PUSH1 0xE5 SHL DUP2 MSTORE PUSH1 0x4 ADD PUSH2 0x1289 SWAP1 PUSH2 0x4A0D JUMP JUMPDEST PUSH1 0x0 DUP3 DUP2 MSTORE PUSH1 0x3 PUSH1 0x20 MSTORE PUSH1 0x40 SWAP1 KECCAK256 SLOAD DUP3 SWAP1 PUSH1 0x1 PUSH1 0x1 PUSH1 0xA0 SHL SUB AND PUSH2 0x21A7 JUMPI PUSH1 0x40 MLOAD PUSH3 0x461BCD PUSH1 0xE5 SHL DUP2 MSTORE PUSH1 0x4 ADD PUSH2 0x1289 SWAP1 PUSH2 0x49AF JUMP JUMPDEST PUSH1 0x0 DUP2 DUP2 MSTORE PUSH1 0x3 PUSH1 0x20 MSTORE PUSH1 0x40 SWAP1 KECCAK256 PUSH1 0x7 ADD SLOAD PUSH3 0x10000 SWAP1 DIV PUSH1 0xFF AND ISZERO PUSH2 0x21DF JUMPI PUSH1 0x40 MLOAD PUSH3 0x461BCD PUSH1 0xE5 SHL DUP2 MSTORE PUSH1 0x4 ADD PUSH2 0x1289 SWAP1 PUSH2 0x49DD JUMP JUMPDEST PUSH1 0x0 DUP2 DUP2 MSTORE PUSH1 0x3 PUSH1 0x20 MSTORE PUSH1 0x40 SWAP1 KECCAK256 PUSH1 0x7 ADD SLOAD PUSH4 0x1000000 SWAP1 DIV PUSH1 0xFF AND ISZERO PUSH2 0x2218 JUMPI PUSH1 0x40 MLOAD PUSH3 0x461BCD PUSH1 0xE5 SHL DUP2 MSTORE PUSH1 0x4 ADD PUSH2 0x1289 SWAP1 PUSH2 0x4A0D JUMP JUMPDEST PUSH2 0x2230 PUSH1 0x0 DUP1 MLOAD PUSH1 0x20 PUSH2 0x4D1E DUP4 CODECOPY DUP2 MLOAD SWAP2 MSTORE CALLER PUSH2 0x287C JUMP JUMPDEST PUSH2 0x227C JUMPI PUSH1 0x40 MLOAD PUSH3 0x461BCD PUSH1 0xE5 SHL DUP2 MSTORE PUSH1 0x20 PUSH1 0x4 DUP3 ADD MSTORE PUSH1 0x19 PUSH1 0x24 DUP3 ADD MSTORE PUSH32 0x43616C6C6572206973206E6F7420616E206F70657261746F7200000000000000 PUSH1 0x44 DUP3 ADD MSTORE PUSH1 0x64 ADD PUSH2 0x1289 JUMP JUMPDEST PUSH2 0x2284 PUSH2 0x39F2 JUMP JUMPDEST PUSH1 0x13 SLOAD PUSH1 0xFF AND ISZERO PUSH2 0x22A7 JUMPI PUSH1 0x40 MLOAD PUSH3 0x461BCD PUSH1 0xE5 SHL DUP2 MSTORE PUSH1 0x4 ADD PUSH2 0x1289 SWAP1 PUSH2 0x4912 JUMP JUMPDEST PUSH1 0x0 DUP5 DUP2 MSTORE PUSH1 0x3 PUSH1 0x20 MSTORE PUSH1 0x40 DUP1 DUP3 KECCAK256 DUP6 DUP4 MSTORE SWAP2 KECCAK256 PUSH1 0x7 DUP3 ADD SLOAD PUSH2 0x100 SWAP1 DIV PUSH1 0xFF AND DUP1 ISZERO PUSH2 0x22DD JUMPI POP PUSH1 0x7 DUP2 ADD SLOAD PUSH2 0x100 SWAP1 DIV PUSH1 0xFF AND JUMPDEST PUSH2 0x231F JUMPI PUSH1 0x40 MLOAD PUSH3 0x461BCD PUSH1 0xE5 SHL DUP2 MSTORE PUSH1 0x20 PUSH1 0x4 DUP3 ADD MSTORE PUSH1 0x13 PUSH1 0x24 DUP3 ADD MSTORE PUSH19 0x13DC99195C9CC81B9BDD081C995D99585B1959 PUSH1 0x6A SHL PUSH1 0x44 DUP3 ADD MSTORE PUSH1 0x64 ADD PUSH2 0x1289 JUMP JUMPDEST PUSH1 0x7 DUP1 DUP3 ADD SLOAD SWAP1 DUP4 ADD SLOAD PUSH1 0xFF SWAP2 DUP3 AND ISZERO ISZERO SWAP2 AND ISZERO ISZERO SUB PUSH2 0x2373 JUMPI PUSH1 0x40 MLOAD PUSH3 0x461BCD PUSH1 0xE5 SHL DUP2 MSTORE PUSH1 0x20 PUSH1 0x4 DUP3 ADD MSTORE PUSH1 0xF PUSH1 0x24 DUP3 ADD MSTORE PUSH15 0x53616D65206F726465722074797065 PUSH1 0x88 SHL PUSH1 0x44 DUP3 ADD MSTORE PUSH1 0x64 ADD PUSH2 0x1289 JUMP JUMPDEST PUSH1 0x2 DUP2 ADD SLOAD PUSH1 0x1 DUP4 ADD SLOAD PUSH1 0x1 PUSH1 0x1 PUSH1 0xA0 SHL SUB SWAP1 DUP2 AND SWAP2 AND EQ PUSH2 0x23C8 JUMPI PUSH1 0x40 MLOAD PUSH3 0x461BCD PUSH1 0xE5 SHL DUP2 MSTORE PUSH1 0x20 PUSH1 0x4 DUP3 ADD MSTORE PUSH1 0xE PUSH1 0x24 DUP3 ADD MSTORE PUSH14 0xA8DED6CADC40DAD2E6DAC2E8C6D PUSH1 0x93 SHL PUSH1 0x44 DUP3 ADD MSTORE PUSH1 0x64 ADD PUSH2 0x1289 JUMP JUMPDEST PUSH1 0x1 DUP2 ADD SLOAD PUSH1 0x2 DUP4 ADD SLOAD PUSH1 0x1 PUSH1 0x1 PUSH1 0xA0 SHL SUB SWAP1 DUP2 AND SWAP2 AND EQ PUSH2 0x241D JUMPI PUSH1 0x40 MLOAD PUSH3 0x461BCD PUSH1 0xE5 SHL DUP2 MSTORE PUSH1 0x20 PUSH1 0x4 DUP3 ADD MSTORE PUSH1 0xE PUSH1 0x24 DUP3 ADD MSTORE PUSH14 0xA8DED6CADC40DAD2E6DAC2E8C6D PUSH1 0x93 SHL PUSH1 0x44 DUP3 ADD MSTORE PUSH1 0x64 ADD PUSH2 0x1289 JUMP JUMPDEST PUSH1 0x7 DUP3 ADD SLOAD PUSH1 0x0 SWAP1 PUSH1 0xFF AND PUSH2 0x2432 JUMPI DUP2 PUSH2 0x2434 JUMP JUMPDEST DUP3 JUMPDEST PUSH1 0x7 DUP5 ADD SLOAD SWAP1 SWAP2 POP PUSH1 0x0 SWAP1 PUSH1 0xFF AND PUSH2 0x244C JUMPI DUP4 PUSH2 0x244E JUMP JUMPDEST DUP3 JUMPDEST SWAP1 POP DUP1 PUSH1 0x3 ADD SLOAD DUP3 PUSH1 0x4 ADD SLOAD LT ISZERO PUSH2 0x24A1 JUMPI PUSH1 0x40 MLOAD PUSH3 0x461BCD PUSH1 0xE5 SHL DUP2 MSTORE PUSH1 0x20 PUSH1 0x4 DUP3 ADD MSTORE PUSH1 0x16 PUSH1 0x24 DUP3 ADD MSTORE PUSH22 0x496E73756666696369656E74206C6971756964697479 PUSH1 0x50 SHL PUSH1 0x44 DUP3 ADD MSTORE PUSH1 0x64 ADD PUSH2 0x1289 JUMP JUMPDEST PUSH1 0x3 DUP1 DUP3 ADD SLOAD SWAP1 DUP4 ADD SLOAD PUSH1 0x4 DUP5 ADD SLOAD PUSH1 0x0 SWAP2 SWAP1 PUSH2 0x24BE SWAP1 DUP5 PUSH2 0x4A57 JUMP JUMPDEST PUSH2 0x24C8 SWAP2 SWAP1 PUSH2 0x4A6E JUMP JUMPDEST SWAP1 POP PUSH1 0x0 DUP11 DUP11 PUSH1 0x8 PUSH1 0x0 DUP2 SLOAD DUP1 SWAP3 SWAP2 SWAP1 PUSH2 0x24E1 SWAP1 PUSH2 0x495F JUMP JUMPDEST SWAP1 SWAP2 SSTORE POP PUSH1 0x40 DUP1 MLOAD PUSH1 0x20 DUP2 ADD SWAP5 SWAP1 SWAP5 MSTORE DUP4 ADD SWAP2 SWAP1 SWAP2 MSTORE PUSH1 0x60 DUP3 ADD MSTORE PUSH1 0x80 ADD PUSH1 0x40 DUP1 MLOAD DUP1 DUP4 SUB PUSH1 0x1F NOT ADD DUP2 MSTORE DUP3 DUP3 MSTORE DUP1 MLOAD PUSH1 0x20 SWAP2 DUP3 ADD KECCAK256 PUSH2 0x120 DUP5 ADD DUP4 MSTORE DUP9 SLOAD PUSH1 0x1 PUSH1 0x1 PUSH1 0xA0 SHL SUB SWAP1 DUP2 AND DUP6 MSTORE DUP9 SLOAD DUP2 AND DUP4 DUP7 ADD SWAP1 DUP2 MSTORE PUSH1 0x1 DUP1 DUP12 ADD SLOAD DUP4 AND DUP8 DUP8 ADD SWAP1 DUP2 MSTORE DUP2 DUP14 ADD SLOAD DUP5 AND PUSH1 0x60 DUP10 ADD SWAP1 DUP2 MSTORE PUSH1 0x80 DUP10 ADD DUP12 DUP2 MSTORE PUSH1 0xA0 DUP11 ADD DUP14 DUP2 MSTORE TIMESTAMP PUSH1 0xC0 DUP13 ADD SWAP1 DUP2 MSTORE PUSH1 0x0 PUSH1 0xE0 DUP14 ADD DUP2 DUP2 MSTORE PUSH2 0x100 DUP1 DUP16 ADD DUP4 DUP2 MSTORE DUP13 DUP5 MSTORE PUSH1 0x5 SWAP14 DUP15 SWAP1 MSTORE SWAP14 SWAP1 SWAP3 KECCAK256 SWAP14 MLOAD DUP15 SLOAD PUSH1 0x1 PUSH1 0x1 PUSH1 0xA0 SHL SUB NOT SWAP1 DUP2 AND SWAP2 DUP13 AND SWAP2 SWAP1 SWAP2 OR DUP16 SSTORE SWAP9 MLOAD SWAP8 DUP15 ADD DUP1 SLOAD DUP11 AND SWAP9 DUP12 AND SWAP9 SWAP1 SWAP9 OR SWAP1 SWAP8 SSTORE SWAP5 MLOAD PUSH1 0x2 DUP14 ADD DUP1 SLOAD DUP10 AND SWAP2 DUP11 AND SWAP2 SWAP1 SWAP2 OR SWAP1 SSTORE SWAP3 MLOAD PUSH1 0x3 DUP13 ADD DUP1 SLOAD SWAP1 SWAP8 AND SWAP8 AND SWAP7 SWAP1 SWAP7 OR SWAP1 SWAP5 SSTORE SWAP3 MLOAD PUSH1 0x4 DUP10 ADD SSTORE SWAP3 MLOAD SWAP5 DUP8 ADD SWAP5 SWAP1 SWAP5 SSTORE MLOAD PUSH1 0x6 DUP7 ADD SSTORE SWAP2 MLOAD PUSH1 0x7 SWAP5 DUP6 ADD DUP1 SLOAD SWAP5 MLOAD PUSH2 0xFFFF NOT SWAP1 SWAP6 AND SWAP2 ISZERO ISZERO PUSH2 0xFF00 NOT AND SWAP2 SWAP1 SWAP2 OR SWAP4 ISZERO ISZERO SWAP1 SWAP3 MUL SWAP3 SWAP1 SWAP3 OR SWAP1 SSTORE DUP9 DUP3 ADD DUP1 SLOAD PUSH3 0x10000 PUSH3 0xFF0000 NOT SWAP2 DUP3 AND DUP2 OR SWAP1 SWAP3 SSTORE SWAP3 DUP10 ADD DUP1 SLOAD SWAP1 SWAP4 AND OR SWAP1 SWAP2 SSTORE SWAP1 POP PUSH2 0x2647 DUP4 PUSH2 0x3C12 JUMP JUMPDEST DUP5 SLOAD DUP5 SLOAD PUSH1 0x40 DUP1 MLOAD PUSH1 0x1 PUSH1 0x1 PUSH1 0xA0 SHL SUB SWAP4 DUP5 AND DUP2 MSTORE SWAP3 SWAP1 SWAP2 AND PUSH1 0x20 DUP4 ADD MSTORE DUP2 ADD DUP4 SWAP1 MSTORE PUSH1 0x60 DUP2 ADD DUP5 SWAP1 MSTORE DUP11 SWAP1 DUP13 SWAP1 PUSH32 0xBEACE456C306B469A1037FF7CD74FDBB995EDEC33B45043E4AFFC57C696D008C SWAP1 PUSH1 0x80 ADD JUMPDEST PUSH1 0x40 MLOAD DUP1 SWAP2 SUB SWAP1 LOG3 POP POP POP POP POP POP POP POP POP POP POP JUMP JUMPDEST PUSH1 0x0 PUSH2 0x26BB DUP2 PUSH2 0x3909 JUMP JUMPDEST PUSH2 0x169E PUSH2 0x3C6C JUMP JUMPDEST CALLER PUSH1 0x0 DUP2 DUP2 MSTORE PUSH1 0x4 PUSH1 0x20 DUP2 SWAP1 MSTORE PUSH1 0x40 SWAP1 SWAP2 KECCAK256 ADD SLOAD PUSH1 0xFF AND PUSH2 0x26F6 JUMPI PUSH1 0x40 MLOAD PUSH3 0x461BCD PUSH1 0xE5 SHL DUP2 MSTORE PUSH1 0x4 ADD PUSH2 0x1289 SWAP1 PUSH2 0x4978 JUMP JUMPDEST CALLER PUSH1 0x0 SWAP1 DUP2 MSTORE PUSH1 0x4 PUSH1 0x20 MSTORE PUSH1 0x40 SWAP1 KECCAK256 PUSH1 0x5 DUP2 ADD SLOAD ISZERO PUSH2 0x2766 JUMPI PUSH1 0x40 MLOAD PUSH3 0x461BCD PUSH1 0xE5 SHL DUP2 MSTORE PUSH1 0x20 PUSH1 0x4 DUP3 ADD MSTORE PUSH1 0x26 PUSH1 0x24 DUP3 ADD MSTORE PUSH32 0x456D657267656E6379207769746864726177616C20616C726561647920726571 PUSH1 0x44 DUP3 ADD MSTORE PUSH6 0x1D595CDD1959 PUSH1 0xD2 SHL PUSH1 0x64 DUP3 ADD MSTORE PUSH1 0x84 ADD PUSH2 0x1289 JUMP JUMPDEST PUSH1 0x0 DUP4 MLOAD GT PUSH2 0x27A9 JUMPI PUSH1 0x40 MLOAD PUSH3 0x461BCD PUSH1 0xE5 SHL DUP2 MSTORE PUSH1 0x20 PUSH1 0x4 DUP3 ADD MSTORE PUSH1 0xF PUSH1 0x24 DUP3 ADD MSTORE PUSH15 0x1499585CDBDB881C995C5D5A5C9959 PUSH1 0x8A SHL PUSH1 0x44 DUP3 ADD MSTORE PUSH1 0x64 ADD PUSH2 0x1289 JUMP JUMPDEST PUSH2 0x27B6 PUSH3 0x15180 TIMESTAMP PUSH2 0x4A44 JUMP JUMPDEST PUSH1 0x5 DUP3 ADD SSTORE PUSH1 0x40 DUP1 MLOAD PUSH1 0x80 DUP2 ADD DUP3 MSTORE CALLER DUP1 DUP3 MSTORE TIMESTAMP PUSH1 0x20 DUP1 DUP5 ADD SWAP2 DUP3 MSTORE PUSH1 0x0 DUP5 DUP7 ADD DUP2 DUP2 MSTORE PUSH1 0x60 DUP7 ADD DUP11 DUP2 MSTORE SWAP5 DUP3 MSTORE PUSH1 0x6 SWAP1 SWAP3 MSTORE SWAP5 SWAP1 SWAP5 KECCAK256 DUP4 MLOAD DUP2 SLOAD PUSH1 0x1 PUSH1 0x1 PUSH1 0xA0 SHL SUB NOT AND PUSH1 0x1 PUSH1 0x1 PUSH1 0xA0 SHL SUB SWAP1 SWAP2 AND OR DUP2 SSTORE SWAP1 MLOAD PUSH1 0x1 DUP3 ADD SSTORE SWAP3 MLOAD PUSH1 0x2 DUP5 ADD DUP1 SLOAD PUSH1 0xFF NOT AND SWAP2 ISZERO ISZERO SWAP2 SWAP1 SWAP2 OR SWAP1 SSTORE MLOAD SWAP1 SWAP2 SWAP1 PUSH1 0x3 DUP3 ADD SWAP1 PUSH2 0x2838 SWAP1 DUP3 PUSH2 0x4ADE JUMP JUMPDEST POP POP PUSH1 0x40 MLOAD CALLER SWAP2 POP PUSH32 0xD84B306C4AF9D4777DF24B4265638B9E45AF2C2997BC3015AB6FA48EF5D06F96 SWAP1 PUSH2 0x286F SWAP1 TIMESTAMP SWAP1 DUP8 SWAP1 PUSH2 0x4B9E JUMP JUMPDEST PUSH1 0x40 MLOAD DUP1 SWAP2 SUB SWAP1 LOG2 POP POP POP JUMP JUMPDEST PUSH1 0x0 SWAP2 DUP3 MSTORE PUSH1 0x2 PUSH1 0x20 SWAP1 DUP2 MSTORE PUSH1 0x40 DUP1 DUP5 KECCAK256 PUSH1 0x1 PUSH1 0x1 PUSH1 0xA0 SHL SUB SWAP4 SWAP1 SWAP4 AND DUP5 MSTORE SWAP2 SWAP1 MSTORE SWAP1 KECCAK256 SLOAD PUSH1 0xFF AND SWAP1 JUMP JUMPDEST PUSH1 0x1 PUSH1 0x1 PUSH1 0xA0 SHL SUB DUP4 AND PUSH1 0x0 SWAP1 DUP2 MSTORE PUSH1 0x4 PUSH1 0x20 DUP2 SWAP1 MSTORE PUSH1 0x40 SWAP1 SWAP2 KECCAK256 ADD SLOAD DUP4 SWAP1 PUSH1 0xFF AND PUSH2 0x28E5 JUMPI PUSH1 0x40 MLOAD PUSH3 0x461BCD PUSH1 0xE5 SHL DUP2 MSTORE PUSH1 0x4 ADD PUSH2 0x1289 SWAP1 PUSH2 0x4978 JUMP JUMPDEST PUSH2 0x28ED PUSH2 0x39F2 JUMP JUMPDEST PUSH2 0x28F5 PUSH2 0x3999 JUMP JUMPDEST PUSH1 0x1 PUSH1 0x1 PUSH1 0xA0 SHL SUB DUP5 AND PUSH1 0x0 SWAP1 DUP2 MSTORE PUSH1 0x4 PUSH1 0x20 SWAP1 DUP2 MSTORE PUSH1 0x40 DUP1 DUP4 KECCAK256 SWAP1 MLOAD PUSH1 0x1 PUSH1 0x1 PUSH1 0x60 SHL SUB NOT PUSH1 0x60 DUP10 SWAP1 SHL AND SWAP3 DUP2 ADD SWAP3 SWAP1 SWAP3 MSTORE PUSH1 0x34 DUP3 ADD DUP7 SWAP1 MSTORE PUSH5 0x434C4F5345 PUSH1 0xD8 SHL PUSH1 0x54 DUP4 ADD MSTORE TIMESTAMP PUSH1 0x59 DUP4 ADD MSTORE SWAP2 SWAP1 PUSH1 0x79 ADD PUSH1 0x40 MLOAD PUSH1 0x20 DUP2 DUP4 SUB SUB DUP2 MSTORE SWAP1 PUSH1 0x40 MSTORE DUP1 MLOAD SWAP1 PUSH1 0x20 ADD KECCAK256 SWAP1 POP PUSH1 0x0 PUSH2 0x296F DUP6 PUSH2 0x13E4 DUP5 PUSH2 0x3A3A JUMP JUMPDEST SWAP1 POP DUP7 PUSH1 0x1 PUSH1 0x1 PUSH1 0xA0 SHL SUB AND DUP2 PUSH1 0x1 PUSH1 0x1 PUSH1 0xA0 SHL SUB AND EQ PUSH2 0x29C6 JUMPI PUSH1 0x40 MLOAD PUSH3 0x461BCD PUSH1 0xE5 SHL DUP2 MSTORE PUSH1 0x20 PUSH1 0x4 DUP3 ADD MSTORE PUSH1 0x11 PUSH1 0x24 DUP3 ADD MSTORE PUSH17 0x496E76616C6964207369676E6174757265 PUSH1 0x78 SHL PUSH1 0x44 DUP3 ADD MSTORE PUSH1 0x64 ADD PUSH2 0x1289 JUMP JUMPDEST PUSH1 0x4 DUP4 ADD DUP1 SLOAD PUSH1 0xFF NOT AND SWAP1 SSTORE PUSH1 0x1 DUP4 ADD DUP7 SWAP1 SSTORE PUSH1 0x40 MLOAD PUSH1 0x1 PUSH1 0x1 PUSH1 0xA0 SHL SUB DUP9 AND SWAP1 DUP8 ISZERO PUSH2 0x8FC MUL SWAP1 DUP9 SWAP1 PUSH1 0x0 DUP2 DUP2 DUP2 DUP6 DUP9 DUP9 CALL SWAP4 POP POP POP POP ISZERO DUP1 ISZERO PUSH2 0x2A0F JUMPI RETURNDATASIZE PUSH1 0x0 DUP1 RETURNDATACOPY RETURNDATASIZE PUSH1 0x0 REVERT JUMPDEST POP DUP7 PUSH1 0x1 PUSH1 0x1 PUSH1 0xA0 SHL SUB AND PUSH32 0x2B1DBE73B302AE6971ADDAFFCF590A88981EFFC82B2EBAEFD034B37F208F609A DUP8 PUSH1 0x40 MLOAD PUSH2 0x2A4B SWAP2 DUP2 MSTORE PUSH1 0x20 ADD SWAP1 JUMP JUMPDEST PUSH1 0x40 MLOAD DUP1 SWAP2 SUB SWAP1 LOG2 POP POP POP PUSH2 0x2A60 PUSH1 0x1 PUSH1 0x0 SSTORE JUMP JUMPDEST POP POP POP POP JUMP JUMPDEST PUSH1 0x0 PUSH2 0x2A71 DUP2 PUSH2 0x3909 JUMP JUMPDEST PUSH1 0x0 DUP3 GT PUSH2 0x2AB5 JUMPI PUSH1 0x40 MLOAD PUSH3 0x461BCD PUSH1 0xE5 SHL DUP2 MSTORE PUSH1 0x20 PUSH1 0x4 DUP3 ADD MSTORE PUSH1 0x11 PUSH1 0x24 DUP3 ADD MSTORE PUSH17 0x125B9D985B1A59081D1A1C995CDA1BDB19 PUSH1 0x7A SHL PUSH1 0x44 DUP3 ADD MSTORE PUSH1 0x64 ADD PUSH2 0x1289 JUMP JUMPDEST POP PUSH1 0x11 SSTORE JUMP JUMPDEST PUSH1 0x0 PUSH2 0x2AC6 DUP2 PUSH2 0x3909 JUMP JUMPDEST PUSH1 0x1 PUSH1 0x1 PUSH1 0xA0 SHL SUB DUP3 AND PUSH2 0x2B0E JUMPI PUSH1 0x40 MLOAD PUSH3 0x461BCD PUSH1 0xE5 SHL DUP2 MSTORE PUSH1 0x20 PUSH1 0x4 DUP3 ADD MSTORE PUSH1 0xF PUSH1 0x24 DUP3 ADD MSTORE PUSH15 0x496E76616C69642061646472657373 PUSH1 0x88 SHL PUSH1 0x44 DUP3 ADD MSTORE PUSH1 0x64 ADD PUSH2 0x1289 JUMP JUMPDEST PUSH1 0xD DUP1 SLOAD PUSH1 0x1 PUSH1 0x1 PUSH1 0xA0 SHL SUB DUP5 DUP2 AND PUSH1 0x1 PUSH1 0x1 PUSH1 0xA0 SHL SUB NOT DUP4 AND DUP2 OR SWAP1 SWAP4 SSTORE PUSH1 0x40 DUP1 MLOAD SWAP2 SWAP1 SWAP3 AND DUP1 DUP3 MSTORE PUSH1 0x20 DUP3 ADD SWAP4 SWAP1 SWAP4 MSTORE PUSH32 0x5D16AD41BAEB009CD23EB8F6C7CDE5C2E0CD5ACF4A33926AB488875C37C37F38 SWAP2 ADD JUMPDEST PUSH1 0x40 MLOAD DUP1 SWAP2 SUB SWAP1 LOG1 POP POP POP JUMP JUMPDEST PUSH1 0x0 PUSH2 0x2B7C DUP2 PUSH2 0x3909 JUMP JUMPDEST DUP2 DUP4 LT PUSH2 0x2BBC JUMPI PUSH1 0x40 MLOAD PUSH3 0x461BCD PUSH1 0xE5 SHL DUP2 MSTORE PUSH1 0x20 PUSH1 0x4 DUP3 ADD MSTORE PUSH1 0xE PUSH1 0x24 DUP3 ADD MSTORE PUSH14 0x496E76616C6964206C696D697473 PUSH1 0x90 SHL PUSH1 0x44 DUP3 ADD MSTORE PUSH1 0x64 ADD PUSH2 0x1289 JUMP JUMPDEST PUSH1 0x9 DUP4 SWAP1 SSTORE PUSH1 0xA DUP3 SWAP1 SSTORE PUSH1 0x40 DUP1 MLOAD DUP5 DUP2 MSTORE PUSH1 0x20 DUP2 ADD DUP5 SWAP1 MSTORE PUSH32 0x9008C5F12BA9CE7DB2A3644B35485CF65BD0A7AFE095D7D7F135B6A4B4BABC5F SWAP2 ADD PUSH2 0x2B64 JUMP JUMPDEST PUSH1 0x1 PUSH1 0x1 PUSH1 0xA0 SHL SUB DUP2 AND PUSH1 0x0 SWAP1 DUP2 MSTORE PUSH1 0x4 PUSH1 0x20 DUP2 SWAP1 MSTORE PUSH1 0x40 DUP3 KECCAK256 SWAP1 DUP2 ADD SLOAD PUSH1 0xFF AND DUP1 ISZERO PUSH2 0x2C2D JUMPI POP PUSH1 0x0 DUP2 PUSH1 0x5 ADD SLOAD GT JUMPDEST DUP1 ISZERO PUSH2 0x2C3D JUMPI POP DUP1 PUSH1 0x5 ADD SLOAD TIMESTAMP LT ISZERO JUMPDEST SWAP4 SWAP3 POP POP POP JUMP JUMPDEST PUSH1 0x0 PUSH2 0x2C4F DUP2 PUSH2 0x3909 JUMP JUMPDEST PUSH2 0x1252 PUSH1 0x0 DUP1 MLOAD PUSH1 0x20 PUSH2 0x4CFE DUP4 CODECOPY DUP2 MLOAD SWAP2 MSTORE DUP4 PUSH2 0x3B59 JUMP JUMPDEST PUSH2 0x2C7F PUSH1 0x0 DUP1 MLOAD PUSH1 0x20 PUSH2 0x4CFE DUP4 CODECOPY DUP2 MLOAD SWAP2 MSTORE CALLER PUSH2 0x287C JUMP JUMPDEST PUSH2 0x2CCB JUMPI PUSH1 0x40 MLOAD PUSH3 0x461BCD PUSH1 0xE5 SHL DUP2 MSTORE PUSH1 0x20 PUSH1 0x4 DUP3 ADD MSTORE PUSH1 0x1C PUSH1 0x24 DUP3 ADD MSTORE PUSH32 0x43616C6C6572206973206E6F7420656D657267656E637920726F6C6500000000 PUSH1 0x44 DUP3 ADD MSTORE PUSH1 0x64 ADD PUSH2 0x1289 JUMP JUMPDEST PUSH2 0x2CD3 PUSH2 0x3999 JUMP JUMPDEST PUSH1 0x1 PUSH1 0x1 PUSH1 0xA0 SHL SUB DUP2 AND PUSH1 0x0 SWAP1 DUP2 MSTORE PUSH1 0x4 PUSH1 0x20 DUP2 DUP2 MSTORE PUSH1 0x40 DUP1 DUP5 KECCAK256 PUSH1 0x6 SWAP1 SWAP3 MSTORE SWAP1 SWAP3 KECCAK256 SWAP1 DUP3 ADD SLOAD PUSH1 0xFF AND PUSH2 0x2D3E JUMPI PUSH1 0x40 MLOAD PUSH3 0x461BCD PUSH1 0xE5 SHL DUP2 MSTORE PUSH1 0x20 PUSH1 0x4 DUP3 ADD MSTORE PUSH1 0x12 PUSH1 0x24 DUP3 ADD MSTORE PUSH18 0x4368616E6E656C206E6F7420616374697665 PUSH1 0x70 SHL PUSH1 0x44 DUP3 ADD MSTORE PUSH1 0x64 ADD PUSH2 0x1289 JUMP JUMPDEST DUP1 SLOAD PUSH1 0x1 PUSH1 0x1 PUSH1 0xA0 SHL SUB DUP5 DUP2 AND SWAP2 AND EQ PUSH2 0x2D91 JUMPI PUSH1 0x40 MLOAD PUSH3 0x461BCD PUSH1 0xE5 SHL DUP2 MSTORE PUSH1 0x20 PUSH1 0x4 DUP3 ADD MSTORE PUSH1 0x14 PUSH1 0x24 DUP3 ADD MSTORE PUSH20 0x139BC8195B595C99D95B98DE481C995C5D595CDD PUSH1 0x62 SHL PUSH1 0x44 DUP3 ADD MSTORE PUSH1 0x64 ADD PUSH2 0x1289 JUMP JUMPDEST PUSH1 0x2 DUP2 ADD SLOAD PUSH1 0xFF AND ISZERO PUSH2 0x2DD9 JUMPI PUSH1 0x40 MLOAD PUSH3 0x461BCD PUSH1 0xE5 SHL DUP2 MSTORE PUSH1 0x20 PUSH1 0x4 DUP3 ADD MSTORE PUSH1 0x10 PUSH1 0x24 DUP3 ADD MSTORE PUSH16 0x105B1C9958591E48195E1958DD5D1959 PUSH1 0x82 SHL PUSH1 0x44 DUP3 ADD MSTORE PUSH1 0x64 ADD PUSH2 0x1289 JUMP JUMPDEST DUP2 PUSH1 0x5 ADD SLOAD TIMESTAMP LT ISZERO PUSH2 0x2E24 JUMPI PUSH1 0x40 MLOAD PUSH3 0x461BCD PUSH1 0xE5 SHL DUP2 MSTORE PUSH1 0x20 PUSH1 0x4 DUP3 ADD MSTORE PUSH1 0x14 PUSH1 0x24 DUP3 ADD MSTORE PUSH20 0x151A5B595B1BD8DAC81B9BDD08195E1C1A5C9959 PUSH1 0x62 SHL PUSH1 0x44 DUP3 ADD MSTORE PUSH1 0x64 ADD PUSH2 0x1289 JUMP JUMPDEST PUSH1 0x0 DUP3 PUSH1 0x5 ADD SLOAD GT PUSH2 0x2E82 JUMPI PUSH1 0x40 MLOAD PUSH3 0x461BCD PUSH1 0xE5 SHL DUP2 MSTORE PUSH1 0x20 PUSH1 0x4 DUP3 ADD MSTORE PUSH1 0x21 PUSH1 0x24 DUP3 ADD MSTORE PUSH32 0x4E6F20656D657267656E6379207769746864726177616C207265717565737465 PUSH1 0x44 DUP3 ADD MSTORE PUSH1 0x19 PUSH1 0xFA SHL PUSH1 0x64 DUP3 ADD MSTORE PUSH1 0x84 ADD PUSH2 0x1289 JUMP JUMPDEST PUSH1 0x2 DUP2 ADD DUP1 SLOAD PUSH1 0x1 PUSH1 0xFF NOT SWAP2 DUP3 AND DUP2 OR SWAP1 SWAP3 SSTORE PUSH1 0x4 DUP5 ADD DUP1 SLOAD SWAP1 SWAP2 AND SWAP1 SSTORE DUP3 ADD DUP1 SLOAD PUSH1 0x0 SWAP2 DUP3 SWAP1 SSTORE PUSH1 0x5 DUP5 ADD DUP3 SWAP1 SSTORE PUSH1 0x40 MLOAD SWAP1 SWAP2 PUSH1 0x1 PUSH1 0x1 PUSH1 0xA0 SHL SUB DUP7 AND SWAP2 PUSH2 0x8FC DUP5 ISZERO MUL SWAP2 DUP5 SWAP2 SWAP1 DUP2 DUP2 DUP2 DUP6 DUP9 DUP9 CALL SWAP4 POP POP POP POP ISZERO DUP1 ISZERO PUSH2 0x2EE8 JUMPI RETURNDATASIZE PUSH1 0x0 DUP1 RETURNDATACOPY RETURNDATASIZE PUSH1 0x0 REVERT JUMPDEST POP PUSH1 0x40 DUP1 MLOAD DUP3 DUP2 MSTORE TIMESTAMP PUSH1 0x20 DUP3 ADD MSTORE PUSH1 0x1 PUSH1 0x1 PUSH1 0xA0 SHL SUB DUP7 AND SWAP2 PUSH32 0xE5CEA137E6F2EB6B43EB46D8F9C6EBA1EAFA59F0B48F8F4C80AEFDCFD07E71BA SWAP2 ADD PUSH1 0x40 MLOAD DUP1 SWAP2 SUB SWAP1 LOG2 POP POP POP PUSH2 0x169E PUSH1 0x1 PUSH1 0x0 SSTORE JUMP JUMPDEST PUSH1 0x0 PUSH2 0x2F44 DUP2 PUSH2 0x3909 JUMP JUMPDEST PUSH2 0x3E8 DUP3 GT ISZERO PUSH2 0x2F85 JUMPI PUSH1 0x40 MLOAD PUSH3 0x461BCD PUSH1 0xE5 SHL DUP2 MSTORE PUSH1 0x20 PUSH1 0x4 DUP3 ADD MSTORE PUSH1 0xC PUSH1 0x24 DUP3 ADD MSTORE PUSH12 0x8CCACA40E8DEDE40D0D2CED PUSH1 0xA3 SHL PUSH1 0x44 DUP3 ADD MSTORE PUSH1 0x64 ADD PUSH2 0x1289 JUMP JUMPDEST PUSH1 0xE DUP1 SLOAD SWAP1 DUP4 SWAP1 SSTORE PUSH1 0x40 DUP1 MLOAD DUP3 DUP2 MSTORE PUSH1 0x20 DUP2 ADD DUP6 SWAP1 MSTORE PUSH32 0x528D9479E9F9889A87A3C30C7F7BA537E5E59C4C85A37733B16E57C62DF61302 SWAP2 ADD PUSH2 0x2B64 JUMP JUMPDEST PUSH1 0x0 PUSH2 0x2FCE DUP2 PUSH2 0x3909 JUMP JUMPDEST PUSH2 0x1252 PUSH1 0x0 DUP1 MLOAD PUSH1 0x20 PUSH2 0x4D1E DUP4 CODECOPY DUP2 MLOAD SWAP2 MSTORE DUP4 PUSH2 0x3B59 JUMP JUMPDEST PUSH1 0x6 PUSH1 0x20 MSTORE PUSH1 0x0 SWAP1 DUP2 MSTORE PUSH1 0x40 SWAP1 KECCAK256 DUP1 SLOAD PUSH1 0x1 DUP3 ADD SLOAD PUSH1 0x2 DUP4 ADD SLOAD PUSH1 0x3 DUP5 ADD DUP1 SLOAD PUSH1 0x1 PUSH1 0x1 PUSH1 0xA0 SHL SUB SWAP1 SWAP5 AND SWAP5 SWAP3 SWAP4 PUSH1 0xFF SWAP1 SWAP3 AND SWAP3 SWAP2 PUSH2 0x3024 SWAP1 PUSH2 0x48D8 JUMP JUMPDEST DUP1 PUSH1 0x1F ADD PUSH1 0x20 DUP1 SWAP2 DIV MUL PUSH1 0x20 ADD PUSH1 0x40 MLOAD SWAP1 DUP2 ADD PUSH1 0x40 MSTORE DUP1 SWAP3 SWAP2 SWAP1 DUP2 DUP2 MSTORE PUSH1 0x20 ADD DUP3 DUP1 SLOAD PUSH2 0x3050 SWAP1 PUSH2 0x48D8 JUMP JUMPDEST DUP1 ISZERO PUSH2 0x309D JUMPI DUP1 PUSH1 0x1F LT PUSH2 0x3072 JUMPI PUSH2 0x100 DUP1 DUP4 SLOAD DIV MUL DUP4 MSTORE SWAP2 PUSH1 0x20 ADD SWAP2 PUSH2 0x309D JUMP JUMPDEST DUP3 ADD SWAP2 SWAP1 PUSH1 0x0 MSTORE PUSH1 0x20 PUSH1 0x0 KECCAK256 SWAP1 JUMPDEST DUP2 SLOAD DUP2 MSTORE SWAP1 PUSH1 0x1 ADD SWAP1 PUSH1 0x20 ADD DUP1 DUP4 GT PUSH2 0x3080 JUMPI DUP3 SWAP1 SUB PUSH1 0x1F AND DUP3 ADD SWAP2 JUMPDEST POP POP POP POP POP SWAP1 POP DUP5 JUMP JUMPDEST PUSH2 0x30BF PUSH1 0x0 DUP1 MLOAD PUSH1 0x20 PUSH2 0x4CFE DUP4 CODECOPY DUP2 MLOAD SWAP2 MSTORE CALLER PUSH2 0x287C JUMP JUMPDEST PUSH2 0x310B JUMPI PUSH1 0x40 MLOAD PUSH3 0x461BCD PUSH1 0xE5 SHL DUP2 MSTORE PUSH1 0x20 PUSH1 0x4 DUP3 ADD MSTORE PUSH1 0x1C PUSH1 0x24 DUP3 ADD MSTORE PUSH32 0x43616C6C6572206973206E6F7420656D657267656E637920726F6C6500000000 PUSH1 0x44 DUP3 ADD MSTORE PUSH1 0x64 ADD PUSH2 0x1289 JUMP JUMPDEST PUSH1 0x13 SLOAD PUSH1 0xFF AND ISZERO PUSH2 0x315E JUMPI PUSH1 0x40 MLOAD PUSH3 0x461BCD PUSH1 0xE5 SHL DUP2 MSTORE PUSH1 0x20 PUSH1 0x4 DUP3 ADD MSTORE PUSH1 0x19 PUSH1 0x24 DUP3 ADD MSTORE PUSH32 0x416C726561647920696E20656D657267656E6379206D6F646500000000000000 PUSH1 0x44 DUP3 ADD MSTORE PUSH1 0x64 ADD PUSH2 0x1289 JUMP JUMPDEST PUSH1 0x13 DUP1 SLOAD PUSH1 0xFF NOT AND PUSH1 0x1 OR SWAP1 SSTORE TIMESTAMP PUSH1 0x14 SSTORE JUMP JUMPDEST PUSH1 0x0 DUP3 DUP2 MSTORE PUSH1 0x2 PUSH1 0x20 MSTORE PUSH1 0x40 SWAP1 KECCAK256 PUSH1 0x1 ADD SLOAD PUSH2 0x318C DUP2 PUSH2 0x3909 JUMP JUMPDEST PUSH2 0x1578 DUP4 DUP4 PUSH2 0x3B59 JUMP JUMPDEST PUSH1 0x0 PUSH2 0x31A1 DUP2 PUSH2 0x3909 JUMP JUMPDEST PUSH1 0x40 MLOAD CALLER SWAP1 SELFBALANCE DUP1 ISZERO PUSH2 0x8FC MUL SWAP2 PUSH1 0x0 DUP2 DUP2 DUP2 DUP6 DUP9 DUP9 CALL SWAP4 POP POP POP POP ISZERO DUP1 ISZERO PUSH2 0x1252 JUMPI RETURNDATASIZE PUSH1 0x0 DUP1 RETURNDATACOPY RETURNDATASIZE PUSH1 0x0 REVERT JUMPDEST PUSH1 0x0 DUP8 DUP2 MSTORE PUSH1 0x3 PUSH1 0x20 MSTORE PUSH1 0x40 SWAP1 KECCAK256 SLOAD DUP8 SWAP1 PUSH1 0x1 PUSH1 0x1 PUSH1 0xA0 SHL SUB AND PUSH2 0x3203 JUMPI PUSH1 0x40 MLOAD PUSH3 0x461BCD PUSH1 0xE5 SHL DUP2 MSTORE PUSH1 0x4 ADD PUSH2 0x1289 SWAP1 PUSH2 0x49AF JUMP JUMPDEST PUSH1 0x0 DUP2 DUP2 MSTORE PUSH1 0x3 PUSH1 0x20 MSTORE PUSH1 0x40 SWAP1 KECCAK256 PUSH1 0x7 ADD SLOAD PUSH3 0x10000 SWAP1 DIV PUSH1 0xFF AND ISZERO PUSH2 0x323B JUMPI PUSH1 0x40 MLOAD PUSH3 0x461BCD PUSH1 0xE5 SHL DUP2 MSTORE PUSH1 0x4 ADD PUSH2 0x1289 SWAP1 PUSH2 0x49DD JUMP JUMPDEST PUSH1 0x0 DUP2 DUP2 MSTORE PUSH1 0x3 PUSH1 0x20 MSTORE PUSH1 0x40 SWAP1 KECCAK256 PUSH1 0x7 ADD SLOAD PUSH4 0x1000000 SWAP1 DIV PUSH1 0xFF AND ISZERO PUSH2 0x3274 JUMPI PUSH1 0x40 MLOAD PUSH3 0x461BCD PUSH1 0xE5 SHL DUP2 MSTORE PUSH1 0x4 ADD PUSH2 0x1289 SWAP1 PUSH2 0x4A0D JUMP JUMPDEST PUSH1 0x0 DUP9 DUP2 MSTORE PUSH1 0x3 PUSH1 0x20 MSTORE PUSH1 0x40 SWAP1 KECCAK256 SLOAD DUP9 SWAP1 PUSH1 0x1 PUSH1 0x1 PUSH1 0xA0 SHL SUB AND CALLER EQ PUSH2 0x32CE JUMPI PUSH1 0x40 MLOAD PUSH3 0x461BCD PUSH1 0xE5 SHL DUP2 MSTORE PUSH1 0x20 PUSH1 0x4 DUP3 ADD MSTORE PUSH1 0xF PUSH1 0x24 DUP3 ADD MSTORE PUSH15 0x2737BA1037B93232B91037BBB732B9 PUSH1 0x89 SHL PUSH1 0x44 DUP3 ADD MSTORE PUSH1 0x64 ADD PUSH2 0x1289 JUMP JUMPDEST PUSH2 0x32D6 PUSH2 0x39F2 JUMP JUMPDEST PUSH1 0x13 SLOAD PUSH1 0xFF AND ISZERO PUSH2 0x32F9 JUMPI PUSH1 0x40 MLOAD PUSH3 0x461BCD PUSH1 0xE5 SHL DUP2 MSTORE PUSH1 0x4 ADD PUSH2 0x1289 SWAP1 PUSH2 0x4912 JUMP JUMPDEST PUSH1 0x0 DUP10 DUP2 MSTORE PUSH1 0x3 PUSH1 0x20 MSTORE PUSH1 0x40 SWAP1 KECCAK256 PUSH1 0x7 DUP2 ADD SLOAD PUSH2 0x100 SWAP1 DIV PUSH1 0xFF AND ISZERO PUSH2 0x335A JUMPI PUSH1 0x40 MLOAD PUSH3 0x461BCD PUSH1 0xE5 SHL DUP2 MSTORE PUSH1 0x20 PUSH1 0x4 DUP3 ADD MSTORE PUSH1 0x16 PUSH1 0x24 DUP3 ADD MSTORE PUSH22 0x13DC99195C88185B1C9958591E481C995D99585B1959 PUSH1 0x52 SHL PUSH1 0x44 DUP3 ADD MSTORE PUSH1 0x64 ADD PUSH2 0x1289 JUMP JUMPDEST PUSH1 0xC SLOAD DUP2 PUSH1 0x6 ADD SLOAD PUSH2 0x336C SWAP2 SWAP1 PUSH2 0x4A44 JUMP JUMPDEST TIMESTAMP GT ISZERO PUSH2 0x33B3 JUMPI PUSH1 0x40 MLOAD PUSH3 0x461BCD PUSH1 0xE5 SHL DUP2 MSTORE PUSH1 0x20 PUSH1 0x4 DUP3 ADD MSTORE PUSH1 0x15 PUSH1 0x24 DUP3 ADD MSTORE PUSH21 0x14995D99585B081DDA5B991BDDC8195E1C1A5C9959 PUSH1 0x5A SHL PUSH1 0x44 DUP3 ADD MSTORE PUSH1 0x64 ADD PUSH2 0x1289 JUMP JUMPDEST PUSH1 0x0 DUP10 DUP10 DUP10 DUP10 DUP10 DUP10 PUSH1 0x40 MLOAD PUSH1 0x20 ADD PUSH2 0x33D0 SWAP7 SWAP6 SWAP5 SWAP4 SWAP3 SWAP2 SWAP1 PUSH2 0x4BB7 JUMP JUMPDEST PUSH1 0x40 MLOAD PUSH1 0x20 DUP2 DUP4 SUB SUB DUP2 MSTORE SWAP1 PUSH1 0x40 MSTORE DUP1 MLOAD SWAP1 PUSH1 0x20 ADD KECCAK256 SWAP1 POP DUP1 DUP12 EQ PUSH2 0x342C JUMPI PUSH1 0x40 MLOAD PUSH3 0x461BCD PUSH1 0xE5 SHL DUP2 MSTORE PUSH1 0x20 PUSH1 0x4 DUP3 ADD MSTORE PUSH1 0x12 PUSH1 0x24 DUP3 ADD MSTORE PUSH18 0x125B9D985B1A590818DBDB5B5A5D1B595B9D PUSH1 0x72 SHL PUSH1 0x44 DUP3 ADD MSTORE PUSH1 0x64 ADD PUSH2 0x1289 JUMP JUMPDEST PUSH1 0x9 SLOAD DUP9 LT ISZERO PUSH2 0x3471 JUMPI PUSH1 0x40 MLOAD PUSH3 0x461BCD PUSH1 0xE5 SHL DUP2 MSTORE PUSH1 0x20 PUSH1 0x4 DUP3 ADD MSTORE PUSH1 0x10 PUSH1 0x24 DUP3 ADD MSTORE PUSH16 0x105B5BDD5B9D081D1BDBC81CDB585B1B PUSH1 0x82 SHL PUSH1 0x44 DUP3 ADD MSTORE PUSH1 0x64 ADD PUSH2 0x1289 JUMP JUMPDEST PUSH1 0xA SLOAD DUP9 GT ISZERO PUSH2 0x34B6 JUMPI PUSH1 0x40 MLOAD PUSH3 0x461BCD PUSH1 0xE5 SHL DUP2 MSTORE PUSH1 0x20 PUSH1 0x4 DUP3 ADD MSTORE PUSH1 0x10 PUSH1 0x24 DUP3 ADD MSTORE PUSH16 0x416D6F756E7420746F6F206C61726765 PUSH1 0x80 SHL PUSH1 0x44 DUP3 ADD MSTORE PUSH1 0x64 ADD PUSH2 0x1289 JUMP JUMPDEST DUP9 PUSH1 0x1 PUSH1 0x1 PUSH1 0xA0 SHL SUB AND DUP11 PUSH1 0x1 PUSH1 0x1 PUSH1 0xA0 SHL SUB AND SUB PUSH2 0x3504 JUMPI PUSH1 0x40 MLOAD PUSH3 0x461BCD PUSH1 0xE5 SHL DUP2 MSTORE PUSH1 0x20 PUSH1 0x4 DUP3 ADD MSTORE PUSH1 0xA PUSH1 0x24 DUP3 ADD MSTORE PUSH10 0x29B0B6B2903A37B5B2B7 PUSH1 0xB1 SHL PUSH1 0x44 DUP3 ADD MSTORE PUSH1 0x64 ADD PUSH2 0x1289 JUMP JUMPDEST PUSH1 0x1 PUSH1 0x1 PUSH1 0xA0 SHL SUB DUP11 AND ISZERO DUP1 ISZERO SWAP1 PUSH2 0x3524 JUMPI POP PUSH1 0x1 PUSH1 0x1 PUSH1 0xA0 SHL SUB DUP10 AND ISZERO ISZERO JUMPDEST PUSH2 0x3570 JUMPI PUSH1 0x40 MLOAD PUSH3 0x461BCD PUSH1 0xE5 SHL DUP2 MSTORE PUSH1 0x20 PUSH1 0x4 DUP3 ADD MSTORE PUSH1 0x17 PUSH1 0x24 DUP3 ADD MSTORE PUSH32 0x496E76616C696420746F6B656E20616464726573736573000000000000000000 PUSH1 0x44 DUP3 ADD MSTORE PUSH1 0x64 ADD PUSH2 0x1289 JUMP JUMPDEST PUSH1 0x1 DUP3 ADD DUP1 SLOAD PUSH1 0x1 PUSH1 0x1 PUSH1 0xA0 SHL SUB DUP13 DUP2 AND PUSH1 0x1 PUSH1 0x1 PUSH1 0xA0 SHL SUB NOT SWAP3 DUP4 AND DUP2 OR SWAP1 SWAP4 SSTORE PUSH1 0x2 DUP6 ADD DUP1 SLOAD SWAP2 DUP14 AND SWAP2 SWAP1 SWAP3 AND DUP2 OR SWAP1 SWAP2 SSTORE PUSH1 0x3 DUP5 ADD DUP11 SWAP1 SSTORE PUSH1 0x4 DUP5 ADD DUP10 SWAP1 SSTORE PUSH1 0x7 DUP5 ADD DUP1 SLOAD PUSH2 0xFF00 NOT DUP11 ISZERO ISZERO SWAP1 DUP2 AND PUSH2 0xFFFF NOT SWAP1 SWAP3 AND SWAP2 SWAP1 SWAP2 OR PUSH2 0x100 OR SWAP1 SWAP2 SSTORE PUSH1 0x40 DUP1 MLOAD SWAP4 DUP5 MSTORE PUSH1 0x20 DUP5 ADD SWAP3 SWAP1 SWAP3 MSTORE SWAP1 DUP3 ADD DUP11 SWAP1 MSTORE PUSH1 0x60 DUP3 ADD DUP10 SWAP1 MSTORE PUSH1 0x80 DUP3 ADD MSTORE CALLER SWAP1 DUP13 SWAP1 PUSH32 0xCA14AE26824C404DD0A0351DE7F8DA4E8EF06E80E469FC594879C2B97A397C0B SWAP1 PUSH1 0xA0 ADD PUSH2 0x269B JUMP JUMPDEST PUSH1 0x0 PUSH2 0x362E DUP2 PUSH2 0x3909 JUMP JUMPDEST PUSH1 0x13 SLOAD PUSH1 0xFF AND PUSH2 0x3678 JUMPI PUSH1 0x40 MLOAD PUSH3 0x461BCD PUSH1 0xE5 SHL DUP2 MSTORE PUSH1 0x20 PUSH1 0x4 DUP3 ADD MSTORE PUSH1 0x15 PUSH1 0x24 DUP3 ADD MSTORE PUSH21 0x4E6F7420696E20656D657267656E6379206D6F6465 PUSH1 0x58 SHL PUSH1 0x44 DUP3 ADD MSTORE PUSH1 0x64 ADD PUSH2 0x1289 JUMP JUMPDEST POP PUSH1 0x13 DUP1 SLOAD PUSH1 0xFF NOT AND SWAP1 SSTORE PUSH1 0x0 PUSH1 0x14 SSTORE JUMP JUMPDEST PUSH2 0x3692 PUSH2 0x39F2 JUMP JUMPDEST PUSH1 0x13 SLOAD PUSH1 0xFF AND ISZERO PUSH2 0x36B5 JUMPI PUSH1 0x40 MLOAD PUSH3 0x461BCD PUSH1 0xE5 SHL DUP2 MSTORE PUSH1 0x4 ADD PUSH2 0x1289 SWAP1 PUSH2 0x4912 JUMP JUMPDEST PUSH2 0x36BD PUSH2 0x3999 JUMP JUMPDEST PUSH1 0x1 PUSH1 0x1 PUSH1 0xA0 SHL SUB DUP3 AND PUSH2 0x3704 JUMPI PUSH1 0x40 MLOAD PUSH3 0x461BCD PUSH1 0xE5 SHL DUP2 MSTORE PUSH1 0x20 PUSH1 0x4 DUP3 ADD MSTORE PUSH1 0xE PUSH1 0x24 DUP3 ADD MSTORE PUSH14 0x24B73B30B634B2103A3930B232B9 PUSH1 0x91 SHL PUSH1 0x44 DUP3 ADD MSTORE PUSH1 0x64 ADD PUSH2 0x1289 JUMP JUMPDEST PUSH1 0x0 DUP2 GT PUSH2 0x3746 JUMPI PUSH1 0x40 MLOAD PUSH3 0x461BCD PUSH1 0xE5 SHL DUP2 MSTORE PUSH1 0x20 PUSH1 0x4 DUP3 ADD MSTORE PUSH1 0xF PUSH1 0x24 DUP3 ADD MSTORE PUSH15 0x496E76616C69642062616C616E6365 PUSH1 0x88 SHL PUSH1 0x44 DUP3 ADD MSTORE PUSH1 0x64 ADD PUSH2 0x1289 JUMP JUMPDEST DUP1 CALLVALUE LT ISZERO PUSH2 0x378D JUMPI PUSH1 0x40 MLOAD PUSH3 0x461BCD PUSH1 0xE5 SHL DUP2 MSTORE PUSH1 0x20 PUSH1 0x4 DUP3 ADD MSTORE PUSH1 0x14 PUSH1 0x24 DUP3 ADD MSTORE PUSH20 0x125B9CDD59999A58DA595B9D0819195C1BDCDA5D PUSH1 0x62 SHL PUSH1 0x44 DUP3 ADD MSTORE PUSH1 0x64 ADD PUSH2 0x1289 JUMP JUMPDEST PUSH1 0x1 PUSH1 0x1 PUSH1 0xA0 SHL SUB DUP3 AND PUSH1 0x0 SWAP1 DUP2 MSTORE PUSH1 0x4 PUSH1 0x20 DUP2 SWAP1 MSTORE PUSH1 0x40 SWAP1 SWAP2 KECCAK256 ADD SLOAD PUSH1 0xFF AND ISZERO PUSH2 0x37F3 JUMPI PUSH1 0x40 MLOAD PUSH3 0x461BCD PUSH1 0xE5 SHL DUP2 MSTORE PUSH1 0x20 PUSH1 0x4 DUP3 ADD MSTORE PUSH1 0x16 PUSH1 0x24 DUP3 ADD MSTORE PUSH22 0x4368616E6E656C20616C726561647920616374697665 PUSH1 0x50 SHL PUSH1 0x44 DUP3 ADD MSTORE PUSH1 0x64 ADD PUSH2 0x1289 JUMP JUMPDEST PUSH1 0x40 DUP1 MLOAD PUSH1 0xC0 DUP2 ADD DUP3 MSTORE PUSH1 0x1 PUSH1 0x1 PUSH1 0xA0 SHL SUB DUP5 DUP2 AND DUP1 DUP4 MSTORE PUSH1 0x20 DUP1 DUP5 ADD DUP7 DUP2 MSTORE PUSH1 0x0 DUP6 DUP8 ADD DUP2 DUP2 MSTORE TIMESTAMP PUSH1 0x60 DUP9 ADD SWAP1 DUP2 MSTORE PUSH1 0x1 PUSH1 0x80 DUP10 ADD DUP2 DUP2 MSTORE PUSH1 0xA0 DUP11 ADD DUP6 DUP2 MSTORE DUP9 DUP7 MSTORE PUSH1 0x4 DUP1 DUP10 MSTORE DUP13 DUP8 KECCAK256 SWAP12 MLOAD DUP13 SLOAD PUSH1 0x1 PUSH1 0x1 PUSH1 0xA0 SHL SUB NOT AND SWAP12 AND SWAP11 SWAP1 SWAP11 OR DUP12 SSTORE SWAP6 MLOAD SWAP2 DUP11 ADD SWAP2 SWAP1 SWAP2 SSTORE SWAP2 MLOAD PUSH1 0x2 DUP10 ADD SSTORE MLOAD PUSH1 0x3 DUP9 ADD SSTORE MLOAD SWAP5 DUP7 ADD DUP1 SLOAD PUSH1 0xFF NOT AND SWAP6 ISZERO ISZERO SWAP6 SWAP1 SWAP6 OR SWAP1 SWAP5 SSTORE MLOAD PUSH1 0x5 SWAP1 SWAP5 ADD SWAP4 SWAP1 SWAP4 SSTORE DUP4 MLOAD DUP6 DUP2 MSTORE SWAP3 DUP4 ADD SWAP2 SWAP1 SWAP2 MSTORE SWAP2 PUSH32 0x831FD65D60E4DD10379F73C1B4F67910310EA704B461BE472A88C35127388B5A SWAP2 ADD PUSH1 0x40 MLOAD DUP1 SWAP2 SUB SWAP1 LOG2 PUSH2 0x1252 PUSH1 0x1 PUSH1 0x0 SSTORE JUMP JUMPDEST PUSH1 0x0 DUP7 DUP7 DUP7 DUP7 DUP7 DUP7 PUSH1 0x40 MLOAD PUSH1 0x20 ADD PUSH2 0x38E7 SWAP7 SWAP6 SWAP5 SWAP4 SWAP3 SWAP2 SWAP1 PUSH2 0x4BB7 JUMP JUMPDEST PUSH1 0x40 MLOAD PUSH1 0x20 DUP2 DUP4 SUB SUB DUP2 MSTORE SWAP1 PUSH1 0x40 MSTORE DUP1 MLOAD SWAP1 PUSH1 0x20 ADD KECCAK256 SWAP1 POP SWAP7 SWAP6 POP POP POP POP POP POP JUMP JUMPDEST PUSH2 0x169E DUP2 CALLER PUSH2 0x3CA7 JUMP JUMPDEST PUSH2 0x391D DUP3 DUP3 PUSH2 0x287C JUMP JUMPDEST PUSH2 0x1252 JUMPI PUSH1 0x0 DUP3 DUP2 MSTORE PUSH1 0x2 PUSH1 0x20 SWAP1 DUP2 MSTORE PUSH1 0x40 DUP1 DUP4 KECCAK256 PUSH1 0x1 PUSH1 0x1 PUSH1 0xA0 SHL SUB DUP6 AND DUP5 MSTORE SWAP1 SWAP2 MSTORE SWAP1 KECCAK256 DUP1 SLOAD PUSH1 0xFF NOT AND PUSH1 0x1 OR SWAP1 SSTORE PUSH2 0x3955 CALLER SWAP1 JUMP JUMPDEST PUSH1 0x1 PUSH1 0x1 PUSH1 0xA0 SHL SUB AND DUP2 PUSH1 0x1 PUSH1 0x1 PUSH1 0xA0 SHL SUB AND DUP4 PUSH32 0x2F8788117E7EFF1D82E926EC794901D17C78024A50270940304540A733656F0D PUSH1 0x40 MLOAD PUSH1 0x40 MLOAD DUP1 SWAP2 SUB SWAP1 LOG4 POP POP JUMP JUMPDEST PUSH1 0x2 PUSH1 0x0 SLOAD SUB PUSH2 0x39EB JUMPI PUSH1 0x40 MLOAD PUSH3 0x461BCD PUSH1 0xE5 SHL DUP2 MSTORE PUSH1 0x20 PUSH1 0x4 DUP3 ADD MSTORE PUSH1 0x1F PUSH1 0x24 DUP3 ADD MSTORE PUSH32 0x5265656E7472616E637947756172643A207265656E7472616E742063616C6C00 PUSH1 0x44 DUP3 ADD MSTORE PUSH1 0x64 ADD PUSH2 0x1289 JUMP JUMPDEST PUSH1 0x2 PUSH1 0x0 SSTORE JUMP JUMPDEST PUSH1 0x1 SLOAD PUSH1 0xFF AND ISZERO PUSH2 0x3A38 JUMPI PUSH1 0x40 MLOAD PUSH3 0x461BCD PUSH1 0xE5 SHL DUP2 MSTORE PUSH1 0x20 PUSH1 0x4 DUP3 ADD MSTORE PUSH1 0x10 PUSH1 0x24 DUP3 ADD MSTORE PUSH16 0x14185D5CD8589B194E881C185D5CD959 PUSH1 0x82 SHL PUSH1 0x44 DUP3 ADD MSTORE PUSH1 0x64 ADD PUSH2 0x1289 JUMP JUMPDEST JUMP JUMPDEST PUSH32 0x19457468657265756D205369676E6564204D6573736167653A0A333200000000 PUSH1 0x0 SWAP1 DUP2 MSTORE PUSH1 0x1C SWAP2 SWAP1 SWAP2 MSTORE PUSH1 0x3C SWAP1 KECCAK256 SWAP1 JUMP JUMPDEST PUSH1 0x0 DUP1 PUSH1 0x0 PUSH2 0x3A7C DUP6 DUP6 PUSH2 0x3D00 JUMP JUMPDEST SWAP2 POP SWAP2 POP PUSH2 0x3A89 DUP2 PUSH2 0x3D45 JUMP JUMPDEST POP SWAP4 SWAP3 POP POP POP JUMP JUMPDEST PUSH1 0x1 PUSH1 0x1 PUSH1 0xA0 SHL SUB DUP4 AND PUSH1 0x0 SWAP1 DUP2 MSTORE PUSH1 0x4 PUSH1 0x20 MSTORE PUSH1 0x40 SWAP1 KECCAK256 DUP2 ISZERO PUSH2 0x3ACE JUMPI DUP3 DUP2 PUSH1 0x1 ADD PUSH1 0x0 DUP3 DUP3 SLOAD PUSH2 0x3AC3 SWAP2 SWAP1 PUSH2 0x4A44 JUMP JUMPDEST SWAP1 SWAP2 SSTORE POP PUSH2 0x3B33 SWAP1 POP JUMP JUMPDEST DUP3 DUP2 PUSH1 0x1 ADD SLOAD LT ISZERO PUSH2 0x3B19 JUMPI PUSH1 0x40 MLOAD PUSH3 0x461BCD PUSH1 0xE5 SHL DUP2 MSTORE PUSH1 0x20 PUSH1 0x4 DUP3 ADD MSTORE PUSH1 0x14 PUSH1 0x24 DUP3 ADD MSTORE PUSH20 0x496E73756666696369656E742062616C616E6365 PUSH1 0x60 SHL PUSH1 0x44 DUP3 ADD MSTORE PUSH1 0x64 ADD PUSH2 0x1289 JUMP JUMPDEST DUP3 DUP2 PUSH1 0x1 ADD PUSH1 0x0 DUP3 DUP3 SLOAD PUSH2 0x3B2D SWAP2 SWAP1 PUSH2 0x4BF7 JUMP JUMPDEST SWAP1 SWAP2 SSTORE POP POP JUMPDEST PUSH1 0x1 DUP2 PUSH1 0x2 ADD PUSH1 0x0 DUP3 DUP3 SLOAD PUSH2 0x3B48 SWAP2 SWAP1 PUSH2 0x4A44 JUMP JUMPDEST SWAP1 SWAP2 SSTORE POP POP TIMESTAMP PUSH1 0x3 SWAP1 SWAP2 ADD SSTORE POP POP POP JUMP JUMPDEST PUSH2 0x3B63 DUP3 DUP3 PUSH2 0x287C JUMP JUMPDEST ISZERO PUSH2 0x1252 JUMPI PUSH1 0x0 DUP3 DUP2 MSTORE PUSH1 0x2 PUSH1 0x20 SWAP1 DUP2 MSTORE PUSH1 0x40 DUP1 DUP4 KECCAK256 PUSH1 0x1 PUSH1 0x1 PUSH1 0xA0 SHL SUB DUP6 AND DUP1 DUP6 MSTORE SWAP3 MSTORE DUP1 DUP4 KECCAK256 DUP1 SLOAD PUSH1 0xFF NOT AND SWAP1 SSTORE MLOAD CALLER SWAP3 DUP6 SWAP2 PUSH32 0xF6391F5C32D9C69D2A47EA670B442974B53935D1EDC7FD64EB21E047A839171B SWAP2 SWAP1 LOG4 POP POP JUMP JUMPDEST PUSH2 0x3BC8 PUSH2 0x3E8F JUMP JUMPDEST PUSH1 0x1 DUP1 SLOAD PUSH1 0xFF NOT AND SWAP1 SSTORE PUSH32 0x5DB9EE0A495BF2E6FF9C91A7834C1BA4FDD244A5E8AA4E537BD38AEAE4B073AA CALLER JUMPDEST PUSH1 0x40 MLOAD PUSH1 0x1 PUSH1 0x1 PUSH1 0xA0 SHL SUB SWAP1 SWAP2 AND DUP2 MSTORE PUSH1 0x20 ADD PUSH1 0x40 MLOAD DUP1 SWAP2 SUB SWAP1 LOG1 JUMP JUMPDEST PUSH1 0x16 SLOAD PUSH2 0x3C22 SWAP1 PUSH3 0x15180 PUSH2 0x4A44 JUMP JUMPDEST TIMESTAMP LT PUSH2 0x3C32 JUMPI PUSH1 0x0 PUSH1 0x15 SSTORE TIMESTAMP PUSH1 0x16 SSTORE JUMPDEST DUP1 PUSH1 0x15 PUSH1 0x0 DUP3 DUP3 SLOAD PUSH2 0x3C44 SWAP2 SWAP1 PUSH2 0x4A44 JUMP JUMPDEST SWAP3 POP POP DUP2 SWAP1 SSTORE POP PUSH1 0x1 PUSH1 0x17 PUSH1 0x0 DUP3 DUP3 SLOAD PUSH2 0x3C5E SWAP2 SWAP1 PUSH2 0x4A44 JUMP JUMPDEST SWAP1 SWAP2 SSTORE POP PUSH2 0x169E SWAP1 POP PUSH2 0x3ED8 JUMP JUMPDEST PUSH2 0x3C74 PUSH2 0x39F2 JUMP JUMPDEST PUSH1 0x1 DUP1 SLOAD PUSH1 0xFF NOT AND DUP2 OR SWAP1 SSTORE PUSH32 0x62E78CEA01BEE320CD4E420270B5EA74000D11B0C9F74754EBDBFC544B05A258 CALLER PUSH2 0x3BF5 JUMP JUMPDEST PUSH2 0x3CB1 DUP3 DUP3 PUSH2 0x287C JUMP JUMPDEST PUSH2 0x1252 JUMPI PUSH2 0x3CBE DUP2 PUSH2 0x407C JUMP JUMPDEST PUSH2 0x3CC9 DUP4 PUSH1 0x20 PUSH2 0x408E JUMP JUMPDEST PUSH1 0x40 MLOAD PUSH1 0x20 ADD PUSH2 0x3CDA SWAP3 SWAP2 SWAP1 PUSH2 0x4C0A JUMP JUMPDEST PUSH1 0x40 DUP1 MLOAD PUSH1 0x1F NOT DUP2 DUP5 SUB ADD DUP2 MSTORE SWAP1 DUP3 SWAP1 MSTORE PUSH3 0x461BCD PUSH1 0xE5 SHL DUP3 MSTORE PUSH2 0x1289 SWAP2 PUSH1 0x4 ADD PUSH2 0x4C7F JUMP JUMPDEST PUSH1 0x0 DUP1 DUP3 MLOAD PUSH1 0x41 SUB PUSH2 0x3D36 JUMPI PUSH1 0x20 DUP4 ADD MLOAD PUSH1 0x40 DUP5 ADD MLOAD PUSH1 0x60 DUP6 ADD MLOAD PUSH1 0x0 BYTE PUSH2 0x3D2A DUP8 DUP3 DUP6 DUP6 PUSH2 0x422A JUMP JUMPDEST SWAP5 POP SWAP5 POP POP POP POP PUSH2 0x3D3E JUMP JUMPDEST POP PUSH1 0x0 SWAP1 POP PUSH1 0x2 JUMPDEST SWAP3 POP SWAP3 SWAP1 POP JUMP JUMPDEST PUSH1 0x0 DUP2 PUSH1 0x4 DUP2 GT ISZERO PUSH2 0x3D59 JUMPI PUSH2 0x3D59 PUSH2 0x4C92 JUMP JUMPDEST SUB PUSH2 0x3D61 JUMPI POP JUMP JUMPDEST PUSH1 0x1 DUP2 PUSH1 0x4 DUP2 GT ISZERO PUSH2 0x3D75 JUMPI PUSH2 0x3D75 PUSH2 0x4C92 JUMP JUMPDEST SUB PUSH2 0x3DC2 JUMPI PUSH1 0x40 MLOAD PUSH3 0x461BCD PUSH1 0xE5 SHL DUP2 MSTORE PUSH1 0x20 PUSH1 0x4 DUP3 ADD MSTORE PUSH1 0x18 PUSH1 0x24 DUP3 ADD MSTORE PUSH32 0x45434453413A20696E76616C6964207369676E61747572650000000000000000 PUSH1 0x44 DUP3 ADD MSTORE PUSH1 0x64 ADD PUSH2 0x1289 JUMP JUMPDEST PUSH1 0x2 DUP2 PUSH1 0x4 DUP2 GT ISZERO PUSH2 0x3DD6 JUMPI PUSH2 0x3DD6 PUSH2 0x4C92 JUMP JUMPDEST SUB PUSH2 0x3E23 JUMPI PUSH1 0x40 MLOAD PUSH3 0x461BCD PUSH1 0xE5 SHL DUP2 MSTORE PUSH1 0x20 PUSH1 0x4 DUP3 ADD MSTORE PUSH1 0x1F PUSH1 0x24 DUP3 ADD MSTORE PUSH32 0x45434453413A20696E76616C6964207369676E6174757265206C656E67746800 PUSH1 0x44 DUP3 ADD MSTORE PUSH1 0x64 ADD PUSH2 0x1289 JUMP JUMPDEST PUSH1 0x3 DUP2 PUSH1 0x4 DUP2 GT ISZERO PUSH2 0x3E37 JUMPI PUSH2 0x3E37 PUSH2 0x4C92 JUMP JUMPDEST SUB PUSH2 0x169E JUMPI PUSH1 0x40 MLOAD PUSH3 0x461BCD PUSH1 0xE5 SHL DUP2 MSTORE PUSH1 0x20 PUSH1 0x4 DUP3 ADD MSTORE PUSH1 0x22 PUSH1 0x24 DUP3 ADD MSTORE PUSH32 0x45434453413A20696E76616C6964207369676E6174757265202773272076616C PUSH1 0x44 DUP3 ADD MSTORE PUSH2 0x7565 PUSH1 0xF0 SHL PUSH1 0x64 DUP3 ADD MSTORE PUSH1 0x84 ADD PUSH2 0x1289 JUMP JUMPDEST PUSH1 0x1 SLOAD PUSH1 0xFF AND PUSH2 0x3A38 JUMPI PUSH1 0x40 MLOAD PUSH3 0x461BCD PUSH1 0xE5 SHL DUP2 MSTORE PUSH1 0x20 PUSH1 0x4 DUP3 ADD MSTORE PUSH1 0x14 PUSH1 0x24 DUP3 ADD MSTORE PUSH20 0x14185D5CD8589B194E881B9BDD081C185D5CD959 PUSH1 0x62 SHL PUSH1 0x44 DUP3 ADD MSTORE PUSH1 0x64 ADD PUSH2 0x1289 JUMP JUMPDEST PUSH1 0x10 SLOAD PUSH2 0x3EE8 SWAP1 PUSH2 0xE10 SWAP1 PUSH2 0x4A44 JUMP JUMPDEST TIMESTAMP LT ISZERO PUSH2 0x3EF1 JUMPI JUMP JUMPDEST PUSH1 0xF SLOAD PUSH1 0xE SLOAD PUSH1 0x40 DUP1 MLOAD DUP1 DUP3 ADD SWAP1 SWAP2 MSTORE PUSH1 0x8 DUP2 MSTORE PUSH8 0x4261736520666565 PUSH1 0xC0 SHL PUSH1 0x20 DUP3 ADD MSTORE PUSH1 0x11 SLOAD PUSH1 0x15 SLOAD GT ISZERO PUSH2 0x3F6F JUMPI PUSH1 0xE SLOAD PUSH1 0x64 SWAP1 PUSH2 0x3F33 SWAP1 PUSH1 0x50 PUSH2 0x4A57 JUMP JUMPDEST PUSH2 0x3F3D SWAP2 SWAP1 PUSH2 0x4A6E JUMP JUMPDEST SWAP2 POP PUSH1 0x40 MLOAD DUP1 PUSH1 0x40 ADD PUSH1 0x40 MSTORE DUP1 PUSH1 0x14 DUP2 MSTORE PUSH1 0x20 ADD PUSH20 0x121A59DA081D9BDB1D5B5948191A5CD8DBDD5B9D PUSH1 0x62 SHL DUP2 MSTORE POP SWAP1 POP JUMPDEST PUSH5 0xBA43B7400 GASPRICE GT ISZERO PUSH2 0x3FC6 JUMPI PUSH1 0x12 SLOAD PUSH1 0x64 SWAP1 PUSH2 0x3F8C SWAP1 DUP5 PUSH2 0x4A57 JUMP JUMPDEST PUSH2 0x3F96 SWAP2 SWAP1 PUSH2 0x4A6E JUMP JUMPDEST SWAP2 POP PUSH1 0x40 MLOAD DUP1 PUSH1 0x40 ADD PUSH1 0x40 MSTORE DUP1 PUSH1 0x12 DUP2 MSTORE PUSH1 0x20 ADD PUSH18 0x2732BA3BB7B9359031B7B733B2B9BA34B7B7 PUSH1 0x71 SHL DUP2 MSTORE POP SWAP1 POP JUMPDEST PUSH1 0x1 DUP3 LT ISZERO PUSH2 0x4001 JUMPI POP POP PUSH1 0x40 DUP1 MLOAD DUP1 DUP3 ADD SWAP1 SWAP2 MSTORE PUSH1 0x11 DUP2 MSTORE PUSH17 0x26B4B734B6BAB6903332B290333637B7B9 PUSH1 0x79 SHL PUSH1 0x20 DUP3 ADD MSTORE PUSH1 0x1 SWAP1 PUSH2 0x4038 JUMP JUMPDEST PUSH2 0x1F4 DUP3 GT ISZERO PUSH2 0x4038 JUMPI POP POP PUSH1 0x40 DUP1 MLOAD DUP1 DUP3 ADD SWAP1 SWAP2 MSTORE PUSH1 0xF DUP2 MSTORE PUSH15 0x4D6178696D756D206665652063617 PUSH1 0x8C SHL PUSH1 0x20 DUP3 ADD MSTORE PUSH2 0x1F4 SWAP1 JUMPDEST DUP3 DUP3 EQ PUSH2 0x1578 JUMPI PUSH1 0xF DUP3 SWAP1 SSTORE TIMESTAMP PUSH1 0x10 SSTORE PUSH1 0x40 MLOAD PUSH32 0xF8FBCC3DD9B2B1C3752603A58E3EDBA9C7BF77031665CAF72EE8735AF719B8A9 SWAP1 PUSH2 0x2B64 SWAP1 DUP6 SWAP1 DUP6 SWAP1 DUP6 SWAP1 PUSH2 0x4CA8 JUMP JUMPDEST PUSH1 0x60 PUSH2 0x111F PUSH1 0x1 PUSH1 0x1 PUSH1 0xA0 SHL SUB DUP4 AND PUSH1 0x14 JUMPDEST PUSH1 0x60 PUSH1 0x0 PUSH2 0x409D DUP4 PUSH1 0x2 PUSH2 0x4A57 JUMP JUMPDEST PUSH2 0x40A8 SWAP1 PUSH1 0x2 PUSH2 0x4A44 JUMP JUMPDEST PUSH8 0xFFFFFFFFFFFFFFFF DUP2 GT ISZERO PUSH2 0x40C0 JUMPI PUSH2 0x40C0 PUSH2 0x4403 JUMP JUMPDEST PUSH1 0x40 MLOAD SWAP1 DUP1 DUP3 MSTORE DUP1 PUSH1 0x1F ADD PUSH1 0x1F NOT AND PUSH1 0x20 ADD DUP3 ADD PUSH1 0x40 MSTORE DUP1 ISZERO PUSH2 0x40EA JUMPI PUSH1 0x20 DUP3 ADD DUP2 DUP1 CALLDATASIZE DUP4 CALLDATACOPY ADD SWAP1 POP JUMPDEST POP SWAP1 POP PUSH1 0x3 PUSH1 0xFC SHL DUP2 PUSH1 0x0 DUP2 MLOAD DUP2 LT PUSH2 0x4105 JUMPI PUSH2 0x4105 PUSH2 0x4CD0 JUMP JUMPDEST PUSH1 0x20 ADD ADD SWAP1 PUSH1 0x1 PUSH1 0x1 PUSH1 0xF8 SHL SUB NOT AND SWAP1 DUP2 PUSH1 0x0 BYTE SWAP1 MSTORE8 POP PUSH1 0xF PUSH1 0xFB SHL DUP2 PUSH1 0x1 DUP2 MLOAD DUP2 LT PUSH2 0x4134 JUMPI PUSH2 0x4134 PUSH2 0x4CD0 JUMP JUMPDEST PUSH1 0x20 ADD ADD SWAP1 PUSH1 0x1 PUSH1 0x1 PUSH1 0xF8 SHL SUB NOT AND SWAP1 DUP2 PUSH1 0x0 BYTE SWAP1 MSTORE8 POP PUSH1 0x0 PUSH2 0x4158 DUP5 PUSH1 0x2 PUSH2 0x4A57 JUMP JUMPDEST PUSH2 0x4163 SWAP1 PUSH1 0x1 PUSH2 0x4A44 JUMP JUMPDEST SWAP1 POP JUMPDEST PUSH1 0x1 DUP2 GT ISZERO PUSH2 0x41DB JUMPI PUSH16 0x181899199A1A9B1B9C1CB0B131B232B3 PUSH1 0x81 SHL DUP6 PUSH1 0xF AND PUSH1 0x10 DUP2 LT PUSH2 0x4197 JUMPI PUSH2 0x4197 PUSH2 0x4CD0 JUMP JUMPDEST BYTE PUSH1 0xF8 SHL DUP3 DUP3 DUP2 MLOAD DUP2 LT PUSH2 0x41AD JUMPI PUSH2 0x41AD PUSH2 0x4CD0 JUMP JUMPDEST PUSH1 0x20 ADD ADD SWAP1 PUSH1 0x1 PUSH1 0x1 PUSH1 0xF8 SHL SUB NOT AND SWAP1 DUP2 PUSH1 0x0 BYTE SWAP1 MSTORE8 POP PUSH1 0x4 SWAP5 SWAP1 SWAP5 SHR SWAP4 PUSH2 0x41D4 DUP2 PUSH2 0x4CE6 JUMP JUMPDEST SWAP1 POP PUSH2 0x4166 JUMP JUMPDEST POP DUP4 ISZERO PUSH2 0x2C3D JUMPI PUSH1 0x40 MLOAD PUSH3 0x461BCD PUSH1 0xE5 SHL DUP2 MSTORE PUSH1 0x20 PUSH1 0x4 DUP3 ADD DUP2 SWAP1 MSTORE PUSH1 0x24 DUP3 ADD MSTORE PUSH32 0x537472696E67733A20686578206C656E67746820696E73756666696369656E74 PUSH1 0x44 DUP3 ADD MSTORE PUSH1 0x64 ADD PUSH2 0x1289 JUMP JUMPDEST PUSH1 0x0 DUP1 PUSH32 0x7FFFFFFFFFFFFFFFFFFFFFFFFFFFFFFF5D576E7357A4501DDFE92F46681B20A0 DUP4 GT ISZERO PUSH2 0x4261 JUMPI POP PUSH1 0x0 SWAP1 POP PUSH1 0x3 PUSH2 0x42E5 JUMP JUMPDEST PUSH1 0x40 DUP1 MLOAD PUSH1 0x0 DUP1 DUP3 MSTORE PUSH1 0x20 DUP3 ADD DUP1 DUP5 MSTORE DUP10 SWAP1 MSTORE PUSH1 0xFF DUP9 AND SWAP3 DUP3 ADD SWAP3 SWAP1 SWAP3 MSTORE PUSH1 0x60 DUP2 ADD DUP7 SWAP1 MSTORE PUSH1 0x80 DUP2 ADD DUP6 SWAP1 MSTORE PUSH1 0x1 SWAP1 PUSH1 0xA0 ADD PUSH1 0x20 PUSH1 0x40 MLOAD PUSH1 0x20 DUP2 SUB SWAP1 DUP1 DUP5 SUB SWAP1 DUP6 GAS STATICCALL ISZERO DUP1 ISZERO PUSH2 0x42B5 JUMPI RETURNDATASIZE PUSH1 0x0 DUP1 RETURNDATACOPY RETURNDATASIZE PUSH1 0x0 REVERT JUMPDEST POP POP PUSH1 0x40 MLOAD PUSH1 0x1F NOT ADD MLOAD SWAP2 POP POP PUSH1 0x1 PUSH1 0x1 PUSH1 0xA0 SHL SUB DUP2 AND PUSH2 0x42DE JUMPI PUSH1 0x0 PUSH1 0x1 SWAP3 POP SWAP3 POP POP PUSH2 0x42E5 JUMP JUMPDEST SWAP2 POP PUSH1 0x0 SWAP1 POP JUMPDEST SWAP5 POP SWAP5 SWAP3 POP POP POP JUMP JUMPDEST PUSH1 0x0 PUSH1 0x20 DUP3 DUP5 SUB SLT ISZERO PUSH2 0x4300 JUMPI PUSH1 0x0 DUP1 REVERT JUMPDEST DUP2 CALLDATALOAD PUSH1 0x1 PUSH1 0x1 PUSH1 0xE0 SHL SUB NOT DUP2 AND DUP2 EQ PUSH2 0x2C3D JUMPI PUSH1 0x0 DUP1 REVERT JUMPDEST DUP1 CALLDATALOAD PUSH1 0x1 PUSH1 0x1 PUSH1 0xA0 SHL SUB DUP2 AND DUP2 EQ PUSH2 0x432F JUMPI PUSH1 0x0 DUP1 REVERT JUMPDEST SWAP2 SWAP1 POP JUMP JUMPDEST PUSH1 0x0 PUSH1 0x20 DUP3 DUP5 SUB SLT ISZERO PUSH2 0x4346 JUMPI PUSH1 0x0 DUP1 REVERT JUMPDEST PUSH2 0x2C3D DUP3 PUSH2 0x4318 JUMP JUMPDEST PUSH1 0x0 JUMPDEST DUP4 DUP2 LT ISZERO PUSH2 0x436A JUMPI DUP2 DUP2 ADD MLOAD DUP4 DUP3 ADD MSTORE PUSH1 0x20 ADD PUSH2 0x4352 JUMP JUMPDEST POP POP PUSH1 0x0 SWAP2 ADD MSTORE JUMP JUMPDEST PUSH1 0x0 DUP2 MLOAD DUP1 DUP5 MSTORE PUSH2 0x438B DUP2 PUSH1 0x20 DUP7 ADD PUSH1 0x20 DUP7 ADD PUSH2 0x434F JUMP JUMPDEST PUSH1 0x1F ADD PUSH1 0x1F NOT AND SWAP3 SWAP1 SWAP3 ADD PUSH1 0x20 ADD SWAP3 SWAP2 POP POP JUMP JUMPDEST PUSH1 0x20 DUP2 MSTORE PUSH1 0x1 DUP1 PUSH1 0xA0 SHL SUB DUP3 MLOAD AND PUSH1 0x20 DUP3 ADD MSTORE PUSH1 0x20 DUP3 ADD MLOAD PUSH1 0x40 DUP3 ADD MSTORE PUSH1 0x40 DUP3 ADD MLOAD ISZERO ISZERO PUSH1 0x60 DUP3 ADD MSTORE PUSH1 0x0 PUSH1 0x60 DUP4 ADD MLOAD PUSH1 0x80 DUP1 DUP5 ADD MSTORE PUSH2 0x43E2 PUSH1 0xA0 DUP5 ADD DUP3 PUSH2 0x4373 JUMP JUMPDEST SWAP5 SWAP4 POP POP POP POP JUMP JUMPDEST PUSH1 0x0 PUSH1 0x20 DUP3 DUP5 SUB SLT ISZERO PUSH2 0x43FC JUMPI PUSH1 0x0 DUP1 REVERT JUMPDEST POP CALLDATALOAD SWAP2 SWAP1 POP JUMP JUMPDEST PUSH4 0x4E487B71 PUSH1 0xE0 SHL PUSH1 0x0 MSTORE PUSH1 0x41 PUSH1 0x4 MSTORE PUSH1 0x24 PUSH1 0x0 REVERT JUMPDEST PUSH1 0x0 PUSH8 0xFFFFFFFFFFFFFFFF DUP1 DUP5 GT ISZERO PUSH2 0x4434 JUMPI PUSH2 0x4434 PUSH2 0x4403 JUMP JUMPDEST PUSH1 0x40 MLOAD PUSH1 0x1F DUP6 ADD PUSH1 0x1F NOT SWAP1 DUP2 AND PUSH1 0x3F ADD AND DUP2 ADD SWAP1 DUP3 DUP3 GT DUP2 DUP4 LT OR ISZERO PUSH2 0x445C JUMPI PUSH2 0x445C PUSH2 0x4403 JUMP JUMPDEST DUP2 PUSH1 0x40 MSTORE DUP1 SWAP4 POP DUP6 DUP2 MSTORE DUP7 DUP7 DUP7 ADD GT ISZERO PUSH2 0x4475 JUMPI PUSH1 0x0 DUP1 REVERT JUMPDEST DUP6 DUP6 PUSH1 0x20 DUP4 ADD CALLDATACOPY PUSH1 0x0 PUSH1 0x20 DUP8 DUP4 ADD ADD MSTORE POP POP POP SWAP4 SWAP3 POP POP POP JUMP JUMPDEST PUSH1 0x0 DUP3 PUSH1 0x1F DUP4 ADD SLT PUSH2 0x44A0 JUMPI PUSH1 0x0 DUP1 REVERT JUMPDEST PUSH2 0x2C3D DUP4 DUP4 CALLDATALOAD PUSH1 0x20 DUP6 ADD PUSH2 0x4419 JUMP JUMPDEST PUSH1 0x0 DUP1 PUSH1 0x0 PUSH1 0x60 DUP5 DUP7 SUB SLT ISZERO PUSH2 0x44C4 JUMPI PUSH1 0x0 DUP1 REVERT JUMPDEST DUP4 CALLDATALOAD SWAP3 POP PUSH1 0x20 DUP5 ADD CALLDATALOAD PUSH8 0xFFFFFFFFFFFFFFFF DUP1 DUP3 GT ISZERO PUSH2 0x44E3 JUMPI PUSH1 0x0 DUP1 REVERT JUMPDEST PUSH2 0x44EF DUP8 DUP4 DUP9 ADD PUSH2 0x448F JUMP JUMPDEST SWAP4 POP PUSH1 0x40 DUP7 ADD CALLDATALOAD SWAP2 POP DUP1 DUP3 GT ISZERO PUSH2 0x4505 JUMPI PUSH1 0x0 DUP1 REVERT JUMPDEST POP PUSH2 0x4512 DUP7 DUP3 DUP8 ADD PUSH2 0x448F JUMP JUMPDEST SWAP2 POP POP SWAP3 POP SWAP3 POP SWAP3 JUMP JUMPDEST PUSH1 0x0 DUP1 PUSH1 0x40 DUP4 DUP6 SUB SLT ISZERO PUSH2 0x452F JUMPI PUSH1 0x0 DUP1 REVERT JUMPDEST DUP3 CALLDATALOAD SWAP2 POP PUSH2 0x453F PUSH1 0x20 DUP5 ADD PUSH2 0x4318 JUMP JUMPDEST SWAP1 POP SWAP3 POP SWAP3 SWAP1 POP JUMP JUMPDEST DUP2 MLOAD PUSH1 0x1 PUSH1 0x1 PUSH1 0xA0 SHL SUB AND DUP2 MSTORE PUSH2 0x180 DUP2 ADD PUSH1 0x20 DUP4 ADD MLOAD PUSH2 0x4574 PUSH1 0x20 DUP5 ADD DUP3 PUSH1 0x1 PUSH1 0x1 PUSH1 0xA0 SHL SUB AND SWAP1 MSTORE JUMP JUMPDEST POP PUSH1 0x40 DUP4 ADD MLOAD PUSH2 0x458F PUSH1 0x40 DUP5 ADD DUP3 PUSH1 0x1 PUSH1 0x1 PUSH1 0xA0 SHL SUB AND SWAP1 MSTORE JUMP JUMPDEST POP PUSH1 0x60 DUP4 ADD MLOAD PUSH1 0x60 DUP4 ADD MSTORE PUSH1 0x80 DUP4 ADD MLOAD PUSH1 0x80 DUP4 ADD MSTORE PUSH1 0xA0 DUP4 ADD MLOAD PUSH1 0xA0 DUP4 ADD MSTORE PUSH1 0xC0 DUP4 ADD MLOAD PUSH1 0xC0 DUP4 ADD MSTORE PUSH1 0xE0 DUP4 ADD MLOAD PUSH2 0x45CB PUSH1 0xE0 DUP5 ADD DUP3 ISZERO ISZERO SWAP1 MSTORE JUMP JUMPDEST POP PUSH2 0x100 DUP4 DUP2 ADD MLOAD ISZERO ISZERO SWAP1 DUP4 ADD MSTORE PUSH2 0x120 DUP1 DUP5 ADD MLOAD ISZERO ISZERO SWAP1 DUP4 ADD MSTORE PUSH2 0x140 DUP1 DUP5 ADD MLOAD ISZERO ISZERO SWAP1 DUP4 ADD MSTORE PUSH2 0x160 SWAP3 DUP4 ADD MLOAD SWAP3 SWAP1 SWAP2 ADD SWAP2 SWAP1 SWAP2 MSTORE SWAP1 JUMP JUMPDEST PUSH1 0x0 DUP1 PUSH1 0x0 DUP1 PUSH1 0x80 DUP6 DUP8 SUB SLT ISZERO PUSH2 0x461B JUMPI PUSH1 0x0 DUP1 REVERT JUMPDEST PUSH2 0x4624 DUP6 PUSH2 0x4318 JUMP JUMPDEST SWAP4 POP PUSH1 0x20 DUP6 ADD CALLDATALOAD SWAP3 POP PUSH1 0x40 DUP6 ADD CALLDATALOAD SWAP2 POP PUSH1 0x60 DUP6 ADD CALLDATALOAD PUSH8 0xFFFFFFFFFFFFFFFF DUP2 GT ISZERO PUSH2 0x464E JUMPI PUSH1 0x0 DUP1 REVERT JUMPDEST PUSH2 0x465A DUP8 DUP3 DUP9 ADD PUSH2 0x448F JUMP JUMPDEST SWAP2 POP POP SWAP3 SWAP6 SWAP2 SWAP5 POP SWAP3 POP JUMP JUMPDEST PUSH1 0x0 DUP1 PUSH1 0x40 DUP4 DUP6 SUB SLT ISZERO PUSH2 0x4679 JUMPI PUSH1 0x0 DUP1 REVERT JUMPDEST POP POP DUP1 CALLDATALOAD SWAP3 PUSH1 0x20 SWAP1 SWAP2 ADD CALLDATALOAD SWAP2 POP JUMP JUMPDEST PUSH1 0x0 PUSH1 0x20 DUP3 DUP5 SUB SLT ISZERO PUSH2 0x469A JUMPI PUSH1 0x0 DUP1 REVERT JUMPDEST DUP2 CALLDATALOAD PUSH8 0xFFFFFFFFFFFFFFFF DUP2 GT ISZERO PUSH2 0x46B1 JUMPI PUSH1 0x0 DUP1 REVERT JUMPDEST DUP3 ADD PUSH1 0x1F DUP2 ADD DUP5 SGT PUSH2 0x46C2 JUMPI PUSH1 0x0 DUP1 REVERT JUMPDEST PUSH2 0x43E2 DUP5 DUP3 CALLDATALOAD PUSH1 0x20 DUP5 ADD PUSH2 0x4419 JUMP JUMPDEST PUSH1 0x0 DUP1 PUSH1 0x0 PUSH1 0x60 DUP5 DUP7 SUB SLT ISZERO PUSH2 0x46E6 JUMPI PUSH1 0x0 DUP1 REVERT JUMPDEST PUSH2 0x46EF DUP5 PUSH2 0x4318 JUMP JUMPDEST SWAP3 POP PUSH1 0x20 DUP5 ADD CALLDATALOAD SWAP2 POP PUSH1 0x40 DUP5 ADD CALLDATALOAD PUSH8 0xFFFFFFFFFFFFFFFF DUP2 GT ISZERO PUSH2 0x4712 JUMPI PUSH1 0x0 DUP1 REVERT JUMPDEST PUSH2 0x4512 DUP7 DUP3 DUP8 ADD PUSH2 0x448F JUMP JUMPDEST PUSH1 0x1 DUP1 PUSH1 0xA0 SHL SUB DUP6 AND DUP2 MSTORE DUP4 PUSH1 0x20 DUP3 ADD MSTORE DUP3 ISZERO ISZERO PUSH1 0x40 DUP3 ADD MSTORE PUSH1 0x80 PUSH1 0x60 DUP3 ADD MSTORE PUSH1 0x0 PUSH2 0x474D PUSH1 0x80 DUP4 ADD DUP5 PUSH2 0x4373 JUMP JUMPDEST SWAP7 SWAP6 POP POP POP POP POP POP JUMP JUMPDEST DUP1 CALLDATALOAD DUP1 ISZERO ISZERO DUP2 EQ PUSH2 0x432F JUMPI PUSH1 0x0 DUP1 REVERT JUMPDEST PUSH1 0x0 DUP1 PUSH1 0x0 DUP1 PUSH1 0x0 DUP1 PUSH1 0x0 PUSH1 0xE0 DUP9 DUP11 SUB SLT ISZERO PUSH2 0x4782 JUMPI PUSH1 0x0 DUP1 REVERT JUMPDEST DUP8 CALLDATALOAD SWAP7 POP PUSH2 0x4792 PUSH1 0x20 DUP10 ADD PUSH2 0x4318 JUMP JUMPDEST SWAP6 POP PUSH2 0x47A0 PUSH1 0x40 DUP10 ADD PUSH2 0x4318 JUMP JUMPDEST SWAP5 POP PUSH1 0x60 DUP9 ADD CALLDATALOAD SWAP4 POP PUSH1 0x80 DUP9 ADD CALLDATALOAD SWAP3 POP PUSH2 0x47BC PUSH1 0xA0 DUP10 ADD PUSH2 0x4757 JUMP JUMPDEST SWAP2 POP PUSH1 0xC0 DUP9 ADD CALLDATALOAD SWAP1 POP SWAP3 SWAP6 SWAP9 SWAP2 SWAP5 SWAP8 POP SWAP3 SWAP6 POP JUMP JUMPDEST PUSH1 0x0 DUP1 PUSH1 0x40 DUP4 DUP6 SUB SLT ISZERO PUSH2 0x47E4 JUMPI PUSH1 0x0 DUP1 REVERT JUMPDEST PUSH2 0x47ED DUP4 PUSH2 0x4318 JUMP JUMPDEST SWAP5 PUSH1 0x20 SWAP4 SWAP1 SWAP4 ADD CALLDATALOAD SWAP4 POP POP POP JUMP JUMPDEST DUP2 MLOAD PUSH1 0x1 PUSH1 0x1 PUSH1 0xA0 SHL SUB SWAP1 DUP2 AND DUP3 MSTORE PUSH1 0x20 DUP1 DUP5 ADD MLOAD DUP3 AND SWAP1 DUP4 ADD MSTORE PUSH1 0x40 DUP1 DUP5 ADD MLOAD DUP3 AND SWAP1 DUP4 ADD MSTORE PUSH1 0x60 DUP1 DUP5 ADD MLOAD SWAP2 DUP3 AND SWAP1 DUP4 ADD MSTORE PUSH2 0x120 DUP3 ADD SWAP1 POP PUSH1 0x80 DUP4 ADD MLOAD PUSH1 0x80 DUP4 ADD MSTORE PUSH1 0xA0 DUP4 ADD MLOAD PUSH1 0xA0 DUP4 ADD MSTORE PUSH1 0xC0 DUP4 ADD MLOAD PUSH1 0xC0 DUP4 ADD MSTORE PUSH1 0xE0 DUP4 ADD MLOAD PUSH2 0x4867 PUSH1 0xE0 DUP5 ADD DUP3 ISZERO ISZERO SWAP1 MSTORE JUMP JUMPDEST POP PUSH2 0x100 SWAP3 DUP4 ADD MLOAD ISZERO ISZERO SWAP2 SWAP1 SWAP3 ADD MSTORE SWAP1 JUMP JUMPDEST PUSH1 0x0 DUP1 PUSH1 0x0 DUP1 PUSH1 0x0 DUP1 PUSH1 0xC0 DUP8 DUP10 SUB SLT ISZERO PUSH2 0x4892 JUMPI PUSH1 0x0 DUP1 REVERT JUMPDEST PUSH2 0x489B DUP8 PUSH2 0x4318 JUMP JUMPDEST SWAP6 POP PUSH2 0x48A9 PUSH1 0x20 DUP9 ADD PUSH2 0x4318 JUMP JUMPDEST SWAP5 POP PUSH1 0x40 DUP8 ADD CALLDATALOAD SWAP4 POP PUSH1 0x60 DUP8 ADD CALLDATALOAD SWAP3 POP PUSH2 0x48C5 PUSH1 0x80 DUP9 ADD PUSH2 0x4757 JUMP JUMPDEST SWAP2 POP PUSH1 0xA0 DUP8 ADD CALLDATALOAD SWAP1 POP SWAP3 SWAP6 POP SWAP3 SWAP6 POP SWAP3 SWAP6 JUMP JUMPDEST PUSH1 0x1 DUP2 DUP2 SHR SWAP1 DUP3 AND DUP1 PUSH2 0x48EC JUMPI PUSH1 0x7F DUP3 AND SWAP2 POP JUMPDEST PUSH1 0x20 DUP3 LT DUP2 SUB PUSH2 0x490C JUMPI PUSH4 0x4E487B71 PUSH1 0xE0 SHL PUSH1 0x0 MSTORE PUSH1 0x22 PUSH1 0x4 MSTORE PUSH1 0x24 PUSH1 0x0 REVERT JUMPDEST POP SWAP2 SWAP1 POP JUMP JUMPDEST PUSH1 0x20 DUP1 DUP3 MSTORE PUSH1 0x1A SWAP1 DUP3 ADD MSTORE PUSH32 0x436F6E747261637420696E20656D657267656E6379206D6F6465000000000000 PUSH1 0x40 DUP3 ADD MSTORE PUSH1 0x60 ADD SWAP1 JUMP JUMPDEST PUSH4 0x4E487B71 PUSH1 0xE0 SHL PUSH1 0x0 MSTORE PUSH1 0x11 PUSH1 0x4 MSTORE PUSH1 0x24 PUSH1 0x0 REVERT JUMPDEST PUSH1 0x0 PUSH1 0x1 DUP3 ADD PUSH2 0x4971 JUMPI PUSH2 0x4971 PUSH2 0x4949 JUMP JUMPDEST POP PUSH1 0x1 ADD SWAP1 JUMP JUMPDEST PUSH1 0x20 DUP1 DUP3 MSTORE PUSH1 0x18 SWAP1 DUP3 ADD MSTORE PUSH32 0x5374617465206368616E6E656C206E6F74206163746976650000000000000000 PUSH1 0x40 DUP3 ADD MSTORE PUSH1 0x60 ADD SWAP1 JUMP JUMPDEST PUSH1 0x20 DUP1 DUP3 MSTORE PUSH1 0x14 SWAP1 DUP3 ADD MSTORE PUSH20 0x13DC99195C88191BD95CC81B9BDD08195E1A5CDD PUSH1 0x62 SHL PUSH1 0x40 DUP3 ADD MSTORE PUSH1 0x60 ADD SWAP1 JUMP JUMPDEST PUSH1 0x20 DUP1 DUP3 MSTORE PUSH1 0x16 SWAP1 DUP3 ADD MSTORE PUSH22 0x13DC99195C88185B1C9958591E48195E1958DD5D1959 PUSH1 0x52 SHL PUSH1 0x40 DUP3 ADD MSTORE PUSH1 0x60 ADD SWAP1 JUMP JUMPDEST PUSH1 0x20 DUP1 DUP3 MSTORE PUSH1 0x17 SWAP1 DUP3 ADD MSTORE PUSH32 0x4F7264657220616C72656164792063616E63656C6C6564000000000000000000 PUSH1 0x40 DUP3 ADD MSTORE PUSH1 0x60 ADD SWAP1 JUMP JUMPDEST DUP1 DUP3 ADD DUP1 DUP3 GT ISZERO PUSH2 0x111F JUMPI PUSH2 0x111F PUSH2 0x4949 JUMP JUMPDEST DUP1 DUP3 MUL DUP2 ISZERO DUP3 DUP3 DIV DUP5 EQ OR PUSH2 0x111F JUMPI PUSH2 0x111F PUSH2 0x4949 JUMP JUMPDEST PUSH1 0x0 DUP3 PUSH2 0x4A8B JUMPI PUSH4 0x4E487B71 PUSH1 0xE0 SHL PUSH1 0x0 MSTORE PUSH1 0x12 PUSH1 0x4 MSTORE PUSH1 0x24 PUSH1 0x0 REVERT JUMPDEST POP DIV SWAP1 JUMP JUMPDEST PUSH1 0x1F DUP3 GT ISZERO PUSH2 0x1578 JUMPI PUSH1 0x0 DUP2 DUP2 MSTORE PUSH1 0x20 DUP2 KECCAK256 PUSH1 0x1F DUP6 ADD PUSH1 0x5 SHR DUP2 ADD PUSH1 0x20 DUP7 LT ISZERO PUSH2 0x4AB7 JUMPI POP DUP1 JUMPDEST PUSH1 0x1F DUP6 ADD PUSH1 0x5 SHR DUP3 ADD SWAP2 POP JUMPDEST DUP2 DUP2 LT ISZERO PUSH2 0x4AD6 JUMPI DUP3 DUP2 SSTORE PUSH1 0x1 ADD PUSH2 0x4AC3 JUMP JUMPDEST POP POP POP POP POP POP JUMP JUMPDEST DUP2 MLOAD PUSH8 0xFFFFFFFFFFFFFFFF DUP2 GT ISZERO PUSH2 0x4AF8 JUMPI PUSH2 0x4AF8 PUSH2 0x4403 JUMP JUMPDEST PUSH2 0x4B0C DUP2 PUSH2 0x4B06 DUP5 SLOAD PUSH2 0x48D8 JUMP JUMPDEST DUP5 PUSH2 0x4A90 JUMP JUMPDEST PUSH1 0x20 DUP1 PUSH1 0x1F DUP4 GT PUSH1 0x1 DUP2 EQ PUSH2 0x4B41 JUMPI PUSH1 0x0 DUP5 ISZERO PUSH2 0x4B29 JUMPI POP DUP6 DUP4 ADD MLOAD JUMPDEST PUSH1 0x0 NOT PUSH1 0x3 DUP7 SWAP1 SHL SHR NOT AND PUSH1 0x1 DUP6 SWAP1 SHL OR DUP6 SSTORE PUSH2 0x4AD6 JUMP JUMPDEST PUSH1 0x0 DUP6 DUP2 MSTORE PUSH1 0x20 DUP2 KECCAK256 PUSH1 0x1F NOT DUP7 AND SWAP2 JUMPDEST DUP3 DUP2 LT ISZERO PUSH2 0x4B70 JUMPI DUP9 DUP7 ADD MLOAD DUP3 SSTORE SWAP5 DUP5 ADD SWAP5 PUSH1 0x1 SWAP1 SWAP2 ADD SWAP1 DUP5 ADD PUSH2 0x4B51 JUMP JUMPDEST POP DUP6 DUP3 LT ISZERO PUSH2 0x4B8E JUMPI DUP8 DUP6 ADD MLOAD PUSH1 0x0 NOT PUSH1 0x3 DUP9 SWAP1 SHL PUSH1 0xF8 AND SHR NOT AND DUP2 SSTORE JUMPDEST POP POP POP POP POP PUSH1 0x1 SWAP1 DUP2 SHL ADD SWAP1 SSTORE POP JUMP JUMPDEST DUP3 DUP2 MSTORE PUSH1 0x40 PUSH1 0x20 DUP3 ADD MSTORE PUSH1 0x0 PUSH2 0x43E2 PUSH1 0x40 DUP4 ADD DUP5 PUSH2 0x4373 JUMP JUMPDEST PUSH1 0x1 PUSH1 0x1 PUSH1 0x60 SHL SUB NOT PUSH1 0x60 SWAP8 DUP9 SHL DUP2 AND DUP3 MSTORE SWAP6 SWAP1 SWAP7 SHL SWAP1 SWAP5 AND PUSH1 0x14 DUP7 ADD MSTORE PUSH1 0x28 DUP6 ADD SWAP3 SWAP1 SWAP3 MSTORE PUSH1 0x48 DUP5 ADD MSTORE ISZERO ISZERO PUSH1 0xF8 SHL PUSH1 0x68 DUP4 ADD MSTORE PUSH1 0x69 DUP3 ADD MSTORE PUSH1 0x89 ADD SWAP1 JUMP JUMPDEST DUP2 DUP2 SUB DUP2 DUP2 GT ISZERO PUSH2 0x111F JUMPI PUSH2 0x111F PUSH2 0x4949 JUMP JUMPDEST PUSH32 0x416363657373436F6E74726F6C3A206163636F756E7420000000000000000000 DUP2 MSTORE PUSH1 0x0 DUP4 MLOAD PUSH2 0x4C42 DUP2 PUSH1 0x17 DUP6 ADD PUSH1 0x20 DUP9 ADD PUSH2 0x434F JUMP JUMPDEST PUSH17 0x1034B99036B4B9B9B4B733903937B6329 PUSH1 0x7D SHL PUSH1 0x17 SWAP2 DUP5 ADD SWAP2 DUP3 ADD MSTORE DUP4 MLOAD PUSH2 0x4C73 DUP2 PUSH1 0x28 DUP5 ADD PUSH1 0x20 DUP9 ADD PUSH2 0x434F JUMP JUMPDEST ADD PUSH1 0x28 ADD SWAP5 SWAP4 POP POP POP POP JUMP JUMPDEST PUSH1 0x20 DUP2 MSTORE PUSH1 0x0 PUSH2 0x2C3D PUSH1 0x20 DUP4 ADD DUP5 PUSH2 0x4373 JUMP JUMPDEST PUSH4 0x4E487B71 PUSH1 0xE0 SHL PUSH1 0x0 MSTORE PUSH1 0x21 PUSH1 0x4 MSTORE PUSH1 0x24 PUSH1 0x0 REVERT JUMPDEST DUP4 DUP2 MSTORE DUP3 PUSH1 0x20 DUP3 ADD MSTORE PUSH1 0x60 PUSH1 0x40 DUP3 ADD MSTORE PUSH1 0x0 PUSH2 0x4CC7 PUSH1 0x60 DUP4 ADD DUP5 PUSH2 0x4373 JUMP JUMPDEST SWAP6 SWAP5 POP POP POP POP POP JUMP JUMPDEST PUSH4 0x4E487B71 PUSH1 0xE0 SHL PUSH1 0x0 MSTORE PUSH1 0x32 PUSH1 0x4 MSTORE PUSH1 0x24 PUSH1 0x0 REVERT JUMPDEST PUSH1 0x0 DUP2 PUSH2 0x4CF5 JUMPI PUSH2 0x4CF5 PUSH2 0x4949 JUMP JUMPDEST POP PUSH1 0x0 NOT ADD SWAP1 JUMP INVALID 0xBF 0x23 RETURNDATASIZE 0xD2 0xAA INVALID 0xB4 0xD5 ADDMOD PUSH26 0xC4AA5C81E96D92F6E6945C906A58F9F2D1C1631B4B2697667070 0xC5 0x4E CALL DUP3 0xB0 CREATE2 DUP6 DUP12 SUB 0x4B 0xEA 0xC1 0xB6 RETURN ADDMOD SWAP11 LOG2 0xD3 XOR DUP12 0xB1 0xE8 SWAP3 SWAP16 0x4F 0xA9 0xB9 0x29 LOG2 PUSH5 0x6970667358 0x22 SLT KECCAK256 0xFB PUSH11 0x8DB6D066FD93E63A960FD1 0xB8 0x2E SMOD 0xD8 0xE0 PUSH19 0x44D8E06C019BA3981B31DB0C3664736F6C6343 STOP ADDMOD SGT STOP CALLER "},"methodIdentifiers":{"DEFAULT_ADMIN_ROLE()":"a217fddf","EMERGENCY_ROLE()":"20df4359","EMERGENCY_TIMELOCK()":"60d7442b","FEE_ADJUSTMENT_COOLDOWN()":"58c61b06","MAX_COMMITMENT_WINDOW()":"ba9bf7d1","MAX_DYNAMIC_FEE()":"4c0c1ff1","MAX_FEE_BPS()":"d55be8c6","MAX_REVEAL_WINDOW()":"8973bc7e","MIN_COMMITMENT_WINDOW()":"554ac63f","MIN_DYNAMIC_FEE()":"da31f67c","MIN_REVEAL_WINDOW()":"36869730","OPERATOR_ROLE()":"f5b541a6","calculateCommitment(address,address,uint256,uint256,bool,uint256)":"fec0db70","canEmergencyWithdraw(address)":"a9f1a549","cancelOrder(bytes32)":"7489ec23","closeStateChannel(address,uint256,bytes)":"97660411","commitOrder(bytes32)":"47f89b41","commitmentWindow()":"be4a7e26","dailyVolume()":"98c8877e","disableEmergencyMode()":"ef952568","emergencyMode()":"0905f560","emergencyModeTime()":"7a2888b0","emergencyRequests(address)":"bfbeecfb","emergencyWithdraw()":"db2e21bc","enableEmergencyMode()":"c5b1c7d0","executeEmergencyWithdraw(address)":"ad943d62","feeCollector()":"c415b95c","feeConfig()":"1e5eb1d0","getCurrentFee()":"f70d9362","getEmergencyRequest(address)":"112606d6","getFeeConfig()":"5fbbc0d2","getMatch(bytes32)":"fcc6077d","getOrder(bytes32)":"5778472a","getRoleAdmin(bytes32)":"248a9ca3","getStateChannel(address)":"451bf3e6","getVolumeStats()":"4b8764a5","grantEmergencyRole(address)":"7314eb0c","grantOperatorRole(address)":"27ac0c58","grantRole(bytes32,address)":"2f2ff15d","hasRole(bytes32,address)":"91d14854","lastVolumeReset()":"e5bd9fa1","matchNonce()":"c5511c6d","matchOrders(bytes32,bytes32)":"7fe3826e","matches(bytes32)":"9fe9ada3","maxOrderSize()":"f1a82c7e","minOrderSize()":"a674537f","openStateChannel(address,uint256)":"fca516c7","orderNonce()":"16f8de89","orders(bytes32)":"9c3f1e90","pause()":"8456cb59","paused()":"5c975abb","renounceRole(bytes32,address)":"36568abe","requestEmergencyWithdraw(string)":"8d976cf6","revealOrder(bytes32,address,address,uint256,uint256,bool,uint256)":"e5aebc41","revealWindow()":"863d22c7","revokeEmergencyRole(address)":"acef2efc","revokeOperatorRole(address)":"b219f7d7","revokeRole(bytes32,address)":"d547741f","setCongestionMultiplier(uint256)":"354323e0","setFeeCollector(address)":"a42dce80","setOrderLimits(uint256,uint256)":"a9381d21","setTradingFee(uint256)":"b0d54bcf","setVolumeThreshold(uint256)":"990fbcc2","setWindows(uint256,uint256)":"65f4bce6","settleMatch(bytes32,bytes,bytes)":"2ac16402","stateChannels(address)":"eb3acc7b","supportsInterface(bytes4)":"01ffc9a7","totalTrades()":"e275c997","unpause()":"3f4ba83a","updateStateChannel(address,uint256,uint256,bytes)":"61f073c8"}}}}}