{
  "_format": "hh-sol-artifact-1",
  "contractName": "DarkPoolDEX",
  "sourceName": "contracts/DarkPoolDEX.sol",
  "abi": [
    {
      "inputs": [
        {
          "internalType": "uint256",
          "name": "_minOrderSize",
          "type": "uint256"
        },
        {
          "internalType": "uint256",
          "name": "_maxOrderSize",
          "type": "uint256"
        },
        {
          "internalType": "uint256",
          "name": "_commitmentWindow",
          "type": "uint256"
        },
        {
          "internalType": "uint256",
          "name": "_revealWindow",
          "type": "uint256"
        },
        {
          "internalType": "uint256",
          "name": "_tradingFee",
          "type": "uint256"
        }
      ],
      "stateMutability": "nonpayable",
      "type": "constructor"
    },
    {
      "anonymous": false,
      "inputs": [
        {
          "indexed": false,
          "internalType": "uint256",
          "name": "oldDynamicFee",
          "type": "uint256"
        },
        {
          "indexed": false,
          "internalType": "uint256",
          "name": "newDynamicFee",
          "type": "uint256"
        },
        {
          "indexed": false,
          "internalType": "string",
          "name": "reason",
          "type": "string"
        }
      ],
      "name": "DynamicFeeUpdated",
      "type": "event"
    },
    {
      "anonymous": false,
      "inputs": [
        {
          "indexed": true,
          "internalType": "address",
          "name": "trader",
          "type": "address"
        },
        {
          "indexed": false,
          "internalType": "uint256",
          "name": "amount",
          "type": "uint256"
        },
        {
          "indexed": false,
          "internalType": "uint256",
          "name": "timestamp",
          "type": "uint256"
        }
      ],
      "name": "EmergencyWithdrawExecuted",
      "type": "event"
    },
    {
      "anonymous": false,
      "inputs": [
        {
          "indexed": true,
          "internalType": "address",
          "name": "trader",
          "type": "address"
        },
        {
          "indexed": false,
          "internalType": "uint256",
          "name": "requestTime",
          "type": "uint256"
        },
        {
          "indexed": false,
          "internalType": "string",
          "name": "reason",
          "type": "string"
        }
      ],
      "name": "EmergencyWithdrawRequested",
      "type": "event"
    },
    {
      "anonymous": false,
      "inputs": [
        {
          "indexed": false,
          "internalType": "address",
          "name": "oldCollector",
          "type": "address"
        },
        {
          "indexed": false,
          "internalType": "address",
          "name": "newCollector",
          "type": "address"
        }
      ],
      "name": "FeeCollectorUpdated",
      "type": "event"
    },
    {
      "anonymous": false,
      "inputs": [
        {
          "indexed": false,
          "internalType": "uint256",
          "name": "oldFee",
          "type": "uint256"
        },
        {
          "indexed": false,
          "internalType": "uint256",
          "name": "newFee",
          "type": "uint256"
        }
      ],
      "name": "FeeUpdated",
      "type": "event"
    },
    {
      "anonymous": false,
      "inputs": [
        {
          "indexed": true,
          "internalType": "bytes32",
          "name": "commitment",
          "type": "bytes32"
        },
        {
          "indexed": true,
          "internalType": "address",
          "name": "trader",
          "type": "address"
        },
        {
          "indexed": false,
          "internalType": "uint256",
          "name": "timestamp",
          "type": "uint256"
        }
      ],
      "name": "OrderCancelled",
      "type": "event"
    },
    {
      "anonymous": false,
      "inputs": [
        {
          "indexed": true,
          "internalType": "bytes32",
          "name": "commitment",
          "type": "bytes32"
        },
        {
          "indexed": true,
          "internalType": "address",
          "name": "trader",
          "type": "address"
        },
        {
          "indexed": false,
          "internalType": "uint256",
          "name": "timestamp",
          "type": "uint256"
        }
      ],
      "name": "OrderCommitted",
      "type": "event"
    },
    {
      "anonymous": false,
      "inputs": [
        {
          "indexed": false,
          "internalType": "uint256",
          "name": "minSize",
          "type": "uint256"
        },
        {
          "indexed": false,
          "internalType": "uint256",
          "name": "maxSize",
          "type": "uint256"
        }
      ],
      "name": "OrderLimitsUpdated",
      "type": "event"
    },
    {
      "anonymous": false,
      "inputs": [
        {
          "indexed": true,
          "internalType": "bytes32",
          "name": "commitment1",
          "type": "bytes32"
        },
        {
          "indexed": true,
          "internalType": "bytes32",
          "name": "commitment2",
          "type": "bytes32"
        },
        {
          "indexed": false,
          "internalType": "address",
          "name": "trader1",
          "type": "address"
        },
        {
          "indexed": false,
          "internalType": "address",
          "name": "trader2",
          "type": "address"
        },
        {
          "indexed": false,
          "internalType": "uint256",
          "name": "amount1",
          "type": "uint256"
        },
        {
          "indexed": false,
          "internalType": "uint256",
          "name": "amount2",
          "type": "uint256"
        }
      ],
      "name": "OrderMatched",
      "type": "event"
    },
    {
      "anonymous": false,
      "inputs": [
        {
          "indexed": true,
          "internalType": "bytes32",
          "name": "commitment",
          "type": "bytes32"
        },
        {
          "indexed": true,
          "internalType": "address",
          "name": "trader",
          "type": "address"
        },
        {
          "indexed": false,
          "internalType": "address",
          "name": "tokenIn",
          "type": "address"
        },
        {
          "indexed": false,
          "internalType": "address",
          "name": "tokenOut",
          "type": "address"
        },
        {
          "indexed": false,
          "internalType": "uint256",
          "name": "amountIn",
          "type": "uint256"
        },
        {
          "indexed": false,
          "internalType": "uint256",
          "name": "amountOut",
          "type": "uint256"
        },
        {
          "indexed": false,
          "internalType": "bool",
          "name": "isBuy",
          "type": "bool"
        }
      ],
      "name": "OrderRevealed",
      "type": "event"
    },
    {
      "anonymous": false,
      "inputs": [
        {
          "indexed": false,
          "internalType": "address",
          "name": "account",
          "type": "address"
        }
      ],
      "name": "Paused",
      "type": "event"
    },
    {
      "anonymous": false,
      "inputs": [
        {
          "indexed": true,
          "internalType": "bytes32",
          "name": "role",
          "type": "bytes32"
        },
        {
          "indexed": true,
          "internalType": "bytes32",
          "name": "previousAdminRole",
          "type": "bytes32"
        },
        {
          "indexed": true,
          "internalType": "bytes32",
          "name": "newAdminRole",
          "type": "bytes32"
        }
      ],
      "name": "RoleAdminChanged",
      "type": "event"
    },
    {
      "anonymous": false,
      "inputs": [
        {
          "indexed": true,
          "internalType": "bytes32",
          "name": "role",
          "type": "bytes32"
        },
        {
          "indexed": true,
          "internalType": "address",
          "name": "account",
          "type": "address"
        },
        {
          "indexed": true,
          "internalType": "address",
          "name": "sender",
          "type": "address"
        }
      ],
      "name": "RoleGranted",
      "type": "event"
    },
    {
      "anonymous": false,
      "inputs": [
        {
          "indexed": true,
          "internalType": "bytes32",
          "name": "role",
          "type": "bytes32"
        },
        {
          "indexed": true,
          "internalType": "address",
          "name": "account",
          "type": "address"
        },
        {
          "indexed": true,
          "internalType": "address",
          "name": "sender",
          "type": "address"
        }
      ],
      "name": "RoleRevoked",
      "type": "event"
    },
    {
      "anonymous": false,
      "inputs": [
        {
          "indexed": true,
          "internalType": "address",
          "name": "trader",
          "type": "address"
        },
        {
          "indexed": false,
          "internalType": "uint256",
          "name": "finalBalance",
          "type": "uint256"
        }
      ],
      "name": "StateChannelClosed",
      "type": "event"
    },
    {
      "anonymous": false,
      "inputs": [
        {
          "indexed": true,
          "internalType": "address",
          "name": "trader",
          "type": "address"
        },
        {
          "indexed": false,
          "internalType": "uint256",
          "name": "balance",
          "type": "uint256"
        },
        {
          "indexed": false,
          "internalType": "uint256",
          "name": "nonce",
          "type": "uint256"
        }
      ],
      "name": "StateChannelOpened",
      "type": "event"
    },
    {
      "anonymous": false,
      "inputs": [
        {
          "indexed": true,
          "internalType": "address",
          "name": "trader",
          "type": "address"
        },
        {
          "indexed": false,
          "internalType": "uint256",
          "name": "newBalance",
          "type": "uint256"
        },
        {
          "indexed": false,
          "internalType": "uint256",
          "name": "newNonce",
          "type": "uint256"
        }
      ],
      "name": "StateChannelUpdated",
      "type": "event"
    },
    {
      "anonymous": false,
      "inputs": [
        {
          "indexed": true,
          "internalType": "address",
          "name": "trader1",
          "type": "address"
        },
        {
          "indexed": true,
          "internalType": "address",
          "name": "trader2",
          "type": "address"
        },
        {
          "indexed": false,
          "internalType": "address",
          "name": "tokenIn",
          "type": "address"
        },
        {
          "indexed": false,
          "internalType": "address",
          "name": "tokenOut",
          "type": "address"
        },
        {
          "indexed": false,
          "internalType": "uint256",
          "name": "amount1",
          "type": "uint256"
        },
        {
          "indexed": false,
          "internalType": "uint256",
          "name": "amount2",
          "type": "uint256"
        },
        {
          "indexed": false,
          "internalType": "uint256",
          "name": "timestamp",
          "type": "uint256"
        }
      ],
      "name": "TradeExecuted",
      "type": "event"
    },
    {
      "anonymous": false,
      "inputs": [
        {
          "indexed": false,
          "internalType": "address",
          "name": "account",
          "type": "address"
        }
      ],
      "name": "Unpaused",
      "type": "event"
    },
    {
      "anonymous": false,
      "inputs": [
        {
          "indexed": false,
          "internalType": "uint256",
          "name": "commitmentWindow",
          "type": "uint256"
        },
        {
          "indexed": false,
          "internalType": "uint256",
          "name": "revealWindow",
          "type": "uint256"
        }
      ],
      "name": "WindowsUpdated",
      "type": "event"
    },
    {
      "inputs": [],
      "name": "DEFAULT_ADMIN_ROLE",
      "outputs": [
        {
          "internalType": "bytes32",
          "name": "",
          "type": "bytes32"
        }
      ],
      "stateMutability": "view",
      "type": "function"
    },
    {
      "inputs": [],
      "name": "EMERGENCY_ROLE",
      "outputs": [
        {
          "internalType": "bytes32",
          "name": "",
          "type": "bytes32"
        }
      ],
      "stateMutability": "view",
      "type": "function"
    },
    {
      "inputs": [],
      "name": "EMERGENCY_TIMELOCK",
      "outputs": [
        {
          "internalType": "uint256",
          "name": "",
          "type": "uint256"
        }
      ],
      "stateMutability": "view",
      "type": "function"
    },
    {
      "inputs": [],
      "name": "FEE_ADJUSTMENT_COOLDOWN",
      "outputs": [
        {
          "internalType": "uint256",
          "name": "",
          "type": "uint256"
        }
      ],
      "stateMutability": "view",
      "type": "function"
    },
    {
      "inputs": [],
      "name": "MAX_COMMITMENT_WINDOW",
      "outputs": [
        {
          "internalType": "uint256",
          "name": "",
          "type": "uint256"
        }
      ],
      "stateMutability": "view",
      "type": "function"
    },
    {
      "inputs": [],
      "name": "MAX_DYNAMIC_FEE",
      "outputs": [
        {
          "internalType": "uint256",
          "name": "",
          "type": "uint256"
        }
      ],
      "stateMutability": "view",
      "type": "function"
    },
    {
      "inputs": [],
      "name": "MAX_FEE_BPS",
      "outputs": [
        {
          "internalType": "uint256",
          "name": "",
          "type": "uint256"
        }
      ],
      "stateMutability": "view",
      "type": "function"
    },
    {
      "inputs": [],
      "name": "MAX_REVEAL_WINDOW",
      "outputs": [
        {
          "internalType": "uint256",
          "name": "",
          "type": "uint256"
        }
      ],
      "stateMutability": "view",
      "type": "function"
    },
    {
      "inputs": [],
      "name": "MIN_COMMITMENT_WINDOW",
      "outputs": [
        {
          "internalType": "uint256",
          "name": "",
          "type": "uint256"
        }
      ],
      "stateMutability": "view",
      "type": "function"
    },
    {
      "inputs": [],
      "name": "MIN_DYNAMIC_FEE",
      "outputs": [
        {
          "internalType": "uint256",
          "name": "",
          "type": "uint256"
        }
      ],
      "stateMutability": "view",
      "type": "function"
    },
    {
      "inputs": [],
      "name": "MIN_REVEAL_WINDOW",
      "outputs": [
        {
          "internalType": "uint256",
          "name": "",
          "type": "uint256"
        }
      ],
      "stateMutability": "view",
      "type": "function"
    },
    {
      "inputs": [],
      "name": "OPERATOR_ROLE",
      "outputs": [
        {
          "internalType": "bytes32",
          "name": "",
          "type": "bytes32"
        }
      ],
      "stateMutability": "view",
      "type": "function"
    },
    {
      "inputs": [
        {
          "internalType": "address",
          "name": "tokenIn",
          "type": "address"
        },
        {
          "internalType": "address",
          "name": "tokenOut",
          "type": "address"
        },
        {
          "internalType": "uint256",
          "name": "amountIn",
          "type": "uint256"
        },
        {
          "internalType": "uint256",
          "name": "amountOut",
          "type": "uint256"
        },
        {
          "internalType": "bool",
          "name": "isBuy",
          "type": "bool"
        },
        {
          "internalType": "uint256",
          "name": "secretNonce",
          "type": "uint256"
        }
      ],
      "name": "calculateCommitment",
      "outputs": [
        {
          "internalType": "bytes32",
          "name": "",
          "type": "bytes32"
        }
      ],
      "stateMutability": "pure",
      "type": "function"
    },
    {
      "inputs": [
        {
          "internalType": "address",
          "name": "trader",
          "type": "address"
        }
      ],
      "name": "canEmergencyWithdraw",
      "outputs": [
        {
          "internalType": "bool",
          "name": "",
          "type": "bool"
        }
      ],
      "stateMutability": "view",
      "type": "function"
    },
    {
      "inputs": [
        {
          "internalType": "bytes32",
          "name": "commitment",
          "type": "bytes32"
        }
      ],
      "name": "cancelOrder",
      "outputs": [],
      "stateMutability": "nonpayable",
      "type": "function"
    },
    {
      "inputs": [
        {
          "internalType": "address",
          "name": "trader",
          "type": "address"
        },
        {
          "internalType": "uint256",
          "name": "finalBalance",
          "type": "uint256"
        },
        {
          "internalType": "bytes",
          "name": "signature",
          "type": "bytes"
        }
      ],
      "name": "closeStateChannel",
      "outputs": [],
      "stateMutability": "nonpayable",
      "type": "function"
    },
    {
      "inputs": [
        {
          "internalType": "bytes32",
          "name": "commitment",
          "type": "bytes32"
        }
      ],
      "name": "commitOrder",
      "outputs": [],
      "stateMutability": "nonpayable",
      "type": "function"
    },
    {
      "inputs": [],
      "name": "commitmentWindow",
      "outputs": [
        {
          "internalType": "uint256",
          "name": "",
          "type": "uint256"
        }
      ],
      "stateMutability": "view",
      "type": "function"
    },
    {
      "inputs": [],
      "name": "dailyVolume",
      "outputs": [
        {
          "internalType": "uint256",
          "name": "",
          "type": "uint256"
        }
      ],
      "stateMutability": "view",
      "type": "function"
    },
    {
      "inputs": [],
      "name": "disableEmergencyMode",
      "outputs": [],
      "stateMutability": "nonpayable",
      "type": "function"
    },
    {
      "inputs": [],
      "name": "emergencyMode",
      "outputs": [
        {
          "internalType": "bool",
          "name": "",
          "type": "bool"
        }
      ],
      "stateMutability": "view",
      "type": "function"
    },
    {
      "inputs": [],
      "name": "emergencyModeTime",
      "outputs": [
        {
          "internalType": "uint256",
          "name": "",
          "type": "uint256"
        }
      ],
      "stateMutability": "view",
      "type": "function"
    },
    {
      "inputs": [
        {
          "internalType": "address",
          "name": "",
          "type": "address"
        }
      ],
      "name": "emergencyRequests",
      "outputs": [
        {
          "internalType": "address",
          "name": "requester",
          "type": "address"
        },
        {
          "internalType": "uint256",
          "name": "requestTime",
          "type": "uint256"
        },
        {
          "internalType": "bool",
          "name": "isExecuted",
          "type": "bool"
        },
        {
          "internalType": "string",
          "name": "reason",
          "type": "string"
        }
      ],
      "stateMutability": "view",
      "type": "function"
    },
    {
      "inputs": [],
      "name": "emergencyWithdraw",
      "outputs": [],
      "stateMutability": "nonpayable",
      "type": "function"
    },
    {
      "inputs": [],
      "name": "enableEmergencyMode",
      "outputs": [],
      "stateMutability": "nonpayable",
      "type": "function"
    },
    {
      "inputs": [
        {
          "internalType": "address",
          "name": "trader",
          "type": "address"
        }
      ],
      "name": "executeEmergencyWithdraw",
      "outputs": [],
      "stateMutability": "nonpayable",
      "type": "function"
    },
    {
      "inputs": [],
      "name": "feeCollector",
      "outputs": [
        {
          "internalType": "address",
          "name": "",
          "type": "address"
        }
      ],
      "stateMutability": "view",
      "type": "function"
    },
    {
      "inputs": [],
      "name": "feeConfig",
      "outputs": [
        {
          "internalType": "uint256",
          "name": "baseFee",
          "type": "uint256"
        },
        {
          "internalType": "uint256",
          "name": "dynamicFee",
          "type": "uint256"
        },
        {
          "internalType": "uint256",
          "name": "lastAdjustment",
          "type": "uint256"
        },
        {
          "internalType": "uint256",
          "name": "volumeThreshold",
          "type": "uint256"
        },
        {
          "internalType": "uint256",
          "name": "congestionMultiplier",
          "type": "uint256"
        }
      ],
      "stateMutability": "view",
      "type": "function"
    },
    {
      "inputs": [],
      "name": "getCurrentFee",
      "outputs": [
        {
          "internalType": "uint256",
          "name": "",
          "type": "uint256"
        }
      ],
      "stateMutability": "view",
      "type": "function"
    },
    {
      "inputs": [
        {
          "internalType": "address",
          "name": "trader",
          "type": "address"
        }
      ],
      "name": "getEmergencyRequest",
      "outputs": [
        {
          "components": [
            {
              "internalType": "address",
              "name": "requester",
              "type": "address"
            },
            {
              "internalType": "uint256",
              "name": "requestTime",
              "type": "uint256"
            },
            {
              "internalType": "bool",
              "name": "isExecuted",
              "type": "bool"
            },
            {
              "internalType": "string",
              "name": "reason",
              "type": "string"
            }
          ],
          "internalType": "struct DarkPoolDEX.EmergencyRequest",
          "name": "",
          "type": "tuple"
        }
      ],
      "stateMutability": "view",
      "type": "function"
    },
    {
      "inputs": [],
      "name": "getFeeConfig",
      "outputs": [
        {
          "components": [
            {
              "internalType": "uint256",
              "name": "baseFee",
              "type": "uint256"
            },
            {
              "internalType": "uint256",
              "name": "dynamicFee",
              "type": "uint256"
            },
            {
              "internalType": "uint256",
              "name": "lastAdjustment",
              "type": "uint256"
            },
            {
              "internalType": "uint256",
              "name": "volumeThreshold",
              "type": "uint256"
            },
            {
              "internalType": "uint256",
              "name": "congestionMultiplier",
              "type": "uint256"
            }
          ],
          "internalType": "struct DarkPoolDEX.FeeConfig",
          "name": "",
          "type": "tuple"
        }
      ],
      "stateMutability": "view",
      "type": "function"
    },
    {
      "inputs": [
        {
          "internalType": "bytes32",
          "name": "matchId",
          "type": "bytes32"
        }
      ],
      "name": "getMatch",
      "outputs": [
        {
          "components": [
            {
              "internalType": "address",
              "name": "trader1",
              "type": "address"
            },
            {
              "internalType": "address",
              "name": "trader2",
              "type": "address"
            },
            {
              "internalType": "address",
              "name": "tokenIn",
              "type": "address"
            },
            {
              "internalType": "address",
              "name": "tokenOut",
              "type": "address"
            },
            {
              "internalType": "uint256",
              "name": "amount1",
              "type": "uint256"
            },
            {
              "internalType": "uint256",
              "name": "amount2",
              "type": "uint256"
            },
            {
              "internalType": "uint256",
              "name": "timestamp",
              "type": "uint256"
            },
            {
              "internalType": "bool",
              "name": "isSettled",
              "type": "bool"
            },
            {
              "internalType": "bool",
              "name": "isDisputed",
              "type": "bool"
            }
          ],
          "internalType": "struct DarkPoolDEX.Match",
          "name": "",
          "type": "tuple"
        }
      ],
      "stateMutability": "view",
      "type": "function"
    },
    {
      "inputs": [
        {
          "internalType": "bytes32",
          "name": "commitment",
          "type": "bytes32"
        }
      ],
      "name": "getOrder",
      "outputs": [
        {
          "components": [
            {
              "internalType": "address",
              "name": "trader",
              "type": "address"
            },
            {
              "internalType": "address",
              "name": "tokenIn",
              "type": "address"
            },
            {
              "internalType": "address",
              "name": "tokenOut",
              "type": "address"
            },
            {
              "internalType": "uint256",
              "name": "amountIn",
              "type": "uint256"
            },
            {
              "internalType": "uint256",
              "name": "amountOut",
              "type": "uint256"
            },
            {
              "internalType": "uint256",
              "name": "nonce",
              "type": "uint256"
            },
            {
              "internalType": "uint256",
              "name": "timestamp",
              "type": "uint256"
            },
            {
              "internalType": "bool",
              "name": "isBuy",
              "type": "bool"
            },
            {
              "internalType": "bool",
              "name": "isRevealed",
              "type": "bool"
            },
            {
              "internalType": "bool",
              "name": "isExecuted",
              "type": "bool"
            },
            {
              "internalType": "bool",
              "name": "isCancelled",
              "type": "bool"
            },
            {
              "internalType": "bytes32",
              "name": "commitment",
              "type": "bytes32"
            }
          ],
          "internalType": "struct DarkPoolDEX.Order",
          "name": "",
          "type": "tuple"
        }
      ],
      "stateMutability": "view",
      "type": "function"
    },
    {
      "inputs": [
        {
          "internalType": "bytes32",
          "name": "role",
          "type": "bytes32"
        }
      ],
      "name": "getRoleAdmin",
      "outputs": [
        {
          "internalType": "bytes32",
          "name": "",
          "type": "bytes32"
        }
      ],
      "stateMutability": "view",
      "type": "function"
    },
    {
      "inputs": [
        {
          "internalType": "address",
          "name": "trader",
          "type": "address"
        }
      ],
      "name": "getStateChannel",
      "outputs": [
        {
          "components": [
            {
              "internalType": "address",
              "name": "trader",
              "type": "address"
            },
            {
              "internalType": "uint256",
              "name": "balance",
              "type": "uint256"
            },
            {
              "internalType": "uint256",
              "name": "nonce",
              "type": "uint256"
            },
            {
              "internalType": "uint256",
              "name": "lastUpdate",
              "type": "uint256"
            },
            {
              "internalType": "bool",
              "name": "isActive",
              "type": "bool"
            },
            {
              "internalType": "uint256",
              "name": "emergencyWithdrawTime",
              "type": "uint256"
            }
          ],
          "internalType": "struct DarkPoolDEX.StateChannel",
          "name": "",
          "type": "tuple"
        }
      ],
      "stateMutability": "view",
      "type": "function"
    },
    {
      "inputs": [],
      "name": "getVolumeStats",
      "outputs": [
        {
          "internalType": "uint256",
          "name": "",
          "type": "uint256"
        },
        {
          "internalType": "uint256",
          "name": "",
          "type": "uint256"
        },
        {
          "internalType": "uint256",
          "name": "",
          "type": "uint256"
        }
      ],
      "stateMutability": "view",
      "type": "function"
    },
    {
      "inputs": [
        {
          "internalType": "address",
          "name": "emergency",
          "type": "address"
        }
      ],
      "name": "grantEmergencyRole",
      "outputs": [],
      "stateMutability": "nonpayable",
      "type": "function"
    },
    {
      "inputs": [
        {
          "internalType": "address",
          "name": "operator",
          "type": "address"
        }
      ],
      "name": "grantOperatorRole",
      "outputs": [],
      "stateMutability": "nonpayable",
      "type": "function"
    },
    {
      "inputs": [
        {
          "internalType": "bytes32",
          "name": "role",
          "type": "bytes32"
        },
        {
          "internalType": "address",
          "name": "account",
          "type": "address"
        }
      ],
      "name": "grantRole",
      "outputs": [],
      "stateMutability": "nonpayable",
      "type": "function"
    },
    {
      "inputs": [
        {
          "internalType": "bytes32",
          "name": "role",
          "type": "bytes32"
        },
        {
          "internalType": "address",
          "name": "account",
          "type": "address"
        }
      ],
      "name": "hasRole",
      "outputs": [
        {
          "internalType": "bool",
          "name": "",
          "type": "bool"
        }
      ],
      "stateMutability": "view",
      "type": "function"
    },
    {
      "inputs": [],
      "name": "lastVolumeReset",
      "outputs": [
        {
          "internalType": "uint256",
          "name": "",
          "type": "uint256"
        }
      ],
      "stateMutability": "view",
      "type": "function"
    },
    {
      "inputs": [],
      "name": "matchNonce",
      "outputs": [
        {
          "internalType": "uint256",
          "name": "",
          "type": "uint256"
        }
      ],
      "stateMutability": "view",
      "type": "function"
    },
    {
      "inputs": [
        {
          "internalType": "bytes32",
          "name": "commitment1",
          "type": "bytes32"
        },
        {
          "internalType": "bytes32",
          "name": "commitment2",
          "type": "bytes32"
        }
      ],
      "name": "matchOrders",
      "outputs": [],
      "stateMutability": "nonpayable",
      "type": "function"
    },
    {
      "inputs": [
        {
          "internalType": "bytes32",
          "name": "",
          "type": "bytes32"
        }
      ],
      "name": "matches",
      "outputs": [
        {
          "internalType": "address",
          "name": "trader1",
          "type": "address"
        },
        {
          "internalType": "address",
          "name": "trader2",
          "type": "address"
        },
        {
          "internalType": "address",
          "name": "tokenIn",
          "type": "address"
        },
        {
          "internalType": "address",
          "name": "tokenOut",
          "type": "address"
        },
        {
          "internalType": "uint256",
          "name": "amount1",
          "type": "uint256"
        },
        {
          "internalType": "uint256",
          "name": "amount2",
          "type": "uint256"
        },
        {
          "internalType": "uint256",
          "name": "timestamp",
          "type": "uint256"
        },
        {
          "internalType": "bool",
          "name": "isSettled",
          "type": "bool"
        },
        {
          "internalType": "bool",
          "name": "isDisputed",
          "type": "bool"
        }
      ],
      "stateMutability": "view",
      "type": "function"
    },
    {
      "inputs": [],
      "name": "maxOrderSize",
      "outputs": [
        {
          "internalType": "uint256",
          "name": "",
          "type": "uint256"
        }
      ],
      "stateMutability": "view",
      "type": "function"
    },
    {
      "inputs": [],
      "name": "minOrderSize",
      "outputs": [
        {
          "internalType": "uint256",
          "name": "",
          "type": "uint256"
        }
      ],
      "stateMutability": "view",
      "type": "function"
    },
    {
      "inputs": [
        {
          "internalType": "address",
          "name": "trader",
          "type": "address"
        },
        {
          "internalType": "uint256",
          "name": "initialBalance",
          "type": "uint256"
        }
      ],
      "name": "openStateChannel",
      "outputs": [],
      "stateMutability": "payable",
      "type": "function"
    },
    {
      "inputs": [],
      "name": "orderNonce",
      "outputs": [
        {
          "internalType": "uint256",
          "name": "",
          "type": "uint256"
        }
      ],
      "stateMutability": "view",
      "type": "function"
    },
    {
      "inputs": [
        {
          "internalType": "bytes32",
          "name": "",
          "type": "bytes32"
        }
      ],
      "name": "orders",
      "outputs": [
        {
          "internalType": "address",
          "name": "trader",
          "type": "address"
        },
        {
          "internalType": "address",
          "name": "tokenIn",
          "type": "address"
        },
        {
          "internalType": "address",
          "name": "tokenOut",
          "type": "address"
        },
        {
          "internalType": "uint256",
          "name": "amountIn",
          "type": "uint256"
        },
        {
          "internalType": "uint256",
          "name": "amountOut",
          "type": "uint256"
        },
        {
          "internalType": "uint256",
          "name": "nonce",
          "type": "uint256"
        },
        {
          "internalType": "uint256",
          "name": "timestamp",
          "type": "uint256"
        },
        {
          "internalType": "bool",
          "name": "isBuy",
          "type": "bool"
        },
        {
          "internalType": "bool",
          "name": "isRevealed",
          "type": "bool"
        },
        {
          "internalType": "bool",
          "name": "isExecuted",
          "type": "bool"
        },
        {
          "internalType": "bool",
          "name": "isCancelled",
          "type": "bool"
        },
        {
          "internalType": "bytes32",
          "name": "commitment",
          "type": "bytes32"
        }
      ],
      "stateMutability": "view",
      "type": "function"
    },
    {
      "inputs": [],
      "name": "pause",
      "outputs": [],
      "stateMutability": "nonpayable",
      "type": "function"
    },
    {
      "inputs": [],
      "name": "paused",
      "outputs": [
        {
          "internalType": "bool",
          "name": "",
          "type": "bool"
        }
      ],
      "stateMutability": "view",
      "type": "function"
    },
    {
      "inputs": [
        {
          "internalType": "bytes32",
          "name": "role",
          "type": "bytes32"
        },
        {
          "internalType": "address",
          "name": "account",
          "type": "address"
        }
      ],
      "name": "renounceRole",
      "outputs": [],
      "stateMutability": "nonpayable",
      "type": "function"
    },
    {
      "inputs": [
        {
          "internalType": "string",
          "name": "reason",
          "type": "string"
        }
      ],
      "name": "requestEmergencyWithdraw",
      "outputs": [],
      "stateMutability": "nonpayable",
      "type": "function"
    },
    {
      "inputs": [
        {
          "internalType": "bytes32",
          "name": "commitment",
          "type": "bytes32"
        },
        {
          "internalType": "address",
          "name": "tokenIn",
          "type": "address"
        },
        {
          "internalType": "address",
          "name": "tokenOut",
          "type": "address"
        },
        {
          "internalType": "uint256",
          "name": "amountIn",
          "type": "uint256"
        },
        {
          "internalType": "uint256",
          "name": "amountOut",
          "type": "uint256"
        },
        {
          "internalType": "bool",
          "name": "isBuy",
          "type": "bool"
        },
        {
          "internalType": "uint256",
          "name": "secretNonce",
          "type": "uint256"
        }
      ],
      "name": "revealOrder",
      "outputs": [],
      "stateMutability": "nonpayable",
      "type": "function"
    },
    {
      "inputs": [],
      "name": "revealWindow",
      "outputs": [
        {
          "internalType": "uint256",
          "name": "",
          "type": "uint256"
        }
      ],
      "stateMutability": "view",
      "type": "function"
    },
    {
      "inputs": [
        {
          "internalType": "address",
          "name": "emergency",
          "type": "address"
        }
      ],
      "name": "revokeEmergencyRole",
      "outputs": [],
      "stateMutability": "nonpayable",
      "type": "function"
    },
    {
      "inputs": [
        {
          "internalType": "address",
          "name": "operator",
          "type": "address"
        }
      ],
      "name": "revokeOperatorRole",
      "outputs": [],
      "stateMutability": "nonpayable",
      "type": "function"
    },
    {
      "inputs": [
        {
          "internalType": "bytes32",
          "name": "role",
          "type": "bytes32"
        },
        {
          "internalType": "address",
          "name": "account",
          "type": "address"
        }
      ],
      "name": "revokeRole",
      "outputs": [],
      "stateMutability": "nonpayable",
      "type": "function"
    },
    {
      "inputs": [
        {
          "internalType": "uint256",
          "name": "_multiplier",
          "type": "uint256"
        }
      ],
      "name": "setCongestionMultiplier",
      "outputs": [],
      "stateMutability": "nonpayable",
      "type": "function"
    },
    {
      "inputs": [
        {
          "internalType": "address",
          "name": "_feeCollector",
          "type": "address"
        }
      ],
      "name": "setFeeCollector",
      "outputs": [],
      "stateMutability": "nonpayable",
      "type": "function"
    },
    {
      "inputs": [
        {
          "internalType": "uint256",
          "name": "_minOrderSize",
          "type": "uint256"
        },
        {
          "internalType": "uint256",
          "name": "_maxOrderSize",
          "type": "uint256"
        }
      ],
      "name": "setOrderLimits",
      "outputs": [],
      "stateMutability": "nonpayable",
      "type": "function"
    },
    {
      "inputs": [
        {
          "internalType": "uint256",
          "name": "_tradingFee",
          "type": "uint256"
        }
      ],
      "name": "setTradingFee",
      "outputs": [],
      "stateMutability": "nonpayable",
      "type": "function"
    },
    {
      "inputs": [
        {
          "internalType": "uint256",
          "name": "_volumeThreshold",
          "type": "uint256"
        }
      ],
      "name": "setVolumeThreshold",
      "outputs": [],
      "stateMutability": "nonpayable",
      "type": "function"
    },
    {
      "inputs": [
        {
          "internalType": "uint256",
          "name": "_commitmentWindow",
          "type": "uint256"
        },
        {
          "internalType": "uint256",
          "name": "_revealWindow",
          "type": "uint256"
        }
      ],
      "name": "setWindows",
      "outputs": [],
      "stateMutability": "nonpayable",
      "type": "function"
    },
    {
      "inputs": [
        {
          "internalType": "bytes32",
          "name": "matchId",
          "type": "bytes32"
        },
        {
          "internalType": "bytes",
          "name": "signature1",
          "type": "bytes"
        },
        {
          "internalType": "bytes",
          "name": "signature2",
          "type": "bytes"
        }
      ],
      "name": "settleMatch",
      "outputs": [],
      "stateMutability": "nonpayable",
      "type": "function"
    },
    {
      "inputs": [
        {
          "internalType": "address",
          "name": "",
          "type": "address"
        }
      ],
      "name": "stateChannels",
      "outputs": [
        {
          "internalType": "address",
          "name": "trader",
          "type": "address"
        },
        {
          "internalType": "uint256",
          "name": "balance",
          "type": "uint256"
        },
        {
          "internalType": "uint256",
          "name": "nonce",
          "type": "uint256"
        },
        {
          "internalType": "uint256",
          "name": "lastUpdate",
          "type": "uint256"
        },
        {
          "internalType": "bool",
          "name": "isActive",
          "type": "bool"
        },
        {
          "internalType": "uint256",
          "name": "emergencyWithdrawTime",
          "type": "uint256"
        }
      ],
      "stateMutability": "view",
      "type": "function"
    },
    {
      "inputs": [
        {
          "internalType": "bytes4",
          "name": "interfaceId",
          "type": "bytes4"
        }
      ],
      "name": "supportsInterface",
      "outputs": [
        {
          "internalType": "bool",
          "name": "",
          "type": "bool"
        }
      ],
      "stateMutability": "view",
      "type": "function"
    },
    {
      "inputs": [],
      "name": "totalTrades",
      "outputs": [
        {
          "internalType": "uint256",
          "name": "",
          "type": "uint256"
        }
      ],
      "stateMutability": "view",
      "type": "function"
    },
    {
      "inputs": [],
      "name": "unpause",
      "outputs": [],
      "stateMutability": "nonpayable",
      "type": "function"
    },
    {
      "inputs": [
        {
          "internalType": "address",
          "name": "trader",
          "type": "address"
        },
        {
          "internalType": "uint256",
          "name": "newBalance",
          "type": "uint256"
        },
        {
          "internalType": "uint256",
          "name": "newNonce",
          "type": "uint256"
        },
        {
          "internalType": "bytes",
          "name": "signature",
          "type": "bytes"
        }
      ],
      "name": "updateStateChannel",
      "outputs": [],
      "stateMutability": "nonpayable",
      "type": "function"
    },
    {
      "stateMutability": "payable",
      "type": "receive"
    }
  ],
  "bytecode": "0x60806040523480156200001157600080fd5b5060405162005172380380620051728339810160408190526200003491620003ae565b60016000819055805460ff191690558282603c8210801590620000595750610e108211155b620000ab5760405162461bcd60e51b815260206004820152601960248201527f496e76616c696420636f6d6d69746d656e742077696e646f770000000000000060448201526064015b60405180910390fd5b61012c8110158015620000c05750611c208111155b6200010e5760405162461bcd60e51b815260206004820152601560248201527f496e76616c69642072657665616c2077696e646f7700000000000000000000006044820152606401620000a2565b808210620001855760405162461bcd60e51b815260206004820152603460248201527f436f6d6d69746d656e742077696e646f77206d7573742062652073686f72746560448201527f72207468616e2072657665616c2077696e646f770000000000000000000000006064820152608401620000a2565b858710620001d65760405162461bcd60e51b815260206004820152601460248201527f496e76616c6964206f72646572206c696d6974730000000000000000000000006044820152606401620000a2565b6103e8831115620002195760405162461bcd60e51b815260206004820152600c60248201526b08ccaca40e8dede40d0d2ced60a31b6044820152606401620000a2565b6009879055600a869055600b859055600c849055600d80546001600160a01b031916339081179091556040805160a0810182528581526020810186905242918101829052683635c9adc5dea000006060820181905260646080909201829052600e879055600f8790556010929092556011919091556012556200029f9060009062000309565b620002cb7f97667070c54ef182b0f5858b034beac1b6f3089aa2d3188bb1e8929f4fa9b9293362000309565b620002f77fbf233dd2aafeb4d50879c4aa5c81e96d92f6e6945c906a58f9f2d1c1631b4b263362000309565b50504260165550620003ef9350505050565b60008281526002602090815260408083206001600160a01b038516845290915290205460ff16620003aa5760008281526002602090815260408083206001600160a01b03851684529091529020805460ff19166001179055620003693390565b6001600160a01b0316816001600160a01b0316837f2f8788117e7eff1d82e926ec794901d17c78024a50270940304540a733656f0d60405160405180910390a45b5050565b600080600080600060a08688031215620003c757600080fd5b5050835160208501516040860151606087015160809097015192989197509594509092509050565b614d7380620003ff6000396000f3fe6080604052600436106104095760003560e01c80639766041111610213578063c415b95c11610123578063e5bd9fa1116100ab578063f5b541a61161007a578063f5b541a614610f81578063f70d936214610fa3578063fca516c714610fb8578063fcc6077d14610fcb578063fec0db70146110ce57600080fd5b8063e5bd9fa114610ea7578063eb3acc7b14610ebd578063ef95256814610f56578063f1a82c7e14610f6b57600080fd5b8063d55be8c6116100f2578063d55be8c614610e31578063da31f67c14610e47578063db2e21bc14610e5c578063e275c99714610e71578063e5aebc4114610e8757600080fd5b8063c415b95c14610dae578063c5511c6d14610de6578063c5b1c7d014610dfc578063d547741f14610e1157600080fd5b8063a9381d21116101a6578063b0d54bcf11610175578063b0d54bcf14610d28578063b219f7d714610d48578063ba9bf7d114610858578063be4a7e2614610d68578063bfbeecfb14610d7e57600080fd5b8063a9381d2114610ca8578063a9f1a54914610cc8578063acef2efc14610ce8578063ad943d6214610d0857600080fd5b80639fe9ada3116101e25780639fe9ada314610b8a578063a217fddf14610c5d578063a42dce8014610c72578063a674537f14610c9257600080fd5b80639766041114610a2b57806398c8877e14610a4b578063990fbcc214610a615780639c3f1e9014610a8157600080fd5b80634c0c1ff1116103195780637314eb0c116102a15780638456cb59116102705780638456cb59146109aa578063863d22c7146109bf5780638973bc7e146109d55780638d976cf6146109eb57806391d1485414610a0b57600080fd5b80637314eb0c146109345780637489ec23146109545780637a2888b0146109745780637fe3826e1461098a57600080fd5b80635c975abb116102e85780635c975abb1461086e5780635fbbc0d21461088657806360d7442b146108dd57806361f073c8146108f457806365f4bce61461091457600080fd5b80634c0c1ff1146106e6578063554ac63f146106fc5780635778472a1461071157806358c61b061461085857600080fd5b80632ac164021161039c578063368697301161036b57806336869730146105f85780633f4ba83a1461060e578063451bf3e61461062357806347f89b41146106955780634b8764a5146106b557600080fd5b80632ac16402146105785780632f2ff15d14610598578063354323e0146105b857806336568abe146105d857600080fd5b80631e5eb1d0116103d85780631e5eb1d0146104b557806320df435914610504578063248a9ca31461052657806327ac0c581461055657600080fd5b806301ffc9a7146104155780630905f5601461044a578063112606d61461046457806316f8de891461049157600080fd5b3661041057005b600080fd5b34801561042157600080fd5b506104356104303660046142ee565b6110ee565b60405190151581526020015b60405180910390f35b34801561045657600080fd5b506013546104359060ff1681565b34801561047057600080fd5b5061048461047f366004614334565b611125565b604051610441919061439f565b34801561049d57600080fd5b506104a760075481565b604051908152602001610441565b3480156104c157600080fd5b50600e54600f546010546011546012546104dc949392919085565b604080519586526020860194909452928401919091526060830152608082015260a001610441565b34801561051057600080fd5b506104a7600080516020614cfe83398151915281565b34801561053257600080fd5b506104a76105413660046143ea565b60009081526002602052604090206001015490565b34801561056257600080fd5b50610576610571366004614334565b61122f565b005b34801561058457600080fd5b506105766105933660046144af565b611256565b3480156105a457600080fd5b506105766105b336600461451c565b61157d565b3480156105c457600080fd5b506105766105d33660046143ea565b6115a2565b3480156105e457600080fd5b506105766105f336600461451c565b611611565b34801561060457600080fd5b506104a761012c81565b34801561061a57600080fd5b5061057661168b565b34801561062f57600080fd5b5061064361063e366004614334565b6116a1565b604051610441919081516001600160a01b0316815260208083015190820152604080830151908201526060808301519082015260808083015115159082015260a0918201519181019190915260c00190565b3480156106a157600080fd5b506105766106b03660046143ea565b61174d565b3480156106c157600080fd5b5060155460175460165460408051938452602084019290925290820152606001610441565b3480156106f257600080fd5b506104a76101f481565b34801561070857600080fd5b506104a7603c81565b34801561071d57600080fd5b5061084b61072c3660046143ea565b6040805161018081018252600080825260208201819052918101829052606081018290526080810182905260a0810182905260c0810182905260e081018290526101008101829052610120810182905261014081018290526101608101919091525060009081526003602081815260409283902083516101808101855281546001600160a01b039081168252600183015481169382019390935260028201549092169382019390935290820154606082015260048201546080820152600582015460a0820152600682015460c0820152600782015460ff808216151560e0840152610100808304821615159084015262010000820481161515610120840152630100000090910416151561014082015260089091015461016082015290565b6040516104419190614548565b34801561086457600080fd5b506104a7610e1081565b34801561087a57600080fd5b5060015460ff16610435565b34801561089257600080fd5b5061089b611ac6565b6040516104419190600060a082019050825182526020830151602083015260408301516040830152606083015160608301526080830151608083015292915050565b3480156108e957600080fd5b506104a76201518081565b34801561090057600080fd5b5061057661090f366004614605565b611b2d565b34801561092057600080fd5b5061057661092f366004614666565b611d02565b34801561094057600080fd5b5061057661094f366004614334565b611e7c565b34801561096057600080fd5b5061057661096f3660046143ea565b611e9f565b34801561098057600080fd5b506104a760145481565b34801561099657600080fd5b506105766109a5366004614666565b6120ca565b3480156109b657600080fd5b506105766126b0565b3480156109cb57600080fd5b506104a7600c5481565b3480156109e157600080fd5b506104a7611c2081565b3480156109f757600080fd5b50610576610a06366004614688565b6126c3565b348015610a1757600080fd5b50610435610a2636600461451c565b61287c565b348015610a3757600080fd5b50610576610a463660046146d1565b6128a7565b348015610a5757600080fd5b506104a760155481565b348015610a6d57600080fd5b50610576610a7c3660046143ea565b612a66565b348015610a8d57600080fd5b50610b18610a9c3660046143ea565b60036020819052600091825260409091208054600182015460028301549383015460048401546005850154600686015460078701546008909701546001600160a01b0396871698958716979690951695939492939192909160ff808216926101008304821692620100008104831692630100000090910416908c565b604080516001600160a01b039d8e1681529b8d1660208d015299909b16988a01989098526060890196909652608088019490945260a087019290925260c0860152151560e085015215156101008401521515610120830152151561014082015261016081019190915261018001610441565b348015610b9657600080fd5b50610c05610ba53660046143ea565b6005602081905260009182526040909120805460018201546002830154600384015460048501549585015460068601546007909601546001600160a01b039586169794861696938616959092169392909160ff8082169161010090041689565b604080516001600160a01b039a8b168152988a1660208a015296891696880196909652969093166060860152608085019190915260a084015260c083015291151560e082015290151561010082015261012001610441565b348015610c6957600080fd5b506104a7600081565b348015610c7e57600080fd5b50610576610c8d366004614334565b612abb565b348015610c9e57600080fd5b506104a760095481565b348015610cb457600080fd5b50610576610cc3366004614666565b612b71565b348015610cd457600080fd5b50610435610ce3366004614334565b612bfc565b348015610cf457600080fd5b50610576610d03366004614334565b612c44565b348015610d1457600080fd5b50610576610d23366004614334565b612c67565b348015610d3457600080fd5b50610576610d433660046143ea565b612f39565b348015610d5457600080fd5b50610576610d63366004614334565b612fc3565b348015610d7457600080fd5b506104a7600b5481565b348015610d8a57600080fd5b50610d9e610d99366004614334565b612fe6565b604051610441949392919061471e565b348015610dba57600080fd5b50600d54610dce906001600160a01b031681565b6040516001600160a01b039091168152602001610441565b348015610df257600080fd5b506104a760085481565b348015610e0857600080fd5b506105766130a7565b348015610e1d57600080fd5b50610576610e2c36600461451c565b613171565b348015610e3d57600080fd5b506104a76103e881565b348015610e5357600080fd5b506104a7600181565b348015610e6857600080fd5b50610576613196565b348015610e7d57600080fd5b506104a760175481565b348015610e9357600080fd5b50610576610ea2366004614767565b6131cd565b348015610eb357600080fd5b506104a760165481565b348015610ec957600080fd5b50610f1d610ed8366004614334565b60046020819052600091825260409091208054600182015460028301546003840154948401546005909401546001600160a01b03909316949193909260ff9091169086565b604080516001600160a01b03909716875260208701959095529385019290925260608401521515608083015260a082015260c001610441565b348015610f6257600080fd5b50610576613623565b348015610f7757600080fd5b506104a7600a5481565b348015610f8d57600080fd5b506104a7600080516020614d1e83398151915281565b348015610faf57600080fd5b50600f546104a7565b610576610fc63660046147d1565b61368a565b348015610fd757600080fd5b506110c1610fe63660046143ea565b6040805161012081018252600080825260208201819052918101829052606081018290526080810182905260a0810182905260c0810182905260e081018290526101008101919091525060009081526005602081815260409283902083516101208101855281546001600160a01b0390811682526001830154811693820193909352600282015483169481019490945260038101549091166060840152600481015460808401529081015460a0830152600681015460c08301526007015460ff808216151560e0840152610100918290041615159082015290565b60405161044191906147fb565b3480156110da57600080fd5b506104a76110e9366004614879565b6138ca565b60006001600160e01b03198216637965db0b60e01b148061111f57506301ffc9a760e01b6001600160e01b03198316145b92915050565b60408051608081018252600080825260208201819052918101919091526060808201526001600160a01b03808316600090815260066020908152604091829020825160808101845281549094168452600181015491840191909152600281015460ff161515918301919091526003810180546060840191906111a6906148d8565b80601f01602080910402602001604051908101604052809291908181526020018280546111d2906148d8565b801561121f5780601f106111f45761010080835404028352916020019161121f565b820191906000526020600020905b81548152906001019060200180831161120257829003601f168201915b5050505050815250509050919050565b600061123a81613909565b611252600080516020614d1e83398151915283613913565b5050565b61125e613999565b6112666139f2565b60135460ff16156112925760405162461bcd60e51b815260040161128990614912565b60405180910390fd5b600083815260056020526040902080546001600160a01b03166112ee5760405162461bcd60e51b815260206004820152601460248201527313585d18da08191bd95cc81b9bdd08195e1a5cdd60621b6044820152606401611289565b600781015460ff161561133b5760405162461bcd60e51b815260206004820152601560248201527413585d18da08185b1c9958591e481cd95d1d1b1959605a1b6044820152606401611289565b6007810154610100900460ff16156113895760405162461bcd60e51b815260206004820152601160248201527013585d18da081a5cc8191a5cdc1d5d1959607a1b6044820152606401611289565b6004810154600582015460068301546040805160208101899052908101939093526060830191909152608082015260009060a00160405160208183030381529060405280519060200120905060006113ea856113e484613a3a565b90613a6d565b905060006113fb856113e485613a3a565b84549091506001600160a01b038381169116146114505760405162461bcd60e51b8152602060048201526013602482015272496e76616c6964207369676e6174757265203160681b6044820152606401611289565b60018401546001600160a01b038281169116146114a55760405162461bcd60e51b815260206004820152601360248201527224b73b30b634b21039b4b3b730ba3ab932901960691b6044820152606401611289565b835460048501546114c1916001600160a01b0316906001613a91565b60018085015460058601546114e1926001600160a01b0390921691613a91565b60078401805460ff1916600190811790915584015484546002860154600387015460048801546005890154604080516001600160a01b03958616815293851660208501528301919091526060820152426080820152928116929116907fbe424db0fea33aaeac020945c445e8a830405cc3ae1fe4874efcaa64c76b1fc49060a00160405180910390a3505050506115786001600055565b505050565b60008281526002602052604090206001015461159881613909565b6115788383613913565b60006115ad81613909565b603282101580156115bf575060c88211155b61160b5760405162461bcd60e51b815260206004820152601b60248201527f496e76616c6964206d756c7469706c696572202835302d3230302900000000006044820152606401611289565b50601255565b6001600160a01b03811633146116815760405162461bcd60e51b815260206004820152602f60248201527f416363657373436f6e74726f6c3a2063616e206f6e6c792072656e6f756e636560448201526e103937b632b9903337b91039b2b63360891b6064820152608401611289565b6112528282613b59565b600061169681613909565b61169e613bc0565b50565b6116e56040518060c0016040528060006001600160a01b03168152602001600081526020016000815260200160008152602001600015158152602001600081525090565b506001600160a01b03908116600090815260046020818152604092839020835160c081018552815490951685526001810154918501919091526002810154928401929092526003820154606084015281015460ff16151560808301526005015460a082015290565b6117556139f2565b60135460ff16156117785760405162461bcd60e51b815260040161128990614912565b611780613999565b60015460ff16156117d35760405162461bcd60e51b815260206004820152601f60248201527f436f6d6d69744f726465723a20436f6e747261637420697320706175736564006044820152606401611289565b336118335760405162461bcd60e51b815260206004820152602a60248201527f436f6d6d69744f726465723a2053656e6465722063616e6e6f74206265207a65604482015269726f206164647265737360b01b6064820152608401611289565b8061188f5760405162461bcd60e51b815260206004820152602660248201527f436f6d6d69744f726465723a20436f6d6d69746d656e742063616e6e6f74206260448201526565207a65726f60d01b6064820152608401611289565b6000818152600360205260409020546001600160a01b0316156119035760405162461bcd60e51b815260206004820152602660248201527f436f6d6d69744f726465723a20436f6d6d69746d656e7420616c72656164792060448201526565786973747360d01b6064820152608401611289565b604051806101800160405280336001600160a01b0316815260200160006001600160a01b0316815260200160006001600160a01b0316815260200160008152602001600081526020016007600081548092919061195f9061495f565b909155508152426020808301829052600060408085018290526060808601839052608080870184905260a080880185905260c09788018a9052898552600380875294849020895181546001600160a01b03199081166001600160a01b039283161783558b89015160018401805483169184169190911790558b87015160028401805490921692169190911790559289015194830194909455870151600482015591860151600583015593850151600682015560e0850151600782018054610100808901516101208a01516101408b015161ffff1990941695151561ff001916959095179015159091021763ffff00001916620100009315159390930263ff000000191692909217630100000092151592909202919091179055610160909401516008909401939093559051908152339183917f25cd9c955149e9ee60675521bee70f991884d9c1162e40aed55d62a5bdf4b829910160405180910390a361169e6001600055565b611af86040518060a0016040528060008152602001600081526020016000815260200160008152602001600081525090565b506040805160a081018252600e548152600f546020820152601054918101919091526011546060820152601254608082015290565b6001600160a01b03841660009081526004602081905260409091200154849060ff16611b6b5760405162461bcd60e51b815260040161128990614978565b611b736139f2565b60135460ff1615611b965760405162461bcd60e51b815260040161128990614912565b6001600160a01b038516600090815260046020526040902060028101548411611bf15760405162461bcd60e51b815260206004820152600d60248201526c496e76616c6964206e6f6e636560981b6044820152606401611289565b6040516001600160601b0319606088901b16602082015260348101869052605481018590524260748201526000906094016040516020818303038152906040528051906020012090506000611c49856113e484613a3a565b9050876001600160a01b0316816001600160a01b031614611ca05760405162461bcd60e51b8152602060048201526011602482015270496e76616c6964207369676e617475726560781b6044820152606401611289565b600183018790556002830186905542600384015560408051888152602081018890526001600160a01b038a16917fe2824b01ee9d1c44adf7a5260724348c7d38c7c591a7284df9d309c1b72e148a910160405180910390a25050505050505050565b6000611d0d81613909565b8282603c8210158015611d225750610e108211155b611d6e5760405162461bcd60e51b815260206004820152601960248201527f496e76616c696420636f6d6d69746d656e742077696e646f77000000000000006044820152606401611289565b61012c8110158015611d825750611c208111155b611dc65760405162461bcd60e51b8152602060048201526015602482015274496e76616c69642072657665616c2077696e646f7760581b6044820152606401611289565b808210611e325760405162461bcd60e51b815260206004820152603460248201527f436f6d6d69746d656e742077696e646f77206d7573742062652073686f72746560448201527372207468616e2072657665616c2077696e646f7760601b6064820152608401611289565b600b859055600c84905560408051868152602081018690527f710c8b3bcc669d7c9862e563f43e29e3df52391f837c65b3d891f16023faf0f4910160405180910390a15050505050565b6000611e8781613909565b611252600080516020614cfe83398151915283613913565b60008181526003602052604090205481906001600160a01b0316611ed55760405162461bcd60e51b8152600401611289906149af565b60008181526003602052604090206007015462010000900460ff1615611f0d5760405162461bcd60e51b8152600401611289906149dd565b6000818152600360205260409020600701546301000000900460ff1615611f465760405162461bcd60e51b815260040161128990614a0d565b60008281526003602052604090205482906001600160a01b03163314611fa05760405162461bcd60e51b815260206004820152600f60248201526e2737ba1037b93232b91037bbb732b960891b6044820152606401611289565b611fa86139f2565b60008381526003602052604090206007810154610100900460ff16156120105760405162461bcd60e51b815260206004820152601c60248201527f43616e6e6f742063616e63656c2072657665616c6564206f72646572000000006044820152606401611289565b600b5481600601546120229190614a44565b4211156120715760405162461bcd60e51b815260206004820152601960248201527f436f6d6d69746d656e742077696e646f772065787069726564000000000000006044820152606401611289565b60078101805463ff00000019166301000000179055604051339085907fb2705df32ac67fc3101f496cd7036bf59074a603544d97d73650b6f09744986a906120bc9042815260200190565b60405180910390a350505050565b60008281526003602052604090205482906001600160a01b03166121005760405162461bcd60e51b8152600401611289906149af565b60008181526003602052604090206007015462010000900460ff16156121385760405162461bcd60e51b8152600401611289906149dd565b6000818152600360205260409020600701546301000000900460ff16156121715760405162461bcd60e51b815260040161128990614a0d565b60008281526003602052604090205482906001600160a01b03166121a75760405162461bcd60e51b8152600401611289906149af565b60008181526003602052604090206007015462010000900460ff16156121df5760405162461bcd60e51b8152600401611289906149dd565b6000818152600360205260409020600701546301000000900460ff16156122185760405162461bcd60e51b815260040161128990614a0d565b612230600080516020614d1e8339815191523361287c565b61227c5760405162461bcd60e51b815260206004820152601960248201527f43616c6c6572206973206e6f7420616e206f70657261746f72000000000000006044820152606401611289565b6122846139f2565b60135460ff16156122a75760405162461bcd60e51b815260040161128990614912565b60008481526003602052604080822085835291206007820154610100900460ff1680156122dd57506007810154610100900460ff165b61231f5760405162461bcd60e51b815260206004820152601360248201527213dc99195c9cc81b9bdd081c995d99585b1959606a1b6044820152606401611289565b6007808201549083015460ff918216151591161515036123735760405162461bcd60e51b815260206004820152600f60248201526e53616d65206f72646572207479706560881b6044820152606401611289565b600281015460018301546001600160a01b039081169116146123c85760405162461bcd60e51b815260206004820152600e60248201526d0a8ded6cadc40dad2e6dac2e8c6d60931b6044820152606401611289565b600181015460028301546001600160a01b0390811691161461241d5760405162461bcd60e51b815260206004820152600e60248201526d0a8ded6cadc40dad2e6dac2e8c6d60931b6044820152606401611289565b600782015460009060ff166124325781612434565b825b600784015490915060009060ff1661244c578361244e565b825b90508060030154826004015410156124a15760405162461bcd60e51b8152602060048201526016602482015275496e73756666696369656e74206c697175696469747960501b6044820152606401611289565b600380820154908301546004840154600091906124be9084614a57565b6124c89190614a6e565b905060008a8a600860008154809291906124e19061495f565b90915550604080516020810194909452830191909152606082015260800160408051808303601f1901815282825280516020918201206101208401835288546001600160a01b039081168552885481168386019081526001808b01548316878701908152818d0154841660608901908152608089018b815260a08a018d81524260c08c01908152600060e08d01818152610100808f018381528c845260059d8e90529d9092209d518e546001600160a01b0319908116918c16919091178f559851978e0180548a16988b1698909817909755945160028d0180548916918a16919091179055925160038c01805490971697169690961790945592516004890155925194870194909455516006860155915160079485018054945161ffff1990951691151561ff0019169190911793151590920292909217905588820180546201000062ff0000199182168117909255928901805490931617909155905061264783613c12565b84548454604080516001600160a01b0393841681529290911660208301528101839052606081018490528a908c907fbeace456c306b469a1037ff7cd74fdbb995edec33b45043e4affc57c696d008c906080015b60405180910390a35050505050505050505050565b60006126bb81613909565b61169e613c6c565b336000818152600460208190526040909120015460ff166126f65760405162461bcd60e51b815260040161128990614978565b3360009081526004602052604090206005810154156127665760405162461bcd60e51b815260206004820152602660248201527f456d657267656e6379207769746864726177616c20616c7265616479207265716044820152651d595cdd195960d21b6064820152608401611289565b60008351116127a95760405162461bcd60e51b815260206004820152600f60248201526e1499585cdbdb881c995c5d5a5c9959608a1b6044820152606401611289565b6127b66201518042614a44565b600582015560408051608081018252338082524260208084019182526000848601818152606086018a8152948252600690925294909420835181546001600160a01b0319166001600160a01b0390911617815590516001820155925160028401805460ff19169115159190911790555190919060038201906128389082614ade565b50506040513391507fd84b306c4af9d4777df24b4265638b9e45af2c2997bc3015ab6fa48ef5d06f969061286f9042908790614b9e565b60405180910390a2505050565b60009182526002602090815260408084206001600160a01b0393909316845291905290205460ff1690565b6001600160a01b03831660009081526004602081905260409091200154839060ff166128e55760405162461bcd60e51b815260040161128990614978565b6128ed6139f2565b6128f5613999565b6001600160a01b038416600090815260046020908152604080832090516001600160601b0319606089901b16928101929092526034820186905264434c4f534560d81b60548301524260598301529190607901604051602081830303815290604052805190602001209050600061296f856113e484613a3a565b9050866001600160a01b0316816001600160a01b0316146129c65760405162461bcd60e51b8152602060048201526011602482015270496e76616c6964207369676e617475726560781b6044820152606401611289565b60048301805460ff19169055600183018690556040516001600160a01b0388169087156108fc029088906000818181858888f19350505050158015612a0f573d6000803e3d6000fd5b50866001600160a01b03167f2b1dbe73b302ae6971addaffcf590a88981effc82b2ebaefd034b37f208f609a87604051612a4b91815260200190565b60405180910390a2505050612a606001600055565b50505050565b6000612a7181613909565b60008211612ab55760405162461bcd60e51b8152602060048201526011602482015270125b9d985b1a59081d1a1c995cda1bdb19607a1b6044820152606401611289565b50601155565b6000612ac681613909565b6001600160a01b038216612b0e5760405162461bcd60e51b815260206004820152600f60248201526e496e76616c6964206164647265737360881b6044820152606401611289565b600d80546001600160a01b038481166001600160a01b031983168117909355604080519190921680825260208201939093527f5d16ad41baeb009cd23eb8f6c7cde5c2e0cd5acf4a33926ab488875c37c37f3891015b60405180910390a1505050565b6000612b7c81613909565b818310612bbc5760405162461bcd60e51b815260206004820152600e60248201526d496e76616c6964206c696d69747360901b6044820152606401611289565b6009839055600a82905560408051848152602081018490527f9008c5f12ba9ce7db2a3644b35485cf65bd0a7afe095d7d7f135b6a4b4babc5f9101612b64565b6001600160a01b038116600090815260046020819052604082209081015460ff168015612c2d575060008160050154115b8015612c3d575080600501544210155b9392505050565b6000612c4f81613909565b611252600080516020614cfe83398151915283613b59565b612c7f600080516020614cfe8339815191523361287c565b612ccb5760405162461bcd60e51b815260206004820152601c60248201527f43616c6c6572206973206e6f7420656d657267656e637920726f6c65000000006044820152606401611289565b612cd3613999565b6001600160a01b038116600090815260046020818152604080842060069092529092209082015460ff16612d3e5760405162461bcd60e51b81526020600482015260126024820152714368616e6e656c206e6f742061637469766560701b6044820152606401611289565b80546001600160a01b03848116911614612d915760405162461bcd60e51b8152602060048201526014602482015273139bc8195b595c99d95b98de481c995c5d595cdd60621b6044820152606401611289565b600281015460ff1615612dd95760405162461bcd60e51b815260206004820152601060248201526f105b1c9958591e48195e1958dd5d195960821b6044820152606401611289565b8160050154421015612e245760405162461bcd60e51b8152602060048201526014602482015273151a5b595b1bd8dac81b9bdd08195e1c1a5c995960621b6044820152606401611289565b6000826005015411612e825760405162461bcd60e51b815260206004820152602160248201527f4e6f20656d657267656e6379207769746864726177616c2072657175657374656044820152601960fa1b6064820152608401611289565b600281018054600160ff1991821681179092556004840180549091169055820180546000918290556005840182905560405190916001600160a01b038616916108fc84150291849190818181858888f19350505050158015612ee8573d6000803e3d6000fd5b50604080518281524260208201526001600160a01b038616917fe5cea137e6f2eb6b43eb46d8f9c6eba1eafa59f0b48f8f4c80aefdcfd07e71ba910160405180910390a250505061169e6001600055565b6000612f4481613909565b6103e8821115612f855760405162461bcd60e51b815260206004820152600c60248201526b08ccaca40e8dede40d0d2ced60a31b6044820152606401611289565b600e80549083905560408051828152602081018590527f528d9479e9f9889a87a3c30c7f7ba537e5e59c4c85a37733b16e57c62df613029101612b64565b6000612fce81613909565b611252600080516020614d1e83398151915283613b59565b60066020526000908152604090208054600182015460028301546003840180546001600160a01b0390941694929360ff9092169291613024906148d8565b80601f0160208091040260200160405190810160405280929190818152602001828054613050906148d8565b801561309d5780601f106130725761010080835404028352916020019161309d565b820191906000526020600020905b81548152906001019060200180831161308057829003601f168201915b5050505050905084565b6130bf600080516020614cfe8339815191523361287c565b61310b5760405162461bcd60e51b815260206004820152601c60248201527f43616c6c6572206973206e6f7420656d657267656e637920726f6c65000000006044820152606401611289565b60135460ff161561315e5760405162461bcd60e51b815260206004820152601960248201527f416c726561647920696e20656d657267656e6379206d6f6465000000000000006044820152606401611289565b6013805460ff1916600117905542601455565b60008281526002602052604090206001015461318c81613909565b6115788383613b59565b60006131a181613909565b60405133904780156108fc02916000818181858888f19350505050158015611252573d6000803e3d6000fd5b60008781526003602052604090205487906001600160a01b03166132035760405162461bcd60e51b8152600401611289906149af565b60008181526003602052604090206007015462010000900460ff161561323b5760405162461bcd60e51b8152600401611289906149dd565b6000818152600360205260409020600701546301000000900460ff16156132745760405162461bcd60e51b815260040161128990614a0d565b60008881526003602052604090205488906001600160a01b031633146132ce5760405162461bcd60e51b815260206004820152600f60248201526e2737ba1037b93232b91037bbb732b960891b6044820152606401611289565b6132d66139f2565b60135460ff16156132f95760405162461bcd60e51b815260040161128990614912565b60008981526003602052604090206007810154610100900460ff161561335a5760405162461bcd60e51b815260206004820152601660248201527513dc99195c88185b1c9958591e481c995d99585b195960521b6044820152606401611289565b600c54816006015461336c9190614a44565b4211156133b35760405162461bcd60e51b815260206004820152601560248201527414995d99585b081dda5b991bddc8195e1c1a5c9959605a1b6044820152606401611289565b60008989898989896040516020016133d096959493929190614bb7565b604051602081830303815290604052805190602001209050808b1461342c5760405162461bcd60e51b8152602060048201526012602482015271125b9d985b1a590818dbdb5b5a5d1b595b9d60721b6044820152606401611289565b6009548810156134715760405162461bcd60e51b815260206004820152601060248201526f105b5bdd5b9d081d1bdbc81cdb585b1b60821b6044820152606401611289565b600a548811156134b65760405162461bcd60e51b815260206004820152601060248201526f416d6f756e7420746f6f206c6172676560801b6044820152606401611289565b886001600160a01b03168a6001600160a01b0316036135045760405162461bcd60e51b815260206004820152600a60248201526929b0b6b2903a37b5b2b760b11b6044820152606401611289565b6001600160a01b038a161580159061352457506001600160a01b03891615155b6135705760405162461bcd60e51b815260206004820152601760248201527f496e76616c696420746f6b656e206164647265737365730000000000000000006044820152606401611289565b6001820180546001600160a01b038c81166001600160a01b03199283168117909355600285018054918d16919092168117909155600384018a90556004840189905560078401805461ff00198a151590811661ffff1990921691909117610100179091556040805193845260208401929092529082018a905260608201899052608082015233908c907fca14ae26824c404dd0a0351de7f8da4e8ef06e80e469fc594879c2b97a397c0b9060a00161269b565b600061362e81613909565b60135460ff166136785760405162461bcd60e51b81526020600482015260156024820152744e6f7420696e20656d657267656e6379206d6f646560581b6044820152606401611289565b506013805460ff191690556000601455565b6136926139f2565b60135460ff16156136b55760405162461bcd60e51b815260040161128990614912565b6136bd613999565b6001600160a01b0382166137045760405162461bcd60e51b815260206004820152600e60248201526d24b73b30b634b2103a3930b232b960911b6044820152606401611289565b600081116137465760405162461bcd60e51b815260206004820152600f60248201526e496e76616c69642062616c616e636560881b6044820152606401611289565b8034101561378d5760405162461bcd60e51b8152602060048201526014602482015273125b9cdd59999a58da595b9d0819195c1bdcda5d60621b6044820152606401611289565b6001600160a01b0382166000908152600460208190526040909120015460ff16156137f35760405162461bcd60e51b81526020600482015260166024820152754368616e6e656c20616c72656164792061637469766560501b6044820152606401611289565b6040805160c0810182526001600160a01b0384811680835260208084018681526000858701818152426060880190815260016080890181815260a08a0185815288865260048089528c87209b518c546001600160a01b0319169b169a909a178b559551918a01919091559151600289015551600388015551948601805460ff19169515159590951790945551600590940193909355835185815292830191909152917f831fd65d60e4dd10379f73c1b4f67910310ea704b461be472a88c35127388b5a910160405180910390a26112526001600055565b60008686868686866040516020016138e796959493929190614bb7565b6040516020818303038152906040528051906020012090509695505050505050565b61169e8133613ca7565b61391d828261287c565b6112525760008281526002602090815260408083206001600160a01b03851684529091529020805460ff191660011790556139553390565b6001600160a01b0316816001600160a01b0316837f2f8788117e7eff1d82e926ec794901d17c78024a50270940304540a733656f0d60405160405180910390a45050565b6002600054036139eb5760405162461bcd60e51b815260206004820152601f60248201527f5265656e7472616e637947756172643a207265656e7472616e742063616c6c006044820152606401611289565b6002600055565b60015460ff1615613a385760405162461bcd60e51b815260206004820152601060248201526f14185d5cd8589b194e881c185d5cd95960821b6044820152606401611289565b565b7f19457468657265756d205369676e6564204d6573736167653a0a3332000000006000908152601c91909152603c902090565b6000806000613a7c8585613d00565b91509150613a8981613d45565b509392505050565b6001600160a01b03831660009081526004602052604090208115613ace5782816001016000828254613ac39190614a44565b90915550613b339050565b8281600101541015613b195760405162461bcd60e51b8152602060048201526014602482015273496e73756666696369656e742062616c616e636560601b6044820152606401611289565b82816001016000828254613b2d9190614bf7565b90915550505b6001816002016000828254613b489190614a44565b909155505042600390910155505050565b613b63828261287c565b156112525760008281526002602090815260408083206001600160a01b0385168085529252808320805460ff1916905551339285917ff6391f5c32d9c69d2a47ea670b442974b53935d1edc7fd64eb21e047a839171b9190a45050565b613bc8613e8f565b6001805460ff191690557f5db9ee0a495bf2e6ff9c91a7834c1ba4fdd244a5e8aa4e537bd38aeae4b073aa335b6040516001600160a01b03909116815260200160405180910390a1565b601654613c229062015180614a44565b4210613c32576000601555426016555b8060156000828254613c449190614a44565b92505081905550600160176000828254613c5e9190614a44565b9091555061169e9050613ed8565b613c746139f2565b6001805460ff1916811790557f62e78cea01bee320cd4e420270b5ea74000d11b0c9f74754ebdbfc544b05a25833613bf5565b613cb1828261287c565b61125257613cbe8161407c565b613cc983602061408e565b604051602001613cda929190614c0a565b60408051601f198184030181529082905262461bcd60e51b825261128991600401614c7f565b6000808251604103613d365760208301516040840151606085015160001a613d2a8782858561422a565b94509450505050613d3e565b506000905060025b9250929050565b6000816004811115613d5957613d59614c92565b03613d615750565b6001816004811115613d7557613d75614c92565b03613dc25760405162461bcd60e51b815260206004820152601860248201527f45434453413a20696e76616c6964207369676e617475726500000000000000006044820152606401611289565b6002816004811115613dd657613dd6614c92565b03613e235760405162461bcd60e51b815260206004820152601f60248201527f45434453413a20696e76616c6964207369676e6174757265206c656e677468006044820152606401611289565b6003816004811115613e3757613e37614c92565b0361169e5760405162461bcd60e51b815260206004820152602260248201527f45434453413a20696e76616c6964207369676e6174757265202773272076616c604482015261756560f01b6064820152608401611289565b60015460ff16613a385760405162461bcd60e51b815260206004820152601460248201527314185d5cd8589b194e881b9bdd081c185d5cd95960621b6044820152606401611289565b601054613ee890610e1090614a44565b421015613ef157565b600f54600e54604080518082019091526008815267426173652066656560c01b60208201526011546015541115613f6f57600e54606490613f33906050614a57565b613f3d9190614a6e565b915060405180604001604052806014815260200173121a59da081d9bdb1d5b5948191a5cd8dbdd5b9d60621b81525090505b640ba43b74003a1115613fc657601254606490613f8c9084614a57565b613f969190614a6e565b9150604051806040016040528060128152602001712732ba3bb7b9359031b7b733b2b9ba34b7b760711b81525090505b600182101561400157505060408051808201909152601181527026b4b734b6bab6903332b290333637b7b960791b6020820152600190614038565b6101f482111561403857505060408051808201909152600f81526e04d6178696d756d206665652063617608c1b60208201526101f4905b82821461157857600f829055426010556040517ff8fbcc3dd9b2b1c3752603a58e3edba9c7bf77031665caf72ee8735af719b8a990612b6490859085908590614ca8565b606061111f6001600160a01b03831660145b6060600061409d836002614a57565b6140a8906002614a44565b67ffffffffffffffff8111156140c0576140c0614403565b6040519080825280601f01601f1916602001820160405280156140ea576020820181803683370190505b509050600360fc1b8160008151811061410557614105614cd0565b60200101906001600160f81b031916908160001a905350600f60fb1b8160018151811061413457614134614cd0565b60200101906001600160f81b031916908160001a9053506000614158846002614a57565b614163906001614a44565b90505b60018111156141db576f181899199a1a9b1b9c1cb0b131b232b360811b85600f166010811061419757614197614cd0565b1a60f81b8282815181106141ad576141ad614cd0565b60200101906001600160f81b031916908160001a90535060049490941c936141d481614ce6565b9050614166565b508315612c3d5760405162461bcd60e51b815260206004820181905260248201527f537472696e67733a20686578206c656e67746820696e73756666696369656e746044820152606401611289565b6000807f7fffffffffffffffffffffffffffffff5d576e7357a4501ddfe92f46681b20a083111561426157506000905060036142e5565b6040805160008082526020820180845289905260ff881692820192909252606081018690526080810185905260019060a0016020604051602081039080840390855afa1580156142b5573d6000803e3d6000fd5b5050604051601f1901519150506001600160a01b0381166142de576000600192509250506142e5565b9150600090505b94509492505050565b60006020828403121561430057600080fd5b81356001600160e01b031981168114612c3d57600080fd5b80356001600160a01b038116811461432f57600080fd5b919050565b60006020828403121561434657600080fd5b612c3d82614318565b60005b8381101561436a578181015183820152602001614352565b50506000910152565b6000815180845261438b81602086016020860161434f565b601f01601f19169290920160200192915050565b6020815260018060a01b03825116602082015260208201516040820152604082015115156060820152600060608301516080808401526143e260a0840182614373565b949350505050565b6000602082840312156143fc57600080fd5b5035919050565b634e487b7160e01b600052604160045260246000fd5b600067ffffffffffffffff8084111561443457614434614403565b604051601f8501601f19908116603f0116810190828211818310171561445c5761445c614403565b8160405280935085815286868601111561447557600080fd5b858560208301376000602087830101525050509392505050565b600082601f8301126144a057600080fd5b612c3d83833560208501614419565b6000806000606084860312156144c457600080fd5b83359250602084013567ffffffffffffffff808211156144e357600080fd5b6144ef8783880161448f565b9350604086013591508082111561450557600080fd5b506145128682870161448f565b9150509250925092565b6000806040838503121561452f57600080fd5b8235915061453f60208401614318565b90509250929050565b81516001600160a01b031681526101808101602083015161457460208401826001600160a01b03169052565b50604083015161458f60408401826001600160a01b03169052565b50606083015160608301526080830151608083015260a083015160a083015260c083015160c083015260e08301516145cb60e084018215159052565b5061010083810151151590830152610120808401511515908301526101408084015115159083015261016092830151929091019190915290565b6000806000806080858703121561461b57600080fd5b61462485614318565b93506020850135925060408501359150606085013567ffffffffffffffff81111561464e57600080fd5b61465a8782880161448f565b91505092959194509250565b6000806040838503121561467957600080fd5b50508035926020909101359150565b60006020828403121561469a57600080fd5b813567ffffffffffffffff8111156146b157600080fd5b8201601f810184136146c257600080fd5b6143e284823560208401614419565b6000806000606084860312156146e657600080fd5b6146ef84614318565b925060208401359150604084013567ffffffffffffffff81111561471257600080fd5b6145128682870161448f565b60018060a01b0385168152836020820152821515604082015260806060820152600061474d6080830184614373565b9695505050505050565b8035801515811461432f57600080fd5b600080600080600080600060e0888a03121561478257600080fd5b8735965061479260208901614318565b95506147a060408901614318565b945060608801359350608088013592506147bc60a08901614757565b915060c0880135905092959891949750929550565b600080604083850312156147e457600080fd5b6147ed83614318565b946020939093013593505050565b81516001600160a01b03908116825260208084015182169083015260408084015182169083015260608084015191821690830152610120820190506080830151608083015260a083015160a083015260c083015160c083015260e083015161486760e084018215159052565b50610100928301511515919092015290565b60008060008060008060c0878903121561489257600080fd5b61489b87614318565b95506148a960208801614318565b945060408701359350606087013592506148c560808801614757565b915060a087013590509295509295509295565b600181811c908216806148ec57607f821691505b60208210810361490c57634e487b7160e01b600052602260045260246000fd5b50919050565b6020808252601a908201527f436f6e747261637420696e20656d657267656e6379206d6f6465000000000000604082015260600190565b634e487b7160e01b600052601160045260246000fd5b60006001820161497157614971614949565b5060010190565b60208082526018908201527f5374617465206368616e6e656c206e6f74206163746976650000000000000000604082015260600190565b60208082526014908201527313dc99195c88191bd95cc81b9bdd08195e1a5cdd60621b604082015260600190565b60208082526016908201527513dc99195c88185b1c9958591e48195e1958dd5d195960521b604082015260600190565b60208082526017908201527f4f7264657220616c72656164792063616e63656c6c6564000000000000000000604082015260600190565b8082018082111561111f5761111f614949565b808202811582820484141761111f5761111f614949565b600082614a8b57634e487b7160e01b600052601260045260246000fd5b500490565b601f82111561157857600081815260208120601f850160051c81016020861015614ab75750805b601f850160051c820191505b81811015614ad657828155600101614ac3565b505050505050565b815167ffffffffffffffff811115614af857614af8614403565b614b0c81614b0684546148d8565b84614a90565b602080601f831160018114614b415760008415614b295750858301515b600019600386901b1c1916600185901b178555614ad6565b600085815260208120601f198616915b82811015614b7057888601518255948401946001909101908401614b51565b5085821015614b8e5787850151600019600388901b60f8161c191681555b5050505050600190811b01905550565b8281526040602082015260006143e26040830184614373565b6001600160601b0319606097881b811682529590961b909416601486015260288501929092526048840152151560f81b6068830152606982015260890190565b8181038181111561111f5761111f614949565b7f416363657373436f6e74726f6c3a206163636f756e7420000000000000000000815260008351614c4281601785016020880161434f565b7001034b99036b4b9b9b4b733903937b6329607d1b6017918401918201528351614c7381602884016020880161434f565b01602801949350505050565b602081526000612c3d6020830184614373565b634e487b7160e01b600052602160045260246000fd5b838152826020820152606060408201526000614cc76060830184614373565b95945050505050565b634e487b7160e01b600052603260045260246000fd5b600081614cf557614cf5614949565b50600019019056febf233dd2aafeb4d50879c4aa5c81e96d92f6e6945c906a58f9f2d1c1631b4b2697667070c54ef182b0f5858b034beac1b6f3089aa2d3188bb1e8929f4fa9b929a2646970667358221220fb6a8db6d066fd93e63a960fd1b82e07d8e07244d8e06c019ba3981b31db0c3664736f6c63430008130033",
  "linkReferences": {},
  "deployedLinkReferences": {}
}