{
  "_format": "hh-sol-artifact-1",
  "contractName": "DarkPoolDEX",
  "sourceName": "contracts/DarkPoolDEX.sol",
  "abi": [
    {
      "inputs": [
        {
          "internalType": "uint256",
          "name": "_minOrderSize",
          "type": "uint256"
        },
        {
          "internalType": "uint256",
          "name": "_maxOrderSize",
          "type": "uint256"
        },
        {
          "internalType": "uint256",
          "name": "_commitmentWindow",
          "type": "uint256"
        },
        {
          "internalType": "uint256",
          "name": "_revealWindow",
          "type": "uint256"
        },
        {
          "internalType": "uint256",
          "name": "_tradingFee",
          "type": "uint256"
        }
      ],
      "stateMutability": "nonpayable",
      "type": "constructor"
    },
    {
      "anonymous": false,
      "inputs": [
        {
          "indexed": true,
          "internalType": "address",
          "name": "trader",
          "type": "address"
        },
        {
          "indexed": false,
          "internalType": "uint256",
          "name": "amount",
          "type": "uint256"
        },
        {
          "indexed": false,
          "internalType": "uint256",
          "name": "timestamp",
          "type": "uint256"
        }
      ],
      "name": "EmergencyWithdrawExecuted",
      "type": "event"
    },
    {
      "anonymous": false,
      "inputs": [
        {
          "indexed": true,
          "internalType": "address",
          "name": "trader",
          "type": "address"
        },
        {
          "indexed": false,
          "internalType": "uint256",
          "name": "requestTime",
          "type": "uint256"
        },
        {
          "indexed": false,
          "internalType": "string",
          "name": "reason",
          "type": "string"
        }
      ],
      "name": "EmergencyWithdrawRequested",
      "type": "event"
    },
    {
      "anonymous": false,
      "inputs": [
        {
          "indexed": false,
          "internalType": "address",
          "name": "oldCollector",
          "type": "address"
        },
        {
          "indexed": false,
          "internalType": "address",
          "name": "newCollector",
          "type": "address"
        }
      ],
      "name": "FeeCollectorUpdated",
      "type": "event"
    },
    {
      "anonymous": false,
      "inputs": [
        {
          "indexed": false,
          "internalType": "uint256",
          "name": "oldFee",
          "type": "uint256"
        },
        {
          "indexed": false,
          "internalType": "uint256",
          "name": "newFee",
          "type": "uint256"
        }
      ],
      "name": "FeeUpdated",
      "type": "event"
    },
    {
      "anonymous": false,
      "inputs": [
        {
          "indexed": true,
          "internalType": "bytes32",
          "name": "commitment",
          "type": "bytes32"
        },
        {
          "indexed": true,
          "internalType": "address",
          "name": "trader",
          "type": "address"
        },
        {
          "indexed": false,
          "internalType": "uint256",
          "name": "timestamp",
          "type": "uint256"
        }
      ],
      "name": "OrderCancelled",
      "type": "event"
    },
    {
      "anonymous": false,
      "inputs": [
        {
          "indexed": true,
          "internalType": "bytes32",
          "name": "commitment",
          "type": "bytes32"
        },
        {
          "indexed": true,
          "internalType": "address",
          "name": "trader",
          "type": "address"
        },
        {
          "indexed": false,
          "internalType": "uint256",
          "name": "timestamp",
          "type": "uint256"
        }
      ],
      "name": "OrderCommitted",
      "type": "event"
    },
    {
      "anonymous": false,
      "inputs": [
        {
          "indexed": false,
          "internalType": "uint256",
          "name": "minSize",
          "type": "uint256"
        },
        {
          "indexed": false,
          "internalType": "uint256",
          "name": "maxSize",
          "type": "uint256"
        }
      ],
      "name": "OrderLimitsUpdated",
      "type": "event"
    },
    {
      "anonymous": false,
      "inputs": [
        {
          "indexed": true,
          "internalType": "bytes32",
          "name": "commitment1",
          "type": "bytes32"
        },
        {
          "indexed": true,
          "internalType": "bytes32",
          "name": "commitment2",
          "type": "bytes32"
        },
        {
          "indexed": false,
          "internalType": "address",
          "name": "trader1",
          "type": "address"
        },
        {
          "indexed": false,
          "internalType": "address",
          "name": "trader2",
          "type": "address"
        },
        {
          "indexed": false,
          "internalType": "uint256",
          "name": "amount1",
          "type": "uint256"
        },
        {
          "indexed": false,
          "internalType": "uint256",
          "name": "amount2",
          "type": "uint256"
        }
      ],
      "name": "OrderMatched",
      "type": "event"
    },
    {
      "anonymous": false,
      "inputs": [
        {
          "indexed": true,
          "internalType": "bytes32",
          "name": "commitment",
          "type": "bytes32"
        },
        {
          "indexed": true,
          "internalType": "address",
          "name": "trader",
          "type": "address"
        },
        {
          "indexed": false,
          "internalType": "address",
          "name": "tokenIn",
          "type": "address"
        },
        {
          "indexed": false,
          "internalType": "address",
          "name": "tokenOut",
          "type": "address"
        },
        {
          "indexed": false,
          "internalType": "uint256",
          "name": "amountIn",
          "type": "uint256"
        },
        {
          "indexed": false,
          "internalType": "uint256",
          "name": "amountOut",
          "type": "uint256"
        },
        {
          "indexed": false,
          "internalType": "bool",
          "name": "isBuy",
          "type": "bool"
        }
      ],
      "name": "OrderRevealed",
      "type": "event"
    },
    {
      "anonymous": false,
      "inputs": [
        {
          "indexed": false,
          "internalType": "address",
          "name": "account",
          "type": "address"
        }
      ],
      "name": "Paused",
      "type": "event"
    },
    {
      "anonymous": false,
      "inputs": [
        {
          "indexed": true,
          "internalType": "bytes32",
          "name": "role",
          "type": "bytes32"
        },
        {
          "indexed": true,
          "internalType": "bytes32",
          "name": "previousAdminRole",
          "type": "bytes32"
        },
        {
          "indexed": true,
          "internalType": "bytes32",
          "name": "newAdminRole",
          "type": "bytes32"
        }
      ],
      "name": "RoleAdminChanged",
      "type": "event"
    },
    {
      "anonymous": false,
      "inputs": [
        {
          "indexed": true,
          "internalType": "bytes32",
          "name": "role",
          "type": "bytes32"
        },
        {
          "indexed": true,
          "internalType": "address",
          "name": "account",
          "type": "address"
        },
        {
          "indexed": true,
          "internalType": "address",
          "name": "sender",
          "type": "address"
        }
      ],
      "name": "RoleGranted",
      "type": "event"
    },
    {
      "anonymous": false,
      "inputs": [
        {
          "indexed": true,
          "internalType": "bytes32",
          "name": "role",
          "type": "bytes32"
        },
        {
          "indexed": true,
          "internalType": "address",
          "name": "account",
          "type": "address"
        },
        {
          "indexed": true,
          "internalType": "address",
          "name": "sender",
          "type": "address"
        }
      ],
      "name": "RoleRevoked",
      "type": "event"
    },
    {
      "anonymous": false,
      "inputs": [
        {
          "indexed": true,
          "internalType": "address",
          "name": "trader",
          "type": "address"
        },
        {
          "indexed": false,
          "internalType": "uint256",
          "name": "finalBalance",
          "type": "uint256"
        }
      ],
      "name": "StateChannelClosed",
      "type": "event"
    },
    {
      "anonymous": false,
      "inputs": [
        {
          "indexed": true,
          "internalType": "address",
          "name": "trader",
          "type": "address"
        },
        {
          "indexed": false,
          "internalType": "uint256",
          "name": "balance",
          "type": "uint256"
        },
        {
          "indexed": false,
          "internalType": "uint256",
          "name": "nonce",
          "type": "uint256"
        }
      ],
      "name": "StateChannelOpened",
      "type": "event"
    },
    {
      "anonymous": false,
      "inputs": [
        {
          "indexed": true,
          "internalType": "address",
          "name": "trader",
          "type": "address"
        },
        {
          "indexed": false,
          "internalType": "uint256",
          "name": "newBalance",
          "type": "uint256"
        },
        {
          "indexed": false,
          "internalType": "uint256",
          "name": "newNonce",
          "type": "uint256"
        }
      ],
      "name": "StateChannelUpdated",
      "type": "event"
    },
    {
      "anonymous": false,
      "inputs": [
        {
          "indexed": true,
          "internalType": "address",
          "name": "trader1",
          "type": "address"
        },
        {
          "indexed": true,
          "internalType": "address",
          "name": "trader2",
          "type": "address"
        },
        {
          "indexed": false,
          "internalType": "address",
          "name": "tokenIn",
          "type": "address"
        },
        {
          "indexed": false,
          "internalType": "address",
          "name": "tokenOut",
          "type": "address"
        },
        {
          "indexed": false,
          "internalType": "uint256",
          "name": "amount1",
          "type": "uint256"
        },
        {
          "indexed": false,
          "internalType": "uint256",
          "name": "amount2",
          "type": "uint256"
        },
        {
          "indexed": false,
          "internalType": "uint256",
          "name": "timestamp",
          "type": "uint256"
        }
      ],
      "name": "TradeExecuted",
      "type": "event"
    },
    {
      "anonymous": false,
      "inputs": [
        {
          "indexed": false,
          "internalType": "address",
          "name": "account",
          "type": "address"
        }
      ],
      "name": "Unpaused",
      "type": "event"
    },
    {
      "anonymous": false,
      "inputs": [
        {
          "indexed": false,
          "internalType": "uint256",
          "name": "commitmentWindow",
          "type": "uint256"
        },
        {
          "indexed": false,
          "internalType": "uint256",
          "name": "revealWindow",
          "type": "uint256"
        }
      ],
      "name": "WindowsUpdated",
      "type": "event"
    },
    {
      "inputs": [],
      "name": "DEFAULT_ADMIN_ROLE",
      "outputs": [
        {
          "internalType": "bytes32",
          "name": "",
          "type": "bytes32"
        }
      ],
      "stateMutability": "view",
      "type": "function"
    },
    {
      "inputs": [],
      "name": "EMERGENCY_ROLE",
      "outputs": [
        {
          "internalType": "bytes32",
          "name": "",
          "type": "bytes32"
        }
      ],
      "stateMutability": "view",
      "type": "function"
    },
    {
      "inputs": [],
      "name": "EMERGENCY_TIMELOCK",
      "outputs": [
        {
          "internalType": "uint256",
          "name": "",
          "type": "uint256"
        }
      ],
      "stateMutability": "view",
      "type": "function"
    },
    {
      "inputs": [],
      "name": "MAX_COMMITMENT_WINDOW",
      "outputs": [
        {
          "internalType": "uint256",
          "name": "",
          "type": "uint256"
        }
      ],
      "stateMutability": "view",
      "type": "function"
    },
    {
      "inputs": [],
      "name": "MAX_FEE_BPS",
      "outputs": [
        {
          "internalType": "uint256",
          "name": "",
          "type": "uint256"
        }
      ],
      "stateMutability": "view",
      "type": "function"
    },
    {
      "inputs": [],
      "name": "MAX_REVEAL_WINDOW",
      "outputs": [
        {
          "internalType": "uint256",
          "name": "",
          "type": "uint256"
        }
      ],
      "stateMutability": "view",
      "type": "function"
    },
    {
      "inputs": [],
      "name": "MIN_COMMITMENT_WINDOW",
      "outputs": [
        {
          "internalType": "uint256",
          "name": "",
          "type": "uint256"
        }
      ],
      "stateMutability": "view",
      "type": "function"
    },
    {
      "inputs": [],
      "name": "MIN_REVEAL_WINDOW",
      "outputs": [
        {
          "internalType": "uint256",
          "name": "",
          "type": "uint256"
        }
      ],
      "stateMutability": "view",
      "type": "function"
    },
    {
      "inputs": [],
      "name": "OPERATOR_ROLE",
      "outputs": [
        {
          "internalType": "bytes32",
          "name": "",
          "type": "bytes32"
        }
      ],
      "stateMutability": "view",
      "type": "function"
    },
    {
      "inputs": [
        {
          "internalType": "address",
          "name": "tokenIn",
          "type": "address"
        },
        {
          "internalType": "address",
          "name": "tokenOut",
          "type": "address"
        },
        {
          "internalType": "uint256",
          "name": "amountIn",
          "type": "uint256"
        },
        {
          "internalType": "uint256",
          "name": "amountOut",
          "type": "uint256"
        },
        {
          "internalType": "bool",
          "name": "isBuy",
          "type": "bool"
        },
        {
          "internalType": "uint256",
          "name": "secretNonce",
          "type": "uint256"
        }
      ],
      "name": "calculateCommitment",
      "outputs": [
        {
          "internalType": "bytes32",
          "name": "",
          "type": "bytes32"
        }
      ],
      "stateMutability": "pure",
      "type": "function"
    },
    {
      "inputs": [
        {
          "internalType": "address",
          "name": "trader",
          "type": "address"
        }
      ],
      "name": "canEmergencyWithdraw",
      "outputs": [
        {
          "internalType": "bool",
          "name": "",
          "type": "bool"
        }
      ],
      "stateMutability": "view",
      "type": "function"
    },
    {
      "inputs": [
        {
          "internalType": "bytes32",
          "name": "commitment",
          "type": "bytes32"
        }
      ],
      "name": "cancelOrder",
      "outputs": [],
      "stateMutability": "nonpayable",
      "type": "function"
    },
    {
      "inputs": [
        {
          "internalType": "address",
          "name": "trader",
          "type": "address"
        },
        {
          "internalType": "uint256",
          "name": "finalBalance",
          "type": "uint256"
        },
        {
          "internalType": "bytes",
          "name": "signature",
          "type": "bytes"
        }
      ],
      "name": "closeStateChannel",
      "outputs": [],
      "stateMutability": "nonpayable",
      "type": "function"
    },
    {
      "inputs": [
        {
          "internalType": "bytes32",
          "name": "commitment",
          "type": "bytes32"
        }
      ],
      "name": "commitOrder",
      "outputs": [],
      "stateMutability": "nonpayable",
      "type": "function"
    },
    {
      "inputs": [],
      "name": "commitmentWindow",
      "outputs": [
        {
          "internalType": "uint256",
          "name": "",
          "type": "uint256"
        }
      ],
      "stateMutability": "view",
      "type": "function"
    },
    {
      "inputs": [],
      "name": "disableEmergencyMode",
      "outputs": [],
      "stateMutability": "nonpayable",
      "type": "function"
    },
    {
      "inputs": [],
      "name": "emergencyMode",
      "outputs": [
        {
          "internalType": "bool",
          "name": "",
          "type": "bool"
        }
      ],
      "stateMutability": "view",
      "type": "function"
    },
    {
      "inputs": [],
      "name": "emergencyModeTime",
      "outputs": [
        {
          "internalType": "uint256",
          "name": "",
          "type": "uint256"
        }
      ],
      "stateMutability": "view",
      "type": "function"
    },
    {
      "inputs": [
        {
          "internalType": "address",
          "name": "",
          "type": "address"
        }
      ],
      "name": "emergencyRequests",
      "outputs": [
        {
          "internalType": "address",
          "name": "requester",
          "type": "address"
        },
        {
          "internalType": "uint256",
          "name": "requestTime",
          "type": "uint256"
        },
        {
          "internalType": "bool",
          "name": "isExecuted",
          "type": "bool"
        },
        {
          "internalType": "string",
          "name": "reason",
          "type": "string"
        }
      ],
      "stateMutability": "view",
      "type": "function"
    },
    {
      "inputs": [],
      "name": "emergencyWithdraw",
      "outputs": [],
      "stateMutability": "nonpayable",
      "type": "function"
    },
    {
      "inputs": [],
      "name": "enableEmergencyMode",
      "outputs": [],
      "stateMutability": "nonpayable",
      "type": "function"
    },
    {
      "inputs": [
        {
          "internalType": "address",
          "name": "trader",
          "type": "address"
        }
      ],
      "name": "executeEmergencyWithdraw",
      "outputs": [],
      "stateMutability": "nonpayable",
      "type": "function"
    },
    {
      "inputs": [],
      "name": "feeCollector",
      "outputs": [
        {
          "internalType": "address",
          "name": "",
          "type": "address"
        }
      ],
      "stateMutability": "view",
      "type": "function"
    },
    {
      "inputs": [
        {
          "internalType": "address",
          "name": "trader",
          "type": "address"
        }
      ],
      "name": "getEmergencyRequest",
      "outputs": [
        {
          "components": [
            {
              "internalType": "address",
              "name": "requester",
              "type": "address"
            },
            {
              "internalType": "uint256",
              "name": "requestTime",
              "type": "uint256"
            },
            {
              "internalType": "bool",
              "name": "isExecuted",
              "type": "bool"
            },
            {
              "internalType": "string",
              "name": "reason",
              "type": "string"
            }
          ],
          "internalType": "struct DarkPoolDEX.EmergencyRequest",
          "name": "",
          "type": "tuple"
        }
      ],
      "stateMutability": "view",
      "type": "function"
    },
    {
      "inputs": [
        {
          "internalType": "bytes32",
          "name": "matchId",
          "type": "bytes32"
        }
      ],
      "name": "getMatch",
      "outputs": [
        {
          "components": [
            {
              "internalType": "address",
              "name": "trader1",
              "type": "address"
            },
            {
              "internalType": "address",
              "name": "trader2",
              "type": "address"
            },
            {
              "internalType": "address",
              "name": "tokenIn",
              "type": "address"
            },
            {
              "internalType": "address",
              "name": "tokenOut",
              "type": "address"
            },
            {
              "internalType": "uint256",
              "name": "amount1",
              "type": "uint256"
            },
            {
              "internalType": "uint256",
              "name": "amount2",
              "type": "uint256"
            },
            {
              "internalType": "uint256",
              "name": "timestamp",
              "type": "uint256"
            },
            {
              "internalType": "bool",
              "name": "isSettled",
              "type": "bool"
            },
            {
              "internalType": "bool",
              "name": "isDisputed",
              "type": "bool"
            }
          ],
          "internalType": "struct DarkPoolDEX.Match",
          "name": "",
          "type": "tuple"
        }
      ],
      "stateMutability": "view",
      "type": "function"
    },
    {
      "inputs": [
        {
          "internalType": "bytes32",
          "name": "commitment",
          "type": "bytes32"
        }
      ],
      "name": "getOrder",
      "outputs": [
        {
          "components": [
            {
              "internalType": "address",
              "name": "trader",
              "type": "address"
            },
            {
              "internalType": "address",
              "name": "tokenIn",
              "type": "address"
            },
            {
              "internalType": "address",
              "name": "tokenOut",
              "type": "address"
            },
            {
              "internalType": "uint256",
              "name": "amountIn",
              "type": "uint256"
            },
            {
              "internalType": "uint256",
              "name": "amountOut",
              "type": "uint256"
            },
            {
              "internalType": "uint256",
              "name": "nonce",
              "type": "uint256"
            },
            {
              "internalType": "uint256",
              "name": "timestamp",
              "type": "uint256"
            },
            {
              "internalType": "bool",
              "name": "isBuy",
              "type": "bool"
            },
            {
              "internalType": "bool",
              "name": "isRevealed",
              "type": "bool"
            },
            {
              "internalType": "bool",
              "name": "isExecuted",
              "type": "bool"
            },
            {
              "internalType": "bool",
              "name": "isCancelled",
              "type": "bool"
            },
            {
              "internalType": "bytes32",
              "name": "commitment",
              "type": "bytes32"
            }
          ],
          "internalType": "struct DarkPoolDEX.Order",
          "name": "",
          "type": "tuple"
        }
      ],
      "stateMutability": "view",
      "type": "function"
    },
    {
      "inputs": [
        {
          "internalType": "bytes32",
          "name": "role",
          "type": "bytes32"
        }
      ],
      "name": "getRoleAdmin",
      "outputs": [
        {
          "internalType": "bytes32",
          "name": "",
          "type": "bytes32"
        }
      ],
      "stateMutability": "view",
      "type": "function"
    },
    {
      "inputs": [
        {
          "internalType": "address",
          "name": "trader",
          "type": "address"
        }
      ],
      "name": "getStateChannel",
      "outputs": [
        {
          "components": [
            {
              "internalType": "address",
              "name": "trader",
              "type": "address"
            },
            {
              "internalType": "uint256",
              "name": "balance",
              "type": "uint256"
            },
            {
              "internalType": "uint256",
              "name": "nonce",
              "type": "uint256"
            },
            {
              "internalType": "uint256",
              "name": "lastUpdate",
              "type": "uint256"
            },
            {
              "internalType": "bool",
              "name": "isActive",
              "type": "bool"
            },
            {
              "internalType": "uint256",
              "name": "emergencyWithdrawTime",
              "type": "uint256"
            }
          ],
          "internalType": "struct DarkPoolDEX.StateChannel",
          "name": "",
          "type": "tuple"
        }
      ],
      "stateMutability": "view",
      "type": "function"
    },
    {
      "inputs": [
        {
          "internalType": "address",
          "name": "emergency",
          "type": "address"
        }
      ],
      "name": "grantEmergencyRole",
      "outputs": [],
      "stateMutability": "nonpayable",
      "type": "function"
    },
    {
      "inputs": [
        {
          "internalType": "address",
          "name": "operator",
          "type": "address"
        }
      ],
      "name": "grantOperatorRole",
      "outputs": [],
      "stateMutability": "nonpayable",
      "type": "function"
    },
    {
      "inputs": [
        {
          "internalType": "bytes32",
          "name": "role",
          "type": "bytes32"
        },
        {
          "internalType": "address",
          "name": "account",
          "type": "address"
        }
      ],
      "name": "grantRole",
      "outputs": [],
      "stateMutability": "nonpayable",
      "type": "function"
    },
    {
      "inputs": [
        {
          "internalType": "bytes32",
          "name": "role",
          "type": "bytes32"
        },
        {
          "internalType": "address",
          "name": "account",
          "type": "address"
        }
      ],
      "name": "hasRole",
      "outputs": [
        {
          "internalType": "bool",
          "name": "",
          "type": "bool"
        }
      ],
      "stateMutability": "view",
      "type": "function"
    },
    {
      "inputs": [],
      "name": "matchNonce",
      "outputs": [
        {
          "internalType": "uint256",
          "name": "",
          "type": "uint256"
        }
      ],
      "stateMutability": "view",
      "type": "function"
    },
    {
      "inputs": [
        {
          "internalType": "bytes32",
          "name": "commitment1",
          "type": "bytes32"
        },
        {
          "internalType": "bytes32",
          "name": "commitment2",
          "type": "bytes32"
        }
      ],
      "name": "matchOrders",
      "outputs": [],
      "stateMutability": "nonpayable",
      "type": "function"
    },
    {
      "inputs": [
        {
          "internalType": "bytes32",
          "name": "",
          "type": "bytes32"
        }
      ],
      "name": "matches",
      "outputs": [
        {
          "internalType": "address",
          "name": "trader1",
          "type": "address"
        },
        {
          "internalType": "address",
          "name": "trader2",
          "type": "address"
        },
        {
          "internalType": "address",
          "name": "tokenIn",
          "type": "address"
        },
        {
          "internalType": "address",
          "name": "tokenOut",
          "type": "address"
        },
        {
          "internalType": "uint256",
          "name": "amount1",
          "type": "uint256"
        },
        {
          "internalType": "uint256",
          "name": "amount2",
          "type": "uint256"
        },
        {
          "internalType": "uint256",
          "name": "timestamp",
          "type": "uint256"
        },
        {
          "internalType": "bool",
          "name": "isSettled",
          "type": "bool"
        },
        {
          "internalType": "bool",
          "name": "isDisputed",
          "type": "bool"
        }
      ],
      "stateMutability": "view",
      "type": "function"
    },
    {
      "inputs": [],
      "name": "maxOrderSize",
      "outputs": [
        {
          "internalType": "uint256",
          "name": "",
          "type": "uint256"
        }
      ],
      "stateMutability": "view",
      "type": "function"
    },
    {
      "inputs": [],
      "name": "minOrderSize",
      "outputs": [
        {
          "internalType": "uint256",
          "name": "",
          "type": "uint256"
        }
      ],
      "stateMutability": "view",
      "type": "function"
    },
    {
      "inputs": [
        {
          "internalType": "address",
          "name": "trader",
          "type": "address"
        },
        {
          "internalType": "uint256",
          "name": "initialBalance",
          "type": "uint256"
        }
      ],
      "name": "openStateChannel",
      "outputs": [],
      "stateMutability": "payable",
      "type": "function"
    },
    {
      "inputs": [],
      "name": "orderNonce",
      "outputs": [
        {
          "internalType": "uint256",
          "name": "",
          "type": "uint256"
        }
      ],
      "stateMutability": "view",
      "type": "function"
    },
    {
      "inputs": [
        {
          "internalType": "bytes32",
          "name": "",
          "type": "bytes32"
        }
      ],
      "name": "orders",
      "outputs": [
        {
          "internalType": "address",
          "name": "trader",
          "type": "address"
        },
        {
          "internalType": "address",
          "name": "tokenIn",
          "type": "address"
        },
        {
          "internalType": "address",
          "name": "tokenOut",
          "type": "address"
        },
        {
          "internalType": "uint256",
          "name": "amountIn",
          "type": "uint256"
        },
        {
          "internalType": "uint256",
          "name": "amountOut",
          "type": "uint256"
        },
        {
          "internalType": "uint256",
          "name": "nonce",
          "type": "uint256"
        },
        {
          "internalType": "uint256",
          "name": "timestamp",
          "type": "uint256"
        },
        {
          "internalType": "bool",
          "name": "isBuy",
          "type": "bool"
        },
        {
          "internalType": "bool",
          "name": "isRevealed",
          "type": "bool"
        },
        {
          "internalType": "bool",
          "name": "isExecuted",
          "type": "bool"
        },
        {
          "internalType": "bool",
          "name": "isCancelled",
          "type": "bool"
        },
        {
          "internalType": "bytes32",
          "name": "commitment",
          "type": "bytes32"
        }
      ],
      "stateMutability": "view",
      "type": "function"
    },
    {
      "inputs": [],
      "name": "pause",
      "outputs": [],
      "stateMutability": "nonpayable",
      "type": "function"
    },
    {
      "inputs": [],
      "name": "paused",
      "outputs": [
        {
          "internalType": "bool",
          "name": "",
          "type": "bool"
        }
      ],
      "stateMutability": "view",
      "type": "function"
    },
    {
      "inputs": [
        {
          "internalType": "bytes32",
          "name": "role",
          "type": "bytes32"
        },
        {
          "internalType": "address",
          "name": "account",
          "type": "address"
        }
      ],
      "name": "renounceRole",
      "outputs": [],
      "stateMutability": "nonpayable",
      "type": "function"
    },
    {
      "inputs": [
        {
          "internalType": "string",
          "name": "reason",
          "type": "string"
        }
      ],
      "name": "requestEmergencyWithdraw",
      "outputs": [],
      "stateMutability": "nonpayable",
      "type": "function"
    },
    {
      "inputs": [
        {
          "internalType": "bytes32",
          "name": "commitment",
          "type": "bytes32"
        },
        {
          "internalType": "address",
          "name": "tokenIn",
          "type": "address"
        },
        {
          "internalType": "address",
          "name": "tokenOut",
          "type": "address"
        },
        {
          "internalType": "uint256",
          "name": "amountIn",
          "type": "uint256"
        },
        {
          "internalType": "uint256",
          "name": "amountOut",
          "type": "uint256"
        },
        {
          "internalType": "bool",
          "name": "isBuy",
          "type": "bool"
        },
        {
          "internalType": "uint256",
          "name": "secretNonce",
          "type": "uint256"
        }
      ],
      "name": "revealOrder",
      "outputs": [],
      "stateMutability": "nonpayable",
      "type": "function"
    },
    {
      "inputs": [],
      "name": "revealWindow",
      "outputs": [
        {
          "internalType": "uint256",
          "name": "",
          "type": "uint256"
        }
      ],
      "stateMutability": "view",
      "type": "function"
    },
    {
      "inputs": [
        {
          "internalType": "address",
          "name": "emergency",
          "type": "address"
        }
      ],
      "name": "revokeEmergencyRole",
      "outputs": [],
      "stateMutability": "nonpayable",
      "type": "function"
    },
    {
      "inputs": [
        {
          "internalType": "address",
          "name": "operator",
          "type": "address"
        }
      ],
      "name": "revokeOperatorRole",
      "outputs": [],
      "stateMutability": "nonpayable",
      "type": "function"
    },
    {
      "inputs": [
        {
          "internalType": "bytes32",
          "name": "role",
          "type": "bytes32"
        },
        {
          "internalType": "address",
          "name": "account",
          "type": "address"
        }
      ],
      "name": "revokeRole",
      "outputs": [],
      "stateMutability": "nonpayable",
      "type": "function"
    },
    {
      "inputs": [
        {
          "internalType": "address",
          "name": "_feeCollector",
          "type": "address"
        }
      ],
      "name": "setFeeCollector",
      "outputs": [],
      "stateMutability": "nonpayable",
      "type": "function"
    },
    {
      "inputs": [
        {
          "internalType": "uint256",
          "name": "_minOrderSize",
          "type": "uint256"
        },
        {
          "internalType": "uint256",
          "name": "_maxOrderSize",
          "type": "uint256"
        }
      ],
      "name": "setOrderLimits",
      "outputs": [],
      "stateMutability": "nonpayable",
      "type": "function"
    },
    {
      "inputs": [
        {
          "internalType": "uint256",
          "name": "_tradingFee",
          "type": "uint256"
        }
      ],
      "name": "setTradingFee",
      "outputs": [],
      "stateMutability": "nonpayable",
      "type": "function"
    },
    {
      "inputs": [
        {
          "internalType": "uint256",
          "name": "_commitmentWindow",
          "type": "uint256"
        },
        {
          "internalType": "uint256",
          "name": "_revealWindow",
          "type": "uint256"
        }
      ],
      "name": "setWindows",
      "outputs": [],
      "stateMutability": "nonpayable",
      "type": "function"
    },
    {
      "inputs": [
        {
          "internalType": "bytes32",
          "name": "matchId",
          "type": "bytes32"
        },
        {
          "internalType": "bytes",
          "name": "signature1",
          "type": "bytes"
        },
        {
          "internalType": "bytes",
          "name": "signature2",
          "type": "bytes"
        }
      ],
      "name": "settleMatch",
      "outputs": [],
      "stateMutability": "nonpayable",
      "type": "function"
    },
    {
      "inputs": [
        {
          "internalType": "address",
          "name": "",
          "type": "address"
        }
      ],
      "name": "stateChannels",
      "outputs": [
        {
          "internalType": "address",
          "name": "trader",
          "type": "address"
        },
        {
          "internalType": "uint256",
          "name": "balance",
          "type": "uint256"
        },
        {
          "internalType": "uint256",
          "name": "nonce",
          "type": "uint256"
        },
        {
          "internalType": "uint256",
          "name": "lastUpdate",
          "type": "uint256"
        },
        {
          "internalType": "bool",
          "name": "isActive",
          "type": "bool"
        },
        {
          "internalType": "uint256",
          "name": "emergencyWithdrawTime",
          "type": "uint256"
        }
      ],
      "stateMutability": "view",
      "type": "function"
    },
    {
      "inputs": [
        {
          "internalType": "bytes4",
          "name": "interfaceId",
          "type": "bytes4"
        }
      ],
      "name": "supportsInterface",
      "outputs": [
        {
          "internalType": "bool",
          "name": "",
          "type": "bool"
        }
      ],
      "stateMutability": "view",
      "type": "function"
    },
    {
      "inputs": [],
      "name": "tradingFee",
      "outputs": [
        {
          "internalType": "uint256",
          "name": "",
          "type": "uint256"
        }
      ],
      "stateMutability": "view",
      "type": "function"
    },
    {
      "inputs": [],
      "name": "unpause",
      "outputs": [],
      "stateMutability": "nonpayable",
      "type": "function"
    },
    {
      "inputs": [
        {
          "internalType": "address",
          "name": "trader",
          "type": "address"
        },
        {
          "internalType": "uint256",
          "name": "newBalance",
          "type": "uint256"
        },
        {
          "internalType": "uint256",
          "name": "newNonce",
          "type": "uint256"
        },
        {
          "internalType": "bytes",
          "name": "signature",
          "type": "bytes"
        }
      ],
      "name": "updateStateChannel",
      "outputs": [],
      "stateMutability": "nonpayable",
      "type": "function"
    },
    {
      "stateMutability": "payable",
      "type": "receive"
    }
  ],
  "bytecode": "0x60806040523480156200001157600080fd5b5060405162004aab38038062004aab8339810160408190526200003491620002e4565b60016000819055805460ff19169055838510620000985760405162461bcd60e51b815260206004820152601460248201527f496e76616c6964206f72646572206c696d69747300000000000000000000000060448201526064015b60405180910390fd5b603c8310158015620000ac5750610e108311155b620000fa5760405162461bcd60e51b815260206004820152601960248201527f496e76616c696420636f6d6d69746d656e742077696e646f770000000000000060448201526064016200008f565b61012c82101580156200010f5750611c208211155b6200015d5760405162461bcd60e51b815260206004820152601560248201527f496e76616c69642072657665616c2077696e646f77000000000000000000000060448201526064016200008f565b6103e8811115620001a05760405162461bcd60e51b815260206004820152600c60248201526b08ccaca40e8dede40d0d2ced60a31b60448201526064016200008f565b6009859055600a849055600b839055600c829055600e819055600d80546001600160a01b03191633908117909155620001dc906000906200023f565b620002087f97667070c54ef182b0f5858b034beac1b6f3089aa2d3188bb1e8929f4fa9b929336200023f565b620002347fbf233dd2aafeb4d50879c4aa5c81e96d92f6e6945c906a58f9f2d1c1631b4b26336200023f565b505050505062000325565b60008281526002602090815260408083206001600160a01b038516845290915290205460ff16620002e05760008281526002602090815260408083206001600160a01b03851684529091529020805460ff191660011790556200029f3390565b6001600160a01b0316816001600160a01b0316837f2f8788117e7eff1d82e926ec794901d17c78024a50270940304540a733656f0d60405160405180910390a45b5050565b600080600080600060a08688031215620002fd57600080fd5b5050835160208501516040860151606087015160809097015192989197509594509092509050565b61477680620003356000396000f3fe6080604052600436106103905760003560e01c806391d14854116101dc578063bfbeecfb11610102578063e5aebc41116100a0578063f5b541a61161006f578063f5b541a614610d9a578063fca516c714610dbc578063fcc6077d14610dcf578063fec0db7014610ed257600080fd5b8063e5aebc4114610cb6578063eb3acc7b14610cd6578063ef95256814610d6f578063f1a82c7e14610d8457600080fd5b8063c5b1c7d0116100dc578063c5b1c7d014610c56578063d547741f14610c6b578063d55be8c614610c8b578063db2e21bc14610ca157600080fd5b8063bfbeecfb14610bd8578063c415b95c14610c08578063c5511c6d14610c4057600080fd5b8063a9381d211161017a578063b0d54bcf11610149578063b0d54bcf14610b6c578063b219f7d714610b8c578063ba9bf7d114610bac578063be4a7e2614610bc257600080fd5b8063a9381d2114610aec578063a9f1a54914610b0c578063acef2efc14610b2c578063ad943d6214610b4c57600080fd5b80639fe9ada3116101b65780639fe9ada3146109ce578063a217fddf14610aa1578063a42dce8014610ab6578063a674537f14610ad657600080fd5b806391d148541461088557806397660411146108a55780639c3f1e90146108c557600080fd5b8063554ac63f116102c15780637314eb0c1161025f5780638456cb591161022e5780638456cb5914610824578063863d22c7146108395780638973bc7e1461084f5780638d976cf61461086557600080fd5b80637314eb0c146107ae5780637489ec23146107ce5780637a2888b0146107ee5780637fe3826e1461080457600080fd5b80635c975abb1161029b5780635c975abb1461073f57806360d7442b1461075757806361f073c81461076e57806365f4bce61461078e57600080fd5b8063554ac63f146105cd57806356f43352146105e25780635778472a146105f857600080fd5b80632ac164021161032e578063368697301161030857806336869730146105105780633f4ba83a14610526578063451bf3e61461053b57806347f89b41146105ad57600080fd5b80632ac16402146104b05780632f2ff15d146104d057806336568abe146104f057600080fd5b806316f8de891161036a57806316f8de891461041857806320df43591461043c578063248a9ca31461045e57806327ac0c581461048e57600080fd5b806301ffc9a71461039c5780630905f560146103d1578063112606d6146103eb57600080fd5b3661039757005b600080fd5b3480156103a857600080fd5b506103bc6103b7366004613d19565b610ef2565b60405190151581526020015b60405180910390f35b3480156103dd57600080fd5b50600f546103bc9060ff1681565b3480156103f757600080fd5b5061040b610406366004613d5f565b610f29565b6040516103c89190613dca565b34801561042457600080fd5b5061042e60075481565b6040519081526020016103c8565b34801561044857600080fd5b5061042e60008051602061470183398151915281565b34801561046a57600080fd5b5061042e610479366004613e15565b60009081526002602052604090206001015490565b34801561049a57600080fd5b506104ae6104a9366004613d5f565b611033565b005b3480156104bc57600080fd5b506104ae6104cb366004613eda565b61105a565b3480156104dc57600080fd5b506104ae6104eb366004613f47565b611381565b3480156104fc57600080fd5b506104ae61050b366004613f47565b6113a6565b34801561051c57600080fd5b5061042e61012c81565b34801561053257600080fd5b506104ae611420565b34801561054757600080fd5b5061055b610556366004613d5f565b611436565b6040516103c8919081516001600160a01b0316815260208083015190820152604080830151908201526060808301519082015260808083015115159082015260a0918201519181019190915260c00190565b3480156105b957600080fd5b506104ae6105c8366004613e15565b6114e2565b3480156105d957600080fd5b5061042e603c81565b3480156105ee57600080fd5b5061042e600e5481565b34801561060457600080fd5b50610732610613366004613e15565b6040805161018081018252600080825260208201819052918101829052606081018290526080810182905260a0810182905260c0810182905260e081018290526101008101829052610120810182905261014081018290526101608101919091525060009081526003602081815260409283902083516101808101855281546001600160a01b039081168252600183015481169382019390935260028201549092169382019390935290820154606082015260048201546080820152600582015460a0820152600682015460c0820152600782015460ff808216151560e0840152610100808304821615159084015262010000820481161515610120840152630100000090910416151561014082015260089091015461016082015290565b6040516103c89190613f73565b34801561074b57600080fd5b5060015460ff166103bc565b34801561076357600080fd5b5061042e6201518081565b34801561077a57600080fd5b506104ae610789366004614030565b61177f565b34801561079a57600080fd5b506104ae6107a9366004614091565b611954565b3480156107ba57600080fd5b506104ae6107c9366004613d5f565b611a5f565b3480156107da57600080fd5b506104ae6107e9366004613e15565b611a82565b3480156107fa57600080fd5b5061042e60105481565b34801561081057600080fd5b506104ae61081f366004614091565b611cac565b34801561083057600080fd5b506104ae6123c0565b34801561084557600080fd5b5061042e600c5481565b34801561085b57600080fd5b5061042e611c2081565b34801561087157600080fd5b506104ae6108803660046140b3565b6123d3565b34801561089157600080fd5b506103bc6108a0366004613f47565b612549565b3480156108b157600080fd5b506104ae6108c03660046140fc565b612574565b3480156108d157600080fd5b5061095c6108e0366004613e15565b60036020819052600091825260409091208054600182015460028301549383015460048401546005850154600686015460078701546008909701546001600160a01b0396871698958716979690951695939492939192909160ff808216926101008304821692620100008104831692630100000090910416908c565b604080516001600160a01b039d8e1681529b8d1660208d015299909b16988a01989098526060890196909652608088019490945260a087019290925260c0860152151560e0850152151561010084015215156101208301521515610140820152610160810191909152610180016103c8565b3480156109da57600080fd5b50610a496109e9366004613e15565b6005602081905260009182526040909120805460018201546002830154600384015460048501549585015460068601546007909601546001600160a01b039586169794861696938616959092169392909160ff8082169161010090041689565b604080516001600160a01b039a8b168152988a1660208a015296891696880196909652969093166060860152608085019190915260a084015260c083015291151560e0820152901515610100820152610120016103c8565b348015610aad57600080fd5b5061042e600081565b348015610ac257600080fd5b506104ae610ad1366004613d5f565b612733565b348015610ae257600080fd5b5061042e60095481565b348015610af857600080fd5b506104ae610b07366004614091565b6127e0565b348015610b1857600080fd5b506103bc610b27366004613d5f565b61286b565b348015610b3857600080fd5b506104ae610b47366004613d5f565b6128b3565b348015610b5857600080fd5b506104ae610b67366004613d5f565b6128d6565b348015610b7857600080fd5b506104ae610b87366004613e15565b612b43565b348015610b9857600080fd5b506104ae610ba7366004613d5f565b612bcd565b348015610bb857600080fd5b5061042e610e1081565b348015610bce57600080fd5b5061042e600b5481565b348015610be457600080fd5b50610bf8610bf3366004613d5f565b612bf0565b6040516103c89493929190614149565b348015610c1457600080fd5b50600d54610c28906001600160a01b031681565b6040516001600160a01b0390911681526020016103c8565b348015610c4c57600080fd5b5061042e60085481565b348015610c6257600080fd5b506104ae612cb1565b348015610c7757600080fd5b506104ae610c86366004613f47565b612d7b565b348015610c9757600080fd5b5061042e6103e881565b348015610cad57600080fd5b506104ae612da0565b348015610cc257600080fd5b506104ae610cd1366004614192565b612dd7565b348015610ce257600080fd5b50610d36610cf1366004613d5f565b60046020819052600091825260409091208054600182015460028301546003840154948401546005909401546001600160a01b03909316949193909260ff9091169086565b604080516001600160a01b03909716875260208701959095529385019290925260608401521515608083015260a082015260c0016103c8565b348015610d7b57600080fd5b506104ae61322c565b348015610d9057600080fd5b5061042e600a5481565b348015610da657600080fd5b5061042e60008051602061472183398151915281565b6104ae610dca3660046141fc565b613293565b348015610ddb57600080fd5b50610ec5610dea366004613e15565b6040805161012081018252600080825260208201819052918101829052606081018290526080810182905260a0810182905260c0810182905260e081018290526101008101919091525060009081526005602081815260409283902083516101208101855281546001600160a01b0390811682526001830154811693820193909352600282015483169481019490945260038101549091166060840152600481015460808401529081015460a0830152600681015460c08301526007015460ff808216151560e0840152610100918290041615159082015290565b6040516103c89190614226565b348015610ede57600080fd5b5061042e610eed3660046142a4565b6134d3565b60006001600160e01b03198216637965db0b60e01b1480610f2357506301ffc9a760e01b6001600160e01b03198316145b92915050565b60408051608081018252600080825260208201819052918101919091526060808201526001600160a01b03808316600090815260066020908152604091829020825160808101845281549094168452600181015491840191909152600281015460ff16151591830191909152600381018054606084019190610faa90614303565b80601f0160208091040260200160405190810160405280929190818152602001828054610fd690614303565b80156110235780601f10610ff857610100808354040283529160200191611023565b820191906000526020600020905b81548152906001019060200180831161100657829003601f168201915b5050505050815250509050919050565b600061103e81613512565b6110566000805160206147218339815191528361351c565b5050565b6110626135a2565b61106a6135fb565b600f5460ff16156110965760405162461bcd60e51b815260040161108d9061433d565b60405180910390fd5b600083815260056020526040902080546001600160a01b03166110f25760405162461bcd60e51b815260206004820152601460248201527313585d18da08191bd95cc81b9bdd08195e1a5cdd60621b604482015260640161108d565b600781015460ff161561113f5760405162461bcd60e51b815260206004820152601560248201527413585d18da08185b1c9958591e481cd95d1d1b1959605a1b604482015260640161108d565b6007810154610100900460ff161561118d5760405162461bcd60e51b815260206004820152601160248201527013585d18da081a5cc8191a5cdc1d5d1959607a1b604482015260640161108d565b6004810154600582015460068301546040805160208101899052908101939093526060830191909152608082015260009060a00160405160208183030381529060405280519060200120905060006111ee856111e884613643565b90613676565b905060006111ff856111e885613643565b84549091506001600160a01b038381169116146112545760405162461bcd60e51b8152602060048201526013602482015272496e76616c6964207369676e6174757265203160681b604482015260640161108d565b60018401546001600160a01b038281169116146112a95760405162461bcd60e51b815260206004820152601360248201527224b73b30b634b21039b4b3b730ba3ab932901960691b604482015260640161108d565b835460048501546112c5916001600160a01b031690600161369a565b60018085015460058601546112e5926001600160a01b039092169161369a565b60078401805460ff1916600190811790915584015484546002860154600387015460048801546005890154604080516001600160a01b03958616815293851660208501528301919091526060820152426080820152928116929116907fbe424db0fea33aaeac020945c445e8a830405cc3ae1fe4874efcaa64c76b1fc49060a00160405180910390a35050505061137c6001600055565b505050565b60008281526002602052604090206001015461139c81613512565b61137c838361351c565b6001600160a01b03811633146114165760405162461bcd60e51b815260206004820152602f60248201527f416363657373436f6e74726f6c3a2063616e206f6e6c792072656e6f756e636560448201526e103937b632b9903337b91039b2b63360891b606482015260840161108d565b6110568282613752565b600061142b81613512565b6114336137b9565b50565b61147a6040518060c0016040528060006001600160a01b03168152602001600081526020016000815260200160008152602001600015158152602001600081525090565b506001600160a01b03908116600090815260046020818152604092839020835160c081018552815490951685526001810154918501919091526002810154928401929092526003820154606084015281015460ff16151560808301526005015460a082015290565b6114ea6135fb565b600f5460ff161561150d5760405162461bcd60e51b815260040161108d9061433d565b6115156135a2565b806115575760405162461bcd60e51b8152602060048201526012602482015271125b9d985b1a590818dbdb5b5a5d1b595b9d60721b604482015260640161108d565b6000818152600360205260409020546001600160a01b0316156115bc5760405162461bcd60e51b815260206004820152601960248201527f436f6d6d69746d656e7420616c72656164792065786973747300000000000000604482015260640161108d565b604051806101800160405280336001600160a01b0316815260200160006001600160a01b0316815260200160006001600160a01b031681526020016000815260200160008152602001600760008154809291906116189061438a565b909155508152426020808301829052600060408085018290526060808601839052608080870184905260a080880185905260c09788018a9052898552600380875294849020895181546001600160a01b03199081166001600160a01b039283161783558b89015160018401805483169184169190911790558b87015160028401805490921692169190911790559289015194830194909455870151600482015591860151600583015593850151600682015560e0850151600782018054610100808901516101208a01516101408b015161ffff1990941695151561ff001916959095179015159091021763ffff00001916620100009315159390930263ff000000191692909217630100000092151592909202919091179055610160909401516008909401939093559051908152339183917f25cd9c955149e9ee60675521bee70f991884d9c1162e40aed55d62a5bdf4b829910160405180910390a36114336001600055565b6001600160a01b03841660009081526004602081905260409091200154849060ff166117bd5760405162461bcd60e51b815260040161108d906143a3565b6117c56135fb565b600f5460ff16156117e85760405162461bcd60e51b815260040161108d9061433d565b6001600160a01b0385166000908152600460205260409020600281015484116118435760405162461bcd60e51b815260206004820152600d60248201526c496e76616c6964206e6f6e636560981b604482015260640161108d565b6040516001600160601b0319606088901b1660208201526034810186905260548101859052426074820152600090609401604051602081830303815290604052805190602001209050600061189b856111e884613643565b9050876001600160a01b0316816001600160a01b0316146118f25760405162461bcd60e51b8152602060048201526011602482015270496e76616c6964207369676e617475726560781b604482015260640161108d565b600183018790556002830186905542600384015560408051888152602081018890526001600160a01b038a16917fe2824b01ee9d1c44adf7a5260724348c7d38c7c591a7284df9d309c1b72e148a910160405180910390a25050505050505050565b600061195f81613512565b603c83101580156119725750610e108311155b6119be5760405162461bcd60e51b815260206004820152601960248201527f496e76616c696420636f6d6d69746d656e742077696e646f7700000000000000604482015260640161108d565b61012c82101580156119d25750611c208211155b611a165760405162461bcd60e51b8152602060048201526015602482015274496e76616c69642072657665616c2077696e646f7760581b604482015260640161108d565b600b839055600c82905560408051848152602081018490527f710c8b3bcc669d7c9862e563f43e29e3df52391f837c65b3d891f16023faf0f491015b60405180910390a1505050565b6000611a6a81613512565b6110566000805160206147018339815191528361351c565b60008181526003602052604090205481906001600160a01b0316611ab85760405162461bcd60e51b815260040161108d906143da565b60008181526003602052604090206007015462010000900460ff1615611af05760405162461bcd60e51b815260040161108d90614408565b6000818152600360205260409020600701546301000000900460ff1615611b295760405162461bcd60e51b815260040161108d90614438565b60008281526003602052604090205482906001600160a01b03163314611b835760405162461bcd60e51b815260206004820152600f60248201526e2737ba1037b93232b91037bbb732b960891b604482015260640161108d565b611b8b6135fb565b60008381526003602052604090206007810154610100900460ff1615611bf35760405162461bcd60e51b815260206004820152601c60248201527f43616e6e6f742063616e63656c2072657665616c6564206f7264657200000000604482015260640161108d565b600b546006820154611c049161380b565b421115611c535760405162461bcd60e51b815260206004820152601960248201527f436f6d6d69746d656e742077696e646f77206578706972656400000000000000604482015260640161108d565b60078101805463ff00000019166301000000179055604051339085907fb2705df32ac67fc3101f496cd7036bf59074a603544d97d73650b6f09744986a90611c9e9042815260200190565b60405180910390a350505050565b60008281526003602052604090205482906001600160a01b0316611ce25760405162461bcd60e51b815260040161108d906143da565b60008181526003602052604090206007015462010000900460ff1615611d1a5760405162461bcd60e51b815260040161108d90614408565b6000818152600360205260409020600701546301000000900460ff1615611d535760405162461bcd60e51b815260040161108d90614438565b60008281526003602052604090205482906001600160a01b0316611d895760405162461bcd60e51b815260040161108d906143da565b60008181526003602052604090206007015462010000900460ff1615611dc15760405162461bcd60e51b815260040161108d90614408565b6000818152600360205260409020600701546301000000900460ff1615611dfa5760405162461bcd60e51b815260040161108d90614438565b611e1260008051602061472183398151915233612549565b611e5e5760405162461bcd60e51b815260206004820152601960248201527f43616c6c6572206973206e6f7420616e206f70657261746f7200000000000000604482015260640161108d565b611e666135fb565b600f5460ff1615611e895760405162461bcd60e51b815260040161108d9061433d565b60008481526003602052604080822085835291206007820154610100900460ff168015611ebf57506007810154610100900460ff165b611f015760405162461bcd60e51b815260206004820152601360248201527213dc99195c9cc81b9bdd081c995d99585b1959606a1b604482015260640161108d565b6007808201549083015460ff91821615159116151503611f555760405162461bcd60e51b815260206004820152600f60248201526e53616d65206f72646572207479706560881b604482015260640161108d565b600281015460018301546001600160a01b03908116911614611faa5760405162461bcd60e51b815260206004820152600e60248201526d0a8ded6cadc40dad2e6dac2e8c6d60931b604482015260640161108d565b600181015460028301546001600160a01b03908116911614611fff5760405162461bcd60e51b815260206004820152600e60248201526d0a8ded6cadc40dad2e6dac2e8c6d60931b604482015260640161108d565b600782015460009060ff166120145781612016565b825b600784015490915060009060ff1661202e5783612030565b825b90508060030154826004015410156120835760405162461bcd60e51b8152602060048201526016602482015275496e73756666696369656e74206c697175696469747960501b604482015260640161108d565b6003808201549083015460048401546000916120aa916120a4908590613817565b90613823565b905060008a8a600860008154809291906120c39061438a565b9091555060408051602081019490945283019190915260608201526080016040516020818303038152906040528051906020012090506040518061012001604052808660000160009054906101000a90046001600160a01b03166001600160a01b031681526020018560000160009054906101000a90046001600160a01b03166001600160a01b031681526020018560010160009054906101000a90046001600160a01b03166001600160a01b031681526020018660010160009054906101000a90046001600160a01b03166001600160a01b03168152602001838152602001848152602001428152602001600015158152602001600015158152506005600083815260200190815260200160002060008201518160000160006101000a8154816001600160a01b0302191690836001600160a01b0316021790555060208201518160010160006101000a8154816001600160a01b0302191690836001600160a01b0316021790555060408201518160020160006101000a8154816001600160a01b0302191690836001600160a01b0316021790555060608201518160030160006101000a8154816001600160a01b0302191690836001600160a01b031602179055506080820151816004015560a0820151816005015560c0820151816006015560e08201518160070160006101000a81548160ff0219169083151502179055506101008201518160070160016101000a81548160ff02191690831515021790555090505060018760070160026101000a81548160ff02191690831515021790555060018660070160026101000a81548160ff021916908315150217905550898b7fbeace456c306b469a1037ff7cd74fdbb995edec33b45043e4affc57c696d008c8760000160009054906101000a90046001600160a01b03168760000160009054906101000a90046001600160a01b031686886040516123ab94939291906001600160a01b0394851681529290931660208301526040820152606081019190915260800190565b60405180910390a35050505050505050505050565b60006123cb81613512565b61143361382f565b336000818152600460208190526040909120015460ff166124065760405162461bcd60e51b815260040161108d906143a3565b3360009081526004602052604090206005810154156124765760405162461bcd60e51b815260206004820152602660248201527f456d657267656e6379207769746864726177616c20616c7265616479207265716044820152651d595cdd195960d21b606482015260840161108d565b612483426201518061380b565b600582015560408051608081018252338082524260208084019182526000848601818152606086018a8152948252600690925294909420835181546001600160a01b0319166001600160a01b0390911617815590516001820155925160028401805460ff191691151591909117905551909190600382019061250590826144bd565b50506040513391507fd84b306c4af9d4777df24b4265638b9e45af2c2997bc3015ab6fa48ef5d06f969061253c904290879061457d565b60405180910390a2505050565b60009182526002602090815260408084206001600160a01b0393909316845291905290205460ff1690565b6001600160a01b03831660009081526004602081905260409091200154839060ff166125b25760405162461bcd60e51b815260040161108d906143a3565b6125ba6135fb565b6125c26135a2565b6001600160a01b038416600090815260046020908152604080832090516001600160601b0319606089901b16928101929092526034820186905264434c4f534560d81b60548301524260598301529190607901604051602081830303815290604052805190602001209050600061263c856111e884613643565b9050866001600160a01b0316816001600160a01b0316146126935760405162461bcd60e51b8152602060048201526011602482015270496e76616c6964207369676e617475726560781b604482015260640161108d565b60048301805460ff19169055600183018690556040516001600160a01b0388169087156108fc029088906000818181858888f193505050501580156126dc573d6000803e3d6000fd5b50866001600160a01b03167f2b1dbe73b302ae6971addaffcf590a88981effc82b2ebaefd034b37f208f609a8760405161271891815260200190565b60405180910390a250505061272d6001600055565b50505050565b600061273e81613512565b6001600160a01b0382166127865760405162461bcd60e51b815260206004820152600f60248201526e496e76616c6964206164647265737360881b604482015260640161108d565b600d80546001600160a01b038481166001600160a01b031983168117909355604080519190921680825260208201939093527f5d16ad41baeb009cd23eb8f6c7cde5c2e0cd5acf4a33926ab488875c37c37f389101611a52565b60006127eb81613512565b81831061282b5760405162461bcd60e51b815260206004820152600e60248201526d496e76616c6964206c696d69747360901b604482015260640161108d565b6009839055600a82905560408051848152602081018490527f9008c5f12ba9ce7db2a3644b35485cf65bd0a7afe095d7d7f135b6a4b4babc5f9101611a52565b6001600160a01b038116600090815260046020819052604082209081015460ff16801561289c575060008160050154115b80156128ac575080600501544210155b9392505050565b60006128be81613512565b61105660008051602061470183398151915283613752565b6128ee60008051602061470183398151915233612549565b61293a5760405162461bcd60e51b815260206004820152601c60248201527f43616c6c6572206973206e6f7420656d657267656e637920726f6c6500000000604482015260640161108d565b6129426135a2565b6001600160a01b038116600090815260046020818152604080842060069092529092209082015460ff166129ad5760405162461bcd60e51b81526020600482015260126024820152714368616e6e656c206e6f742061637469766560701b604482015260640161108d565b80546001600160a01b03848116911614612a005760405162461bcd60e51b8152602060048201526014602482015273139bc8195b595c99d95b98de481c995c5d595cdd60621b604482015260640161108d565b600281015460ff1615612a485760405162461bcd60e51b815260206004820152601060248201526f105b1c9958591e48195e1958dd5d195960821b604482015260640161108d565b8160050154421015612a935760405162461bcd60e51b8152602060048201526014602482015273151a5b595b1bd8dac81b9bdd08195e1c1a5c995960621b604482015260640161108d565b600281018054600160ff19918216811790925560048401805490911690558201805460009182905560405190916001600160a01b038616916108fc84150291849190818181858888f19350505050158015612af2573d6000803e3d6000fd5b50604080518281524260208201526001600160a01b038616917fe5cea137e6f2eb6b43eb46d8f9c6eba1eafa59f0b48f8f4c80aefdcfd07e71ba910160405180910390a25050506114336001600055565b6000612b4e81613512565b6103e8821115612b8f5760405162461bcd60e51b815260206004820152600c60248201526b08ccaca40e8dede40d0d2ced60a31b604482015260640161108d565b600e80549083905560408051828152602081018590527f528d9479e9f9889a87a3c30c7f7ba537e5e59c4c85a37733b16e57c62df613029101611a52565b6000612bd881613512565b61105660008051602061472183398151915283613752565b60066020526000908152604090208054600182015460028301546003840180546001600160a01b0390941694929360ff9092169291612c2e90614303565b80601f0160208091040260200160405190810160405280929190818152602001828054612c5a90614303565b8015612ca75780601f10612c7c57610100808354040283529160200191612ca7565b820191906000526020600020905b815481529060010190602001808311612c8a57829003601f168201915b5050505050905084565b612cc960008051602061470183398151915233612549565b612d155760405162461bcd60e51b815260206004820152601c60248201527f43616c6c6572206973206e6f7420656d657267656e637920726f6c6500000000604482015260640161108d565b600f5460ff1615612d685760405162461bcd60e51b815260206004820152601960248201527f416c726561647920696e20656d657267656e6379206d6f646500000000000000604482015260640161108d565b600f805460ff1916600117905542601055565b600082815260026020526040902060010154612d9681613512565b61137c8383613752565b6000612dab81613512565b60405133904780156108fc02916000818181858888f19350505050158015611056573d6000803e3d6000fd5b60008781526003602052604090205487906001600160a01b0316612e0d5760405162461bcd60e51b815260040161108d906143da565b60008181526003602052604090206007015462010000900460ff1615612e455760405162461bcd60e51b815260040161108d90614408565b6000818152600360205260409020600701546301000000900460ff1615612e7e5760405162461bcd60e51b815260040161108d90614438565b60008881526003602052604090205488906001600160a01b03163314612ed85760405162461bcd60e51b815260206004820152600f60248201526e2737ba1037b93232b91037bbb732b960891b604482015260640161108d565b612ee06135fb565b600f5460ff1615612f035760405162461bcd60e51b815260040161108d9061433d565b60008981526003602052604090206007810154610100900460ff1615612f645760405162461bcd60e51b815260206004820152601660248201527513dc99195c88185b1c9958591e481c995d99585b195960521b604482015260640161108d565b600c546006820154612f759161380b565b421115612fbc5760405162461bcd60e51b815260206004820152601560248201527414995d99585b081dda5b991bddc8195e1c1a5c9959605a1b604482015260640161108d565b6000898989898989604051602001612fd996959493929190614596565b604051602081830303815290604052805190602001209050808b146130355760405162461bcd60e51b8152602060048201526012602482015271125b9d985b1a590818dbdb5b5a5d1b595b9d60721b604482015260640161108d565b60095488101561307a5760405162461bcd60e51b815260206004820152601060248201526f105b5bdd5b9d081d1bdbc81cdb585b1b60821b604482015260640161108d565b600a548811156130bf5760405162461bcd60e51b815260206004820152601060248201526f416d6f756e7420746f6f206c6172676560801b604482015260640161108d565b886001600160a01b03168a6001600160a01b03160361310d5760405162461bcd60e51b815260206004820152600a60248201526929b0b6b2903a37b5b2b760b11b604482015260640161108d565b6001600160a01b038a161580159061312d57506001600160a01b03891615155b6131795760405162461bcd60e51b815260206004820152601760248201527f496e76616c696420746f6b656e20616464726573736573000000000000000000604482015260640161108d565b6001820180546001600160a01b038c81166001600160a01b03199283168117909355600285018054918d16919092168117909155600384018a90556004840189905560078401805461ff00198a151590811661ffff1990921691909117610100179091556040805193845260208401929092529082018a905260608201899052608082015233908c907fca14ae26824c404dd0a0351de7f8da4e8ef06e80e469fc594879c2b97a397c0b9060a0016123ab565b600061323781613512565b600f5460ff166132815760405162461bcd60e51b81526020600482015260156024820152744e6f7420696e20656d657267656e6379206d6f646560581b604482015260640161108d565b50600f805460ff191690556000601055565b61329b6135fb565b600f5460ff16156132be5760405162461bcd60e51b815260040161108d9061433d565b6132c66135a2565b6001600160a01b03821661330d5760405162461bcd60e51b815260206004820152600e60248201526d24b73b30b634b2103a3930b232b960911b604482015260640161108d565b6000811161334f5760405162461bcd60e51b815260206004820152600f60248201526e496e76616c69642062616c616e636560881b604482015260640161108d565b803410156133965760405162461bcd60e51b8152602060048201526014602482015273125b9cdd59999a58da595b9d0819195c1bdcda5d60621b604482015260640161108d565b6001600160a01b0382166000908152600460208190526040909120015460ff16156133fc5760405162461bcd60e51b81526020600482015260166024820152754368616e6e656c20616c72656164792061637469766560501b604482015260640161108d565b6040805160c0810182526001600160a01b0384811680835260208084018681526000858701818152426060880190815260016080890181815260a08a0185815288865260048089528c87209b518c546001600160a01b0319169b169a909a178b559551918a01919091559151600289015551600388015551948601805460ff19169515159590951790945551600590940193909355835185815292830191909152917f831fd65d60e4dd10379f73c1b4f67910310ea704b461be472a88c35127388b5a910160405180910390a26110566001600055565b60008686868686866040516020016134f096959493929190614596565b6040516020818303038152906040528051906020012090509695505050505050565b611433813361386a565b6135268282612549565b6110565760008281526002602090815260408083206001600160a01b03851684529091529020805460ff1916600117905561355e3390565b6001600160a01b0316816001600160a01b0316837f2f8788117e7eff1d82e926ec794901d17c78024a50270940304540a733656f0d60405160405180910390a45050565b6002600054036135f45760405162461bcd60e51b815260206004820152601f60248201527f5265656e7472616e637947756172643a207265656e7472616e742063616c6c00604482015260640161108d565b6002600055565b60015460ff16156136415760405162461bcd60e51b815260206004820152601060248201526f14185d5cd8589b194e881c185d5cd95960821b604482015260640161108d565b565b7f19457468657265756d205369676e6564204d6573736167653a0a3332000000006000908152601c91909152603c902090565b600080600061368585856138c3565b9150915061369281613908565b509392505050565b6001600160a01b038316600090815260046020526040902081156136d15760018101546136c7908461380b565b6001820155613731565b828160010154101561371c5760405162461bcd60e51b8152602060048201526014602482015273496e73756666696369656e742062616c616e636560601b604482015260640161108d565b600181015461372b9084613a52565b60018201555b600281015461374190600161380b565b600282015542600390910155505050565b61375c8282612549565b156110565760008281526002602090815260408083206001600160a01b0385168085529252808320805460ff1916905551339285917ff6391f5c32d9c69d2a47ea670b442974b53935d1edc7fd64eb21e047a839171b9190a45050565b6137c1613a5e565b6001805460ff191690557f5db9ee0a495bf2e6ff9c91a7834c1ba4fdd244a5e8aa4e537bd38aeae4b073aa335b6040516001600160a01b03909116815260200160405180910390a1565b60006128ac82846145d6565b60006128ac82846145e9565b60006128ac8284614600565b6138376135fb565b6001805460ff1916811790557f62e78cea01bee320cd4e420270b5ea74000d11b0c9f74754ebdbfc544b05a258336137ee565b6138748282612549565b6110565761388181613aa7565b61388c836020613ab9565b60405160200161389d929190614622565b60408051601f198184030181529082905262461bcd60e51b825261108d91600401614697565b60008082516041036138f95760208301516040840151606085015160001a6138ed87828585613c55565b94509450505050613901565b506000905060025b9250929050565b600081600481111561391c5761391c6146aa565b036139245750565b6001816004811115613938576139386146aa565b036139855760405162461bcd60e51b815260206004820152601860248201527f45434453413a20696e76616c6964207369676e61747572650000000000000000604482015260640161108d565b6002816004811115613999576139996146aa565b036139e65760405162461bcd60e51b815260206004820152601f60248201527f45434453413a20696e76616c6964207369676e6174757265206c656e67746800604482015260640161108d565b60038160048111156139fa576139fa6146aa565b036114335760405162461bcd60e51b815260206004820152602260248201527f45434453413a20696e76616c6964207369676e6174757265202773272076616c604482015261756560f01b606482015260840161108d565b60006128ac82846146c0565b60015460ff166136415760405162461bcd60e51b815260206004820152601460248201527314185d5cd8589b194e881b9bdd081c185d5cd95960621b604482015260640161108d565b6060610f236001600160a01b03831660145b60606000613ac88360026145e9565b613ad39060026145d6565b67ffffffffffffffff811115613aeb57613aeb613e2e565b6040519080825280601f01601f191660200182016040528015613b15576020820181803683370190505b509050600360fc1b81600081518110613b3057613b306146d3565b60200101906001600160f81b031916908160001a905350600f60fb1b81600181518110613b5f57613b5f6146d3565b60200101906001600160f81b031916908160001a9053506000613b838460026145e9565b613b8e9060016145d6565b90505b6001811115613c06576f181899199a1a9b1b9c1cb0b131b232b360811b85600f1660108110613bc257613bc26146d3565b1a60f81b828281518110613bd857613bd86146d3565b60200101906001600160f81b031916908160001a90535060049490941c93613bff816146e9565b9050613b91565b5083156128ac5760405162461bcd60e51b815260206004820181905260248201527f537472696e67733a20686578206c656e67746820696e73756666696369656e74604482015260640161108d565b6000807f7fffffffffffffffffffffffffffffff5d576e7357a4501ddfe92f46681b20a0831115613c8c5750600090506003613d10565b6040805160008082526020820180845289905260ff881692820192909252606081018690526080810185905260019060a0016020604051602081039080840390855afa158015613ce0573d6000803e3d6000fd5b5050604051601f1901519150506001600160a01b038116613d0957600060019250925050613d10565b9150600090505b94509492505050565b600060208284031215613d2b57600080fd5b81356001600160e01b0319811681146128ac57600080fd5b80356001600160a01b0381168114613d5a57600080fd5b919050565b600060208284031215613d7157600080fd5b6128ac82613d43565b60005b83811015613d95578181015183820152602001613d7d565b50506000910152565b60008151808452613db6816020860160208601613d7a565b601f01601f19169290920160200192915050565b6020815260018060a01b0382511660208201526020820151604082015260408201511515606082015260006060830151608080840152613e0d60a0840182613d9e565b949350505050565b600060208284031215613e2757600080fd5b5035919050565b634e487b7160e01b600052604160045260246000fd5b600067ffffffffffffffff80841115613e5f57613e5f613e2e565b604051601f8501601f19908116603f01168101908282118183101715613e8757613e87613e2e565b81604052809350858152868686011115613ea057600080fd5b858560208301376000602087830101525050509392505050565b600082601f830112613ecb57600080fd5b6128ac83833560208501613e44565b600080600060608486031215613eef57600080fd5b83359250602084013567ffffffffffffffff80821115613f0e57600080fd5b613f1a87838801613eba565b93506040860135915080821115613f3057600080fd5b50613f3d86828701613eba565b9150509250925092565b60008060408385031215613f5a57600080fd5b82359150613f6a60208401613d43565b90509250929050565b81516001600160a01b0316815261018081016020830151613f9f60208401826001600160a01b03169052565b506040830151613fba60408401826001600160a01b03169052565b50606083015160608301526080830151608083015260a083015160a083015260c083015160c083015260e0830151613ff660e084018215159052565b5061010083810151151590830152610120808401511515908301526101408084015115159083015261016092830151929091019190915290565b6000806000806080858703121561404657600080fd5b61404f85613d43565b93506020850135925060408501359150606085013567ffffffffffffffff81111561407957600080fd5b61408587828801613eba565b91505092959194509250565b600080604083850312156140a457600080fd5b50508035926020909101359150565b6000602082840312156140c557600080fd5b813567ffffffffffffffff8111156140dc57600080fd5b8201601f810184136140ed57600080fd5b613e0d84823560208401613e44565b60008060006060848603121561411157600080fd5b61411a84613d43565b925060208401359150604084013567ffffffffffffffff81111561413d57600080fd5b613f3d86828701613eba565b60018060a01b038516815283602082015282151560408201526080606082015260006141786080830184613d9e565b9695505050505050565b80358015158114613d5a57600080fd5b600080600080600080600060e0888a0312156141ad57600080fd5b873596506141bd60208901613d43565b95506141cb60408901613d43565b945060608801359350608088013592506141e760a08901614182565b915060c0880135905092959891949750929550565b6000806040838503121561420f57600080fd5b61421883613d43565b946020939093013593505050565b81516001600160a01b03908116825260208084015182169083015260408084015182169083015260608084015191821690830152610120820190506080830151608083015260a083015160a083015260c083015160c083015260e083015161429260e084018215159052565b50610100928301511515919092015290565b60008060008060008060c087890312156142bd57600080fd5b6142c687613d43565b95506142d460208801613d43565b945060408701359350606087013592506142f060808801614182565b915060a087013590509295509295509295565b600181811c9082168061431757607f821691505b60208210810361433757634e487b7160e01b600052602260045260246000fd5b50919050565b6020808252601a908201527f436f6e747261637420696e20656d657267656e6379206d6f6465000000000000604082015260600190565b634e487b7160e01b600052601160045260246000fd5b60006001820161439c5761439c614374565b5060010190565b60208082526018908201527f5374617465206368616e6e656c206e6f74206163746976650000000000000000604082015260600190565b60208082526014908201527313dc99195c88191bd95cc81b9bdd08195e1a5cdd60621b604082015260600190565b60208082526016908201527513dc99195c88185b1c9958591e48195e1958dd5d195960521b604082015260600190565b60208082526017908201527f4f7264657220616c72656164792063616e63656c6c6564000000000000000000604082015260600190565b601f82111561137c57600081815260208120601f850160051c810160208610156144965750805b601f850160051c820191505b818110156144b5578281556001016144a2565b505050505050565b815167ffffffffffffffff8111156144d7576144d7613e2e565b6144eb816144e58454614303565b8461446f565b602080601f83116001811461452057600084156145085750858301515b600019600386901b1c1916600185901b1785556144b5565b600085815260208120601f198616915b8281101561454f57888601518255948401946001909101908401614530565b508582101561456d5787850151600019600388901b60f8161c191681555b5050505050600190811b01905550565b828152604060208201526000613e0d6040830184613d9e565b6001600160601b0319606097881b811682529590961b909416601486015260288501929092526048840152151560f81b6068830152606982015260890190565b80820180821115610f2357610f23614374565b8082028115828204841417610f2357610f23614374565b60008261461d57634e487b7160e01b600052601260045260246000fd5b500490565b7f416363657373436f6e74726f6c3a206163636f756e742000000000000000000081526000835161465a816017850160208801613d7a565b7001034b99036b4b9b9b4b733903937b6329607d1b601791840191820152835161468b816028840160208801613d7a565b01602801949350505050565b6020815260006128ac6020830184613d9e565b634e487b7160e01b600052602160045260246000fd5b81810381811115610f2357610f23614374565b634e487b7160e01b600052603260045260246000fd5b6000816146f8576146f8614374565b50600019019056febf233dd2aafeb4d50879c4aa5c81e96d92f6e6945c906a58f9f2d1c1631b4b2697667070c54ef182b0f5858b034beac1b6f3089aa2d3188bb1e8929f4fa9b929a26469706673582212200c99918ecfef5c8c1653e1707d4111804708aa559c149985689d5d1b7ed1e6c664736f6c63430008130033",
  "linkReferences": {},
  "deployedLinkReferences": {}
}