{
  "_format": "hh-sol-artifact-1",
  "contractName": "MockERC20",
  "sourceName": "contracts/MockERC20.sol",
  "abi": [
    {
      "inputs": [
        {
          "internalType": "string",
          "name": "name",
          "type": "string"
        },
        {
          "internalType": "string",
          "name": "symbol",
          "type": "string"
        },
        {
          "internalType": "uint8",
          "name": "decimals_",
          "type": "uint8"
        }
      ],
      "stateMutability": "nonpayable",
      "type": "constructor"
    },
    {
      "anonymous": false,
      "inputs": [
        {
          "indexed": true,
          "internalType": "address",
          "name": "owner",
          "type": "address"
        },
        {
          "indexed": true,
          "internalType": "address",
          "name": "spender",
          "type": "address"
        },
        {
          "indexed": false,
          "internalType": "uint256",
          "name": "value",
          "type": "uint256"
        }
      ],
      "name": "Approval",
      "type": "event"
    },
    {
      "anonymous": false,
      "inputs": [
        {
          "indexed": true,
          "internalType": "address",
          "name": "previousOwner",
          "type": "address"
        },
        {
          "indexed": true,
          "internalType": "address",
          "name": "newOwner",
          "type": "address"
        }
      ],
      "name": "OwnershipTransferred",
      "type": "event"
    },
    {
      "anonymous": false,
      "inputs": [
        {
          "indexed": true,
          "internalType": "address",
          "name": "from",
          "type": "address"
        },
        {
          "indexed": true,
          "internalType": "address",
          "name": "to",
          "type": "address"
        },
        {
          "indexed": false,
          "internalType": "uint256",
          "name": "value",
          "type": "uint256"
        }
      ],
      "name": "Transfer",
      "type": "event"
    },
    {
      "inputs": [
        {
          "internalType": "address",
          "name": "owner",
          "type": "address"
        },
        {
          "internalType": "address",
          "name": "spender",
          "type": "address"
        }
      ],
      "name": "allowance",
      "outputs": [
        {
          "internalType": "uint256",
          "name": "",
          "type": "uint256"
        }
      ],
      "stateMutability": "view",
      "type": "function"
    },
    {
      "inputs": [
        {
          "internalType": "address",
          "name": "spender",
          "type": "address"
        },
        {
          "internalType": "uint256",
          "name": "amount",
          "type": "uint256"
        }
      ],
      "name": "approve",
      "outputs": [
        {
          "internalType": "bool",
          "name": "",
          "type": "bool"
        }
      ],
      "stateMutability": "nonpayable",
      "type": "function"
    },
    {
      "inputs": [
        {
          "internalType": "address",
          "name": "account",
          "type": "address"
        }
      ],
      "name": "balanceOf",
      "outputs": [
        {
          "internalType": "uint256",
          "name": "",
          "type": "uint256"
        }
      ],
      "stateMutability": "view",
      "type": "function"
    },
    {
      "inputs": [
        {
          "internalType": "uint256",
          "name": "amount",
          "type": "uint256"
        }
      ],
      "name": "burn",
      "outputs": [],
      "stateMutability": "nonpayable",
      "type": "function"
    },
    {
      "inputs": [],
      "name": "decimals",
      "outputs": [
        {
          "internalType": "uint8",
          "name": "",
          "type": "uint8"
        }
      ],
      "stateMutability": "view",
      "type": "function"
    },
    {
      "inputs": [
        {
          "internalType": "address",
          "name": "spender",
          "type": "address"
        },
        {
          "internalType": "uint256",
          "name": "subtractedValue",
          "type": "uint256"
        }
      ],
      "name": "decreaseAllowance",
      "outputs": [
        {
          "internalType": "bool",
          "name": "",
          "type": "bool"
        }
      ],
      "stateMutability": "nonpayable",
      "type": "function"
    },
    {
      "inputs": [
        {
          "internalType": "address",
          "name": "spender",
          "type": "address"
        },
        {
          "internalType": "uint256",
          "name": "addedValue",
          "type": "uint256"
        }
      ],
      "name": "increaseAllowance",
      "outputs": [
        {
          "internalType": "bool",
          "name": "",
          "type": "bool"
        }
      ],
      "stateMutability": "nonpayable",
      "type": "function"
    },
    {
      "inputs": [
        {
          "internalType": "address",
          "name": "to",
          "type": "address"
        },
        {
          "internalType": "uint256",
          "name": "amount",
          "type": "uint256"
        }
      ],
      "name": "mint",
      "outputs": [],
      "stateMutability": "nonpayable",
      "type": "function"
    },
    {
      "inputs": [],
      "name": "name",
      "outputs": [
        {
          "internalType": "string",
          "name": "",
          "type": "string"
        }
      ],
      "stateMutability": "view",
      "type": "function"
    },
    {
      "inputs": [],
      "name": "owner",
      "outputs": [
        {
          "internalType": "address",
          "name": "",
          "type": "address"
        }
      ],
      "stateMutability": "view",
      "type": "function"
    },
    {
      "inputs": [],
      "name": "renounceOwnership",
      "outputs": [],
      "stateMutability": "nonpayable",
      "type": "function"
    },
    {
      "inputs": [],
      "name": "symbol",
      "outputs": [
        {
          "internalType": "string",
          "name": "",
          "type": "string"
        }
      ],
      "stateMutability": "view",
      "type": "function"
    },
    {
      "inputs": [],
      "name": "totalSupply",
      "outputs": [
        {
          "internalType": "uint256",
          "name": "",
          "type": "uint256"
        }
      ],
      "stateMutability": "view",
      "type": "function"
    },
    {
      "inputs": [
        {
          "internalType": "address",
          "name": "to",
          "type": "address"
        },
        {
          "internalType": "uint256",
          "name": "amount",
          "type": "uint256"
        }
      ],
      "name": "transfer",
      "outputs": [
        {
          "internalType": "bool",
          "name": "",
          "type": "bool"
        }
      ],
      "stateMutability": "nonpayable",
      "type": "function"
    },
    {
      "inputs": [
        {
          "internalType": "address",
          "name": "from",
          "type": "address"
        },
        {
          "internalType": "address",
          "name": "to",
          "type": "address"
        },
        {
          "internalType": "uint256",
          "name": "amount",
          "type": "uint256"
        }
      ],
      "name": "transferFrom",
      "outputs": [
        {
          "internalType": "bool",
          "name": "",
          "type": "bool"
        }
      ],
      "stateMutability": "nonpayable",
      "type": "function"
    },
    {
      "inputs": [
        {
          "internalType": "address",
          "name": "newOwner",
          "type": "address"
        }
      ],
      "name": "transferOwnership",
      "outputs": [],
      "stateMutability": "nonpayable",
      "type": "function"
    }
  ],
  "bytecode": "0x60806040523480156200001157600080fd5b506040516200125d3803806200125d83398101604081905262000034916200029e565b82826003620000448382620003b1565b506004620000538282620003b1565b505050620000706200006a620000b860201b60201c565b620000bc565b6005805460ff60a01b1916600160a01b60ff841602179055620000af336200009a83600a62000592565b620000a990620f4240620005aa565b6200010e565b505050620005da565b3390565b600580546001600160a01b038381166001600160a01b0319831681179093556040519116919082907f8be0079c531659141344cd1fd0a4f28419497f9722a3daafe3b4186f6b6457e090600090a35050565b6001600160a01b038216620001695760405162461bcd60e51b815260206004820152601f60248201527f45524332303a206d696e7420746f20746865207a65726f206164647265737300604482015260640160405180910390fd5b80600260008282546200017d9190620005c4565b90915550506001600160a01b038216600081815260208181526040808320805486019055518481527fddf252ad1be2c89b69c2b068fc378daa952ba7f163c4a11628f55a4df523b3ef910160405180910390a35050565b505050565b634e487b7160e01b600052604160045260246000fd5b600082601f8301126200020157600080fd5b81516001600160401b03808211156200021e576200021e620001d9565b604051601f8301601f19908116603f01168101908282118183101715620002495762000249620001d9565b816040528381526020925086838588010111156200026657600080fd5b600091505b838210156200028a57858201830151818301840152908201906200026b565b600093810190920192909252949350505050565b600080600060608486031215620002b457600080fd5b83516001600160401b0380821115620002cc57600080fd5b620002da87838801620001ef565b94506020860151915080821115620002f157600080fd5b506200030086828701620001ef565b925050604084015160ff811681146200031857600080fd5b809150509250925092565b600181811c908216806200033857607f821691505b6020821081036200035957634e487b7160e01b600052602260045260246000fd5b50919050565b601f821115620001d457600081815260208120601f850160051c81016020861015620003885750805b601f850160051c820191505b81811015620003a95782815560010162000394565b505050505050565b81516001600160401b03811115620003cd57620003cd620001d9565b620003e581620003de845462000323565b846200035f565b602080601f8311600181146200041d5760008415620004045750858301515b600019600386901b1c1916600185901b178555620003a9565b600085815260208120601f198616915b828110156200044e578886015182559484019460019091019084016200042d565b50858210156200046d5787850151600019600388901b60f8161c191681555b5050505050600190811b01905550565b634e487b7160e01b600052601160045260246000fd5b600181815b80851115620004d4578160001904821115620004b857620004b86200047d565b80851615620004c657918102915b93841c939080029062000498565b509250929050565b600082620004ed575060016200058c565b81620004fc575060006200058c565b8160018114620005155760028114620005205762000540565b60019150506200058c565b60ff8411156200053457620005346200047d565b50506001821b6200058c565b5060208310610133831016604e8410600b841016171562000565575081810a6200058c565b62000571838362000493565b80600019048211156200058857620005886200047d565b0290505b92915050565b6000620005a360ff841683620004dc565b9392505050565b80820281158282048414176200058c576200058c6200047d565b808201808211156200058c576200058c6200047d565b610c7380620005ea6000396000f3fe608060405234801561001057600080fd5b50600436106101005760003560e01c806370a0823111610097578063a457c2d711610066578063a457c2d714610219578063a9059cbb1461022c578063dd62ed3e1461023f578063f2fde38b1461025257600080fd5b806370a08231146101c5578063715018a6146101ee5780638da5cb5b146101f657806395d89b411461021157600080fd5b8063313ce567116100d3578063313ce5671461016b578063395093511461018a57806340c10f191461019d57806342966c68146101b257600080fd5b806306fdde0314610105578063095ea7b31461012357806318160ddd1461014657806323b872dd14610158575b600080fd5b61010d610265565b60405161011a9190610aa4565b60405180910390f35b610136610131366004610b0e565b6102f7565b604051901515815260200161011a565b6002545b60405190815260200161011a565b610136610166366004610b38565b610311565b600554600160a01b900460ff1660405160ff909116815260200161011a565b610136610198366004610b0e565b610335565b6101b06101ab366004610b0e565b610357565b005b6101b06101c0366004610b74565b61036d565b61014a6101d3366004610b8d565b6001600160a01b031660009081526020819052604090205490565b6101b061037a565b6005546040516001600160a01b03909116815260200161011a565b61010d61038e565b610136610227366004610b0e565b61039d565b61013661023a366004610b0e565b61041d565b61014a61024d366004610baf565b61042b565b6101b0610260366004610b8d565b610456565b60606003805461027490610be2565b80601f01602080910402602001604051908101604052809291908181526020018280546102a090610be2565b80156102ed5780601f106102c2576101008083540402835291602001916102ed565b820191906000526020600020905b8154815290600101906020018083116102d057829003601f168201915b5050505050905090565b6000336103058185856104cc565b60019150505b92915050565b60003361031f8582856105f1565b61032a85858561066b565b506001949350505050565b600033610305818585610348838361042b565b6103529190610c1c565b6104cc565b61035f61080f565b6103698282610869565b5050565b6103773382610928565b50565b61038261080f565b61038c6000610a52565b565b60606004805461027490610be2565b600033816103ab828661042b565b9050838110156104105760405162461bcd60e51b815260206004820152602560248201527f45524332303a2064656372656173656420616c6c6f77616e63652062656c6f77604482015264207a65726f60d81b60648201526084015b60405180910390fd5b61032a82868684036104cc565b60003361030581858561066b565b6001600160a01b03918216600090815260016020908152604080832093909416825291909152205490565b61045e61080f565b6001600160a01b0381166104c35760405162461bcd60e51b815260206004820152602660248201527f4f776e61626c653a206e6577206f776e657220697320746865207a65726f206160448201526564647265737360d01b6064820152608401610407565b61037781610a52565b6001600160a01b03831661052e5760405162461bcd60e51b8152602060048201526024808201527f45524332303a20617070726f76652066726f6d20746865207a65726f206164646044820152637265737360e01b6064820152608401610407565b6001600160a01b03821661058f5760405162461bcd60e51b815260206004820152602260248201527f45524332303a20617070726f766520746f20746865207a65726f206164647265604482015261737360f01b6064820152608401610407565b6001600160a01b0383811660008181526001602090815260408083209487168084529482529182902085905590518481527f8c5be1e5ebec7d5bd14f71427d1e84f3dd0314c0f7b2291e5b200ac8c7c3b92591015b60405180910390a3505050565b60006105fd848461042b565b9050600019811461066557818110156106585760405162461bcd60e51b815260206004820152601d60248201527f45524332303a20696e73756666696369656e7420616c6c6f77616e63650000006044820152606401610407565b61066584848484036104cc565b50505050565b6001600160a01b0383166106cf5760405162461bcd60e51b815260206004820152602560248201527f45524332303a207472616e736665722066726f6d20746865207a65726f206164604482015264647265737360d81b6064820152608401610407565b6001600160a01b0382166107315760405162461bcd60e51b815260206004820152602360248201527f45524332303a207472616e7366657220746f20746865207a65726f206164647260448201526265737360e81b6064820152608401610407565b6001600160a01b038316600090815260208190526040902054818110156107a95760405162461bcd60e51b815260206004820152602660248201527f45524332303a207472616e7366657220616d6f756e7420657863656564732062604482015265616c616e636560d01b6064820152608401610407565b6001600160a01b03848116600081815260208181526040808320878703905593871680835291849020805487019055925185815290927fddf252ad1be2c89b69c2b068fc378daa952ba7f163c4a11628f55a4df523b3ef910160405180910390a3610665565b6005546001600160a01b0316331461038c5760405162461bcd60e51b815260206004820181905260248201527f4f776e61626c653a2063616c6c6572206973206e6f7420746865206f776e65726044820152606401610407565b6001600160a01b0382166108bf5760405162461bcd60e51b815260206004820152601f60248201527f45524332303a206d696e7420746f20746865207a65726f2061646472657373006044820152606401610407565b80600260008282546108d19190610c1c565b90915550506001600160a01b038216600081815260208181526040808320805486019055518481527fddf252ad1be2c89b69c2b068fc378daa952ba7f163c4a11628f55a4df523b3ef910160405180910390a35050565b6001600160a01b0382166109885760405162461bcd60e51b815260206004820152602160248201527f45524332303a206275726e2066726f6d20746865207a65726f206164647265736044820152607360f81b6064820152608401610407565b6001600160a01b038216600090815260208190526040902054818110156109fc5760405162461bcd60e51b815260206004820152602260248201527f45524332303a206275726e20616d6f756e7420657863656564732062616c616e604482015261636560f01b6064820152608401610407565b6001600160a01b0383166000818152602081815260408083208686039055600280548790039055518581529192917fddf252ad1be2c89b69c2b068fc378daa952ba7f163c4a11628f55a4df523b3ef91016105e4565b600580546001600160a01b038381166001600160a01b0319831681179093556040519116919082907f8be0079c531659141344cd1fd0a4f28419497f9722a3daafe3b4186f6b6457e090600090a35050565b600060208083528351808285015260005b81811015610ad157858101830151858201604001528201610ab5565b506000604082860101526040601f19601f8301168501019250505092915050565b80356001600160a01b0381168114610b0957600080fd5b919050565b60008060408385031215610b2157600080fd5b610b2a83610af2565b946020939093013593505050565b600080600060608486031215610b4d57600080fd5b610b5684610af2565b9250610b6460208501610af2565b9150604084013590509250925092565b600060208284031215610b8657600080fd5b5035919050565b600060208284031215610b9f57600080fd5b610ba882610af2565b9392505050565b60008060408385031215610bc257600080fd5b610bcb83610af2565b9150610bd960208401610af2565b90509250929050565b600181811c90821680610bf657607f821691505b602082108103610c1657634e487b7160e01b600052602260045260246000fd5b50919050565b8082018082111561030b57634e487b7160e01b600052601160045260246000fdfea2646970667358221220c66b0239b7762fe0dd24d36738a1a762abe0a98a53b6587d6e62a694d598c3d564736f6c63430008130033",
  "linkReferences": {},
  "deployedLinkReferences": {}
}