{
  "_format": "hh-sol-artifact-1",
  "contractName": "AtomicSwap",
  "sourceName": "contracts/AtomicSwap.sol",
  "abi": [
    {
      "inputs": [
        {
          "internalType": "uint256",
          "name": "_minSwapAmount",
          "type": "uint256"
        },
        {
          "internalType": "uint256",
          "name": "_maxSwapAmount",
          "type": "uint256"
        },
        {
          "internalType": "uint256",
          "name": "_defaultExpiry",
          "type": "uint256"
        },
        {
          "internalType": "uint256",
          "name": "_swapFee",
          "type": "uint256"
        }
      ],
      "stateMutability": "nonpayable",
      "type": "constructor"
    },
    {
      "anonymous": false,
      "inputs": [
        {
          "indexed": false,
          "internalType": "uint256",
          "name": "oldExpiry",
          "type": "uint256"
        },
        {
          "indexed": false,
          "internalType": "uint256",
          "name": "newExpiry",
          "type": "uint256"
        }
      ],
      "name": "DefaultExpiryUpdated",
      "type": "event"
    },
    {
      "anonymous": false,
      "inputs": [
        {
          "indexed": true,
          "internalType": "address",
          "name": "requester",
          "type": "address"
        },
        {
          "indexed": false,
          "internalType": "uint256",
          "name": "amount",
          "type": "uint256"
        },
        {
          "indexed": false,
          "internalType": "uint256",
          "name": "timestamp",
          "type": "uint256"
        }
      ],
      "name": "EmergencyWithdrawExecuted",
      "type": "event"
    },
    {
      "anonymous": false,
      "inputs": [
        {
          "indexed": true,
          "internalType": "address",
          "name": "requester",
          "type": "address"
        },
        {
          "indexed": false,
          "internalType": "uint256",
          "name": "requestTime",
          "type": "uint256"
        },
        {
          "indexed": false,
          "internalType": "string",
          "name": "reason",
          "type": "string"
        }
      ],
      "name": "EmergencyWithdrawRequested",
      "type": "event"
    },
    {
      "anonymous": false,
      "inputs": [
        {
          "indexed": false,
          "internalType": "address",
          "name": "oldCollector",
          "type": "address"
        },
        {
          "indexed": false,
          "internalType": "address",
          "name": "newCollector",
          "type": "address"
        }
      ],
      "name": "FeeCollectorUpdated",
      "type": "event"
    },
    {
      "anonymous": false,
      "inputs": [
        {
          "indexed": false,
          "internalType": "uint256",
          "name": "oldFee",
          "type": "uint256"
        },
        {
          "indexed": false,
          "internalType": "uint256",
          "name": "newFee",
          "type": "uint256"
        }
      ],
      "name": "FeeUpdated",
      "type": "event"
    },
    {
      "anonymous": false,
      "inputs": [
        {
          "indexed": false,
          "internalType": "address",
          "name": "account",
          "type": "address"
        }
      ],
      "name": "Paused",
      "type": "event"
    },
    {
      "anonymous": false,
      "inputs": [
        {
          "indexed": true,
          "internalType": "bytes32",
          "name": "role",
          "type": "bytes32"
        },
        {
          "indexed": true,
          "internalType": "bytes32",
          "name": "previousAdminRole",
          "type": "bytes32"
        },
        {
          "indexed": true,
          "internalType": "bytes32",
          "name": "newAdminRole",
          "type": "bytes32"
        }
      ],
      "name": "RoleAdminChanged",
      "type": "event"
    },
    {
      "anonymous": false,
      "inputs": [
        {
          "indexed": true,
          "internalType": "bytes32",
          "name": "role",
          "type": "bytes32"
        },
        {
          "indexed": true,
          "internalType": "address",
          "name": "account",
          "type": "address"
        },
        {
          "indexed": true,
          "internalType": "address",
          "name": "sender",
          "type": "address"
        }
      ],
      "name": "RoleGranted",
      "type": "event"
    },
    {
      "anonymous": false,
      "inputs": [
        {
          "indexed": true,
          "internalType": "bytes32",
          "name": "role",
          "type": "bytes32"
        },
        {
          "indexed": true,
          "internalType": "address",
          "name": "account",
          "type": "address"
        },
        {
          "indexed": true,
          "internalType": "address",
          "name": "sender",
          "type": "address"
        }
      ],
      "name": "RoleRevoked",
      "type": "event"
    },
    {
      "anonymous": false,
      "inputs": [
        {
          "indexed": true,
          "internalType": "bytes32",
          "name": "commitment",
          "type": "bytes32"
        },
        {
          "indexed": true,
          "internalType": "address",
          "name": "offerer",
          "type": "address"
        }
      ],
      "name": "SwapCancelled",
      "type": "event"
    },
    {
      "anonymous": false,
      "inputs": [
        {
          "indexed": true,
          "internalType": "bytes32",
          "name": "commitment",
          "type": "bytes32"
        },
        {
          "indexed": false,
          "internalType": "address",
          "name": "offerer",
          "type": "address"
        },
        {
          "indexed": false,
          "internalType": "address",
          "name": "taker",
          "type": "address"
        },
        {
          "indexed": false,
          "internalType": "address",
          "name": "tokenIn",
          "type": "address"
        },
        {
          "indexed": false,
          "internalType": "address",
          "name": "tokenOut",
          "type": "address"
        },
        {
          "indexed": false,
          "internalType": "uint256",
          "name": "amountIn",
          "type": "uint256"
        },
        {
          "indexed": false,
          "internalType": "uint256",
          "name": "amountOut",
          "type": "uint256"
        },
        {
          "indexed": false,
          "internalType": "uint256",
          "name": "timestamp",
          "type": "uint256"
        }
      ],
      "name": "SwapCompleted",
      "type": "event"
    },
    {
      "anonymous": false,
      "inputs": [
        {
          "indexed": false,
          "internalType": "uint256",
          "name": "minAmount",
          "type": "uint256"
        },
        {
          "indexed": false,
          "internalType": "uint256",
          "name": "maxAmount",
          "type": "uint256"
        }
      ],
      "name": "SwapLimitsUpdated",
      "type": "event"
    },
    {
      "anonymous": false,
      "inputs": [
        {
          "indexed": true,
          "internalType": "bytes32",
          "name": "commitment",
          "type": "bytes32"
        },
        {
          "indexed": true,
          "internalType": "address",
          "name": "offerer",
          "type": "address"
        },
        {
          "indexed": false,
          "internalType": "address",
          "name": "tokenIn",
          "type": "address"
        },
        {
          "indexed": false,
          "internalType": "address",
          "name": "tokenOut",
          "type": "address"
        },
        {
          "indexed": false,
          "internalType": "uint256",
          "name": "amountIn",
          "type": "uint256"
        },
        {
          "indexed": false,
          "internalType": "uint256",
          "name": "amountOut",
          "type": "uint256"
        },
        {
          "indexed": false,
          "internalType": "uint256",
          "name": "expiry",
          "type": "uint256"
        }
      ],
      "name": "SwapOffered",
      "type": "event"
    },
    {
      "anonymous": false,
      "inputs": [
        {
          "indexed": true,
          "internalType": "bytes32",
          "name": "commitment",
          "type": "bytes32"
        },
        {
          "indexed": true,
          "internalType": "address",
          "name": "taker",
          "type": "address"
        },
        {
          "indexed": true,
          "internalType": "address",
          "name": "offerer",
          "type": "address"
        },
        {
          "indexed": false,
          "internalType": "uint256",
          "name": "amountIn",
          "type": "uint256"
        },
        {
          "indexed": false,
          "internalType": "uint256",
          "name": "amountOut",
          "type": "uint256"
        }
      ],
      "name": "SwapTaken",
      "type": "event"
    },
    {
      "anonymous": false,
      "inputs": [
        {
          "indexed": false,
          "internalType": "address",
          "name": "account",
          "type": "address"
        }
      ],
      "name": "Unpaused",
      "type": "event"
    },
    {
      "inputs": [],
      "name": "DEFAULT_ADMIN_ROLE",
      "outputs": [
        {
          "internalType": "bytes32",
          "name": "",
          "type": "bytes32"
        }
      ],
      "stateMutability": "view",
      "type": "function"
    },
    {
      "inputs": [],
      "name": "EMERGENCY_ROLE",
      "outputs": [
        {
          "internalType": "bytes32",
          "name": "",
          "type": "bytes32"
        }
      ],
      "stateMutability": "view",
      "type": "function"
    },
    {
      "inputs": [],
      "name": "EMERGENCY_TIMELOCK",
      "outputs": [
        {
          "internalType": "uint256",
          "name": "",
          "type": "uint256"
        }
      ],
      "stateMutability": "view",
      "type": "function"
    },
    {
      "inputs": [],
      "name": "MAX_EXPIRY",
      "outputs": [
        {
          "internalType": "uint256",
          "name": "",
          "type": "uint256"
        }
      ],
      "stateMutability": "view",
      "type": "function"
    },
    {
      "inputs": [],
      "name": "MAX_FEE_BPS",
      "outputs": [
        {
          "internalType": "uint256",
          "name": "",
          "type": "uint256"
        }
      ],
      "stateMutability": "view",
      "type": "function"
    },
    {
      "inputs": [],
      "name": "MIN_EXPIRY",
      "outputs": [
        {
          "internalType": "uint256",
          "name": "",
          "type": "uint256"
        }
      ],
      "stateMutability": "view",
      "type": "function"
    },
    {
      "inputs": [],
      "name": "OPERATOR_ROLE",
      "outputs": [
        {
          "internalType": "bytes32",
          "name": "",
          "type": "bytes32"
        }
      ],
      "stateMutability": "view",
      "type": "function"
    },
    {
      "inputs": [
        {
          "internalType": "address",
          "name": "tokenIn",
          "type": "address"
        },
        {
          "internalType": "address",
          "name": "tokenOut",
          "type": "address"
        },
        {
          "internalType": "uint256",
          "name": "amountIn",
          "type": "uint256"
        },
        {
          "internalType": "uint256",
          "name": "amountOut",
          "type": "uint256"
        },
        {
          "internalType": "uint256",
          "name": "secretNonce",
          "type": "uint256"
        },
        {
          "internalType": "uint256",
          "name": "nonce",
          "type": "uint256"
        }
      ],
      "name": "calculateCommitment",
      "outputs": [
        {
          "internalType": "bytes32",
          "name": "",
          "type": "bytes32"
        }
      ],
      "stateMutability": "pure",
      "type": "function"
    },
    {
      "inputs": [
        {
          "internalType": "address",
          "name": "requester",
          "type": "address"
        }
      ],
      "name": "canEmergencyWithdraw",
      "outputs": [
        {
          "internalType": "bool",
          "name": "",
          "type": "bool"
        }
      ],
      "stateMutability": "view",
      "type": "function"
    },
    {
      "inputs": [
        {
          "internalType": "bytes32",
          "name": "commitment",
          "type": "bytes32"
        }
      ],
      "name": "cancelSwapOffer",
      "outputs": [],
      "stateMutability": "nonpayable",
      "type": "function"
    },
    {
      "inputs": [
        {
          "internalType": "bytes32",
          "name": "executionId",
          "type": "bytes32"
        },
        {
          "internalType": "bytes",
          "name": "offererSignature",
          "type": "bytes"
        },
        {
          "internalType": "bytes",
          "name": "takerSignature",
          "type": "bytes"
        }
      ],
      "name": "completeSwap",
      "outputs": [],
      "stateMutability": "nonpayable",
      "type": "function"
    },
    {
      "inputs": [
        {
          "internalType": "address",
          "name": "tokenIn",
          "type": "address"
        },
        {
          "internalType": "address",
          "name": "tokenOut",
          "type": "address"
        },
        {
          "internalType": "uint256",
          "name": "amountIn",
          "type": "uint256"
        },
        {
          "internalType": "uint256",
          "name": "amountOut",
          "type": "uint256"
        },
        {
          "internalType": "uint256",
          "name": "secretNonce",
          "type": "uint256"
        },
        {
          "internalType": "uint256",
          "name": "customExpiry",
          "type": "uint256"
        }
      ],
      "name": "createSwapOffer",
      "outputs": [],
      "stateMutability": "nonpayable",
      "type": "function"
    },
    {
      "inputs": [],
      "name": "defaultExpiry",
      "outputs": [
        {
          "internalType": "uint256",
          "name": "",
          "type": "uint256"
        }
      ],
      "stateMutability": "view",
      "type": "function"
    },
    {
      "inputs": [],
      "name": "disableEmergencyMode",
      "outputs": [],
      "stateMutability": "nonpayable",
      "type": "function"
    },
    {
      "inputs": [
        {
          "internalType": "bytes32",
          "name": "executionId",
          "type": "bytes32"
        },
        {
          "internalType": "string",
          "name": "reason",
          "type": "string"
        }
      ],
      "name": "disputeSwap",
      "outputs": [],
      "stateMutability": "nonpayable",
      "type": "function"
    },
    {
      "inputs": [],
      "name": "emergencyMode",
      "outputs": [
        {
          "internalType": "bool",
          "name": "",
          "type": "bool"
        }
      ],
      "stateMutability": "view",
      "type": "function"
    },
    {
      "inputs": [],
      "name": "emergencyModeTime",
      "outputs": [
        {
          "internalType": "uint256",
          "name": "",
          "type": "uint256"
        }
      ],
      "stateMutability": "view",
      "type": "function"
    },
    {
      "inputs": [
        {
          "internalType": "address",
          "name": "",
          "type": "address"
        }
      ],
      "name": "emergencyRequests",
      "outputs": [
        {
          "internalType": "address",
          "name": "requester",
          "type": "address"
        },
        {
          "internalType": "uint256",
          "name": "requestTime",
          "type": "uint256"
        },
        {
          "internalType": "bool",
          "name": "isExecuted",
          "type": "bool"
        },
        {
          "internalType": "string",
          "name": "reason",
          "type": "string"
        }
      ],
      "stateMutability": "view",
      "type": "function"
    },
    {
      "inputs": [],
      "name": "emergencyWithdraw",
      "outputs": [],
      "stateMutability": "nonpayable",
      "type": "function"
    },
    {
      "inputs": [],
      "name": "enableEmergencyMode",
      "outputs": [],
      "stateMutability": "nonpayable",
      "type": "function"
    },
    {
      "inputs": [
        {
          "internalType": "address",
          "name": "requester",
          "type": "address"
        }
      ],
      "name": "executeEmergencyWithdraw",
      "outputs": [],
      "stateMutability": "nonpayable",
      "type": "function"
    },
    {
      "inputs": [],
      "name": "feeCollector",
      "outputs": [
        {
          "internalType": "address",
          "name": "",
          "type": "address"
        }
      ],
      "stateMutability": "view",
      "type": "function"
    },
    {
      "inputs": [],
      "name": "getCurrentNonce",
      "outputs": [
        {
          "internalType": "uint256",
          "name": "",
          "type": "uint256"
        }
      ],
      "stateMutability": "view",
      "type": "function"
    },
    {
      "inputs": [
        {
          "internalType": "address",
          "name": "requester",
          "type": "address"
        }
      ],
      "name": "getEmergencyRequest",
      "outputs": [
        {
          "components": [
            {
              "internalType": "address",
              "name": "requester",
              "type": "address"
            },
            {
              "internalType": "uint256",
              "name": "requestTime",
              "type": "uint256"
            },
            {
              "internalType": "bool",
              "name": "isExecuted",
              "type": "bool"
            },
            {
              "internalType": "string",
              "name": "reason",
              "type": "string"
            }
          ],
          "internalType": "struct AtomicSwap.EmergencyRequest",
          "name": "",
          "type": "tuple"
        }
      ],
      "stateMutability": "view",
      "type": "function"
    },
    {
      "inputs": [
        {
          "internalType": "bytes32",
          "name": "role",
          "type": "bytes32"
        }
      ],
      "name": "getRoleAdmin",
      "outputs": [
        {
          "internalType": "bytes32",
          "name": "",
          "type": "bytes32"
        }
      ],
      "stateMutability": "view",
      "type": "function"
    },
    {
      "inputs": [
        {
          "internalType": "bytes32",
          "name": "executionId",
          "type": "bytes32"
        }
      ],
      "name": "getSwapExecution",
      "outputs": [
        {
          "components": [
            {
              "internalType": "address",
              "name": "offerer",
              "type": "address"
            },
            {
              "internalType": "address",
              "name": "taker",
              "type": "address"
            },
            {
              "internalType": "address",
              "name": "tokenIn",
              "type": "address"
            },
            {
              "internalType": "address",
              "name": "tokenOut",
              "type": "address"
            },
            {
              "internalType": "uint256",
              "name": "amountIn",
              "type": "uint256"
            },
            {
              "internalType": "uint256",
              "name": "amountOut",
              "type": "uint256"
            },
            {
              "internalType": "uint256",
              "name": "timestamp",
              "type": "uint256"
            },
            {
              "internalType": "bool",
              "name": "isCompleted",
              "type": "bool"
            },
            {
              "internalType": "bool",
              "name": "isDisputed",
              "type": "bool"
            }
          ],
          "internalType": "struct AtomicSwap.SwapExecution",
          "name": "",
          "type": "tuple"
        }
      ],
      "stateMutability": "view",
      "type": "function"
    },
    {
      "inputs": [
        {
          "internalType": "bytes32",
          "name": "commitment",
          "type": "bytes32"
        }
      ],
      "name": "getSwapOffer",
      "outputs": [
        {
          "components": [
            {
              "internalType": "address",
              "name": "offerer",
              "type": "address"
            },
            {
              "internalType": "address",
              "name": "tokenIn",
              "type": "address"
            },
            {
              "internalType": "address",
              "name": "tokenOut",
              "type": "address"
            },
            {
              "internalType": "uint256",
              "name": "amountIn",
              "type": "uint256"
            },
            {
              "internalType": "uint256",
              "name": "amountOut",
              "type": "uint256"
            },
            {
              "internalType": "uint256",
              "name": "nonce",
              "type": "uint256"
            },
            {
              "internalType": "uint256",
              "name": "expiry",
              "type": "uint256"
            },
            {
              "internalType": "bool",
              "name": "isActive",
              "type": "bool"
            },
            {
              "internalType": "bool",
              "name": "isCancelled",
              "type": "bool"
            },
            {
              "internalType": "bytes32",
              "name": "commitment",
              "type": "bytes32"
            }
          ],
          "internalType": "struct AtomicSwap.SwapOffer",
          "name": "",
          "type": "tuple"
        }
      ],
      "stateMutability": "view",
      "type": "function"
    },
    {
      "inputs": [
        {
          "internalType": "address",
          "name": "emergency",
          "type": "address"
        }
      ],
      "name": "grantEmergencyRole",
      "outputs": [],
      "stateMutability": "nonpayable",
      "type": "function"
    },
    {
      "inputs": [
        {
          "internalType": "address",
          "name": "operator",
          "type": "address"
        }
      ],
      "name": "grantOperatorRole",
      "outputs": [],
      "stateMutability": "nonpayable",
      "type": "function"
    },
    {
      "inputs": [
        {
          "internalType": "bytes32",
          "name": "role",
          "type": "bytes32"
        },
        {
          "internalType": "address",
          "name": "account",
          "type": "address"
        }
      ],
      "name": "grantRole",
      "outputs": [],
      "stateMutability": "nonpayable",
      "type": "function"
    },
    {
      "inputs": [
        {
          "internalType": "bytes32",
          "name": "role",
          "type": "bytes32"
        },
        {
          "internalType": "address",
          "name": "account",
          "type": "address"
        }
      ],
      "name": "hasRole",
      "outputs": [
        {
          "internalType": "bool",
          "name": "",
          "type": "bool"
        }
      ],
      "stateMutability": "view",
      "type": "function"
    },
    {
      "inputs": [
        {
          "internalType": "bytes32",
          "name": "commitment",
          "type": "bytes32"
        }
      ],
      "name": "isOfferActive",
      "outputs": [
        {
          "internalType": "bool",
          "name": "",
          "type": "bool"
        }
      ],
      "stateMutability": "view",
      "type": "function"
    },
    {
      "inputs": [],
      "name": "maxSwapAmount",
      "outputs": [
        {
          "internalType": "uint256",
          "name": "",
          "type": "uint256"
        }
      ],
      "stateMutability": "view",
      "type": "function"
    },
    {
      "inputs": [],
      "name": "minSwapAmount",
      "outputs": [
        {
          "internalType": "uint256",
          "name": "",
          "type": "uint256"
        }
      ],
      "stateMutability": "view",
      "type": "function"
    },
    {
      "inputs": [],
      "name": "pause",
      "outputs": [],
      "stateMutability": "nonpayable",
      "type": "function"
    },
    {
      "inputs": [],
      "name": "paused",
      "outputs": [
        {
          "internalType": "bool",
          "name": "",
          "type": "bool"
        }
      ],
      "stateMutability": "view",
      "type": "function"
    },
    {
      "inputs": [
        {
          "internalType": "bytes32",
          "name": "role",
          "type": "bytes32"
        },
        {
          "internalType": "address",
          "name": "account",
          "type": "address"
        }
      ],
      "name": "renounceRole",
      "outputs": [],
      "stateMutability": "nonpayable",
      "type": "function"
    },
    {
      "inputs": [
        {
          "internalType": "string",
          "name": "reason",
          "type": "string"
        }
      ],
      "name": "requestEmergencyWithdraw",
      "outputs": [],
      "stateMutability": "nonpayable",
      "type": "function"
    },
    {
      "inputs": [
        {
          "internalType": "address",
          "name": "emergency",
          "type": "address"
        }
      ],
      "name": "revokeEmergencyRole",
      "outputs": [],
      "stateMutability": "nonpayable",
      "type": "function"
    },
    {
      "inputs": [
        {
          "internalType": "address",
          "name": "operator",
          "type": "address"
        }
      ],
      "name": "revokeOperatorRole",
      "outputs": [],
      "stateMutability": "nonpayable",
      "type": "function"
    },
    {
      "inputs": [
        {
          "internalType": "bytes32",
          "name": "role",
          "type": "bytes32"
        },
        {
          "internalType": "address",
          "name": "account",
          "type": "address"
        }
      ],
      "name": "revokeRole",
      "outputs": [],
      "stateMutability": "nonpayable",
      "type": "function"
    },
    {
      "inputs": [
        {
          "internalType": "uint256",
          "name": "_defaultExpiry",
          "type": "uint256"
        }
      ],
      "name": "setDefaultExpiry",
      "outputs": [],
      "stateMutability": "nonpayable",
      "type": "function"
    },
    {
      "inputs": [
        {
          "internalType": "address",
          "name": "_feeCollector",
          "type": "address"
        }
      ],
      "name": "setFeeCollector",
      "outputs": [],
      "stateMutability": "nonpayable",
      "type": "function"
    },
    {
      "inputs": [
        {
          "internalType": "uint256",
          "name": "_swapFee",
          "type": "uint256"
        }
      ],
      "name": "setSwapFee",
      "outputs": [],
      "stateMutability": "nonpayable",
      "type": "function"
    },
    {
      "inputs": [
        {
          "internalType": "uint256",
          "name": "_minSwapAmount",
          "type": "uint256"
        },
        {
          "internalType": "uint256",
          "name": "_maxSwapAmount",
          "type": "uint256"
        }
      ],
      "name": "setSwapLimits",
      "outputs": [],
      "stateMutability": "nonpayable",
      "type": "function"
    },
    {
      "inputs": [
        {
          "internalType": "bytes4",
          "name": "interfaceId",
          "type": "bytes4"
        }
      ],
      "name": "supportsInterface",
      "outputs": [
        {
          "internalType": "bool",
          "name": "",
          "type": "bool"
        }
      ],
      "stateMutability": "view",
      "type": "function"
    },
    {
      "inputs": [
        {
          "internalType": "bytes32",
          "name": "",
          "type": "bytes32"
        }
      ],
      "name": "swapExecutions",
      "outputs": [
        {
          "internalType": "address",
          "name": "offerer",
          "type": "address"
        },
        {
          "internalType": "address",
          "name": "taker",
          "type": "address"
        },
        {
          "internalType": "address",
          "name": "tokenIn",
          "type": "address"
        },
        {
          "internalType": "address",
          "name": "tokenOut",
          "type": "address"
        },
        {
          "internalType": "uint256",
          "name": "amountIn",
          "type": "uint256"
        },
        {
          "internalType": "uint256",
          "name": "amountOut",
          "type": "uint256"
        },
        {
          "internalType": "uint256",
          "name": "timestamp",
          "type": "uint256"
        },
        {
          "internalType": "bool",
          "name": "isCompleted",
          "type": "bool"
        },
        {
          "internalType": "bool",
          "name": "isDisputed",
          "type": "bool"
        }
      ],
      "stateMutability": "view",
      "type": "function"
    },
    {
      "inputs": [],
      "name": "swapFee",
      "outputs": [
        {
          "internalType": "uint256",
          "name": "",
          "type": "uint256"
        }
      ],
      "stateMutability": "view",
      "type": "function"
    },
    {
      "inputs": [],
      "name": "swapNonce",
      "outputs": [
        {
          "internalType": "uint256",
          "name": "",
          "type": "uint256"
        }
      ],
      "stateMutability": "view",
      "type": "function"
    },
    {
      "inputs": [
        {
          "internalType": "bytes32",
          "name": "",
          "type": "bytes32"
        }
      ],
      "name": "swapOffers",
      "outputs": [
        {
          "internalType": "address",
          "name": "offerer",
          "type": "address"
        },
        {
          "internalType": "address",
          "name": "tokenIn",
          "type": "address"
        },
        {
          "internalType": "address",
          "name": "tokenOut",
          "type": "address"
        },
        {
          "internalType": "uint256",
          "name": "amountIn",
          "type": "uint256"
        },
        {
          "internalType": "uint256",
          "name": "amountOut",
          "type": "uint256"
        },
        {
          "internalType": "uint256",
          "name": "nonce",
          "type": "uint256"
        },
        {
          "internalType": "uint256",
          "name": "expiry",
          "type": "uint256"
        },
        {
          "internalType": "bool",
          "name": "isActive",
          "type": "bool"
        },
        {
          "internalType": "bool",
          "name": "isCancelled",
          "type": "bool"
        },
        {
          "internalType": "bytes32",
          "name": "commitment",
          "type": "bytes32"
        }
      ],
      "stateMutability": "view",
      "type": "function"
    },
    {
      "inputs": [
        {
          "internalType": "bytes32",
          "name": "commitment",
          "type": "bytes32"
        },
        {
          "internalType": "uint256",
          "name": "secretNonce",
          "type": "uint256"
        }
      ],
      "name": "takeSwapOffer",
      "outputs": [],
      "stateMutability": "nonpayable",
      "type": "function"
    },
    {
      "inputs": [],
      "name": "unpause",
      "outputs": [],
      "stateMutability": "nonpayable",
      "type": "function"
    },
    {
      "stateMutability": "payable",
      "type": "receive"
    }
  ],
  "bytecode": "0x60806040523480156200001157600080fd5b5060405162003b3938038062003b3983398101604081905262000034916200027d565b60016000819055805460ff19169055828410620000985760405162461bcd60e51b815260206004820152601360248201527f496e76616c69642073776170206c696d6974730000000000000000000000000060448201526064015b60405180910390fd5b61012c8210158015620000ae575062093a808211155b620000fc5760405162461bcd60e51b815260206004820152601660248201527f496e76616c69642064656661756c74206578706972790000000000000000000060448201526064016200008f565b6103e88111156200013f5760405162461bcd60e51b815260206004820152600c60248201526b08ccaca40e8dede40d0d2ced60a31b60448201526064016200008f565b600784905560088390556009829055600b819055600a80546001600160a01b031916339081179091556200017690600090620001d8565b620001a27f97667070c54ef182b0f5858b034beac1b6f3089aa2d3188bb1e8929f4fa9b92933620001d8565b620001ce7fbf233dd2aafeb4d50879c4aa5c81e96d92f6e6945c906a58f9f2d1c1631b4b2633620001d8565b50505050620002b4565b60008281526002602090815260408083206001600160a01b038516845290915290205460ff16620002795760008281526002602090815260408083206001600160a01b03851684529091529020805460ff19166001179055620002383390565b6001600160a01b0316816001600160a01b0316837f2f8788117e7eff1d82e926ec794901d17c78024a50270940304540a733656f0d60405160405180910390a45b5050565b600080600080608085870312156200029457600080fd5b505082516020840151604085015160609095015191969095509092509050565b61387580620002c46000396000f3fe6080604052600436106103035760003560e01c80638f015f6c11610190578063bede5eca116100dc578063d547741f11610095578063dbcf79dc1161006f578063dbcf79dc14610a3f578063ef95256814610b42578063f5b541a614610b57578063fc8400cf14610b7957600080fd5b8063d547741f146109f4578063d55be8c614610a14578063db2e21bc14610a2a57600080fd5b8063bede5eca1461092b578063bfbeecfb14610941578063c415b95c14610971578063c5b1c7d0146109a9578063c77eca20146109be578063cce987d4146109de57600080fd5b8063a42dce8011610149578063acef2efc11610123578063acef2efc146108b4578063ad943d62146108d4578063b219f7d7146108f4578063b96716901461091457600080fd5b8063a42dce8014610854578063a941e8d614610874578063a9f1a5491461089457600080fd5b80638f015f6c146106dd57806390683401146107bf57806391d14854146107df578063940cc475146107ff57806399643fb61461081f578063a217fddf1461083f57600080fd5b80634eb3085b1161024f57806360d7442b116102085780637a2888b0116101e25780637a2888b01461067c5780638456cb59146106925780638cfb3088146106a75780638d976cf6146106bd57600080fd5b806360d7442b146106255780637314eb0c1461063c57806377b16f9e1461065c57600080fd5b80634eb3085b146104cd57806352a11ff9146105a157806353f74a7e146105c157806354cf2aeb146105d75780635c4c461e146105ed5780635c975abb1461060d57600080fd5b80632f2ff15d116102bc57806336568abe1161029657806336568abe146104635780633a60c386146104835780633b085b1e146104985780633f4ba83a146104b857600080fd5b80632f2ff15d1461040d578063338246e21461042d57806334e199071461044357600080fd5b806301ffc9a71461030f5780630905f56014610344578063112606d61461035e57806320df43591461038b578063248a9ca3146103bb57806327ac0c58146103eb57600080fd5b3661030a57005b600080fd5b34801561031b57600080fd5b5061032f61032a366004613038565b610c8f565b60405190151581526020015b60405180910390f35b34801561035057600080fd5b50600c5461032f9060ff1681565b34801561036a57600080fd5b5061037e61037936600461307e565b610cc6565b60405161033b91906130e9565b34801561039757600080fd5b506103ad60008051602061380083398151915281565b60405190815260200161033b565b3480156103c757600080fd5b506103ad6103d6366004613134565b60009081526002602052604090206001015490565b3480156103f757600080fd5b5061040b61040636600461307e565b610dd0565b005b34801561041957600080fd5b5061040b61042836600461314d565b610df7565b34801561043957600080fd5b506103ad60075481565b34801561044f57600080fd5b5061040b61045e366004613134565b610e21565b34801561046f57600080fd5b5061040b61047e36600461314d565b610eb9565b34801561048f57600080fd5b506006546103ad565b3480156104a457600080fd5b5061040b6104b3366004613179565b610f33565b3480156104c457600080fd5b5061040b611486565b3480156104d957600080fd5b506105496104e8366004613134565b6004602081905260009182526040909120805460018201546002830154600384015494840154600585015460068601546007909601546001600160a01b03958616979486169693861695909416939192909160ff8082169161010090041689565b604080516001600160a01b039a8b168152988a1660208a015296891696880196909652969093166060860152608085019190915260a084015260c083015291151560e08201529015156101008201526101200161033b565b3480156105ad57600080fd5b5061040b6105bc36600461323e565b61149c565b3480156105cd57600080fd5b506103ad60065481565b3480156105e357600080fd5b506103ad600b5481565b3480156105f957600080fd5b5061032f610608366004613134565b61161c565b34801561061957600080fd5b5060015460ff1661032f565b34801561063157600080fd5b506103ad6201518081565b34801561064857600080fd5b5061040b61065736600461307e565b61165f565b34801561066857600080fd5b5061040b610677366004613285565b611682565b34801561068857600080fd5b506103ad600d5481565b34801561069e57600080fd5b5061040b611b2e565b3480156106b357600080fd5b506103ad60095481565b3480156106c957600080fd5b5061040b6106d83660046132da565b611b41565b3480156106e957600080fd5b506107606106f8366004613134565b60036020819052600091825260409091208054600182015460028301549383015460048401546005850154600686015460078701546008909701546001600160a01b0396871698958716979590961695939492939192909160ff80831692610100900416908a565b604080516001600160a01b039b8c168152998b1660208b015297909916968801969096526060870194909452608086019290925260a085015260c0840152151560e083015215156101008201526101208101919091526101400161033b565b3480156107cb57600080fd5b5061040b6107da366004613134565b611c75565b3480156107eb57600080fd5b5061032f6107fa36600461314d565b611e83565b34801561080b57600080fd5b5061040b61081a366004613179565b611eae565b34801561082b57600080fd5b506103ad61083a366004613285565b611f39565b34801561084b57600080fd5b506103ad600081565b34801561086057600080fd5b5061040b61086f36600461307e565b611f78565b34801561088057600080fd5b5061040b61088f366004613134565b612025565b3480156108a057600080fd5b5061032f6108af36600461307e565b6120c0565b3480156108c057600080fd5b5061040b6108cf36600461307e565b612116565b3480156108e057600080fd5b5061040b6108ef36600461307e565b612139565b34801561090057600080fd5b5061040b61090f36600461307e565b612305565b34801561092057600080fd5b506103ad62093a8081565b34801561093757600080fd5b506103ad61012c81565b34801561094d57600080fd5b5061096161095c36600461307e565b612328565b60405161033b949392919061330f565b34801561097d57600080fd5b50600a54610991906001600160a01b031681565b6040516001600160a01b03909116815260200161033b565b3480156109b557600080fd5b5061040b6123e9565b3480156109ca57600080fd5b5061040b6109d9366004613348565b6124b3565b3480156109ea57600080fd5b506103ad60085481565b348015610a0057600080fd5b5061040b610a0f36600461314d565b612859565b348015610a2057600080fd5b506103ad6103e881565b348015610a3657600080fd5b5061040b61287e565b348015610a4b57600080fd5b50610b35610a5a366004613134565b6040805161012081018252600080825260208201819052918101829052606081018290526080810182905260a0810182905260c0810182905260e081018290526101008101919091525060009081526004602081815260409283902083516101208101855281546001600160a01b0390811682526001830154811693820193909352600282015483169481019490945260038101549091166060840152908101546080830152600581015460a0830152600681015460c08301526007015460ff808216151560e0840152610100918290041615159082015290565b60405161033b91906133b5565b348015610b4e57600080fd5b5061040b6128b5565b348015610b6357600080fd5b506103ad60008051602061382083398151915281565b348015610b8557600080fd5b50610c82610b94366004613134565b6040805161014081018252600080825260208201819052918101829052606081018290526080810182905260a0810182905260c0810182905260e0810182905261010081018290526101208101919091525060009081526003602081815260409283902083516101408101855281546001600160a01b039081168252600183015481169382019390935260028201549092169382019390935290820154606082015260048201546080820152600582015460a0820152600682015460c0820152600782015460ff808216151560e0840152610100918290041615159082015260089091015461012082015290565b60405161033b9190613433565b60006001600160e01b03198216637965db0b60e01b1480610cc057506301ffc9a760e01b6001600160e01b03198316145b92915050565b60408051608081018252600080825260208201819052918101919091526060808201526001600160a01b03808316600090815260056020908152604091829020825160808101845281549094168452600181015491840191909152600281015460ff16151591830191909152600381018054606084019190610d47906134d6565b80601f0160208091040260200160405190810160405280929190818152602001828054610d73906134d6565b8015610dc05780601f10610d9557610100808354040283529160200191610dc0565b820191906000526020600020905b815481529060010190602001808311610da357829003601f168201915b5050505050815250509050919050565b6000610ddb8161291c565b610df360008051602061382083398151915283612926565b5050565b600082815260026020526040902060010154610e128161291c565b610e1c8383612926565b505050565b6000610e2c8161291c565b6103e8821115610e725760405162461bcd60e51b815260206004820152600c60248201526b08ccaca40e8dede40d0d2ced60a31b60448201526064015b60405180910390fd5b600b80549083905560408051828152602081018590527f528d9479e9f9889a87a3c30c7f7ba537e5e59c4c85a37733b16e57c62df6130291015b60405180910390a1505050565b6001600160a01b0381163314610f295760405162461bcd60e51b815260206004820152602f60248201527f416363657373436f6e74726f6c3a2063616e206f6e6c792072656e6f756e636560448201526e103937b632b9903337b91039b2b63360891b6064820152608401610e69565b610df382826129ac565b60008281526003602052604090205482906001600160a01b0316610f905760405162461bcd60e51b815260206004820152601460248201527313d999995c88191bd95cc81b9bdd08195e1a5cdd60621b6044820152606401610e69565b60008181526003602052604090206007015460ff16610fe45760405162461bcd60e51b815260206004820152601060248201526f4f66666572206e6f742061637469766560801b6044820152606401610e69565b600081815260036020526040902060070154610100900460ff161561103d5760405162461bcd60e51b815260206004820152600f60248201526e13d999995c8818d85b98d95b1b1959608a1b6044820152606401610e69565b60008181526003602052604090206006015442111561108e5760405162461bcd60e51b815260206004820152600d60248201526c13d999995c88195e1c1a5c9959609a1b6044820152606401610e69565b611096612a13565b61109e612a6c565b600c5460ff16156110c15760405162461bcd60e51b8152600401610e6990613510565b600083815260036020526040902080546001600160a01b031633036111205760405162461bcd60e51b815260206004820152601560248201527421b0b73737ba103a30b5b29037bbb71037b33332b960591b6044820152606401610e69565b60018101546002820154600383015460048401546005850154604051600095611161956001600160a01b0391821695911693909290918a9190602001613547565b6040516020818303038152906040528051906020012090508085146111bd5760405162461bcd60e51b8152602060048201526012602482015271125b9d985b1a590818dbdb5b5a5d1b595b9d60721b6044820152606401610e69565b60408051602081018790526bffffffffffffffffffffffff193360601b16918101919091524260548201526000906074016040516020818303038152906040528051906020012090506040518061012001604052808460000160009054906101000a90046001600160a01b03166001600160a01b03168152602001336001600160a01b031681526020018460010160009054906101000a90046001600160a01b03166001600160a01b031681526020018460020160009054906101000a90046001600160a01b03166001600160a01b031681526020018460030154815260200184600401548152602001428152602001600015158152602001600015158152506004600083815260200190815260200160002060008201518160000160006101000a8154816001600160a01b0302191690836001600160a01b0316021790555060208201518160010160006101000a8154816001600160a01b0302191690836001600160a01b0316021790555060408201518160020160006101000a8154816001600160a01b0302191690836001600160a01b0316021790555060608201518160030160006101000a8154816001600160a01b0302191690836001600160a01b031602179055506080820151816004015560a0820151816005015560c0820151816006015560e08201518160070160006101000a81548160ff0219169083151502179055506101008201518160070160016101000a81548160ff02191690831515021790555090505060008360070160006101000a81548160ff0219169083151502179055508260000160009054906101000a90046001600160a01b03166001600160a01b0316336001600160a01b0316877f33003dd1694b78bffb03fa3c4c4ed5bd9c2103d954e97f1107168905b2f1097986600301548760040154604051611471929190918252602082015260400190565b60405180910390a4505050610e1c6001600055565b60006114918161291c565b611499612ab4565b50565b6114b460008051602061382083398151915233611e83565b6115005760405162461bcd60e51b815260206004820152601960248201527f43616c6c6572206973206e6f7420616e206f70657261746f72000000000000006044820152606401610e69565b611508612a6c565b600082815260046020526040902080546001600160a01b03166115685760405162461bcd60e51b8152602060048201526018602482015277115e1958dd5d1a5bdb88191bd95cc81b9bdd08195e1a5cdd60421b6044820152606401610e69565b600781015460ff16156115b65760405162461bcd60e51b815260206004820152601660248201527514ddd85c08185b1c9958591e4818dbdb5c1b195d195960521b6044820152606401610e69565b6007810154610100900460ff16156116085760405162461bcd60e51b815260206004820152601560248201527414ddd85c08185b1c9958591e48191a5cdc1d5d1959605a1b6044820152606401610e69565b600701805461ff0019166101001790555050565b6000818152600360205260408120600781015460ff16801561164857506007810154610100900460ff16155b8015611658575080600601544211155b9392505050565b600061166a8161291c565b610df360008051602061380083398151915283612926565b61168a612a6c565b600c5460ff16156116ad5760405162461bcd60e51b8152600401610e6990613510565b6116b5612a13565b846001600160a01b0316866001600160a01b0316036117035760405162461bcd60e51b815260206004820152600a60248201526929b0b6b2903a37b5b2b760b11b6044820152606401610e69565b6001600160a01b0386161580159061172357506001600160a01b03851615155b61176f5760405162461bcd60e51b815260206004820152601760248201527f496e76616c696420746f6b656e206164647265737365730000000000000000006044820152606401610e69565b6007548410156117b45760405162461bcd60e51b815260206004820152601060248201526f105b5bdd5b9d081d1bdbc81cdb585b1b60821b6044820152606401610e69565b6008548411156117f95760405162461bcd60e51b815260206004820152601060248201526f416d6f756e7420746f6f206c6172676560801b6044820152606401610e69565b600083116118415760405162461bcd60e51b8152602060048201526015602482015274125b9d985b1a59081bdd5d1c1d5d08185b5bdd5b9d605a1b6044820152606401610e69565b600080821161185d57600954611858904290612b06565b61185f565b815b90504281116118a15760405162461bcd60e51b815260206004820152600e60248201526d496e76616c69642065787069727960901b6044820152606401610e69565b6118ae4262093a80612b06565b8111156118ee5760405162461bcd60e51b815260206004820152600e60248201526d22bc3834b93c903a37b7903330b960911b6044820152606401610e69565b6000878787878760065460405160200161190d96959493929190613547565b60408051601f198184030181529181528151602092830120600081815260039093529120549091506001600160a01b03161561198b5760405162461bcd60e51b815260206004820152601960248201527f436f6d6d69746d656e7420616c726561647920657869737473000000000000006044820152606401610e69565b604051806101400160405280336001600160a01b03168152602001896001600160a01b03168152602001886001600160a01b03168152602001878152602001868152602001600660008154809291906119e39061359d565b909155508152602080820185905260016040808401829052600060608086018290526080958601889052878252600380865291839020875181546001600160a01b039182166001600160a01b031991821617835589880151968301805497831697821697909717909655888501516002830180549183169190971617909555878201519281019290925586860151600483015560a080880151600584015560c0880151600684015560e0880151600784018054610100808c015115150261ff00199315159390931661ffff19909116179190911790556101209097015160089092019190915581518e84168152928d169383019390935281018a9052908101889052908101849052339183917f55b855aa603da3a04afd8da99c897420660be230a68c0614ce55a14a922fa3da910160405180910390a35050611b266001600055565b505050505050565b6000611b398161291c565b611499612b12565b336000908152600560205260409020546001600160a01b031615611bb65760405162461bcd60e51b815260206004820152602660248201527f456d657267656e6379207769746864726177616c20616c7265616479207265716044820152651d595cdd195960d21b6064820152608401610e69565b6040805160808101825233808252426020808401918252600084860181815260608601888152948252600590925294909420835181546001600160a01b0319166001600160a01b0390911617815590516001820155925160028401805460ff1916911515919091179055519091906003820190611c3390826135fc565b50506040513391507fd84b306c4af9d4777df24b4265638b9e45af2c2997bc3015ab6fa48ef5d06f9690611c6a90429085906136bc565b60405180910390a250565b60008181526003602052604090205481906001600160a01b0316611cd25760405162461bcd60e51b815260206004820152601460248201527313d999995c88191bd95cc81b9bdd08195e1a5cdd60621b6044820152606401610e69565b60008181526003602052604090206007015460ff16611d265760405162461bcd60e51b815260206004820152601060248201526f4f66666572206e6f742061637469766560801b6044820152606401610e69565b600081815260036020526040902060070154610100900460ff1615611d7f5760405162461bcd60e51b815260206004820152600f60248201526e13d999995c8818d85b98d95b1b1959608a1b6044820152606401610e69565b600081815260036020526040902060060154421115611dd05760405162461bcd60e51b815260206004820152600d60248201526c13d999995c88195e1c1a5c9959609a1b6044820152606401610e69565b60008281526003602052604090205482906001600160a01b03163314611e2a5760405162461bcd60e51b815260206004820152600f60248201526e2737ba1037b33332b91037bbb732b960891b6044820152606401610e69565b611e32612a6c565b60008381526003602052604080822060078101805461ffff191661010017905590519091339186917fd7aaa11477f44f7f00ac9dfc4615d28d5db3607254234c569f459afa01ca1a8791a350505050565b60009182526002602090815260408084206001600160a01b0393909316845291905290205460ff1690565b6000611eb98161291c565b818310611ef95760405162461bcd60e51b815260206004820152600e60248201526d496e76616c6964206c696d69747360901b6044820152606401610e69565b6007839055600882905560408051848152602081018490527f13cc69f8eac02944892b009f29ac94ab0629dc47cddc17cd414650614008a75c9101610eac565b6000868686868686604051602001611f5696959493929190613547565b6040516020818303038152906040528051906020012090509695505050505050565b6000611f838161291c565b6001600160a01b038216611fcb5760405162461bcd60e51b815260206004820152600f60248201526e496e76616c6964206164647265737360881b6044820152606401610e69565b600a80546001600160a01b038481166001600160a01b031983168117909355604080519190921680825260208201939093527f5d16ad41baeb009cd23eb8f6c7cde5c2e0cd5acf4a33926ab488875c37c37f389101610eac565b60006120308161291c565b61012c8210158015612045575062093a808211155b6120825760405162461bcd60e51b815260206004820152600e60248201526d496e76616c69642065787069727960901b6044820152606401610e69565b600980549083905560408051828152602081018590527fb753d218d015779481c08425810b25a3ebe78ff39677d587b4c70c4eb5316f399101610eac565b6001600160a01b03808216600081815260056020526040812080549193909291161480156120f35750600281015460ff16155b80156116585750600181015461210c9062015180612b06565b4210159392505050565b60006121218161291c565b610df3600080516020613800833981519152836129ac565b61215160008051602061380083398151915233611e83565b61219d5760405162461bcd60e51b815260206004820152601c60248201527f43616c6c6572206973206e6f7420656d657267656e637920726f6c65000000006044820152606401610e69565b6121a5612a13565b6001600160a01b0380821660008181526005602052604090208054909216146122075760405162461bcd60e51b8152602060048201526014602482015273139bc8195b595c99d95b98de481c995c5d595cdd60621b6044820152606401610e69565b600281015460ff161561224f5760405162461bcd60e51b815260206004820152601060248201526f105b1c9958591e48195e1958dd5d195960821b6044820152606401610e69565b60018101546122619062015180612b06565b4210156122a75760405162461bcd60e51b8152602060048201526014602482015273151a5b595b1bd8dac81b9bdd08195e1c1a5c995960621b6044820152606401610e69565b60028101805460ff1916600117905560408051600081524260208201526001600160a01b038416917fe5cea137e6f2eb6b43eb46d8f9c6eba1eafa59f0b48f8f4c80aefdcfd07e71ba910160405180910390a2506114996001600055565b60006123108161291c565b610df3600080516020613820833981519152836129ac565b60056020526000908152604090208054600182015460028301546003840180546001600160a01b0390941694929360ff9092169291612366906134d6565b80601f0160208091040260200160405190810160405280929190818152602001828054612392906134d6565b80156123df5780601f106123b4576101008083540402835291602001916123df565b820191906000526020600020905b8154815290600101906020018083116123c257829003601f168201915b5050505050905084565b61240160008051602061380083398151915233611e83565b61244d5760405162461bcd60e51b815260206004820152601c60248201527f43616c6c6572206973206e6f7420656d657267656e637920726f6c65000000006044820152606401610e69565b600c5460ff16156124a05760405162461bcd60e51b815260206004820152601960248201527f416c726561647920696e20656d657267656e6379206d6f6465000000000000006044820152606401610e69565b600c805460ff1916600117905542600d55565b6124bb612a13565b6124c3612a6c565b600c5460ff16156124e65760405162461bcd60e51b8152600401610e6990613510565b600083815260046020526040902080546001600160a01b03166125465760405162461bcd60e51b8152602060048201526018602482015277115e1958dd5d1a5bdb88191bd95cc81b9bdd08195e1a5cdd60421b6044820152606401610e69565b600781015460ff16156125945760405162461bcd60e51b815260206004820152601660248201527514ddd85c08185b1c9958591e4818dbdb5c1b195d195960521b6044820152606401610e69565b6007810154610100900460ff16156125e15760405162461bcd60e51b815260206004820152601060248201526f14ddd85c081a5cc8191a5cdc1d5d195960821b6044820152606401610e69565b6004810154600582015460068301546040805160208101899052908101939093526060830191909152608082015260009060a00160405160208183030381529060405280519060200120905060006126708561266a847f19457468657265756d205369676e6564204d6573736167653a0a3332000000006000908152601c91909152603c902090565b90612b4d565b905060006126af8561266a857f19457468657265756d205369676e6564204d6573736167653a0a3332000000006000908152601c91909152603c902090565b84549091506001600160a01b0383811691161461270e5760405162461bcd60e51b815260206004820152601960248201527f496e76616c6964206f666665726572207369676e6174757265000000000000006044820152606401610e69565b60018401546001600160a01b0382811691161461276d5760405162461bcd60e51b815260206004820152601760248201527f496e76616c69642074616b6572207369676e61747572650000000000000000006044820152606401610e69565b600061279461271061278e600b548860040154612b7190919063ffffffff16565b90612b7d565b905060006127af828760040154612b8990919063ffffffff16565b600787018054600160ff199091168117909155875490880154600289015460038a015460048b015460058c0154604080516001600160a01b039788168152958716602087015293861685850152949091166060840152608083015260a08201929092524260c082015290519192508a917f16f493249a3d5be79dbd9959e3cf167e6e3cc8be9cac7ca69c9642aed08cd8909181900360e00190a2505050505050610e1c6001600055565b6000828152600260205260409020600101546128748161291c565b610e1c83836129ac565b60006128898161291c565b60405133904780156108fc02916000818181858888f19350505050158015610df3573d6000803e3d6000fd5b60006128c08161291c565b600c5460ff1661290a5760405162461bcd60e51b81526020600482015260156024820152744e6f7420696e20656d657267656e6379206d6f646560581b6044820152606401610e69565b50600c805460ff191690556000600d55565b6114998133612b95565b6129308282611e83565b610df35760008281526002602090815260408083206001600160a01b03851684529091529020805460ff191660011790556129683390565b6001600160a01b0316816001600160a01b0316837f2f8788117e7eff1d82e926ec794901d17c78024a50270940304540a733656f0d60405160405180910390a45050565b6129b68282611e83565b15610df35760008281526002602090815260408083206001600160a01b0385168085529252808320805460ff1916905551339285917ff6391f5c32d9c69d2a47ea670b442974b53935d1edc7fd64eb21e047a839171b9190a45050565b600260005403612a655760405162461bcd60e51b815260206004820152601f60248201527f5265656e7472616e637947756172643a207265656e7472616e742063616c6c006044820152606401610e69565b6002600055565b60015460ff1615612ab25760405162461bcd60e51b815260206004820152601060248201526f14185d5cd8589b194e881c185d5cd95960821b6044820152606401610e69565b565b612abc612bee565b6001805460ff191690557f5db9ee0a495bf2e6ff9c91a7834c1ba4fdd244a5e8aa4e537bd38aeae4b073aa335b6040516001600160a01b03909116815260200160405180910390a1565b600061165882846136d5565b612b1a612a6c565b6001805460ff1916811790557f62e78cea01bee320cd4e420270b5ea74000d11b0c9f74754ebdbfc544b05a25833612ae9565b6000806000612b5c8585612c37565b91509150612b6981612c7c565b509392505050565b600061165882846136e8565b600061165882846136ff565b60006116588284613721565b612b9f8282611e83565b610df357612bac81612dc6565b612bb7836020612dd8565b604051602001612bc8929190613734565b60408051601f198184030181529082905262461bcd60e51b8252610e69916004016137a9565b60015460ff16612ab25760405162461bcd60e51b815260206004820152601460248201527314185d5cd8589b194e881b9bdd081c185d5cd95960621b6044820152606401610e69565b6000808251604103612c6d5760208301516040840151606085015160001a612c6187828585612f74565b94509450505050612c75565b506000905060025b9250929050565b6000816004811115612c9057612c906137bc565b03612c985750565b6001816004811115612cac57612cac6137bc565b03612cf95760405162461bcd60e51b815260206004820152601860248201527f45434453413a20696e76616c6964207369676e617475726500000000000000006044820152606401610e69565b6002816004811115612d0d57612d0d6137bc565b03612d5a5760405162461bcd60e51b815260206004820152601f60248201527f45434453413a20696e76616c6964207369676e6174757265206c656e677468006044820152606401610e69565b6003816004811115612d6e57612d6e6137bc565b036114995760405162461bcd60e51b815260206004820152602260248201527f45434453413a20696e76616c6964207369676e6174757265202773272076616c604482015261756560f01b6064820152608401610e69565b6060610cc06001600160a01b03831660145b60606000612de78360026136e8565b612df29060026136d5565b67ffffffffffffffff811115612e0a57612e0a61319b565b6040519080825280601f01601f191660200182016040528015612e34576020820181803683370190505b509050600360fc1b81600081518110612e4f57612e4f6137d2565b60200101906001600160f81b031916908160001a905350600f60fb1b81600181518110612e7e57612e7e6137d2565b60200101906001600160f81b031916908160001a9053506000612ea28460026136e8565b612ead9060016136d5565b90505b6001811115612f25576f181899199a1a9b1b9c1cb0b131b232b360811b85600f1660108110612ee157612ee16137d2565b1a60f81b828281518110612ef757612ef76137d2565b60200101906001600160f81b031916908160001a90535060049490941c93612f1e816137e8565b9050612eb0565b5083156116585760405162461bcd60e51b815260206004820181905260248201527f537472696e67733a20686578206c656e67746820696e73756666696369656e746044820152606401610e69565b6000807f7fffffffffffffffffffffffffffffff5d576e7357a4501ddfe92f46681b20a0831115612fab575060009050600361302f565b6040805160008082526020820180845289905260ff881692820192909252606081018690526080810185905260019060a0016020604051602081039080840390855afa158015612fff573d6000803e3d6000fd5b5050604051601f1901519150506001600160a01b0381166130285760006001925092505061302f565b9150600090505b94509492505050565b60006020828403121561304a57600080fd5b81356001600160e01b03198116811461165857600080fd5b80356001600160a01b038116811461307957600080fd5b919050565b60006020828403121561309057600080fd5b61165882613062565b60005b838110156130b457818101518382015260200161309c565b50506000910152565b600081518084526130d5816020860160208601613099565b601f01601f19169290920160200192915050565b6020815260018060a01b038251166020820152602082015160408201526040820151151560608201526000606083015160808084015261312c60a08401826130bd565b949350505050565b60006020828403121561314657600080fd5b5035919050565b6000806040838503121561316057600080fd5b8235915061317060208401613062565b90509250929050565b6000806040838503121561318c57600080fd5b50508035926020909101359150565b634e487b7160e01b600052604160045260246000fd5b600082601f8301126131c257600080fd5b813567ffffffffffffffff808211156131dd576131dd61319b565b604051601f8301601f19908116603f011681019082821181831017156132055761320561319b565b8160405283815286602085880101111561321e57600080fd5b836020870160208301376000602085830101528094505050505092915050565b6000806040838503121561325157600080fd5b82359150602083013567ffffffffffffffff81111561326f57600080fd5b61327b858286016131b1565b9150509250929050565b60008060008060008060c0878903121561329e57600080fd5b6132a787613062565b95506132b560208801613062565b95989597505050506040840135936060810135936080820135935060a0909101359150565b6000602082840312156132ec57600080fd5b813567ffffffffffffffff81111561330357600080fd5b61312c848285016131b1565b60018060a01b0385168152836020820152821515604082015260806060820152600061333e60808301846130bd565b9695505050505050565b60008060006060848603121561335d57600080fd5b83359250602084013567ffffffffffffffff8082111561337c57600080fd5b613388878388016131b1565b9350604086013591508082111561339e57600080fd5b506133ab868287016131b1565b9150509250925092565b81516001600160a01b03908116825260208084015182169083015260408084015182169083015260608084015191821690830152610120820190506080830151608083015260a083015160a083015260c083015160c083015260e083015161342160e084018215159052565b50610100928301511515919092015290565b81516001600160a01b031681526101408101602083015161345f60208401826001600160a01b03169052565b50604083015161347a60408401826001600160a01b03169052565b50606083015160608301526080830151608083015260a083015160a083015260c083015160c083015260e08301516134b660e084018215159052565b506101008381015180151584830152505061012092830151919092015290565b600181811c908216806134ea57607f821691505b60208210810361350a57634e487b7160e01b600052602260045260246000fd5b50919050565b6020808252601a908201527f436f6e747261637420696e20656d657267656e6379206d6f6465000000000000604082015260600190565b6bffffffffffffffffffffffff19606097881b811682529590961b9094166014860152602885019290925260488401526068830152608882015260a80190565b634e487b7160e01b600052601160045260246000fd5b6000600182016135af576135af613587565b5060010190565b601f821115610e1c57600081815260208120601f850160051c810160208610156135dd5750805b601f850160051c820191505b81811015611b26578281556001016135e9565b815167ffffffffffffffff8111156136165761361661319b565b61362a8161362484546134d6565b846135b6565b602080601f83116001811461365f57600084156136475750858301515b600019600386901b1c1916600185901b178555611b26565b600085815260208120601f198616915b8281101561368e5788860151825594840194600190910190840161366f565b50858210156136ac5787850151600019600388901b60f8161c191681555b5050505050600190811b01905550565b82815260406020820152600061312c60408301846130bd565b80820180821115610cc057610cc0613587565b8082028115828204841417610cc057610cc0613587565b60008261371c57634e487b7160e01b600052601260045260246000fd5b500490565b81810381811115610cc057610cc0613587565b7f416363657373436f6e74726f6c3a206163636f756e742000000000000000000081526000835161376c816017850160208801613099565b7001034b99036b4b9b9b4b733903937b6329607d1b601791840191820152835161379d816028840160208801613099565b01602801949350505050565b60208152600061165860208301846130bd565b634e487b7160e01b600052602160045260246000fd5b634e487b7160e01b600052603260045260246000fd5b6000816137f7576137f7613587565b50600019019056febf233dd2aafeb4d50879c4aa5c81e96d92f6e6945c906a58f9f2d1c1631b4b2697667070c54ef182b0f5858b034beac1b6f3089aa2d3188bb1e8929f4fa9b929a2646970667358221220f00a161e8ca8e35bae92bca0591b278d027cc287136c5df3c358536848ee5c5964736f6c63430008130033",
  "linkReferences": {},
  "deployedLinkReferences": {}
}