{
  "_format": "hh-sol-artifact-1",
  "contractName": "AtomicSwap",
  "sourceName": "contracts/AtomicSwap.sol",
  "abi": [
    {
      "inputs": [
        {
          "internalType": "uint256",
          "name": "_minSwapAmount",
          "type": "uint256"
        },
        {
          "internalType": "uint256",
          "name": "_maxSwapAmount",
          "type": "uint256"
        },
        {
          "internalType": "uint256",
          "name": "_defaultExpiry",
          "type": "uint256"
        },
        {
          "internalType": "uint256",
          "name": "_swapFee",
          "type": "uint256"
        }
      ],
      "stateMutability": "nonpayable",
      "type": "constructor"
    },
    {
      "anonymous": false,
      "inputs": [
        {
          "indexed": true,
          "internalType": "address",
          "name": "previousOwner",
          "type": "address"
        },
        {
          "indexed": true,
          "internalType": "address",
          "name": "newOwner",
          "type": "address"
        }
      ],
      "name": "OwnershipTransferred",
      "type": "event"
    },
    {
      "anonymous": false,
      "inputs": [
        {
          "indexed": false,
          "internalType": "address",
          "name": "account",
          "type": "address"
        }
      ],
      "name": "Paused",
      "type": "event"
    },
    {
      "anonymous": false,
      "inputs": [
        {
          "indexed": true,
          "internalType": "bytes32",
          "name": "commitment",
          "type": "bytes32"
        },
        {
          "indexed": true,
          "internalType": "address",
          "name": "offerer",
          "type": "address"
        }
      ],
      "name": "SwapCancelled",
      "type": "event"
    },
    {
      "anonymous": false,
      "inputs": [
        {
          "indexed": true,
          "internalType": "bytes32",
          "name": "commitment",
          "type": "bytes32"
        },
        {
          "indexed": false,
          "internalType": "address",
          "name": "offerer",
          "type": "address"
        },
        {
          "indexed": false,
          "internalType": "address",
          "name": "taker",
          "type": "address"
        },
        {
          "indexed": false,
          "internalType": "address",
          "name": "tokenIn",
          "type": "address"
        },
        {
          "indexed": false,
          "internalType": "address",
          "name": "tokenOut",
          "type": "address"
        },
        {
          "indexed": false,
          "internalType": "uint256",
          "name": "amountIn",
          "type": "uint256"
        },
        {
          "indexed": false,
          "internalType": "uint256",
          "name": "amountOut",
          "type": "uint256"
        },
        {
          "indexed": false,
          "internalType": "uint256",
          "name": "timestamp",
          "type": "uint256"
        }
      ],
      "name": "SwapCompleted",
      "type": "event"
    },
    {
      "anonymous": false,
      "inputs": [
        {
          "indexed": true,
          "internalType": "bytes32",
          "name": "commitment",
          "type": "bytes32"
        },
        {
          "indexed": true,
          "internalType": "address",
          "name": "offerer",
          "type": "address"
        },
        {
          "indexed": false,
          "internalType": "address",
          "name": "tokenIn",
          "type": "address"
        },
        {
          "indexed": false,
          "internalType": "address",
          "name": "tokenOut",
          "type": "address"
        },
        {
          "indexed": false,
          "internalType": "uint256",
          "name": "amountIn",
          "type": "uint256"
        },
        {
          "indexed": false,
          "internalType": "uint256",
          "name": "amountOut",
          "type": "uint256"
        },
        {
          "indexed": false,
          "internalType": "uint256",
          "name": "expiry",
          "type": "uint256"
        }
      ],
      "name": "SwapOffered",
      "type": "event"
    },
    {
      "anonymous": false,
      "inputs": [
        {
          "indexed": true,
          "internalType": "bytes32",
          "name": "commitment",
          "type": "bytes32"
        },
        {
          "indexed": true,
          "internalType": "address",
          "name": "taker",
          "type": "address"
        },
        {
          "indexed": true,
          "internalType": "address",
          "name": "offerer",
          "type": "address"
        },
        {
          "indexed": false,
          "internalType": "uint256",
          "name": "amountIn",
          "type": "uint256"
        },
        {
          "indexed": false,
          "internalType": "uint256",
          "name": "amountOut",
          "type": "uint256"
        }
      ],
      "name": "SwapTaken",
      "type": "event"
    },
    {
      "anonymous": false,
      "inputs": [
        {
          "indexed": false,
          "internalType": "address",
          "name": "account",
          "type": "address"
        }
      ],
      "name": "Unpaused",
      "type": "event"
    },
    {
      "inputs": [
        {
          "internalType": "address",
          "name": "tokenIn",
          "type": "address"
        },
        {
          "internalType": "address",
          "name": "tokenOut",
          "type": "address"
        },
        {
          "internalType": "uint256",
          "name": "amountIn",
          "type": "uint256"
        },
        {
          "internalType": "uint256",
          "name": "amountOut",
          "type": "uint256"
        },
        {
          "internalType": "uint256",
          "name": "secretNonce",
          "type": "uint256"
        },
        {
          "internalType": "uint256",
          "name": "nonce",
          "type": "uint256"
        }
      ],
      "name": "calculateCommitment",
      "outputs": [
        {
          "internalType": "bytes32",
          "name": "",
          "type": "bytes32"
        }
      ],
      "stateMutability": "pure",
      "type": "function"
    },
    {
      "inputs": [
        {
          "internalType": "bytes32",
          "name": "commitment",
          "type": "bytes32"
        }
      ],
      "name": "cancelSwapOffer",
      "outputs": [],
      "stateMutability": "nonpayable",
      "type": "function"
    },
    {
      "inputs": [
        {
          "internalType": "bytes32",
          "name": "executionId",
          "type": "bytes32"
        },
        {
          "internalType": "bytes",
          "name": "offererSignature",
          "type": "bytes"
        },
        {
          "internalType": "bytes",
          "name": "takerSignature",
          "type": "bytes"
        }
      ],
      "name": "completeSwap",
      "outputs": [],
      "stateMutability": "nonpayable",
      "type": "function"
    },
    {
      "inputs": [
        {
          "internalType": "address",
          "name": "tokenIn",
          "type": "address"
        },
        {
          "internalType": "address",
          "name": "tokenOut",
          "type": "address"
        },
        {
          "internalType": "uint256",
          "name": "amountIn",
          "type": "uint256"
        },
        {
          "internalType": "uint256",
          "name": "amountOut",
          "type": "uint256"
        },
        {
          "internalType": "uint256",
          "name": "secretNonce",
          "type": "uint256"
        },
        {
          "internalType": "uint256",
          "name": "customExpiry",
          "type": "uint256"
        }
      ],
      "name": "createSwapOffer",
      "outputs": [],
      "stateMutability": "nonpayable",
      "type": "function"
    },
    {
      "inputs": [],
      "name": "defaultExpiry",
      "outputs": [
        {
          "internalType": "uint256",
          "name": "",
          "type": "uint256"
        }
      ],
      "stateMutability": "view",
      "type": "function"
    },
    {
      "inputs": [],
      "name": "emergencyWithdraw",
      "outputs": [],
      "stateMutability": "nonpayable",
      "type": "function"
    },
    {
      "inputs": [],
      "name": "feeCollector",
      "outputs": [
        {
          "internalType": "address",
          "name": "",
          "type": "address"
        }
      ],
      "stateMutability": "view",
      "type": "function"
    },
    {
      "inputs": [],
      "name": "getCurrentNonce",
      "outputs": [
        {
          "internalType": "uint256",
          "name": "",
          "type": "uint256"
        }
      ],
      "stateMutability": "view",
      "type": "function"
    },
    {
      "inputs": [
        {
          "internalType": "bytes32",
          "name": "executionId",
          "type": "bytes32"
        }
      ],
      "name": "getSwapExecution",
      "outputs": [
        {
          "components": [
            {
              "internalType": "address",
              "name": "offerer",
              "type": "address"
            },
            {
              "internalType": "address",
              "name": "taker",
              "type": "address"
            },
            {
              "internalType": "address",
              "name": "tokenIn",
              "type": "address"
            },
            {
              "internalType": "address",
              "name": "tokenOut",
              "type": "address"
            },
            {
              "internalType": "uint256",
              "name": "amountIn",
              "type": "uint256"
            },
            {
              "internalType": "uint256",
              "name": "amountOut",
              "type": "uint256"
            },
            {
              "internalType": "uint256",
              "name": "timestamp",
              "type": "uint256"
            },
            {
              "internalType": "bool",
              "name": "isCompleted",
              "type": "bool"
            }
          ],
          "internalType": "struct AtomicSwap.SwapExecution",
          "name": "",
          "type": "tuple"
        }
      ],
      "stateMutability": "view",
      "type": "function"
    },
    {
      "inputs": [
        {
          "internalType": "bytes32",
          "name": "commitment",
          "type": "bytes32"
        }
      ],
      "name": "getSwapOffer",
      "outputs": [
        {
          "components": [
            {
              "internalType": "address",
              "name": "offerer",
              "type": "address"
            },
            {
              "internalType": "address",
              "name": "tokenIn",
              "type": "address"
            },
            {
              "internalType": "address",
              "name": "tokenOut",
              "type": "address"
            },
            {
              "internalType": "uint256",
              "name": "amountIn",
              "type": "uint256"
            },
            {
              "internalType": "uint256",
              "name": "amountOut",
              "type": "uint256"
            },
            {
              "internalType": "uint256",
              "name": "nonce",
              "type": "uint256"
            },
            {
              "internalType": "uint256",
              "name": "expiry",
              "type": "uint256"
            },
            {
              "internalType": "bool",
              "name": "isActive",
              "type": "bool"
            },
            {
              "internalType": "bytes32",
              "name": "commitment",
              "type": "bytes32"
            }
          ],
          "internalType": "struct AtomicSwap.SwapOffer",
          "name": "",
          "type": "tuple"
        }
      ],
      "stateMutability": "view",
      "type": "function"
    },
    {
      "inputs": [
        {
          "internalType": "bytes32",
          "name": "commitment",
          "type": "bytes32"
        }
      ],
      "name": "isOfferActive",
      "outputs": [
        {
          "internalType": "bool",
          "name": "",
          "type": "bool"
        }
      ],
      "stateMutability": "view",
      "type": "function"
    },
    {
      "inputs": [],
      "name": "maxSwapAmount",
      "outputs": [
        {
          "internalType": "uint256",
          "name": "",
          "type": "uint256"
        }
      ],
      "stateMutability": "view",
      "type": "function"
    },
    {
      "inputs": [],
      "name": "minSwapAmount",
      "outputs": [
        {
          "internalType": "uint256",
          "name": "",
          "type": "uint256"
        }
      ],
      "stateMutability": "view",
      "type": "function"
    },
    {
      "inputs": [],
      "name": "owner",
      "outputs": [
        {
          "internalType": "address",
          "name": "",
          "type": "address"
        }
      ],
      "stateMutability": "view",
      "type": "function"
    },
    {
      "inputs": [],
      "name": "pause",
      "outputs": [],
      "stateMutability": "nonpayable",
      "type": "function"
    },
    {
      "inputs": [],
      "name": "paused",
      "outputs": [
        {
          "internalType": "bool",
          "name": "",
          "type": "bool"
        }
      ],
      "stateMutability": "view",
      "type": "function"
    },
    {
      "inputs": [],
      "name": "renounceOwnership",
      "outputs": [],
      "stateMutability": "nonpayable",
      "type": "function"
    },
    {
      "inputs": [
        {
          "internalType": "uint256",
          "name": "_defaultExpiry",
          "type": "uint256"
        }
      ],
      "name": "setDefaultExpiry",
      "outputs": [],
      "stateMutability": "nonpayable",
      "type": "function"
    },
    {
      "inputs": [
        {
          "internalType": "address",
          "name": "_feeCollector",
          "type": "address"
        }
      ],
      "name": "setFeeCollector",
      "outputs": [],
      "stateMutability": "nonpayable",
      "type": "function"
    },
    {
      "inputs": [
        {
          "internalType": "uint256",
          "name": "_swapFee",
          "type": "uint256"
        }
      ],
      "name": "setSwapFee",
      "outputs": [],
      "stateMutability": "nonpayable",
      "type": "function"
    },
    {
      "inputs": [
        {
          "internalType": "uint256",
          "name": "_minSwapAmount",
          "type": "uint256"
        },
        {
          "internalType": "uint256",
          "name": "_maxSwapAmount",
          "type": "uint256"
        }
      ],
      "name": "setSwapLimits",
      "outputs": [],
      "stateMutability": "nonpayable",
      "type": "function"
    },
    {
      "inputs": [
        {
          "internalType": "bytes32",
          "name": "",
          "type": "bytes32"
        }
      ],
      "name": "swapExecutions",
      "outputs": [
        {
          "internalType": "address",
          "name": "offerer",
          "type": "address"
        },
        {
          "internalType": "address",
          "name": "taker",
          "type": "address"
        },
        {
          "internalType": "address",
          "name": "tokenIn",
          "type": "address"
        },
        {
          "internalType": "address",
          "name": "tokenOut",
          "type": "address"
        },
        {
          "internalType": "uint256",
          "name": "amountIn",
          "type": "uint256"
        },
        {
          "internalType": "uint256",
          "name": "amountOut",
          "type": "uint256"
        },
        {
          "internalType": "uint256",
          "name": "timestamp",
          "type": "uint256"
        },
        {
          "internalType": "bool",
          "name": "isCompleted",
          "type": "bool"
        }
      ],
      "stateMutability": "view",
      "type": "function"
    },
    {
      "inputs": [],
      "name": "swapFee",
      "outputs": [
        {
          "internalType": "uint256",
          "name": "",
          "type": "uint256"
        }
      ],
      "stateMutability": "view",
      "type": "function"
    },
    {
      "inputs": [],
      "name": "swapNonce",
      "outputs": [
        {
          "internalType": "uint256",
          "name": "",
          "type": "uint256"
        }
      ],
      "stateMutability": "view",
      "type": "function"
    },
    {
      "inputs": [
        {
          "internalType": "bytes32",
          "name": "",
          "type": "bytes32"
        }
      ],
      "name": "swapOffers",
      "outputs": [
        {
          "internalType": "address",
          "name": "offerer",
          "type": "address"
        },
        {
          "internalType": "address",
          "name": "tokenIn",
          "type": "address"
        },
        {
          "internalType": "address",
          "name": "tokenOut",
          "type": "address"
        },
        {
          "internalType": "uint256",
          "name": "amountIn",
          "type": "uint256"
        },
        {
          "internalType": "uint256",
          "name": "amountOut",
          "type": "uint256"
        },
        {
          "internalType": "uint256",
          "name": "nonce",
          "type": "uint256"
        },
        {
          "internalType": "uint256",
          "name": "expiry",
          "type": "uint256"
        },
        {
          "internalType": "bool",
          "name": "isActive",
          "type": "bool"
        },
        {
          "internalType": "bytes32",
          "name": "commitment",
          "type": "bytes32"
        }
      ],
      "stateMutability": "view",
      "type": "function"
    },
    {
      "inputs": [
        {
          "internalType": "bytes32",
          "name": "commitment",
          "type": "bytes32"
        },
        {
          "internalType": "uint256",
          "name": "secretNonce",
          "type": "uint256"
        }
      ],
      "name": "takeSwapOffer",
      "outputs": [],
      "stateMutability": "nonpayable",
      "type": "function"
    },
    {
      "inputs": [
        {
          "internalType": "address",
          "name": "newOwner",
          "type": "address"
        }
      ],
      "name": "transferOwnership",
      "outputs": [],
      "stateMutability": "nonpayable",
      "type": "function"
    },
    {
      "inputs": [],
      "name": "unpause",
      "outputs": [],
      "stateMutability": "nonpayable",
      "type": "function"
    },
    {
      "stateMutability": "payable",
      "type": "receive"
    }
  ],
  "bytecode": "0x60806040523480156200001157600080fd5b506040516200216f3803806200216f8339810160408190526200003491620000d2565b60016000819055805460ff191690556200004e3362000078565b600593909355600691909155600755600955600880546001600160a01b0319163317905562000109565b600180546001600160a01b03838116610100818102610100600160a81b031985161790945560405193909204169182907f8be0079c531659141344cd1fd0a4f28419497f9722a3daafe3b4186f6b6457e090600090a35050565b60008060008060808587031215620000e957600080fd5b505082516020840151604085015160609095015191969095509092509050565b61205680620001196000396000f3fe6080604052600436106101bb5760003560e01c80638da5cb5b116100ec578063c415b95c1161008a578063db2e21bc11610064578063db2e21bc146105f0578063dbcf79dc14610605578063f2fde38b14610754578063fc8400cf1461077457600080fd5b8063c415b95c1461059a578063c77eca20146105ba578063cce987d4146105da57600080fd5b8063940cc475116100c6578063940cc4751461051a57806399643fb61461053a578063a42dce801461055a578063a941e8d61461057a57600080fd5b80638da5cb5b146103f35780638f015f6c1461042a57806390683401146104fa57600080fd5b806354cf2aeb11610159578063715018a611610133578063715018a61461039357806377b16f9e146103a85780638456cb59146103c85780638cfb3088146103dd57600080fd5b806354cf2aeb146103355780635c4c461e1461034b5780635c975abb1461037b57600080fd5b80633b085b1e116101955780633b085b1e146102275780633f4ba83a146102475780634eb3085b1461025c57806353f74a7e1461031f57600080fd5b8063338246e2146101c757806334e19907146101f05780633a60c3861461021257600080fd5b366101c257005b600080fd5b3480156101d357600080fd5b506101dd60055481565b6040519081526020015b60405180910390f35b3480156101fc57600080fd5b5061021061020b366004611ceb565b610872565b005b34801561021e57600080fd5b506004546101dd565b34801561023357600080fd5b50610210610242366004611d04565b6108c5565b34801561025357600080fd5b50610210610d6f565b34801561026857600080fd5b506102d0610277366004611ceb565b6003602081905260009182526040909120805460018201546002830154938301546004840154600585015460068601546007909601546001600160a01b0395861697948616969486169590931693919290919060ff1688565b604080516001600160a01b03998a168152978916602089015295881695870195909552959092166060850152608084015260a083015260c082019290925290151560e0820152610100016101e7565b34801561032b57600080fd5b506101dd60045481565b34801561034157600080fd5b506101dd60095481565b34801561035757600080fd5b5061036b610366366004611ceb565b610d81565b60405190151581526020016101e7565b34801561038757600080fd5b5060015460ff1661036b565b34801561039f57600080fd5b50610210610dae565b3480156103b457600080fd5b506102106103c3366004611d42565b610dc0565b3480156103d457600080fd5b5061021061115f565b3480156103e957600080fd5b506101dd60075481565b3480156103ff57600080fd5b5060015461010090046001600160a01b03165b6040516001600160a01b0390911681526020016101e7565b34801561043657600080fd5b506104a3610445366004611ceb565b60026020819052600091825260409091208054600182015492820154600383015460048401546005850154600686015460078701546008909701546001600160a01b03968716988716979690951695939492939192909160ff169089565b604080516001600160a01b039a8b168152988a1660208a015296909816958701959095526060860193909352608085019190915260a084015260c0830152151560e0820152610100810191909152610120016101e7565b34801561050657600080fd5b50610210610515366004611ceb565b61116f565b34801561052657600080fd5b50610210610535366004611d04565b611317565b34801561054657600080fd5b506101dd610555366004611d42565b61136a565b34801561056657600080fd5b50610210610575366004611d97565b6113a9565b34801561058657600080fd5b50610210610595366004611ceb565b61141b565b3480156105a657600080fd5b50600854610412906001600160a01b031681565b3480156105c657600080fd5b506102106105d5366004611e55565b611469565b3480156105e657600080fd5b506101dd60065481565b3480156105fc57600080fd5b50610210611782565b34801561061157600080fd5b506106e1610620366004611ceb565b6040805161010081018252600080825260208201819052918101829052606081018290526080810182905260a0810182905260c0810182905260e08101919091525060009081526003602081815260409283902083516101008101855281546001600160a01b039081168252600183015481169382019390935260028201548316948101949094529182015416606083015260048101546080830152600581015460a0830152600681015460c08301526007015460ff16151560e082015290565b6040516101e7919060006101008201905060018060a01b03808451168352806020850151166020840152806040850151166040840152806060850151166060840152506080830151608083015260a083015160a083015260c083015160c083015260e0830151151560e083015292915050565b34801561076057600080fd5b5061021061076f366004611d97565b6117cd565b34801561078057600080fd5b5061086561078f366004611ceb565b6040805161012081018252600080825260208201819052918101829052606081018290526080810182905260a0810182905260c0810182905260e081018290526101008101919091525060009081526002602081815260409283902083516101208101855281546001600160a01b039081168252600183015481169382019390935292810154909116928201929092526003820154606082015260048201546080820152600582015460a0820152600682015460c0820152600782015460ff16151560e082015260089091015461010082015290565b6040516101e79190611ec2565b61087a611843565b6103e88111156108c05760405162461bcd60e51b815260206004820152600c60248201526b08ccaca40e8dede40d0d2ced60a31b60448201526064015b60405180910390fd5b600955565b60008281526002602052604090205482906001600160a01b03166109225760405162461bcd60e51b815260206004820152601460248201527313d999995c88191bd95cc81b9bdd08195e1a5cdd60621b60448201526064016108b7565b60008181526002602052604090206007015460ff166109765760405162461bcd60e51b815260206004820152601060248201526f4f66666572206e6f742061637469766560801b60448201526064016108b7565b6000818152600260205260409020600601544211156109c75760405162461bcd60e51b815260206004820152600d60248201526c13d999995c88195e1c1a5c9959609a1b60448201526064016108b7565b6109cf6118a3565b600083815260026020526040902080546001600160a01b03163303610a2e5760405162461bcd60e51b815260206004820152601560248201527421b0b73737ba103a30b5b29037bbb71037b33332b960591b60448201526064016108b7565b60018101546002820154600383015460048401546005850154604051600095610a6f956001600160a01b0391821695911693909290918a9190602001611f3c565b604051602081830303815290604052805190602001209050808514610acb5760405162461bcd60e51b8152602060048201526012602482015271125b9d985b1a590818dbdb5b5a5d1b595b9d60721b60448201526064016108b7565b60408051602081018790526bffffffffffffffffffffffff193360601b16918101919091524260548201526000906074016040516020818303038152906040528051906020012090506040518061010001604052808460000160009054906101000a90046001600160a01b03166001600160a01b03168152602001336001600160a01b031681526020018460010160009054906101000a90046001600160a01b03166001600160a01b031681526020018460020160009054906101000a90046001600160a01b03166001600160a01b031681526020018460030154815260200184600401548152602001428152602001600015158152506003600083815260200190815260200160002060008201518160000160006101000a8154816001600160a01b0302191690836001600160a01b0316021790555060208201518160010160006101000a8154816001600160a01b0302191690836001600160a01b0316021790555060408201518160020160006101000a8154816001600160a01b0302191690836001600160a01b0316021790555060608201518160030160006101000a8154816001600160a01b0302191690836001600160a01b031602179055506080820151816004015560a0820151816005015560c0820151816006015560e08201518160070160006101000a81548160ff02191690831515021790555090505060008360070160006101000a81548160ff0219169083151502179055508260000160009054906101000a90046001600160a01b03166001600160a01b0316336001600160a01b0316877f33003dd1694b78bffb03fa3c4c4ed5bd9c2103d954e97f1107168905b2f1097986600301548760040154604051610d55929190918252602082015260400190565b60405180910390a4505050610d6a6001600055565b505050565b610d77611843565b610d7f6118fc565b565b6000818152600260205260408120600781015460ff168015610da7575080600601544211155b9392505050565b610db6611843565b610d7f600061194e565b610dc86119a8565b846001600160a01b0316866001600160a01b031603610e165760405162461bcd60e51b815260206004820152600a60248201526929b0b6b2903a37b5b2b760b11b60448201526064016108b7565b600554841015610e5b5760405162461bcd60e51b815260206004820152601060248201526f105b5bdd5b9d081d1bdbc81cdb585b1b60821b60448201526064016108b7565b600654841115610ea05760405162461bcd60e51b815260206004820152601060248201526f416d6f756e7420746f6f206c6172676560801b60448201526064016108b7565b60008311610ee85760405162461bcd60e51b8152602060048201526015602482015274125b9d985b1a59081bdd5d1c1d5d08185b5bdd5b9d605a1b60448201526064016108b7565b6000808211610f0357600754610efe9042611f92565b610f05565b815b9050428111610f475760405162461bcd60e51b815260206004820152600e60248201526d496e76616c69642065787069727960901b60448201526064016108b7565b60008787878787600454604051602001610f6696959493929190611f3c565b60408051601f198184030181529181528151602092830120600081815260029093529120549091506001600160a01b031615610fe45760405162461bcd60e51b815260206004820152601960248201527f436f6d6d69746d656e7420616c7265616479206578697374730000000000000060448201526064016108b7565b604051806101200160405280336001600160a01b03168152602001896001600160a01b03168152602001886001600160a01b031681526020018781526020018681526020016004600081548092919061103c90611fa5565b90915550815260208082018590526001604080840182905260609384018690526000868152600280855290829020865181546001600160a01b03199081166001600160a01b0392831617835588870151958301805482169683169690961790955587840151928201805490951692811692909217909355858501516003840155608080870151600485015560a080880151600586015560c0880151600686015560e088015160078601805460ff19169115159190911790556101009097015160089094019390935581518e82168152908d169381019390935282018a9052918101889052908101849052339183917f55b855aa603da3a04afd8da99c897420660be230a68c0614ce55a14a922fa3da910160405180910390a35050505050505050565b611167611843565b610d7f6119ee565b60008181526002602052604090205481906001600160a01b03166111cc5760405162461bcd60e51b815260206004820152601460248201527313d999995c88191bd95cc81b9bdd08195e1a5cdd60621b60448201526064016108b7565b60008181526002602052604090206007015460ff166112205760405162461bcd60e51b815260206004820152601060248201526f4f66666572206e6f742061637469766560801b60448201526064016108b7565b6000818152600260205260409020600601544211156112715760405162461bcd60e51b815260206004820152600d60248201526c13d999995c88195e1c1a5c9959609a1b60448201526064016108b7565b60008281526002602052604090205482906001600160a01b031633146112cb5760405162461bcd60e51b815260206004820152600f60248201526e2737ba1037b33332b91037bbb732b960891b60448201526064016108b7565b60008381526002602052604080822060078101805460ff1916905590519091339186917fd7aaa11477f44f7f00ac9dfc4615d28d5db3607254234c569f459afa01ca1a8791a350505050565b61131f611843565b80821061135f5760405162461bcd60e51b815260206004820152600e60248201526d496e76616c6964206c696d69747360901b60448201526064016108b7565b600591909155600655565b600086868686868660405160200161138796959493929190611f3c565b6040516020818303038152906040528051906020012090509695505050505050565b6113b1611843565b6001600160a01b0381166113f95760405162461bcd60e51b815260206004820152600f60248201526e496e76616c6964206164647265737360881b60448201526064016108b7565b600880546001600160a01b0319166001600160a01b0392909216919091179055565b611423611843565b600081116114645760405162461bcd60e51b815260206004820152600e60248201526d496e76616c69642065787069727960901b60448201526064016108b7565b600755565b600083815260036020526040902080546001600160a01b03166114ce5760405162461bcd60e51b815260206004820152601860248201527f457865637574696f6e20646f6573206e6f74206578697374000000000000000060448201526064016108b7565b600781015460ff161561151c5760405162461bcd60e51b815260206004820152601660248201527514ddd85c08185b1c9958591e4818dbdb5c1b195d195960521b60448201526064016108b7565b6004810154600582015460068301546040805160208101899052908101939093526060830191909152608082015260009060a00160405160208183030381529060405280519060200120905060006115ab856115a5847f19457468657265756d205369676e6564204d6573736167653a0a3332000000006000908152601c91909152603c902090565b90611a29565b905060006115ea856115a5857f19457468657265756d205369676e6564204d6573736167653a0a3332000000006000908152601c91909152603c902090565b84549091506001600160a01b038381169116146116495760405162461bcd60e51b815260206004820152601960248201527f496e76616c6964206f666665726572207369676e61747572650000000000000060448201526064016108b7565b60018401546001600160a01b038281169116146116a85760405162461bcd60e51b815260206004820152601760248201527f496e76616c69642074616b6572207369676e617475726500000000000000000060448201526064016108b7565b600061271060095486600401546116bf9190611fbe565b6116c99190611fd5565b905060008186600401546116dd9190611ff7565b600787018054600160ff199091168117909155875490880154600289015460038a015460048b015460058c0154604080516001600160a01b039788168152958716602087015293861685850152949091166060840152608083015260a08201929092524260c082015290519192508a917f16f493249a3d5be79dbd9959e3cf167e6e3cc8be9cac7ca69c9642aed08cd8909181900360e00190a2505050505050505050565b61178a611843565b6001546040516001600160a01b0361010090920491909116904780156108fc02916000818181858888f193505050501580156117ca573d6000803e3d6000fd5b50565b6117d5611843565b6001600160a01b03811661183a5760405162461bcd60e51b815260206004820152602660248201527f4f776e61626c653a206e6577206f776e657220697320746865207a65726f206160448201526564647265737360d01b60648201526084016108b7565b6117ca8161194e565b6001546001600160a01b03610100909104163314610d7f5760405162461bcd60e51b815260206004820181905260248201527f4f776e61626c653a2063616c6c6572206973206e6f7420746865206f776e657260448201526064016108b7565b6002600054036118f55760405162461bcd60e51b815260206004820152601f60248201527f5265656e7472616e637947756172643a207265656e7472616e742063616c6c0060448201526064016108b7565b6002600055565b611904611a4f565b6001805460ff191690557f5db9ee0a495bf2e6ff9c91a7834c1ba4fdd244a5e8aa4e537bd38aeae4b073aa335b6040516001600160a01b03909116815260200160405180910390a1565b600180546001600160a01b03838116610100818102610100600160a81b031985161790945560405193909204169182907f8be0079c531659141344cd1fd0a4f28419497f9722a3daafe3b4186f6b6457e090600090a35050565b60015460ff1615610d7f5760405162461bcd60e51b815260206004820152601060248201526f14185d5cd8589b194e881c185d5cd95960821b60448201526064016108b7565b6119f66119a8565b6001805460ff1916811790557f62e78cea01bee320cd4e420270b5ea74000d11b0c9f74754ebdbfc544b05a25833611931565b6000806000611a388585611a98565b91509150611a4581611add565b5090505b92915050565b60015460ff16610d7f5760405162461bcd60e51b815260206004820152601460248201527314185d5cd8589b194e881b9bdd081c185d5cd95960621b60448201526064016108b7565b6000808251604103611ace5760208301516040840151606085015160001a611ac287828585611c27565b94509450505050611ad6565b506000905060025b9250929050565b6000816004811115611af157611af161200a565b03611af95750565b6001816004811115611b0d57611b0d61200a565b03611b5a5760405162461bcd60e51b815260206004820152601860248201527f45434453413a20696e76616c6964207369676e6174757265000000000000000060448201526064016108b7565b6002816004811115611b6e57611b6e61200a565b03611bbb5760405162461bcd60e51b815260206004820152601f60248201527f45434453413a20696e76616c6964207369676e6174757265206c656e6774680060448201526064016108b7565b6003816004811115611bcf57611bcf61200a565b036117ca5760405162461bcd60e51b815260206004820152602260248201527f45434453413a20696e76616c6964207369676e6174757265202773272076616c604482015261756560f01b60648201526084016108b7565b6000807f7fffffffffffffffffffffffffffffff5d576e7357a4501ddfe92f46681b20a0831115611c5e5750600090506003611ce2565b6040805160008082526020820180845289905260ff881692820192909252606081018690526080810185905260019060a0016020604051602081039080840390855afa158015611cb2573d6000803e3d6000fd5b5050604051601f1901519150506001600160a01b038116611cdb57600060019250925050611ce2565b9150600090505b94509492505050565b600060208284031215611cfd57600080fd5b5035919050565b60008060408385031215611d1757600080fd5b50508035926020909101359150565b80356001600160a01b0381168114611d3d57600080fd5b919050565b60008060008060008060c08789031215611d5b57600080fd5b611d6487611d26565b9550611d7260208801611d26565b95989597505050506040840135936060810135936080820135935060a0909101359150565b600060208284031215611da957600080fd5b610da782611d26565b634e487b7160e01b600052604160045260246000fd5b600082601f830112611dd957600080fd5b813567ffffffffffffffff80821115611df457611df4611db2565b604051601f8301601f19908116603f01168101908282118183101715611e1c57611e1c611db2565b81604052838152866020858801011115611e3557600080fd5b836020870160208301376000602085830101528094505050505092915050565b600080600060608486031215611e6a57600080fd5b83359250602084013567ffffffffffffffff80821115611e8957600080fd5b611e9587838801611dc8565b93506040860135915080821115611eab57600080fd5b50611eb886828701611dc8565b9150509250925092565b81516001600160a01b0390811682526020808401518216908301526040808401519182169083015261012082019050606083015160608301526080830151608083015260a083015160a083015260c083015160c083015260e0830151611f2c60e084018215159052565b5061010092830151919092015290565b6bffffffffffffffffffffffff19606097881b811682529590961b9094166014860152602885019290925260488401526068830152608882015260a80190565b634e487b7160e01b600052601160045260246000fd5b80820180821115611a4957611a49611f7c565b600060018201611fb757611fb7611f7c565b5060010190565b8082028115828204841417611a4957611a49611f7c565b600082611ff257634e487b7160e01b600052601260045260246000fd5b500490565b81810381811115611a4957611a49611f7c565b634e487b7160e01b600052602160045260246000fdfea26469706673582212205a73357589219eb736aa563b845cac47915d97023899dab3f75e23522401446564736f6c63430008130033",
  "linkReferences": {},
  "deployedLinkReferences": {}
}